{
  "contractName": "AuthorPool",
  "abi": [
    {
      "constant": true,
      "inputs": [],
      "name": "createTime",
      "outputs": [
        {
          "name": "",
          "type": "uint256"
        }
      ],
      "payable": false,
      "stateMutability": "view",
      "type": "function"
    },
    {
      "constant": false,
      "inputs": [],
      "name": "renounceOwnership",
      "outputs": [],
      "payable": false,
      "stateMutability": "nonpayable",
      "type": "function"
    },
    {
      "constant": true,
      "inputs": [],
      "name": "owner",
      "outputs": [
        {
          "name": "",
          "type": "address"
        }
      ],
      "payable": false,
      "stateMutability": "view",
      "type": "function"
    },
    {
      "constant": false,
      "inputs": [
        {
          "name": "_newOwner",
          "type": "address"
        }
      ],
      "name": "transferOwnership",
      "outputs": [],
      "payable": false,
      "stateMutability": "nonpayable",
      "type": "function"
    },
    {
      "anonymous": false,
      "inputs": [
        {
          "indexed": false,
          "name": "timestamp",
          "type": "uint256"
        },
        {
          "indexed": false,
          "name": "token",
          "type": "address"
        }
      ],
      "name": "_InitializeAuthorPool",
      "type": "event"
    },
    {
      "anonymous": false,
      "inputs": [
        {
          "indexed": true,
          "name": "docId",
          "type": "bytes32"
        },
        {
          "indexed": false,
          "name": "timestamp",
          "type": "uint256"
        },
        {
          "indexed": true,
          "name": "applicant",
          "type": "address"
        },
        {
          "indexed": false,
          "name": "count",
          "type": "uint256"
        }
      ],
      "name": "_RegisterNewUserDocument",
      "type": "event"
    },
    {
      "anonymous": false,
      "inputs": [
        {
          "indexed": true,
          "name": "applicant",
          "type": "address"
        },
        {
          "indexed": false,
          "name": "idx",
          "type": "uint256"
        },
        {
          "indexed": false,
          "name": "withdraw",
          "type": "uint256"
        },
        {
          "indexed": false,
          "name": "timestamp",
          "type": "uint256"
        }
      ],
      "name": "_Withdraw",
      "type": "event"
    },
    {
      "anonymous": false,
      "inputs": [
        {
          "indexed": true,
          "name": "previousOwner",
          "type": "address"
        }
      ],
      "name": "OwnershipRenounced",
      "type": "event"
    },
    {
      "anonymous": false,
      "inputs": [
        {
          "indexed": true,
          "name": "previousOwner",
          "type": "address"
        },
        {
          "indexed": true,
          "name": "newOwner",
          "type": "address"
        }
      ],
      "name": "OwnershipTransferred",
      "type": "event"
    },
    {
      "constant": false,
      "inputs": [
        {
          "name": "_token",
          "type": "address"
        },
        {
          "name": "_utility",
          "type": "address"
        }
      ],
      "name": "init",
      "outputs": [],
      "payable": false,
      "stateMutability": "nonpayable",
      "type": "function"
    },
    {
      "constant": true,
      "inputs": [],
      "name": "getAuthors",
      "outputs": [
        {
          "name": "",
          "type": "address[]"
        }
      ],
      "payable": false,
      "stateMutability": "view",
      "type": "function"
    },
    {
      "constant": false,
      "inputs": [
        {
          "name": "_docId",
          "type": "bytes32"
        },
        {
          "name": "_author",
          "type": "address"
        }
      ],
      "name": "registerUserDocument",
      "outputs": [],
      "payable": false,
      "stateMutability": "nonpayable",
      "type": "function"
    },
    {
      "constant": false,
      "inputs": [
        {
          "name": "_docId",
          "type": "bytes32"
        },
        {
          "name": "_author",
          "type": "address"
        },
        {
          "name": "_timestamp",
          "type": "uint256"
        }
      ],
      "name": "updateUserDocument",
      "outputs": [],
      "payable": false,
      "stateMutability": "nonpayable",
      "type": "function"
    },
    {
      "constant": true,
      "inputs": [
        {
          "name": "_addr",
          "type": "address"
        },
        {
          "name": "_docId",
          "type": "bytes32"
        }
      ],
      "name": "containsUserDocument",
      "outputs": [
        {
          "name": "",
          "type": "bool"
        }
      ],
      "payable": false,
      "stateMutability": "view",
      "type": "function"
    },
    {
      "constant": true,
      "inputs": [
        {
          "name": "_addr",
          "type": "address"
        },
        {
          "name": "_docId",
          "type": "bytes32"
        }
      ],
      "name": "getUserDocumentIndex",
      "outputs": [
        {
          "name": "",
          "type": "int256"
        }
      ],
      "payable": false,
      "stateMutability": "view",
      "type": "function"
    },
    {
      "constant": true,
      "inputs": [
        {
          "name": "_addr",
          "type": "address"
        },
        {
          "name": "_idx",
          "type": "uint256"
        }
      ],
      "name": "getUserDocumentListedDate",
      "outputs": [
        {
          "name": "",
          "type": "uint256"
        }
      ],
      "payable": false,
      "stateMutability": "view",
      "type": "function"
    },
    {
      "constant": true,
      "inputs": [
        {
          "name": "_addr",
          "type": "address"
        },
        {
          "name": "_idx",
          "type": "uint256"
        }
      ],
      "name": "getUserDocumentLastClaimedDate",
      "outputs": [
        {
          "name": "",
          "type": "uint256"
        }
      ],
      "payable": false,
      "stateMutability": "view",
      "type": "function"
    },
    {
      "constant": true,
      "inputs": [
        {
          "name": "_addr",
          "type": "address"
        },
        {
          "name": "_docId",
          "type": "bytes32"
        }
      ],
      "name": "getUserDocumentWithdraw",
      "outputs": [
        {
          "name": "",
          "type": "uint256"
        }
      ],
      "payable": false,
      "stateMutability": "view",
      "type": "function"
    },
    {
      "constant": false,
      "inputs": [
        {
          "name": "_author",
          "type": "address"
        },
        {
          "name": "_idx",
          "type": "uint256"
        },
        {
          "name": "_withdraw",
          "type": "uint256"
        },
        {
          "name": "_dateMillis",
          "type": "uint256"
        }
      ],
      "name": "withdraw",
      "outputs": [],
      "payable": false,
      "stateMutability": "nonpayable",
      "type": "function"
    },
    {
      "constant": true,
      "inputs": [
        {
          "name": "_pv",
          "type": "uint256"
        },
        {
          "name": "_tpv",
          "type": "uint256"
        },
        {
          "name": "_dateMillis",
          "type": "uint256"
        }
      ],
      "name": "determineReward",
      "outputs": [
        {
          "name": "",
          "type": "uint256"
        }
      ],
      "payable": false,
      "stateMutability": "view",
      "type": "function"
    }
  ],
  "bytecode": "0x608060405260008054600160a060020a03191633179055610d9d806100256000396000f3006080604052600436106100da5763ffffffff7c01000000000000000000000000000000000000000000000000000000006000350416634532d77681146100df57806361dcd7ab1461010b578063715018a6146101325780637fc622f41461014757806385b08ade146101ac5780638da5cb5b146101d057806394e6f5b914610201578063be44d6f914610239578063bfb2290d1461025d578063c728047314610281578063cece1c89146102a5578063e41b28aa146102c9578063f09a4016146102e7578063f2fde38b1461030e578063fc2ce2af1461032f575b600080fd5b3480156100eb57600080fd5b50610109600160a060020a0360043516602435604435606435610356565b005b34801561011757600080fd5b50610120610442565b60408051918252519081900360200190f35b34801561013e57600080fd5b50610109610448565b34801561015357600080fd5b5061015c6104b4565b60408051602080825283518183015283519192839290830191858101910280838360005b83811015610198578181015183820152602001610180565b505050509050019250505060405180910390f35b3480156101b857600080fd5b50610120600160a060020a0360043516602435610516565b3480156101dc57600080fd5b506101e5610554565b60408051600160a060020a039092168252519081900360200190f35b34801561020d57600080fd5b50610225600160a060020a0360043516602435610563565b604080519115158252519081900360200190f35b34801561024557600080fd5b50610109600435600160a060020a0360243516610579565b34801561026957600080fd5b50610120600160a060020a036004351660243561076f565b34801561028d57600080fd5b50610120600160a060020a0360043516602435610782565b3480156102b157600080fd5b50610120600160a060020a03600435166024356107c0565b3480156102d557600080fd5b50610120600435602435604435610821565b3480156102f357600080fd5b50610109600160a060020a03600435811690602435166108f2565b34801561031a57600080fd5b50610109600160a060020a0360043516610a66565b34801561033b57600080fd5b50610109600435600160a060020a0360243516604435610a89565b600054600160a060020a0316331461036d57600080fd5b600160a060020a038416600090815260016020526040902080548391908590811061039457fe5b600091825260208083206003600490930201919091018054909301909255600160a060020a03861681526001909152604090208054829190859081106103d657fe5b90600052602060002090600402016002018190555083600160a060020a03167f6fab90e68f43fc04bb30846593e93630212ada391f0769d93b6480aadf45a39884848460405180848152602001838152602001828152602001935050505060405180910390a250505050565b60055481565b600054600160a060020a0316331461045f57600080fd5b60008054604051600160a060020a03909116917ff8df31144d9c2f0f6b59d69b8b98abd5459d07f2742c4df920b25aae33c6482091a26000805473ffffffffffffffffffffffffffffffffffffffff19169055565b6060600280548060200260200160405190810160405280929190818152602001828054801561050c57602002820191906000526020600020905b8154600160a060020a031681526001909101906020018083116104ee575b5050505050905090565b600160a060020a038216600090815260016020526040812080548390811061053a57fe5b906000526020600020906004020160010154905092915050565b600054600160a060020a031681565b6000806105708385610c7f565b12159392505050565b600080548190600160a060020a0316331461059357600080fd5b600061059f8585610c7f565b126105a957600080fd5b600360009054906101000a9004600160a060020a0316600160a060020a0316637ff8b20e6040518163ffffffff167c0100000000000000000000000000000000000000000000000000000000028152600401602060405180830381600087803b15801561061557600080fd5b505af1158015610629573d6000803e3d6000fd5b505050506040513d602081101561063f57600080fd5b5051600160a060020a03841660009081526001602052604090205490925015156106bc57600280546001810182556000919091527f405787fa12a823e0f2b7631cc41b3ba8828b3321ca811111fa75cd3aa3bb5ace01805473ffffffffffffffffffffffffffffffffffffffff1916600160a060020a0385161790555b50600160a060020a03821660008181526001602081815260408084208151608081018352898152808401888152818401878152606083018881528454808901808755958a5298879020935160049099029093019788559051958701959095559351600286015592516003909401939093558251858152908101829052825191939287927f314acf3bcc521b16f4ef5e9f84f5b543c65c96e1149dd279da6c5ba2cf6168659281900390910190a350505050565b600061077b8284610c7f565b9392505050565b600160a060020a03821660009081526001602052604081208054839081106107a657fe5b906000526020600020906004020160020154905092915050565b6000806107cd8385610c7f565b905060008112156107e1576000915061081a565b600160a060020a038416600090815260016020526040902080548290811061080557fe5b90600052602060002090600402016003015491505b5092915050565b60008083158061082f575084155b1561083d57600091506108ea565b600354604080517fdcb8e50600000000000000000000000000000000000000000000000000000000815260466004820152602481018690529051600160a060020a039092169163dcb8e506916044808201926020929091908290030181600087803b1580156108ab57600080fd5b505af11580156108bf573d6000803e3d6000fd5b505050506040513d60208110156108d557600080fd5b5051905083818115156108e457fe5b04850291505b509392505050565b600054600160a060020a0316331461090957600080fd5b600160a060020a0382161580159061092a5750600454600160a060020a0316155b151561093557600080fd5b600160a060020a038116158015906109565750600354600160a060020a0316155b151561096157600080fd5b60048054600160a060020a0380851673ffffffffffffffffffffffffffffffffffffffff199283161783556003805485831693169290921791829055604080517fc03812220000000000000000000000000000000000000000000000000000000081529051929091169263c03812229282820192602092908290030181600087803b1580156109ef57600080fd5b505af1158015610a03573d6000803e3d6000fd5b505050506040513d6020811015610a1957600080fd5b5051600581905560408051918252600160a060020a038416602083015280517f1bfd181e34d7e862e2d958a2a729ca8b993d2afd39bb61a2e8a6f944bebcbf5f9281900390910190a15050565b600054600160a060020a03163314610a7d57600080fd5b610a8681610cf4565b50565b600080548190600160a060020a03163314610aa357600080fd5b600160a060020a0384166000908152600160205260409020541515610b1b57600280546001810182556000919091527f405787fa12a823e0f2b7631cc41b3ba8828b3321ca811111fa75cd3aa3bb5ace01805473ffffffffffffffffffffffffffffffffffffffff1916600160a060020a0386161790555b600091505b600160a060020a038416600090815260016020526040902054821015610bca57600160a060020a0384166000908152600160205260409020805486919084908110610b6757fe5b60009182526020909120600490910201541415610bbf57600160a060020a0384166000908152600160205260409020805484919084908110610ba557fe5b906000526020600020906004020160010181905550610c78565b600190910190610b20565b50600160a060020a038316600081815260016020818152604080842081516080810183528a8152808401898152818401878152606083018881528454808901808755958a5298879020935160049099029093019788559051958701959095559351600286015592516003909401939093558251868152908101829052825191939288927f314acf3bcc521b16f4ef5e9f84f5b543c65c96e1149dd279da6c5ba2cf6168659281900390910190a35b5050505050565b600160a060020a038116600090815260016020526040812080548290811015610ce6575060005b8154811015610ce65781548590839083908110610cbf57fe5b60009182526020909120600490910201541415610cde57809250610cec565b600101610ca6565b60001992505b505092915050565b600160a060020a0381161515610d0957600080fd5b60008054604051600160a060020a03808516939216917f8be0079c531659141344cd1fd0a4f28419497f9722a3daafe3b4186f6b6457e091a36000805473ffffffffffffffffffffffffffffffffffffffff1916600160a060020a03929092169190911790555600a165627a7a72305820e8efc4e873d6437e68dd2816f3245b9db585a853fca5e2901a1915099d15c0900029",
  "source": "pragma solidity ^0.4.24;\n\nimport \"./Deck.sol\";\nimport \"./Utility.sol\";\nimport \"openzeppelin-solidity/contracts/ownership/Ownable.sol\";\n\ncontract AuthorPool is Ownable {\n\n  event _InitializeAuthorPool(uint timestamp, address token);\n  event _RegisterNewUserDocument(bytes32 indexed docId, uint timestamp, address indexed applicant, uint count);\n  event _Withdraw(address indexed applicant, uint idx, uint withdraw, uint timestamp);\n\n  struct Asset {\n    bytes32 docId;\n    uint listedDate;\n    uint lastClaimedDate;\n    uint withdraw;\n  }\n\n  // maps address to the user's asset data\n  mapping (address => Asset[]) internal map;\n\n  // key list for iteration\n  address[] private keys;\n\n  // private variables\n  Utility private util;\n  Deck private token;\n\n  // public variables\n  uint public createTime;\n\n  function init(address _token, address _utility) public\n    onlyOwner()\n  {\n\n    require(_token != 0 && address(token) == 0);\n    require(_utility != 0 && address(util) == 0);\n\n    token = Deck(_token);\n    util = Utility(_utility);\n\n    createTime = util.getTimeMillis();\n    emit _InitializeAuthorPool(createTime, _token);\n  }\n\n  // -------------------------------\n  // For iteration\n  // -------------------------------\n\n  // author list for iteration\n  function getAuthors() public view returns (address[]) {\n    return keys;\n  }\n\n  // -------------------------------\n  // User Document Functions\n  // -------------------------------\n\n  // register a new document\n  function registerUserDocument(bytes32 _docId, address _author) public\n    onlyOwner()\n  {\n    require(getIndex(_docId, _author) < 0);\n\n    // adding to document registry\n    uint tMillis = util.getDateMillis();\n    if (map[_author].length == 0){\n      keys.push(_author);\n    }\n    uint index = map[_author].push(Asset(_docId, tMillis, 0, 0));\n\n    emit _RegisterNewUserDocument(_docId, tMillis, _author, index);\n  }\n\n  function updateUserDocument(bytes32 _docId, address _author, uint _timestamp) public\n    onlyOwner()\n  {\n    if (map[_author].length == 0){\n      keys.push(_author);\n    }\n    for (uint i=0; i<map[_author].length; i++) {\n      if (map[_author][i].docId == _docId) {\n        map[_author][i].listedDate = _timestamp;\n        return;\n      }\n    }\n    uint index = map[_author].push(Asset(_docId, _timestamp, 0, 0));\n\n    emit _RegisterNewUserDocument(_docId, _timestamp, _author, index);\n  }\n\n  function containsUserDocument(address _addr, bytes32 _docId) public view returns (bool) {\n    return getIndex(_docId, _addr) >= 0;\n  }\n\n  function getUserDocumentIndex(address _addr, bytes32 _docId) public view returns (int) {\n    return getIndex(_docId, _addr);\n  }\n\n  function getUserDocumentListedDate(address _addr, uint _idx) public view returns (uint) {\n    return map[_addr][_idx].listedDate;\n  }\n\n  function getUserDocumentLastClaimedDate(address _addr, uint _idx) public view returns (uint) {\n    return map[_addr][_idx].lastClaimedDate;\n  }\n\n  function getUserDocumentWithdraw(address _addr, bytes32 _docId) public view returns (uint) {\n    int idx = getIndex(_docId, _addr);\n    if (idx < 0) {\n      return 0;\n    }\n    return map[_addr][uint(idx)].withdraw;\n  }\n\n  function withdraw(address _author, uint _idx, uint _withdraw, uint _dateMillis) public\n    onlyOwner()\n  {\n    map[_author][_idx].withdraw += _withdraw;\n    map[_author][_idx].lastClaimedDate = _dateMillis;\n    emit _Withdraw(_author, _idx, _withdraw, _dateMillis);\n  }\n\n  function determineReward(uint _pv, uint _tpv, uint _dateMillis) public view returns (uint) {\n    if (_tpv == 0 || _pv == 0) {\n      return uint(0);\n    }\n\n    uint drp = util.getDailyRewardPool(uint(70), _dateMillis);\n    return uint(_pv * uint(drp / _tpv));\n  }\n\n  function getIndex(bytes32 _docId, address _author) private view returns (int) {\n    Asset[] storage assetList = map[_author];\n    if (assetList.length > 0) {\n      for (uint i=0; i<assetList.length; i++) {\n        if (assetList[i].docId == _docId) {\n          return int(i);\n        }\n      }\n    }\n    return -1;\n  }\n\n}\n",
  "sourcePath": "/Users/centroine/Documents/github/bluebottle/contracts/AuthorPool.sol",
  "compiler": {
    "name": "solc",
    "version": "0.4.24+commit.e67f0147.Emscripten.clang"
  },
  "schemaVersion": "2.0.1",
  "updatedAt": "2018-10-30T10:36:16.950Z"
}