{
  "contractName": "Ballot",
  "abi": [
    {
      "inputs": [],
      "payable": false,
      "stateMutability": "nonpayable",
      "type": "constructor"
    },
    {
      "anonymous": false,
      "inputs": [
        {
          "indexed": false,
          "internalType": "bytes32",
          "name": "did",
          "type": "bytes32"
        },
        {
          "indexed": false,
          "internalType": "uint256",
          "name": "dateMillis",
          "type": "uint256"
        },
        {
          "indexed": false,
          "internalType": "address",
          "name": "owner",
          "type": "address"
        },
        {
          "indexed": false,
          "internalType": "uint256",
          "name": "delta",
          "type": "uint256"
        },
        {
          "indexed": false,
          "internalType": "uint256",
          "name": "deposit",
          "type": "uint256"
        }
      ],
      "name": "AddVote",
      "type": "event"
    },
    {
      "anonymous": false,
      "inputs": [
        {
          "indexed": false,
          "internalType": "address",
          "name": "old",
          "type": "address"
        },
        {
          "indexed": false,
          "internalType": "address",
          "name": "to",
          "type": "address"
        }
      ],
      "name": "OwnershipTransferred",
      "type": "event"
    },
    {
      "anonymous": false,
      "inputs": [
        {
          "indexed": false,
          "internalType": "uint256",
          "name": "dateMillis",
          "type": "uint256"
        },
        {
          "indexed": false,
          "internalType": "address",
          "name": "target",
          "type": "address"
        },
        {
          "indexed": false,
          "internalType": "uint256",
          "name": "amount",
          "type": "uint256"
        }
      ],
      "name": "Refund",
      "type": "event"
    },
    {
      "constant": true,
      "inputs": [],
      "name": "_token",
      "outputs": [
        {
          "internalType": "contract IERC20",
          "name": "",
          "type": "address"
        }
      ],
      "payable": false,
      "stateMutability": "view",
      "type": "function"
    },
    {
      "constant": false,
      "inputs": [
        {
          "internalType": "address",
          "name": "addr",
          "type": "address"
        }
      ],
      "name": "transferOwnership",
      "outputs": [],
      "payable": false,
      "stateMutability": "nonpayable",
      "type": "function"
    },
    {
      "constant": false,
      "inputs": [
        {
          "internalType": "address",
          "name": "addr",
          "type": "address"
        }
      ],
      "name": "setRegistry",
      "outputs": [],
      "payable": false,
      "stateMutability": "nonpayable",
      "type": "function"
    },
    {
      "constant": false,
      "inputs": [
        {
          "internalType": "address",
          "name": "foundation",
          "type": "address"
        }
      ],
      "name": "setFoundation",
      "outputs": [],
      "payable": false,
      "stateMutability": "nonpayable",
      "type": "function"
    },
    {
      "constant": false,
      "inputs": [
        {
          "internalType": "address",
          "name": "rewardPool",
          "type": "address"
        }
      ],
      "name": "setRewardPool",
      "outputs": [],
      "payable": false,
      "stateMutability": "nonpayable",
      "type": "function"
    },
    {
      "constant": false,
      "inputs": [
        {
          "internalType": "address",
          "name": "addr",
          "type": "address"
        }
      ],
      "name": "setToken",
      "outputs": [],
      "payable": false,
      "stateMutability": "nonpayable",
      "type": "function"
    },
    {
      "constant": false,
      "inputs": [
        {
          "internalType": "bytes32",
          "name": "key",
          "type": "bytes32"
        },
        {
          "internalType": "uint256",
          "name": "deposit",
          "type": "uint256"
        }
      ],
      "name": "addVote",
      "outputs": [],
      "payable": false,
      "stateMutability": "nonpayable",
      "type": "function"
    },
    {
      "constant": false,
      "inputs": [
        {
          "internalType": "uint256",
          "name": "dt",
          "type": "uint256"
        },
        {
          "internalType": "bytes32",
          "name": "key",
          "type": "bytes32"
        },
        {
          "internalType": "address",
          "name": "voter",
          "type": "address"
        },
        {
          "internalType": "uint256",
          "name": "deposit",
          "type": "uint256"
        }
      ],
      "name": "upsertVote",
      "outputs": [],
      "payable": false,
      "stateMutability": "nonpayable",
      "type": "function"
    },
    {
      "constant": false,
      "inputs": [
        {
          "internalType": "uint256",
          "name": "dt",
          "type": "uint256"
        },
        {
          "internalType": "bytes32",
          "name": "key",
          "type": "bytes32"
        },
        {
          "internalType": "address",
          "name": "voter",
          "type": "address"
        },
        {
          "internalType": "uint256",
          "name": "deposit",
          "type": "uint256"
        },
        {
          "internalType": "uint256",
          "name": "tm",
          "type": "uint256"
        }
      ],
      "name": "updateVote",
      "outputs": [],
      "payable": false,
      "stateMutability": "nonpayable",
      "type": "function"
    },
    {
      "constant": true,
      "inputs": [
        {
          "internalType": "uint256",
          "name": "dateMillis",
          "type": "uint256"
        },
        {
          "internalType": "bytes32",
          "name": "key",
          "type": "bytes32"
        },
        {
          "internalType": "address",
          "name": "voter",
          "type": "address"
        }
      ],
      "name": "getVoteByUser",
      "outputs": [
        {
          "internalType": "uint256",
          "name": "",
          "type": "uint256"
        },
        {
          "internalType": "uint256",
          "name": "",
          "type": "uint256"
        }
      ],
      "payable": false,
      "stateMutability": "view",
      "type": "function"
    },
    {
      "constant": true,
      "inputs": [
        {
          "internalType": "uint256",
          "name": "dateMillis",
          "type": "uint256"
        },
        {
          "internalType": "bytes32",
          "name": "key",
          "type": "bytes32"
        }
      ],
      "name": "getVoteByDocument",
      "outputs": [
        {
          "internalType": "uint256",
          "name": "",
          "type": "uint256"
        },
        {
          "internalType": "uint256",
          "name": "",
          "type": "uint256"
        }
      ],
      "payable": false,
      "stateMutability": "view",
      "type": "function"
    },
    {
      "constant": true,
      "inputs": [
        {
          "internalType": "uint256",
          "name": "dateMillis",
          "type": "uint256"
        }
      ],
      "name": "getTotalVote",
      "outputs": [
        {
          "internalType": "uint256",
          "name": "",
          "type": "uint256"
        },
        {
          "internalType": "uint256",
          "name": "",
          "type": "uint256"
        }
      ],
      "payable": false,
      "stateMutability": "view",
      "type": "function"
    },
    {
      "constant": true,
      "inputs": [],
      "name": "getDeposit",
      "outputs": [
        {
          "internalType": "uint256",
          "name": "",
          "type": "uint256"
        }
      ],
      "payable": false,
      "stateMutability": "view",
      "type": "function"
    },
    {
      "constant": true,
      "inputs": [
        {
          "internalType": "address",
          "name": "target",
          "type": "address"
        }
      ],
      "name": "getDepositOfUser",
      "outputs": [
        {
          "internalType": "uint256",
          "name": "",
          "type": "uint256"
        }
      ],
      "payable": false,
      "stateMutability": "view",
      "type": "function"
    },
    {
      "constant": false,
      "inputs": [
        {
          "internalType": "address",
          "name": "target",
          "type": "address"
        },
        {
          "internalType": "uint256",
          "name": "amount",
          "type": "uint256"
        }
      ],
      "name": "refund",
      "outputs": [],
      "payable": false,
      "stateMutability": "nonpayable",
      "type": "function"
    }
  ],
  "bytecode": "0x608060405234801561001057600080fd5b50600180546001600160a01b03191633179055611619806100326000396000f3fe608060405234801561001057600080fd5b50600436106100f55760003560e01c8063b1aa6e8911610097578063d66b11ea11610066578063d66b11ea146102db578063db3543f5146102fe578063ecd0c0c314610324578063f2fde38b14610348576100f5565b8063b1aa6e8914610225578063c0c93ea91461025d578063c399ec8814610295578063d0eb12691461029d576100f5565b806378238c37116100d357806378238c3714610171578063a209540a14610197578063a91ee0dc146101cd578063a944761a146101f3576100f5565b8063144fa6d7146100fa578063410085df1461012257806369d2096e1461014e575b600080fd5b6101206004803603602081101561011057600080fd5b50356001600160a01b031661036e565b005b6101206004803603604081101561013857600080fd5b506001600160a01b038135169060200135610434565b6101206004803603604081101561016457600080fd5b50803590602001356108bb565b6101206004803603602081101561018757600080fd5b50356001600160a01b0316610944565b6101b4600480360360208110156101ad57600080fd5b5035610a0a565b6040805192835260208301919091528051918290030190f35b610120600480360360208110156101e357600080fd5b50356001600160a01b0316610a24565b6101b46004803603606081101561020957600080fd5b50803590602081013590604001356001600160a01b0316610aea565b61024b6004803603602081101561023b57600080fd5b50356001600160a01b0316610b21565b60408051918252519081900360200190f35b6101206004803603608081101561027357600080fd5b508035906020810135906001600160a01b036040820135169060600135610b92565b61024b610c77565b610120600480360360a08110156102b357600080fd5b508035906020810135906001600160a01b036040820135169060608101359060800135610c87565b6101b4600480360360408110156102f157600080fd5b5080359060200135610e66565b6101206004803603602081101561031457600080fd5b50356001600160a01b0316610e8b565b61032c610f51565b604080516001600160a01b039092168252519081900360200190f35b6101206004803603602081101561035e57600080fd5b50356001600160a01b0316610f60565b6001546001600160a01b031633146103c5576040805162461bcd60e51b81526020600482015260156024820152741bdb9b1e481bdddb995c881a5cc8185b1b1bddd959605a1b604482015290519081900360640190fd5b6001600160a01b038116610412576040805162461bcd60e51b815260206004820152600f60248201526e696e76616c6964206164647265737360881b604482015290519081900360640190fd5b600080546001600160a01b0319166001600160a01b0392909216919091179055565b6001600160a01b038216610481576040805162461bcd60e51b815260206004820152600f60248201526e696e76616c6964206164647265737360881b604482015290519081900360640190fd5b600081116104d6576040805162461bcd60e51b815260206004820152601c60248201527f616d6f756e74206d75737420626520626967676572207468616e203000000000604482015290519081900360640190fd5b6003546001600160a01b03163314610535576040805162461bcd60e51b815260206004820181905260248201527f6f6e6c792072657761726420706f6f6c2063616e2063616c6c20726566756e64604482015290519081900360640190fd5b6008546001600160a01b031661058c576040805162461bcd60e51b8152602060048201526017602482015276151a19481c9959da5cdd1c9e481a5cc81b9bdd081cd95d604a1b604482015290519081900360640190fd5b6000546001600160a01b03166105e0576040805162461bcd60e51b8152602060048201526014602482015273151a19481d1bdad95b881a5cc81b9bdd081cd95d60621b604482015290519081900360640190fd5b600054604080516370a0823160e01b8152306004820152905183926001600160a01b0316916370a08231916024808301926020929190829003018186803b15801561062a57600080fd5b505afa15801561063e573d6000803e3d6000fd5b505050506040513d602081101561065457600080fd5b5051101561069e576040805162461bcd60e51b815260206004820152601260248201527134b739bab33334b1b4b2b73a103a37b5b2b760711b604482015290519081900360640190fd5b6001600160a01b0382166000908152600460205260409020546106fc576040805162461bcd60e51b81526020600482015260116024820152701b9bdd1a1a5b99c81d1bc81c99599d5b99607a1b604482015290519081900360640190fd5b6001600160a01b038216600090815260046020526040902054811115610769576040805162461bcd60e51b815260206004820152601e60248201527f696e73756666696369656e74206465706f73697420746f20726566756e640000604482015290519081900360640190fd5b6008546040805163066070eb60e41b815290517f21e12a7cad0da5928167e1084ea4d5fdf8d9af66657a2543a9ac76a0ca081477926001600160a01b0316916366070eb0916004808301926020929190829003018186803b1580156107cd57600080fd5b505afa1580156107e1573d6000803e3d6000fd5b505050506040513d60208110156107f757600080fd5b5051604080519182526001600160a01b0385166020830152818101849052519081900360600190a16001600160a01b038083166000818152600460208181526040808420805488900390558354815163a9059cbb60e01b8152938401959095526024830187905251939094169363a9059cbb9360448084019492939192918390030190829087803b15801561088b57600080fd5b505af115801561089f573d6000803e3d6000fd5b505050506040513d60208110156108b557600080fd5b50505050565b610940823383600860009054906101000a90046001600160a01b03166001600160a01b03166366070eb06040518163ffffffff1660e01b815260040160206040518083038186803b15801561090f57600080fd5b505afa158015610923573d6000803e3d6000fd5b505050506040513d602081101561093957600080fd5b505161106e565b5050565b6001546001600160a01b0316331461099b576040805162461bcd60e51b81526020600482015260156024820152741bdb9b1e481bdddb995c881a5cc8185b1b1bddd959605a1b604482015290519081900360640190fd5b6001600160a01b0381166109e8576040805162461bcd60e51b815260206004820152600f60248201526e696e76616c6964206164647265737360881b604482015290519081900360640190fd5b600380546001600160a01b0319166001600160a01b0392909216919091179055565b600090815260056020526040902080546001909101549091565b6001546001600160a01b03163314610a7b576040805162461bcd60e51b81526020600482015260156024820152741bdb9b1e481bdddb995c881a5cc8185b1b1bddd959605a1b604482015290519081900360640190fd5b6001600160a01b038116610ac8576040805162461bcd60e51b815260206004820152600f60248201526e696e76616c6964206164647265737360881b604482015290519081900360640190fd5b600880546001600160a01b0319166001600160a01b0392909216919091179055565b60009283526007602090815260408085209385529281528284206001600160a01b0392909216845252902080546001909101549091565b6002546000906001600160a01b03163314610b83576040805162461bcd60e51b815260206004820152601a60248201527f6f6e6c7920666f756e646174696f6e20697320616c6c6f776564000000000000604482015290519081900360640190fd5b610b8c82611184565b92915050565b6002546001600160a01b03163314610bf1576040805162461bcd60e51b815260206004820181905260248201527f6f6e6c7920666f756e646174696f6e2063616e2075706461746520766f746573604482015290519081900360640190fd5b6108b584848484600860009054906101000a90046001600160a01b03166001600160a01b03166366070eb06040518163ffffffff1660e01b815260040160206040518083038186803b158015610c4657600080fd5b505afa158015610c5a573d6000803e3d6000fd5b505050506040513d6020811015610c7057600080fd5b505161119f565b6000610c8233611184565b905090565b6002546001600160a01b03163314610cd05760405162461bcd60e51b815260040180806020018281038252602a8152602001806115bb602a913960400191505060405180910390fd5b600085815260076020908152604080832087845282528083206001600160a01b0387168452909152902060010154610d45576040805162461bcd60e51b815260206004820152601360248201527263616e27742066696e642074686520766f746560681b604482015290519081900360640190fd5b600085815260076020908152604080832087845282528083206001600160a01b0387168452909152812054831015610dee5750600085815260076020908152604080832087845282528083206001600160a01b038716845282528083208054868255600191820186905589855260068452828520898652845282852080549188900391829003815582018690558985526005909352922080548290038155909101829055610e5e565b50600085815260076020908152604080832087845282528083206001600160a01b0387168452825280832080548682556001918201869055898552600684528285208986528452828520805491880391820181558201869055898552600590935292208054820181559091018290555b505050505050565b6000918252600660209081526040808420928452919052902080546001909101549091565b6001546001600160a01b03163314610ee2576040805162461bcd60e51b81526020600482015260156024820152741bdb9b1e481bdddb995c881a5cc8185b1b1bddd959605a1b604482015290519081900360640190fd5b6001600160a01b038116610f2f576040805162461bcd60e51b815260206004820152600f60248201526e696e76616c6964206164647265737360881b604482015290519081900360640190fd5b600280546001600160a01b0319166001600160a01b0392909216919091179055565b6000546001600160a01b031681565b6001546001600160a01b03163314610fb7576040805162461bcd60e51b81526020600482015260156024820152741bdb9b1e481bdddb995c881a5cc8185b1b1bddd959605a1b604482015290519081900360640190fd5b6001600160a01b038116611004576040805162461bcd60e51b815260206004820152600f60248201526e696e76616c6964206164647265737360881b604482015290519081900360640190fd5b600154604080516001600160a01b039283168152918316602083015280517f8be0079c531659141344cd1fd0a4f28419497f9722a3daafe3b4186f6b6457e09281900390910190a1600180546001600160a01b0319166001600160a01b0392909216919091179055565b6008546040805163d1eb68cb60e01b815290516110e9926001600160a01b03169163d1eb68cb916004808301926020929190829003018186803b1580156110b457600080fd5b505afa1580156110c8573d6000803e3d6000fd5b505050506040513d60208110156110de57600080fd5b50518585858561119f565b6001600160a01b038084166000818152600460208181526040808420805489019055835481516323b872dd60e01b815293840195909552306024840152604483018890525193909416936323b872dd9360648084019492939192918390030190829087803b15801561115a57600080fd5b505af115801561116e573d6000803e3d6000fd5b505050506040513d6020811015610e5e57600080fd5b6001600160a01b031660009081526004602052604090205490565b836111e7576040805162461bcd60e51b81526020600482015260136024820152721a5b9d985b1a5908191bd8dd5b595b9d081a59606a1b604482015290519081900360640190fd5b670de0b6b3a763ffff821161122d5760405162461bcd60e51b815260040180806020018281038252602181526020018061159a6021913960400191505060405180910390fd5b6008546001600160a01b0316611284576040805162461bcd60e51b8152602060048201526017602482015276151a19481c9959da5cdd1c9e481a5cc81b9bdd081cd95d604a1b604482015290519081900360640190fd5b6000546001600160a01b03166112d8576040805162461bcd60e51b8152602060048201526014602482015273151a19481d1bdad95b881a5cc81b9bdd081cd95d60621b604482015290519081900360640190fd5b600085815260076020908152604080832087845282528083206001600160a01b038716808552908352928190205481518881529283018990528282019390935260608201859052918401608082015290517fe64bef7718d9aa1ae656c0244fb66cf13134efa87d5fb06ab9b4095a3c9174bf9181900360a00190a1600085815260076020908152604080832087845282528083206001600160a01b03871684529091529020600101546113d95761138d61157f565b50604080518082018252838152602080820184815260008981526007835284812089825283528481206001600160a01b0389168252909252929020905181559051600190910155611445565b600085815260076020908152604080832087845282528083206001600160a01b03871684529091529020548281011161140e57fe5b600085815260076020908152604080832087845282528083206001600160a01b038716845290915290208054830181556001018190555b60008581526006602090815260408083208784529091529020600101546114a95761146e61157f565b5060408051808201825283815260208082018481526000898152600683528481208982529092529290209051815590516001909101556114f3565b6000858152600660209081526040808320878452909152902054828101116114cd57fe5b600085815260066020908152604080832087845290915290208054830181556001018190555b6000858152600560205260409020600101546115445761151161157f565b50604080518082018252838152602080820184815260008981526005909252929020905181559051600190910155611578565b6000858152600560205260409020548281011161155d57fe5b60008581526005602052604090208054830181556001018190555b5050505050565b60405180604001604052806000815260200160008152509056fe546865206465706f736974206d75737420626520626967676572207468616e20306f6e6c7920666f756e646174696f6e2063616e2075706461746520766f74657320776974682074696d65a265627a7a72315820bb17c2f6f20cc3679289a7ff35fd3c6d183dd442c13bfc330659d2369da0713c64736f6c634300050c0032",
  "source": "pragma solidity ^0.5.0;\n\nimport \"./IERC20.sol\";\nimport \"./Registry.sol\";\n\ncontract Ballot {\n\n    event AddVote(bytes32 did, uint256 dateMillis, address owner, uint256 delta, uint256 deposit);\n    event Refund(uint256 dateMillis, address target, uint256 amount);\n    event OwnershipTransferred(address old, address to);\n\n    struct Vote {\n        uint256 deposit;\n        uint256 modified;\n    }\n\n    IERC20 public _token;\n\n    address private _owner;\n    address private _foundation;\n    address private _rewardPool;\n\n    mapping(address => uint256) _deposit;\n    mapping(uint256 => Vote) private _totalMap;\n    mapping(uint256 => mapping(bytes32 => Vote)) private _docMap;\n    mapping(uint256 => mapping(bytes32 => mapping(address => Vote))) private _userMap;\n\n    Registry private _registry;\n\n    constructor() public {\n        _owner = msg.sender;\n    }\n\n    modifier onlyOwner() {\n        require(msg.sender == _owner, \"only owner is allowed\");\n        _;\n    }\n\n    function transferOwnership(address addr) external onlyOwner() {\n        require(addr != address(0), \"invalid address\");\n        emit OwnershipTransferred(_owner, addr);\n        _owner = addr;\n    }\n\n    function setRegistry(address addr) external onlyOwner() {\n        require(addr != address(0), \"invalid address\");\n        _registry = Registry(addr);\n    }\n\n    function setFoundation(address foundation) external onlyOwner() {\n        require(foundation != address(0), \"invalid address\");\n        _foundation = foundation;\n    }\n\n    function setRewardPool(address rewardPool) external onlyOwner() {\n        require(rewardPool != address(0), \"invalid address\");\n        _rewardPool = rewardPool;\n    }\n\n    function setToken(address addr) external onlyOwner() {\n        require(addr != address(0), \"invalid address\");\n        _token = IERC20(addr);\n    }\n\n    function addVote(bytes32 key, uint256 deposit) external {\n        _add(key, msg.sender, deposit, _registry.getBlockTimeMillis());\n    }\n\n    function upsertVote(uint256 dt, bytes32 key, address voter, uint256 deposit) external {\n        require(msg.sender == _foundation, \"only foundation can update votes\");\n        _upsert(dt, key, voter, deposit, _registry.getBlockTimeMillis());\n    }\n\n    function updateVote(uint256 dt, bytes32 key, address voter, uint256 deposit, uint256 tm) external {\n        require(msg.sender == _foundation, \"only foundation can update votes with time\");\n        require(_userMap[dt][key][voter].modified > 0, \"can't find the vote\");\n\n        uint256 offset = 0;\n\n        if (_userMap[dt][key][voter].deposit > deposit) {\n            // decrease\n            offset = _userMap[dt][key][voter].deposit - deposit;\n\n            _userMap[dt][key][voter].deposit = deposit;\n            _userMap[dt][key][voter].modified = tm;\n\n            _docMap[dt][key].deposit -= offset;\n            _docMap[dt][key].modified = tm;\n\n            _totalMap[dt].deposit -= offset;\n            _totalMap[dt].modified = tm;\n\n        } else {\n            // increase\n            offset = deposit - _userMap[dt][key][voter].deposit;\n\n            _userMap[dt][key][voter].deposit = deposit;\n            _userMap[dt][key][voter].modified = tm;\n\n            _docMap[dt][key].deposit += offset;\n            _docMap[dt][key].modified = tm;\n\n            _totalMap[dt].deposit += offset;\n            _totalMap[dt].modified = tm;\n        }\n    }\n\n    function getVoteByUser(uint256 dateMillis, bytes32 key, address voter) external view returns (uint256, uint256) {\n        return (_userMap[dateMillis][key][voter].deposit, _userMap[dateMillis][key][voter].modified);\n    }\n\n    function getVoteByDocument(uint256 dateMillis, bytes32 key) external view returns (uint256, uint256) {\n        return (_docMap[dateMillis][key].deposit, _docMap[dateMillis][key].modified);\n    }\n\n    function getTotalVote(uint256 dateMillis) external view returns (uint256, uint256) {\n        return (_totalMap[dateMillis].deposit, _totalMap[dateMillis].modified);\n    }\n\n    function getDeposit() external view returns (uint256) {\n        return _getDeposit(msg.sender);\n    }\n\n    function getDepositOfUser(address target) external view returns (uint256) {\n        require(msg.sender == _foundation, \"only foundation is allowed\");\n        return _getDeposit(target);\n    }\n\n    function _add(bytes32 key, address voter, uint256 deposit, uint256 tm) private {\n        _upsert(_registry.getLastDateMillis(), key, voter, deposit, tm);\n        // transfer voter's token to this contract\n        _deposit[voter] += deposit;\n        _token.transferFrom(voter, address(this), deposit);\n    }\n\n    function _upsert(uint256 dt, bytes32 key, address voter, uint256 deposit, uint256 tm) private {\n        require(key != bytes32(0), \"invalid document id\");\n        require(deposit > 999999999999999999, \"The deposit must be bigger than 0\");\n        require(address(_registry) != address(0), \"The registry is not set\");\n        require(address(_token) != address(0), \"The token is not set\");\n\n        emit AddVote(key, dt, voter, deposit, _userMap[dt][key][voter].deposit + deposit);\n\n        // write on the map for users\n        if (_userMap[dt][key][voter].modified == 0) {\n            Vote memory vote = Vote(deposit, tm);\n            _userMap[dt][key][voter] = vote;\n        } else {\n            assert(_userMap[dt][key][voter].deposit + deposit > _userMap[dt][key][voter].deposit);\n            _userMap[dt][key][voter].deposit += deposit;\n            _userMap[dt][key][voter].modified = tm;\n        }\n        // write on the map for documents\n        if (_docMap[dt][key].modified == 0) {\n            Vote memory vote = Vote(deposit, tm);\n            _docMap[dt][key] = vote;\n        } else {\n            assert(_docMap[dt][key].deposit + deposit > _docMap[dt][key].deposit);\n            _docMap[dt][key].deposit += deposit;\n            _docMap[dt][key].modified = tm;\n        }\n        // write on the map for day\n        if (_totalMap[dt].modified == 0) {\n            Vote memory vote = Vote(deposit, tm);\n            _totalMap[dt] = vote;\n        } else {\n            assert(_totalMap[dt].deposit + deposit > _totalMap[dt].deposit);\n            _totalMap[dt].deposit += deposit;\n            _totalMap[dt].modified = tm;\n        }\n    }\n\n    function refund(address target, uint256 amount) external {\n        require(target != address(0), \"invalid address\");\n        require(amount > 0, \"amount must be bigger than 0\");\n        require(msg.sender == _rewardPool, \"only reward pool can call refund\");\n        require(address(_registry) != address(0), \"The registry is not set\");\n        require(address(_token) != address(0), \"The token is not set\");\n        require(_token.balanceOf(address(this)) >= amount, \"insufficient token\");\n        require(_deposit[target] > 0, \"nothing to refund\");\n        require(_deposit[target] >= amount, \"insufficient deposit to refund\");\n\n        emit Refund(_registry.getBlockTimeMillis(), target, amount);\n        _deposit[target] -= amount;\n        _token.transfer(target, amount);\n    }\n\n    function _getDeposit(address target) private view returns(uint256) {\n        return _deposit[target];\n    }\n}",
  "sourcePath": "/Users/jay/Documents/infraware/work/workspace-git/decompanyio/contracts/Ballot.sol",
  "compiler": {
    "name": "solc",
    "version": "0.5.12+commit.7709ece9.Emscripten.clang"
  },
  "schemaVersion": "3.0.19",
  "updatedAt": "2019-11-18T06:46:46.923Z",
  "networkType": "ethereum",
  "devdoc": {
    "methods": {}
  },
  "userdoc": {
    "methods": {}
  }
}