{
  "contractName": "Ballot",
  "abi": [
    {
      "constant": false,
      "inputs": [],
      "name": "renounceOwnership",
      "outputs": [],
      "payable": false,
      "stateMutability": "nonpayable",
      "type": "function",
      "signature": "0x715018a6"
    },
    {
      "constant": true,
      "inputs": [],
      "name": "owner",
      "outputs": [
        {
          "name": "",
          "type": "address"
        }
      ],
      "payable": false,
      "stateMutability": "view",
      "type": "function",
      "signature": "0x8da5cb5b"
    },
    {
      "constant": true,
      "inputs": [],
      "name": "isOwner",
      "outputs": [
        {
          "name": "",
          "type": "bool"
        }
      ],
      "payable": false,
      "stateMutability": "view",
      "type": "function",
      "signature": "0x8f32d59b"
    },
    {
      "constant": false,
      "inputs": [
        {
          "name": "newOwner",
          "type": "address"
        }
      ],
      "name": "transferOwnership",
      "outputs": [],
      "payable": false,
      "stateMutability": "nonpayable",
      "type": "function",
      "signature": "0xf2fde38b"
    },
    {
      "anonymous": false,
      "inputs": [
        {
          "indexed": false,
          "name": "voteId",
          "type": "uint256"
        },
        {
          "indexed": false,
          "name": "addr",
          "type": "address"
        },
        {
          "indexed": false,
          "name": "docId",
          "type": "bytes32"
        },
        {
          "indexed": false,
          "name": "dateMillis",
          "type": "uint256"
        },
        {
          "indexed": false,
          "name": "deposit",
          "type": "uint256"
        }
      ],
      "name": "CreateVote",
      "type": "event",
      "signature": "0x3824dd1088e7bdfad850be94125f706d0930233b0cee77a06f71ca952b52ea38"
    },
    {
      "anonymous": false,
      "inputs": [
        {
          "indexed": false,
          "name": "voteId",
          "type": "uint256"
        },
        {
          "indexed": false,
          "name": "amount",
          "type": "uint256"
        }
      ],
      "name": "ClaimVote",
      "type": "event",
      "signature": "0x7352c27f7e775b7563bdf27ee633646812d07ae7fa28cee8b24581d16128acf6"
    },
    {
      "anonymous": false,
      "inputs": [
        {
          "indexed": false,
          "name": "addr",
          "type": "address"
        },
        {
          "indexed": false,
          "name": "docId",
          "type": "bytes32"
        },
        {
          "indexed": false,
          "name": "claimedDate",
          "type": "uint256"
        },
        {
          "indexed": false,
          "name": "amount",
          "type": "uint256"
        }
      ],
      "name": "Withdraw",
      "type": "event",
      "signature": "0x32fa823b4a028207fad95f1b2f4e8759e79f10f285a83ddde5720cfa63f6cc0c"
    },
    {
      "anonymous": false,
      "inputs": [
        {
          "indexed": true,
          "name": "previousOwner",
          "type": "address"
        },
        {
          "indexed": true,
          "name": "newOwner",
          "type": "address"
        }
      ],
      "name": "OwnershipTransferred",
      "type": "event",
      "signature": "0x8be0079c531659141344cd1fd0a4f28419497f9722a3daafe3b4186f6b6457e0"
    },
    {
      "constant": false,
      "inputs": [
        {
          "name": "i",
          "type": "uint256"
        },
        {
          "name": "addr",
          "type": "address"
        },
        {
          "name": "docId",
          "type": "bytes32"
        },
        {
          "name": "deposit",
          "type": "uint256"
        }
      ],
      "name": "create",
      "outputs": [],
      "payable": false,
      "stateMutability": "nonpayable",
      "type": "function",
      "signature": "0xb55af6a8"
    },
    {
      "constant": false,
      "inputs": [
        {
          "name": "i",
          "type": "uint256"
        },
        {
          "name": "addr",
          "type": "address"
        },
        {
          "name": "docId",
          "type": "bytes32"
        },
        {
          "name": "deposit",
          "type": "uint256"
        },
        {
          "name": "dateMillis",
          "type": "uint256"
        }
      ],
      "name": "insert",
      "outputs": [],
      "payable": false,
      "stateMutability": "nonpayable",
      "type": "function",
      "signature": "0x46839eae"
    },
    {
      "constant": false,
      "inputs": [
        {
          "name": "a",
          "type": "address"
        },
        {
          "name": "d",
          "type": "bytes32"
        },
        {
          "name": "claimedDate",
          "type": "uint256"
        },
        {
          "name": "withdraw",
          "type": "uint256"
        }
      ],
      "name": "updateWithdraw",
      "outputs": [],
      "payable": false,
      "stateMutability": "nonpayable",
      "type": "function",
      "signature": "0xc0de2c18"
    },
    {
      "constant": false,
      "inputs": [
        {
          "name": "i",
          "type": "uint256"
        },
        {
          "name": "amount",
          "type": "uint256"
        }
      ],
      "name": "updateClaimed",
      "outputs": [],
      "payable": false,
      "stateMutability": "nonpayable",
      "type": "function",
      "signature": "0x4b417222"
    },
    {
      "constant": false,
      "inputs": [
        {
          "name": "addr",
          "type": "address"
        }
      ],
      "name": "setRewardPool",
      "outputs": [],
      "payable": false,
      "stateMutability": "nonpayable",
      "type": "function",
      "signature": "0x78238c37"
    },
    {
      "constant": false,
      "inputs": [
        {
          "name": "addr",
          "type": "address"
        }
      ],
      "name": "setCurator",
      "outputs": [],
      "payable": false,
      "stateMutability": "nonpayable",
      "type": "function",
      "signature": "0xe90956cf"
    },
    {
      "constant": false,
      "inputs": [
        {
          "name": "addr",
          "type": "address"
        }
      ],
      "name": "setFoundation",
      "outputs": [],
      "payable": false,
      "stateMutability": "nonpayable",
      "type": "function",
      "signature": "0xdb3543f5"
    },
    {
      "constant": true,
      "inputs": [
        {
          "name": "i",
          "type": "uint256"
        }
      ],
      "name": "getVote",
      "outputs": [
        {
          "name": "",
          "type": "address"
        },
        {
          "name": "",
          "type": "bytes32"
        },
        {
          "name": "",
          "type": "uint256"
        },
        {
          "name": "",
          "type": "uint256"
        },
        {
          "name": "",
          "type": "uint256"
        }
      ],
      "payable": false,
      "stateMutability": "view",
      "type": "function",
      "signature": "0x5a55c1f0"
    },
    {
      "constant": true,
      "inputs": [
        {
          "name": "docId",
          "type": "bytes32"
        },
        {
          "name": "dMillis",
          "type": "uint256"
        },
        {
          "name": "vMillis",
          "type": "uint256"
        }
      ],
      "name": "getActiveVotes",
      "outputs": [
        {
          "name": "",
          "type": "uint256"
        }
      ],
      "payable": false,
      "stateMutability": "view",
      "type": "function",
      "signature": "0x8c239c70"
    },
    {
      "constant": true,
      "inputs": [
        {
          "name": "a",
          "type": "address"
        },
        {
          "name": "d",
          "type": "bytes32"
        },
        {
          "name": "dMillis",
          "type": "uint256"
        },
        {
          "name": "vMillis",
          "type": "uint256"
        }
      ],
      "name": "getUserActiveVotes",
      "outputs": [
        {
          "name": "",
          "type": "uint256"
        }
      ],
      "payable": false,
      "stateMutability": "view",
      "type": "function",
      "signature": "0x3a7f6315"
    },
    {
      "constant": true,
      "inputs": [
        {
          "name": "a",
          "type": "address"
        },
        {
          "name": "d",
          "type": "bytes32"
        },
        {
          "name": "dm",
          "type": "uint256"
        },
        {
          "name": "cm",
          "type": "uint256"
        },
        {
          "name": "vm",
          "type": "uint256"
        }
      ],
      "name": "getUserClaimableVotes",
      "outputs": [
        {
          "name": "",
          "type": "uint256"
        }
      ],
      "payable": false,
      "stateMutability": "view",
      "type": "function",
      "signature": "0x5a271e74"
    },
    {
      "constant": true,
      "inputs": [
        {
          "name": "a",
          "type": "address"
        },
        {
          "name": "d",
          "type": "bytes32"
        },
        {
          "name": "dm",
          "type": "uint256"
        },
        {
          "name": "cm",
          "type": "uint256"
        },
        {
          "name": "vm",
          "type": "uint256"
        }
      ],
      "name": "getUserRefundableDeposit",
      "outputs": [
        {
          "name": "",
          "type": "uint256"
        }
      ],
      "payable": false,
      "stateMutability": "view",
      "type": "function",
      "signature": "0xf08ce73c"
    },
    {
      "constant": true,
      "inputs": [
        {
          "name": "a",
          "type": "address"
        }
      ],
      "name": "getUserDocuments",
      "outputs": [
        {
          "name": "",
          "type": "bytes32[]"
        }
      ],
      "payable": false,
      "stateMutability": "view",
      "type": "function",
      "signature": "0x90a4b162"
    },
    {
      "constant": true,
      "inputs": [],
      "name": "count",
      "outputs": [
        {
          "name": "",
          "type": "uint256"
        }
      ],
      "payable": false,
      "stateMutability": "view",
      "type": "function",
      "signature": "0x06661abd"
    },
    {
      "constant": true,
      "inputs": [],
      "name": "next",
      "outputs": [
        {
          "name": "",
          "type": "uint256"
        }
      ],
      "payable": false,
      "stateMutability": "view",
      "type": "function",
      "signature": "0x4c8fe526"
    }
  ],
  "bytecode": "0x6080604081905260008054600160a060020a0319163317808255600160a060020a0316917f8be0079c531659141344cd1fd0a4f28419497f9722a3daafe3b4186f6b6457e0908290a3611174806100576000396000f3fe6080604052600436106101065763ffffffff7c010000000000000000000000000000000000000000000000000000000060003504166306661abd811461010b5780633a7f63151461013257806346839eae146101775780634b417222146101c45780634c8fe526146101f45780635a271e74146102095780635a55c1f014610254578063715018a6146102b357806378238c37146102c85780638c239c70146102fb5780638da5cb5b146103315780638f32d59b1461036257806390a4b1621461038b578063b55af6a81461040e578063c0de2c1814610453578063db3543f514610498578063e90956cf146104cb578063f08ce73c146104fe578063f2fde38b14610549575b600080fd5b34801561011757600080fd5b5061012061057c565b60408051918252519081900360200190f35b34801561013e57600080fd5b506101206004803603608081101561015557600080fd5b50600160a060020a038135169060208101359060408101359060600135610582565b34801561018357600080fd5b506101c2600480360360a081101561019a57600080fd5b50803590600160a060020a0360208201351690604081013590606081013590608001356106a9565b005b3480156101d057600080fd5b506101c2600480360360408110156101e757600080fd5b50803590602001356106d4565b34801561020057600080fd5b506101206107a7565b34801561021557600080fd5b50610120600480360360a081101561022c57600080fd5b50600160a060020a0381351690602081013590604081013590606081013590608001356107b0565b34801561026057600080fd5b5061027e6004803603602081101561027757600080fd5b5035610952565b60408051600160a060020a03909616865260208601949094528484019290925260608401526080830152519081900360a00190f35b3480156102bf57600080fd5b506101c261098c565b3480156102d457600080fd5b506101c2600480360360208110156102eb57600080fd5b5035600160a060020a03166109f6565b34801561030757600080fd5b506101206004803603606081101561031e57600080fd5b5080359060208101359060400135610a4a565b34801561033d57600080fd5b50610346610adf565b60408051600160a060020a039092168252519081900360200190f35b34801561036e57600080fd5b50610377610aee565b604080519115158252519081900360200190f35b34801561039757600080fd5b506103be600480360360208110156103ae57600080fd5b5035600160a060020a0316610aff565b60408051602080825283518183015283519192839290830191858101910280838360005b838110156103fa5781810151838201526020016103e2565b505050509050019250505060405180910390f35b34801561041a57600080fd5b506101c26004803603608081101561043157600080fd5b50803590600160a060020a036020820135169060408101359060600135610b6b565b34801561045f57600080fd5b506101c26004803603608081101561047657600080fd5b50600160a060020a038135169060208101359060408101359060600135610ba0565b3480156104a457600080fd5b506101c2600480360360208110156104bb57600080fd5b5035600160a060020a0316610c64565b3480156104d757600080fd5b506101c2600480360360208110156104ee57600080fd5b5035600160a060020a0316610cb9565b34801561050a57600080fd5b50610120600480360360a081101561052157600080fd5b50600160a060020a038135169060208101359060408101359060608101359060800135610d0e565b34801561055557600080fd5b506101c26004803603602081101561056c57600080fd5b5035600160a060020a0316610e63565b60065490565b600080805b600160a060020a03871660009081526002602052604090205481101561069f57600160a060020a038716600090815260026020526040812080546105f3926001929091859081106105d457fe5b9060005260206000200154815260200190815260200160002087610e7f565b80156106475750600160a060020a038716600090815260026020526040812080546106479260019290918590811061062757fe5b906000526020600020015481526020019081526020016000208686610e8a565b1561069757600160a060020a0387166000908152600260205260408120805460019291908490811061067557fe5b9060005260206000200154815260200190815260200160002060030154820191505b600101610587565b5095945050505050565b600754600160a060020a031633146106c057600080fd5b6106cd8585858585610ead565b5050505050565b8015156106e057600080fd5b600854600160a060020a031633146106f757600080fd5b600082815260016020526040902054600160a060020a0316151561071a57600080fd5b600082815260016020526040902060030154151561073757600080fd5b6000828152600160205260409020600401541561075357600080fd5b600082815260016020908152604091829020600401839055815184815290810183905281517f7352c27f7e775b7563bdf27ee633646812d07ae7fa28cee8b24581d16128acf6929181900390910190a15050565b60065460010190565b600160a060020a03851660009081526004602090815260408083208784529091528120548190815b600160a060020a03891660009081526002602052604090205481101561094557600160a060020a038916600090815260026020526040812080546108449260019290918590811061082557fe5b9060005260206000200154815260200190815260200160002089610e7f565b80156108985750600160a060020a038916600090815260026020526040812080546108989260019290918590811061087857fe5b906000526020600020015481526020019081526020016000208887610e8a565b80156108ed5750600160a060020a038916600090815260026020526040812080546108ed926001929091859081106108cc57fe5b90600052602060002001548152602001908152602001600020838888611059565b1561093d57600160a060020a0389166000908152600260205260408120805460019291908490811061091b57fe5b9060005260206000200154815260200190815260200160002060030154830192505b6001016107d8565b5090979650505050505050565b600090815260016020819052604090912080549181015460028201546003830154600490930154600160a060020a03909416949193909291565b610994610aee565b151561099f57600080fd5b60008054604051600160a060020a03909116907f8be0079c531659141344cd1fd0a4f28419497f9722a3daafe3b4186f6b6457e0908390a36000805473ffffffffffffffffffffffffffffffffffffffff19169055565b6109fe610aee565b1515610a0957600080fd5b600854600160a060020a03828116911614610a47576008805473ffffffffffffffffffffffffffffffffffffffff1916600160a060020a0383161790555b50565b600080805b600086815260036020526040902054811015610ad65760008681526003602052604081208054610a889260019290918590811061062757fe5b15610ace5760008681526003602052604081208054600192919084908110610aac57fe5b9060005260206000200154815260200190815260200160002060030154820191505b600101610a4f565b50949350505050565b600054600160a060020a031690565b600054600160a060020a0316331490565b600160a060020a038116600090815260056020908152604091829020805483518184028101840190945280845260609392830182828015610b5f57602002820191906000526020600020905b815481526020019060010190808311610b4b575b50505050509050919050565b600954600160a060020a03163314610b8257600080fd5b610b9a848484846201518042046305265c0002610ead565b50505050565b600854600160a060020a03163314610bb757600080fd5b600160a060020a038416600090815260046020908152604080832086845290915290206002015460ff161515610bec57600080fd5b600160a060020a03841660008181526004602090815260408083208784528252918290208581556001018054850190558151928352820185905281810184905260608201839052517f32fa823b4a028207fad95f1b2f4e8759e79f10f285a83ddde5720cfa63f6cc0c9181900360800190a150505050565b610c6c610aee565b1515610c7757600080fd5b600754600160a060020a03828116911614610a475760078054600160a060020a03831673ffffffffffffffffffffffffffffffffffffffff1990911617905550565b610cc1610aee565b1515610ccc57600080fd5b600954600160a060020a03828116911614610a475760098054600160a060020a03831673ffffffffffffffffffffffffffffffffffffffff1990911617905550565b600160a060020a03851660009081526004602090815260408083208784529091528120548190815b600160a060020a03891660009081526002602052604090205481101561094557600160a060020a03891660009081526002602052604081208054610d839260019290918590811061082557fe5b8015610dd75750600160a060020a03891660009081526002602052604081208054610dd792600192909185908110610db757fe5b90600052602060002001548152602001908152602001600020888761108f565b8015610e0b5750600160a060020a03891660009081526002602052604081208054610e0b926001929091859081106108cc57fe5b15610e5b57600160a060020a03891660009081526002602052604081208054600192919084908110610e3957fe5b9060005260206000200154815260200190815260200160002060030154830192505b600101610d36565b610e6b610aee565b1515610e7657600080fd5b610a478161109d565b600191909101541490565b600082846002015411158015610ea557508184600201540183105b949350505050565b6006546001018514610ebe57600080fd5b610ec661111a565b506040805160a081018252600160a060020a038681168083526020808401888152848601878152606086018981526000608088018181528e825260018087528a83208a51815473ffffffffffffffffffffffffffffffffffffffff19169a1699909917895594518886015592516002808901919091559151600380890191909155925160049788015585815281855288812080548086018255908252858220018e90558b815291845287822080548085018255908352848320018d9055600680549093019092559283529281528482208883529052929092209091015460ff161515610ffb57600160a060020a038516600081815260056020908152604080832080546001818101835591855283852001899055938352600482528083208884529091529020600201805460ff191690911790555b60408051878152600160a060020a0387166020820152808201869052606081018490526080810185905290517f3824dd1088e7bdfad850be94125f706d0930233b0cee77a06f71ca952b52ea389181900360a00190a1505050505050565b600083156110675783611069565b815b935081856002015401841115801561108657508282866002015401105b95945050505050565b600292909201549091011490565b600160a060020a03811615156110b257600080fd5b60008054604051600160a060020a03808516939216917f8be0079c531659141344cd1fd0a4f28419497f9722a3daafe3b4186f6b6457e091a36000805473ffffffffffffffffffffffffffffffffffffffff1916600160a060020a0392909216919091179055565b6040805160a0810182526000808252602082018190529181018290526060810182905260808101919091529056fea165627a7a72305820807618d557a71d28e1ddb229cc1af8c4be43585725f0e151ed6c1ad097455f840029",
  "source": "pragma solidity 0.5.0;\n\nimport \"openzeppelin-solidity/contracts/ownership/Ownable.sol\";\n\n\ncontract Ballot is Ownable {\n\n    event CreateVote(uint256 voteId, address addr, bytes32 docId, uint256 dateMillis, uint256 deposit);\n    event ClaimVote(uint256 voteId, uint256 amount);\n    event Withdraw(address addr, bytes32 docId, uint256 claimedDate, uint256 amount);\n\n    struct Vote {\n        address addr;\n        bytes32 docId;\n        uint256 startDate;\n        uint256 deposit;\n        uint256 claimed;\n    }\n\n    struct Status {\n        uint lastClaimedDate;\n        uint withdraw;\n        bool added;\n    }\n\n    // voteId to the vote data\n    mapping (uint256 => Vote) internal _mapById;\n\n    // address to the curator's vote data\n    mapping (address => uint256[]) internal _mapByAddr;\n\n    // docId to the curator's vote data\n    mapping (bytes32 => uint256[]) internal _mapByDoc;\n\n    // for user document list\n    mapping (address => mapping (bytes32 => Status)) internal _mapUserDocAdded;\n    mapping (address => bytes32[]) internal _mapUserDoc;\n\n    // number of total votes\n    uint256 private _length;\n\n    // accessibility\n    address private _foundation;\n    address private _rewardPool;\n    address private _curator;\n\n    // adding a new vote\n    function create(uint256 i, address addr, bytes32 docId, uint256 deposit) external {\n        require(msg.sender == _curator);\n        add(i, addr, docId, deposit, uint(block.timestamp/86400) * 86400000);\n    }\n\n    function insert(uint256 i, address addr, bytes32 docId, uint256 deposit, uint256 dateMillis) external {\n        require(msg.sender == _foundation);\n        add(i, addr, docId, deposit, dateMillis);\n    }\n\n    function updateWithdraw(address a, bytes32 d, uint256 claimedDate, uint256 withdraw) external {\n        require(msg.sender == _rewardPool);\n        require(_mapUserDocAdded[a][d].added);\n        _mapUserDocAdded[a][d].lastClaimedDate = claimedDate;\n        _mapUserDocAdded[a][d].withdraw += withdraw;\n        emit Withdraw(a, d, claimedDate, withdraw);\n    }\n\n    function updateClaimed(uint256 i, uint256 amount) external {\n        require(amount != 0);\n        require(msg.sender == _rewardPool);\n        require(address(_mapById[i].addr) != address(0));\n        require(uint256(_mapById[i].deposit) != 0);\n        require(uint256(_mapById[i].claimed) == 0);\n\n        _mapById[i].claimed = amount;\n\n        emit ClaimVote(i, amount);\n    }\n\n    function setRewardPool(address addr) external onlyOwner() {\n        if (addr != _rewardPool) {\n            _rewardPool = addr;\n        }\n    }\n\n    function setCurator(address addr) external onlyOwner() {\n        if (addr != _curator) {\n            _curator = addr;\n        }\n    }\n\n    function setFoundation(address addr) external onlyOwner() {\n        if (addr != _foundation) {\n            _foundation = addr;\n        }\n    }\n\n    function getVote(uint256 i) external view returns (address, bytes32, uint256, uint256, uint256) {\n        return (_mapById[i].addr, _mapById[i].docId, _mapById[i].startDate, _mapById[i].deposit, _mapById[i].claimed);\n    }\n\n    function getActiveVotes(bytes32 docId, uint dMillis, uint vMillis) external view returns (uint256) {\n        uint256 sum = 0;\n        for (uint i=0; i < _mapByDoc[docId].length; i++) {\n            if (isActive(_mapById[_mapByDoc[docId][i]], dMillis, vMillis)) {\n                sum += _mapById[_mapByDoc[docId][i]].deposit;\n            }\n        }\n        return sum;\n    }\n\n    function getUserActiveVotes(address a, bytes32 d, uint dMillis, uint vMillis) external view returns (uint256) {\n        uint256 sum = 0;\n        for (uint i=0; i < _mapByAddr[a].length; i++) {\n            if (sameDoc(_mapById[_mapByAddr[a][i]], d)\n            && isActive(_mapById[_mapByAddr[a][i]], dMillis, vMillis)) {\n                sum += _mapById[_mapByAddr[a][i]].deposit;\n            }\n        }\n        return sum;\n    }\n\n    function getUserClaimableVotes(address a, bytes32 d, uint dm, uint cm, uint vm) external view returns (uint256) {\n        uint256 sum = 0;\n        uint256 lm = _mapUserDocAdded[a][d].lastClaimedDate;\n        for (uint i=0; i < _mapByAddr[a].length; i++) {\n            if (sameDoc(_mapById[_mapByAddr[a][i]], d)\n            && isActive(_mapById[_mapByAddr[a][i]], dm, vm)\n            && isClaimable(_mapById[_mapByAddr[a][i]], lm, cm, vm)) {\n                sum += _mapById[_mapByAddr[a][i]].deposit;\n            }\n        }\n        return sum;\n    }\n\n    function getUserRefundableDeposit(address a, bytes32 d, uint dm, uint cm, uint vm) external view returns (uint256) {\n        uint256 sum = 0;\n        uint256 lm = _mapUserDocAdded[a][d].lastClaimedDate;\n        for (uint i=0; i < _mapByAddr[a].length; i++) {\n            if (sameDoc(_mapById[_mapByAddr[a][i]], d)\n            && isRefundable(_mapById[_mapByAddr[a][i]], dm, vm)\n            && isClaimable(_mapById[_mapByAddr[a][i]], lm, cm, vm)) {\n                sum += _mapById[_mapByAddr[a][i]].deposit;\n            }\n        }\n        return sum;\n    }\n\n    function getUserDocuments(address a) external view returns (bytes32[] memory) {\n        return _mapUserDoc[a];\n    }\n\n    function count() external view returns (uint256) {\n        return uint256(_length);\n    }\n\n    function next() external view returns (uint256) {\n        return uint256(_length + 1);\n    }\n\n    // adding a new vote\n    function add(uint256 i, address a, bytes32 d, uint256 deposit, uint256 dm) private {\n        require(i == _length + 1);\n\n        Vote memory vote = Vote(a, d, dm, deposit, 0);\n        _mapById[i] = vote;\n        _mapByAddr[a].push(i);\n        _mapByDoc[d].push(i);\n        _length++;\n\n        if (_mapUserDocAdded[a][d].added == false) {\n            _mapUserDoc[a].push(d);\n            _mapUserDocAdded[a][d].added = true;\n        }\n\n        emit CreateVote(i, a, d, dm, deposit);\n    }\n\n    function sameDoc(Vote storage vote, bytes32 d) private view returns (bool) {\n        return (d == vote.docId);\n    }\n\n    function isActive(Vote storage vote, uint dm, uint vm) private view returns (bool) {\n        return (vote.startDate <= dm) && (dm < vote.startDate + vm);\n    }\n\n    function isClaimable(Vote storage vote, uint lm, uint cm, uint vm) private view returns (bool) {\n        lm = lm == 0 ? vm : lm;\n        return (lm <= vote.startDate + vm) && (vote.startDate + vm < cm);\n    }\n\n    function isRefundable(Vote storage vote, uint dm, uint vm) private view returns (bool) {\n        return (dm == vote.startDate + vm);\n    }\n}\n",
  "sourcePath": "/Users/centroine/Documents/iris/decompanyio/decompanyio/contracts/Ballot.sol",
  "compiler": {
    "name": "solc",
    "version": "0.5.0+commit.1d4f565a.Emscripten.clang"
  },
  "schemaVersion": "3.0.2",
  "updatedAt": "2019-04-22T08:34:15.069Z",
  "devdoc": {
    "methods": {
      "isOwner()": {
        "return": "true if `msg.sender` is the owner of the contract."
      },
      "owner()": {
        "return": "the address of the owner."
      },
      "renounceOwnership()": {
        "details": "Allows the current owner to relinquish control of the contract."
      },
      "transferOwnership(address)": {
        "details": "Allows the current owner to transfer control of the contract to a newOwner.",
        "params": {
          "newOwner": "The address to transfer ownership to."
        }
      }
    }
  },
  "userdoc": {
    "methods": {
      "renounceOwnership()": {
        "notice": "Renouncing to ownership will leave the contract without an owner. It will not be possible to call the functions with the `onlyOwner` modifier anymore."
      }
    }
  }
}