{
  "contractName": "Ballot",
  "abi": [
    {
      "constant": false,
      "inputs": [],
      "name": "renounceOwnership",
      "outputs": [],
      "payable": false,
      "stateMutability": "nonpayable",
      "type": "function",
      "signature": "0x715018a6"
    },
    {
      "constant": true,
      "inputs": [],
      "name": "_registry",
      "outputs": [
        {
          "name": "",
          "type": "address"
        }
      ],
      "payable": false,
      "stateMutability": "view",
      "type": "function",
      "signature": "0x79cbc5fa"
    },
    {
      "constant": true,
      "inputs": [],
      "name": "owner",
      "outputs": [
        {
          "name": "",
          "type": "address"
        }
      ],
      "payable": false,
      "stateMutability": "view",
      "type": "function",
      "signature": "0x8da5cb5b"
    },
    {
      "constant": true,
      "inputs": [],
      "name": "isOwner",
      "outputs": [
        {
          "name": "",
          "type": "bool"
        }
      ],
      "payable": false,
      "stateMutability": "view",
      "type": "function",
      "signature": "0x8f32d59b"
    },
    {
      "constant": false,
      "inputs": [
        {
          "name": "newOwner",
          "type": "address"
        }
      ],
      "name": "transferOwnership",
      "outputs": [],
      "payable": false,
      "stateMutability": "nonpayable",
      "type": "function",
      "signature": "0xf2fde38b"
    },
    {
      "anonymous": false,
      "inputs": [
        {
          "indexed": false,
          "name": "voteId",
          "type": "uint256"
        },
        {
          "indexed": false,
          "name": "addr",
          "type": "address"
        },
        {
          "indexed": false,
          "name": "docId",
          "type": "bytes32"
        },
        {
          "indexed": false,
          "name": "dateMillis",
          "type": "uint256"
        },
        {
          "indexed": false,
          "name": "deposit",
          "type": "uint256"
        }
      ],
      "name": "CreateVote",
      "type": "event",
      "signature": "0x3824dd1088e7bdfad850be94125f706d0930233b0cee77a06f71ca952b52ea38"
    },
    {
      "anonymous": false,
      "inputs": [
        {
          "indexed": false,
          "name": "addr",
          "type": "address"
        },
        {
          "indexed": false,
          "name": "docId",
          "type": "bytes32"
        },
        {
          "indexed": false,
          "name": "claimedDate",
          "type": "uint256"
        },
        {
          "indexed": false,
          "name": "amount",
          "type": "uint256"
        }
      ],
      "name": "Withdraw",
      "type": "event",
      "signature": "0x32fa823b4a028207fad95f1b2f4e8759e79f10f285a83ddde5720cfa63f6cc0c"
    },
    {
      "anonymous": false,
      "inputs": [
        {
          "indexed": true,
          "name": "previousOwner",
          "type": "address"
        },
        {
          "indexed": true,
          "name": "newOwner",
          "type": "address"
        }
      ],
      "name": "OwnershipTransferred",
      "type": "event",
      "signature": "0x8be0079c531659141344cd1fd0a4f28419497f9722a3daafe3b4186f6b6457e0"
    },
    {
      "constant": false,
      "inputs": [
        {
          "name": "addr",
          "type": "address"
        }
      ],
      "name": "init",
      "outputs": [],
      "payable": false,
      "stateMutability": "nonpayable",
      "type": "function",
      "signature": "0x19ab453c"
    },
    {
      "constant": false,
      "inputs": [
        {
          "name": "i",
          "type": "uint256"
        },
        {
          "name": "addr",
          "type": "address"
        },
        {
          "name": "docId",
          "type": "bytes32"
        },
        {
          "name": "deposit",
          "type": "uint256"
        }
      ],
      "name": "create",
      "outputs": [],
      "payable": false,
      "stateMutability": "nonpayable",
      "type": "function",
      "signature": "0xb55af6a8"
    },
    {
      "constant": false,
      "inputs": [
        {
          "name": "i",
          "type": "uint256"
        },
        {
          "name": "addr",
          "type": "address"
        },
        {
          "name": "docId",
          "type": "bytes32"
        },
        {
          "name": "deposit",
          "type": "uint256"
        },
        {
          "name": "dateMillis",
          "type": "uint256"
        }
      ],
      "name": "insert",
      "outputs": [],
      "payable": false,
      "stateMutability": "nonpayable",
      "type": "function",
      "signature": "0x46839eae"
    },
    {
      "constant": false,
      "inputs": [
        {
          "name": "a",
          "type": "address"
        },
        {
          "name": "d",
          "type": "bytes32"
        },
        {
          "name": "claimedDate",
          "type": "uint256"
        },
        {
          "name": "withdraw",
          "type": "uint256"
        }
      ],
      "name": "updateWithdraw",
      "outputs": [],
      "payable": false,
      "stateMutability": "nonpayable",
      "type": "function",
      "signature": "0xc0de2c18"
    },
    {
      "constant": false,
      "inputs": [
        {
          "name": "addr",
          "type": "address"
        }
      ],
      "name": "setRewardPool",
      "outputs": [],
      "payable": false,
      "stateMutability": "nonpayable",
      "type": "function",
      "signature": "0x78238c37"
    },
    {
      "constant": false,
      "inputs": [
        {
          "name": "addr",
          "type": "address"
        }
      ],
      "name": "setCurator",
      "outputs": [],
      "payable": false,
      "stateMutability": "nonpayable",
      "type": "function",
      "signature": "0xe90956cf"
    },
    {
      "constant": false,
      "inputs": [
        {
          "name": "addr",
          "type": "address"
        }
      ],
      "name": "setFoundation",
      "outputs": [],
      "payable": false,
      "stateMutability": "nonpayable",
      "type": "function",
      "signature": "0xdb3543f5"
    },
    {
      "constant": true,
      "inputs": [
        {
          "name": "i",
          "type": "uint256"
        }
      ],
      "name": "getVote",
      "outputs": [
        {
          "name": "",
          "type": "address"
        },
        {
          "name": "",
          "type": "bytes32"
        },
        {
          "name": "",
          "type": "uint256"
        },
        {
          "name": "",
          "type": "uint256"
        }
      ],
      "payable": false,
      "stateMutability": "view",
      "type": "function",
      "signature": "0x5a55c1f0"
    },
    {
      "constant": true,
      "inputs": [
        {
          "name": "docId",
          "type": "bytes32"
        },
        {
          "name": "dMillis",
          "type": "uint256"
        },
        {
          "name": "vMillis",
          "type": "uint256"
        }
      ],
      "name": "getActiveVotes",
      "outputs": [
        {
          "name": "",
          "type": "uint256"
        }
      ],
      "payable": false,
      "stateMutability": "view",
      "type": "function",
      "signature": "0x8c239c70"
    },
    {
      "constant": true,
      "inputs": [
        {
          "name": "a",
          "type": "address"
        },
        {
          "name": "d",
          "type": "bytes32"
        },
        {
          "name": "dMillis",
          "type": "uint256"
        },
        {
          "name": "vMillis",
          "type": "uint256"
        }
      ],
      "name": "getUserActiveVotes",
      "outputs": [
        {
          "name": "",
          "type": "uint256"
        }
      ],
      "payable": false,
      "stateMutability": "view",
      "type": "function",
      "signature": "0x3a7f6315"
    },
    {
      "constant": true,
      "inputs": [
        {
          "name": "a",
          "type": "address"
        },
        {
          "name": "d",
          "type": "bytes32"
        },
        {
          "name": "dm",
          "type": "uint256"
        },
        {
          "name": "cm",
          "type": "uint256"
        },
        {
          "name": "vm",
          "type": "uint256"
        }
      ],
      "name": "getUserClaimableVotes",
      "outputs": [
        {
          "name": "",
          "type": "uint256"
        }
      ],
      "payable": false,
      "stateMutability": "view",
      "type": "function",
      "signature": "0x5a271e74"
    },
    {
      "constant": true,
      "inputs": [
        {
          "name": "a",
          "type": "address"
        },
        {
          "name": "d",
          "type": "bytes32"
        },
        {
          "name": "dm",
          "type": "uint256"
        },
        {
          "name": "cm",
          "type": "uint256"
        },
        {
          "name": "vm",
          "type": "uint256"
        }
      ],
      "name": "getUserRefundableDeposit",
      "outputs": [
        {
          "name": "",
          "type": "uint256"
        }
      ],
      "payable": false,
      "stateMutability": "view",
      "type": "function",
      "signature": "0xf08ce73c"
    },
    {
      "constant": true,
      "inputs": [
        {
          "name": "a",
          "type": "address"
        }
      ],
      "name": "getUserDocuments",
      "outputs": [
        {
          "name": "",
          "type": "bytes32[]"
        }
      ],
      "payable": false,
      "stateMutability": "view",
      "type": "function",
      "signature": "0x90a4b162"
    },
    {
      "constant": true,
      "inputs": [],
      "name": "count",
      "outputs": [
        {
          "name": "",
          "type": "uint256"
        }
      ],
      "payable": false,
      "stateMutability": "view",
      "type": "function",
      "signature": "0x06661abd"
    },
    {
      "constant": true,
      "inputs": [],
      "name": "next",
      "outputs": [
        {
          "name": "",
          "type": "uint256"
        }
      ],
      "payable": false,
      "stateMutability": "view",
      "type": "function",
      "signature": "0x4c8fe526"
    }
  ],
  "bytecode": "0x6080604081905260008054600160a060020a0319163317808255600160a060020a0316917f8be0079c531659141344cd1fd0a4f28419497f9722a3daafe3b4186f6b6457e0908290a3611179806100576000396000f3fe6080604052600436106101115763ffffffff7c010000000000000000000000000000000000000000000000000000000060003504166306661abd811461011657806319ab453c1461013d5780633a7f63151461017257806346839eae146101b75780634c8fe526146102025780635a271e74146102175780635a55c1f014610262578063715018a6146102bc57806378238c37146102d157806379cbc5fa146103045780638c239c70146103355780638da5cb5b1461036b5780638f32d59b1461038057806390a4b162146103a9578063b55af6a81461042c578063c0de2c1814610471578063db3543f5146104b6578063e90956cf146104e9578063f08ce73c1461051c578063f2fde38b14610567575b600080fd5b34801561012257600080fd5b5061012b61059a565b60408051918252519081900360200190f35b34801561014957600080fd5b506101706004803603602081101561016057600080fd5b5035600160a060020a03166105a0565b005b34801561017e57600080fd5b5061012b6004803603608081101561019557600080fd5b50600160a060020a038135169060208101359060408101359060600135610600565b3480156101c357600080fd5b50610170600480360360a08110156101da57600080fd5b50803590600160a060020a036020820135169060408101359060608101359060800135610727565b34801561020e57600080fd5b5061012b610769565b34801561022357600080fd5b5061012b600480360360a081101561023a57600080fd5b50600160a060020a038135169060208101359060408101359060608101359060800135610772565b34801561026e57600080fd5b5061028c6004803603602081101561028557600080fd5b5035610914565b60408051600160a060020a0390951685526020850193909352838301919091526060830152519081900360800190f35b3480156102c857600080fd5b50610170610947565b3480156102dd57600080fd5b50610170600480360360208110156102f457600080fd5b5035600160a060020a03166109a4565b34801561031057600080fd5b506103196109eb565b60408051600160a060020a039092168252519081900360200190f35b34801561034157600080fd5b5061012b6004803603606081101561035857600080fd5b50803590602081013590604001356109fa565b34801561037757600080fd5b50610319610a8f565b34801561038c57600080fd5b50610395610a9e565b604080519115158252519081900360200190f35b3480156103b557600080fd5b506103dc600480360360208110156103cc57600080fd5b5035600160a060020a0316610aaf565b60408051602080825283518183015283519192839290830191858101910280838360005b83811015610418578181015183820152602001610400565b505050509050019250505060405180910390f35b34801561043857600080fd5b506101706004803603608081101561044f57600080fd5b50803590600160a060020a036020820135169060408101359060600135610b1b565b34801561047d57600080fd5b506101706004803603608081101561049457600080fd5b50600160a060020a038135169060208101359060408101359060600135610bf1565b3480156104c257600080fd5b50610170600480360360208110156104d957600080fd5b5035600160a060020a0316610cb5565b3480156104f557600080fd5b506101706004803603602081101561050c57600080fd5b5035600160a060020a0316610cfd565b34801561052857600080fd5b5061012b600480360360a081101561053f57600080fd5b50600160a060020a038135169060208101359060408101359060608101359060800135610d45565b34801561057357600080fd5b506101706004803603602081101561058a57600080fd5b5035600160a060020a0316610e9a565b60065490565b6105a8610a9e565b15156105b357600080fd5b600160a060020a03811615156105c857600080fd5b600a54600160a060020a0316156105de57600080fd5b600a8054600160a060020a031916600160a060020a0392909216919091179055565b600080805b600160a060020a03871660009081526002602052604090205481101561071d57600160a060020a038716600090815260026020526040812080546106719260019290918590811061065257fe5b9060005260206000200154815260200190815260200160002087610eb6565b80156106c55750600160a060020a038716600090815260026020526040812080546106c5926001929091859081106106a557fe5b906000526020600020015481526020019081526020016000208686610ec1565b1561071557600160a060020a038716600090815260026020526040812080546001929190849081106106f357fe5b9060005260206000200154815260200190815260200160002060030154820191505b600101610605565b5095945050505050565b600a54600160a060020a0316151561073e57600080fd5b600754600160a060020a0316331461075557600080fd5b6107628585858585610ee4565b5050505050565b60065460010190565b600160a060020a03851660009081526004602090815260408083208784529091528120548190815b600160a060020a03891660009081526002602052604090205481101561090757600160a060020a03891660009081526002602052604081208054610806926001929091859081106107e757fe5b9060005260206000200154815260200190815260200160002089610eb6565b801561085a5750600160a060020a0389166000908152600260205260408120805461085a9260019290918590811061083a57fe5b906000526020600020015481526020019081526020016000208887610ec1565b80156108af5750600160a060020a038916600090815260026020526040812080546108af9260019290918590811061088e57fe5b90600052602060002001548152602001908152602001600020838888611072565b156108ff57600160a060020a038916600090815260026020526040812080546001929190849081106108dd57fe5b9060005260206000200154815260200190815260200160002060030154830192505b60010161079a565b5090979650505050505050565b60009081526001602081905260409091208054918101546002820154600390920154600160a060020a0390931693909290565b61094f610a9e565b151561095a57600080fd5b60008054604051600160a060020a03909116907f8be0079c531659141344cd1fd0a4f28419497f9722a3daafe3b4186f6b6457e0908390a360008054600160a060020a0319169055565b6109ac610a9e565b15156109b757600080fd5b600854600160a060020a038281169116146109e85760088054600160a060020a031916600160a060020a0383161790555b50565b600a54600160a060020a031681565b600080805b600086815260036020526040902054811015610a865760008681526003602052604081208054610a38926001929091859081106106a557fe5b15610a7e5760008681526003602052604081208054600192919084908110610a5c57fe5b9060005260206000200154815260200190815260200160002060030154820191505b6001016109ff565b50949350505050565b600054600160a060020a031690565b600054600160a060020a0316331490565b600160a060020a038116600090815260056020908152604091829020805483518184028101840190945280845260609392830182828015610b0f57602002820191906000526020600020905b815481526020019060010190808311610afb575b50505050509050919050565b600a54600160a060020a03161515610b3257600080fd5b600954600160a060020a03163314610b4957600080fd5b610beb84848484600a60009054906101000a9004600160a060020a0316600160a060020a0316637ff8b20e6040518163ffffffff167c010000000000000000000000000000000000000000000000000000000002815260040160206040518083038186803b158015610bba57600080fd5b505afa158015610bce573d6000803e3d6000fd5b505050506040513d6020811015610be457600080fd5b5051610ee4565b50505050565b600854600160a060020a03163314610c0857600080fd5b600160a060020a038416600090815260046020908152604080832086845290915290206002015460ff161515610c3d57600080fd5b600160a060020a03841660008181526004602090815260408083208784528252918290208581556001018054850190558151928352820185905281810184905260608201839052517f32fa823b4a028207fad95f1b2f4e8759e79f10f285a83ddde5720cfa63f6cc0c9181900360800190a150505050565b610cbd610a9e565b1515610cc857600080fd5b600754600160a060020a038281169116146109e85760078054600160a060020a038316600160a060020a031990911617905550565b610d05610a9e565b1515610d1057600080fd5b600954600160a060020a038281169116146109e85760098054600160a060020a038316600160a060020a031990911617905550565b600160a060020a03851660009081526004602090815260408083208784529091528120548190815b600160a060020a03891660009081526002602052604090205481101561090757600160a060020a03891660009081526002602052604081208054610dba926001929091859081106107e757fe5b8015610e0e5750600160a060020a03891660009081526002602052604081208054610e0e92600192909185908110610dee57fe5b9060005260206000200154815260200190815260200160002088876110a8565b8015610e425750600160a060020a03891660009081526002602052604081208054610e429260019290918590811061088e57fe5b15610e9257600160a060020a03891660009081526002602052604081208054600192919084908110610e7057fe5b9060005260206000200154815260200190815260200160002060030154830192505b600101610d6d565b610ea2610a9e565b1515610ead57600080fd5b6109e8816110b6565b600191909101541490565b600082846002015411158015610edc57508184600201540183105b949350505050565b6006546001018514610ef557600080fd5b610efd611126565b5060408051608081018252600160a060020a0386811680835260208084018881528486018781526060860189815260008d8152600180865289822089518154600160a060020a03191699169890981788559351878501559151600280880191909155905160039687015584825280845287822080548085018255908352848320018d90558a825294835286812080548084018255908252838220018c905560068054909201909155918252600481528482208883529052929092209091015460ff16151561101457600160a060020a038516600081815260056020908152604080832080546001818101835591855283852001899055938352600482528083208884529091529020600201805460ff191690911790555b60408051878152600160a060020a0387166020820152808201869052606081018490526080810185905290517f3824dd1088e7bdfad850be94125f706d0930233b0cee77a06f71ca952b52ea389181900360a00190a1505050505050565b600083156110805783611082565b815b935081856002015401841115801561109f57508282866002015401105b95945050505050565b600292909201549091011490565b600160a060020a03811615156110cb57600080fd5b60008054604051600160a060020a03808516939216917f8be0079c531659141344cd1fd0a4f28419497f9722a3daafe3b4186f6b6457e091a360008054600160a060020a031916600160a060020a0392909216919091179055565b6040805160808101825260008082526020820181905291810182905260608101919091529056fea165627a7a72305820fd21faab6c5a5cb9feda18ad5fe3de48e462e0b9c9044f0211a3d58f45f5fce40029",
  "source": "pragma solidity 0.5.0;\n\nimport \"openzeppelin-solidity/contracts/ownership/Ownable.sol\";\nimport \"./RewardPool.sol\";\nimport \"./DocumentRegistry.sol\";\n\n\ncontract Ballot is Ownable {\n\n    event CreateVote(uint256 voteId, address addr, bytes32 docId, uint256 dateMillis, uint256 deposit);\n    event Withdraw(address addr, bytes32 docId, uint256 claimedDate, uint256 amount);\n\n    struct Vote {\n        address addr;\n        bytes32 docId;\n        uint256 startDate;\n        uint256 deposit;\n    }\n\n    struct Status {\n        uint lastClaimedDate;\n        uint withdraw;\n        bool added;\n    }\n\n    // voteId to the vote data\n    mapping (uint256 => Vote) internal _mapById;\n\n    // address to the curator's vote data\n    mapping (address => uint256[]) internal _mapByAddr;\n\n    // docId to the curator's vote data\n    mapping (bytes32 => uint256[]) internal _mapByDoc;\n\n    // for user document list\n    mapping (address => mapping (bytes32 => Status)) internal _mapUserDocAdded;\n    mapping (address => bytes32[]) internal _mapUserDoc;\n\n    // number of total votes\n    uint256 private _length;\n\n    // accessibility\n    address private _foundation;\n    address private _rewardPool;\n    address private _curator;\n\n    DocumentRegistry public _registry;\n\n    function init(address addr) external onlyOwner() {\n        require(address(addr) != address(0));\n        require(address(_registry) == address(0));\n        _registry = DocumentRegistry(addr);\n    }\n\n    // adding a new vote\n    function create(uint256 i, address addr, bytes32 docId, uint256 deposit) external {\n        require(address(_registry) != address(0));\n        require(msg.sender == _curator);\n        add(i, addr, docId, deposit, _registry.getDateMillis());\n    }\n\n    function insert(uint256 i, address addr, bytes32 docId, uint256 deposit, uint256 dateMillis) external {\n        require(address(_registry) != address(0));\n        require(msg.sender == _foundation);\n        add(i, addr, docId, deposit, dateMillis);\n    }\n\n    function updateWithdraw(address a, bytes32 d, uint256 claimedDate, uint256 withdraw) external {\n        require(msg.sender == _rewardPool);\n        require(_mapUserDocAdded[a][d].added);\n        _mapUserDocAdded[a][d].lastClaimedDate = claimedDate;\n        _mapUserDocAdded[a][d].withdraw += withdraw;\n        emit Withdraw(a, d, claimedDate, withdraw);\n    }\n\n    function setRewardPool(address addr) external onlyOwner() {\n        if (addr != _rewardPool) {\n            _rewardPool = addr;\n        }\n    }\n\n    function setCurator(address addr) external onlyOwner() {\n        if (addr != _curator) {\n            _curator = addr;\n        }\n    }\n\n    function setFoundation(address addr) external onlyOwner() {\n        if (addr != _foundation) {\n            _foundation = addr;\n        }\n    }\n\n    function getVote(uint256 i) external view returns (address, bytes32, uint256, uint256) {\n        return (_mapById[i].addr, _mapById[i].docId, _mapById[i].startDate, _mapById[i].deposit);\n    }\n\n    function getActiveVotes(bytes32 docId, uint dMillis, uint vMillis) external view returns (uint256) {\n        uint256 sum = 0;\n        for (uint i=0; i < _mapByDoc[docId].length; i++) {\n            if (isActive(_mapById[_mapByDoc[docId][i]], dMillis, vMillis)) {\n                sum += _mapById[_mapByDoc[docId][i]].deposit;\n            }\n        }\n        return sum;\n    }\n\n    function getUserActiveVotes(address a, bytes32 d, uint dMillis, uint vMillis) external view returns (uint256) {\n        uint256 sum = 0;\n        for (uint i=0; i < _mapByAddr[a].length; i++) {\n            if (sameDoc(_mapById[_mapByAddr[a][i]], d)\n            && isActive(_mapById[_mapByAddr[a][i]], dMillis, vMillis)) {\n                sum += _mapById[_mapByAddr[a][i]].deposit;\n            }\n        }\n        return sum;\n    }\n\n    function getUserClaimableVotes(address a, bytes32 d, uint dm, uint cm, uint vm) external view returns (uint256) {\n        uint256 sum = 0;\n        uint256 lm = _mapUserDocAdded[a][d].lastClaimedDate;\n        for (uint i=0; i < _mapByAddr[a].length; i++) {\n            if (sameDoc(_mapById[_mapByAddr[a][i]], d)\n            && isActive(_mapById[_mapByAddr[a][i]], dm, vm)\n            && isClaimable(_mapById[_mapByAddr[a][i]], lm, cm, vm)) {\n                sum += _mapById[_mapByAddr[a][i]].deposit;\n            }\n        }\n        return sum;\n    }\n\n    function getUserRefundableDeposit(address a, bytes32 d, uint dm, uint cm, uint vm) external view returns (uint256) {\n        uint256 sum = 0;\n        uint256 lm = _mapUserDocAdded[a][d].lastClaimedDate;\n        for (uint i=0; i < _mapByAddr[a].length; i++) {\n            if (sameDoc(_mapById[_mapByAddr[a][i]], d)\n            && isRefundable(_mapById[_mapByAddr[a][i]], dm, vm)\n            && isClaimable(_mapById[_mapByAddr[a][i]], lm, cm, vm)) {\n                sum += _mapById[_mapByAddr[a][i]].deposit;\n            }\n        }\n        return sum;\n    }\n\n    function getUserDocuments(address a) external view returns (bytes32[] memory) {\n        return _mapUserDoc[a];\n    }\n\n    function count() external view returns (uint256) {\n        return uint256(_length);\n    }\n\n    function next() external view returns (uint256) {\n        return uint256(_length + 1);\n    }\n\n    // adding a new vote\n    function add(uint256 i, address a, bytes32 d, uint256 deposit, uint256 dm) private {\n        require(i == _length + 1);\n\n        Vote memory vote = Vote(a, d, dm, deposit);\n        _mapById[i] = vote;\n        _mapByAddr[a].push(i);\n        _mapByDoc[d].push(i);\n        _length++;\n\n        if (_mapUserDocAdded[a][d].added == false) {\n            _mapUserDoc[a].push(d);\n            _mapUserDocAdded[a][d].added = true;\n        }\n\n        emit CreateVote(i, a, d, dm, deposit);\n    }\n\n    function sameDoc(Vote storage vote, bytes32 d) private view returns (bool) {\n        return (d == vote.docId);\n    }\n\n    function isActive(Vote storage vote, uint dm, uint vm) private view returns (bool) {\n        return (vote.startDate <= dm) && (dm < vote.startDate + vm);\n    }\n\n    function isClaimable(Vote storage vote, uint lm, uint cm, uint vm) private view returns (bool) {\n        lm = lm == 0 ? vm : lm;\n        return (lm <= vote.startDate + vm) && (vote.startDate + vm < cm);\n    }\n\n    function isRefundable(Vote storage vote, uint dm, uint vm) private view returns (bool) {\n        return (dm == vote.startDate + vm);\n    }\n}\n",
  "sourcePath": "/Users/centroine/Documents/iris/decompanyio/decompanyio/contracts/Ballot.sol",
  "compiler": {
    "name": "solc",
    "version": "0.5.0+commit.1d4f565a.Emscripten.clang"
  },
  "schemaVersion": "3.0.2",
  "updatedAt": "2019-06-18T04:45:07.766Z",
  "devdoc": {
    "methods": {
      "isOwner()": {
        "return": "true if `msg.sender` is the owner of the contract."
      },
      "owner()": {
        "return": "the address of the owner."
      },
      "renounceOwnership()": {
        "details": "Allows the current owner to relinquish control of the contract."
      },
      "transferOwnership(address)": {
        "details": "Allows the current owner to transfer control of the contract to a newOwner.",
        "params": {
          "newOwner": "The address to transfer ownership to."
        }
      }
    }
  },
  "userdoc": {
    "methods": {
      "renounceOwnership()": {
        "notice": "Renouncing to ownership will leave the contract without an owner. It will not be possible to call the functions with the `onlyOwner` modifier anymore."
      }
    }
  }
}