{
  "contractName": "BountyOne",
  "abi": [
    {
      "constant": false,
      "inputs": [],
      "name": "renounceOwnership",
      "outputs": [],
      "payable": false,
      "stateMutability": "nonpayable",
      "type": "function"
    },
    {
      "constant": true,
      "inputs": [],
      "name": "owner",
      "outputs": [
        {
          "name": "",
          "type": "address"
        }
      ],
      "payable": false,
      "stateMutability": "view",
      "type": "function"
    },
    {
      "constant": true,
      "inputs": [
        {
          "name": "",
          "type": "uint256"
        }
      ],
      "name": "claimed",
      "outputs": [
        {
          "name": "",
          "type": "address"
        }
      ],
      "payable": false,
      "stateMutability": "view",
      "type": "function"
    },
    {
      "constant": true,
      "inputs": [],
      "name": "provision",
      "outputs": [
        {
          "name": "",
          "type": "uint256"
        }
      ],
      "payable": false,
      "stateMutability": "view",
      "type": "function"
    },
    {
      "constant": false,
      "inputs": [
        {
          "name": "_newOwner",
          "type": "address"
        }
      ],
      "name": "transferOwnership",
      "outputs": [],
      "payable": false,
      "stateMutability": "nonpayable",
      "type": "function"
    },
    {
      "anonymous": false,
      "inputs": [
        {
          "indexed": false,
          "name": "token",
          "type": "address"
        },
        {
          "indexed": false,
          "name": "provision",
          "type": "uint256"
        }
      ],
      "name": "_InitializeBountyOne",
      "type": "event"
    },
    {
      "anonymous": false,
      "inputs": [
        {
          "indexed": false,
          "name": "addr",
          "type": "address"
        },
        {
          "indexed": false,
          "name": "provision",
          "type": "uint256"
        }
      ],
      "name": "_ClaimBountyOne",
      "type": "event"
    },
    {
      "anonymous": false,
      "inputs": [
        {
          "indexed": true,
          "name": "previousOwner",
          "type": "address"
        }
      ],
      "name": "OwnershipRenounced",
      "type": "event"
    },
    {
      "anonymous": false,
      "inputs": [
        {
          "indexed": true,
          "name": "previousOwner",
          "type": "address"
        },
        {
          "indexed": true,
          "name": "newOwner",
          "type": "address"
        }
      ],
      "name": "OwnershipTransferred",
      "type": "event"
    },
    {
      "constant": false,
      "inputs": [
        {
          "name": "_token",
          "type": "address"
        },
        {
          "name": "_provision",
          "type": "uint256"
        }
      ],
      "name": "init",
      "outputs": [],
      "payable": false,
      "stateMutability": "nonpayable",
      "type": "function"
    },
    {
      "constant": true,
      "inputs": [],
      "name": "available",
      "outputs": [
        {
          "name": "",
          "type": "uint256"
        }
      ],
      "payable": false,
      "stateMutability": "view",
      "type": "function"
    },
    {
      "constant": true,
      "inputs": [],
      "name": "count",
      "outputs": [
        {
          "name": "",
          "type": "uint256"
        }
      ],
      "payable": false,
      "stateMutability": "view",
      "type": "function"
    },
    {
      "constant": true,
      "inputs": [],
      "name": "getClaimedUsers",
      "outputs": [
        {
          "name": "",
          "type": "address[]"
        }
      ],
      "payable": false,
      "stateMutability": "view",
      "type": "function"
    },
    {
      "constant": false,
      "inputs": [],
      "name": "claim",
      "outputs": [],
      "payable": false,
      "stateMutability": "nonpayable",
      "type": "function"
    }
  ],
  "bytecode": "0x608060405260008054600160a060020a03191633179055610713806100256000396000f3006080604052600436106100a35763ffffffff7c010000000000000000000000000000000000000000000000000000000060003504166306661abd81146100a8578063399ae724146100cf57806348a0d754146100f55780634e71d92d1461010a578063715018a61461011f5780638da5cb5b14610134578063dbe7e3bd14610165578063dcfff8a91461017d578063ef81fafd14610192578063f2fde38b146101f7575b600080fd5b3480156100b457600080fd5b506100bd610218565b60408051918252519081900360200190f35b3480156100db57600080fd5b506100f3600160a060020a036004351660243561021e565b005b34801561010157600080fd5b506100bd6102e9565b34801561011657600080fd5b506100f36103ba565b34801561012b57600080fd5b506100f361053c565b34801561014057600080fd5b506101496105a8565b60408051600160a060020a039092168252519081900360200190f35b34801561017157600080fd5b506101496004356105b7565b34801561018957600080fd5b506100bd6105df565b34801561019e57600080fd5b506101a76105e5565b60408051602080825283518183015283519192839290830191858101910280838360005b838110156101e35781810151838201526020016101cb565b505050509050019250505060405180910390f35b34801561020357600080fd5b506100f3600160a060020a0360043516610647565b60045490565b600054600160a060020a0316331461023557600080fd5b600160a060020a038216158015906102565750600154600160a060020a0316155b151561026157600080fd5b80158015906102705750600254155b151561027b57600080fd5b6001805473ffffffffffffffffffffffffffffffffffffffff1916600160a060020a0384169081179091556002829055604080519182526020820183905280517fd1e582f8c927a043dcd1e9480493bc663fb80cd326415d3763fe0cefdf2a2c869281900390910190a15050565b60003315156102f757600080fd5b336000908152600360205260409020541515806103a65750600254600154604080517f70a082310000000000000000000000000000000000000000000000000000000081523060048201529051600160a060020a03909216916370a08231916024808201926020929091908290030181600087803b15801561037857600080fd5b505af115801561038c573d6000803e3d6000fd5b505050506040513d60208110156103a257600080fd5b5051105b6103b2576002546103b5565b60005b905090565b600154600160a060020a031615156103d157600080fd5b3315156103dd57600080fd5b33600090815260036020526040902054156103f757600080fd5b600154600254604080517fa9059cbb000000000000000000000000000000000000000000000000000000008152336004820152602481019290925251600160a060020a039092169163a9059cbb916044808201926020929091908290030181600087803b15801561046757600080fd5b505af115801561047b573d6000803e3d6000fd5b505050506040513d602081101561049157600080fd5b50511561053a5760028054336000818152600360209081526040808320949094556004805460018101825592527f8a35acfbc15ff81a39ae7d344fd709f28e8600b4aa8c65c6b64bfe7fe36bd19b909101805473ffffffffffffffffffffffffffffffffffffffff191683179055925482519182529281019290925280517f4db5ac836921cdb01fa55f3e0c67f26b54ed2e661f7ed30b29e25a37a1d0d2bb9281900390910190a15b565b600054600160a060020a0316331461055357600080fd5b60008054604051600160a060020a03909116917ff8df31144d9c2f0f6b59d69b8b98abd5459d07f2742c4df920b25aae33c6482091a26000805473ffffffffffffffffffffffffffffffffffffffff19169055565b600054600160a060020a031681565b60048054829081106105c557fe5b600091825260209091200154600160a060020a0316905081565b60025481565b6060600480548060200260200160405190810160405280929190818152602001828054801561063d57602002820191906000526020600020905b8154600160a060020a0316815260019091019060200180831161061f575b5050505050905090565b600054600160a060020a0316331461065e57600080fd5b6106678161066a565b50565b600160a060020a038116151561067f57600080fd5b60008054604051600160a060020a03808516939216917f8be0079c531659141344cd1fd0a4f28419497f9722a3daafe3b4186f6b6457e091a36000805473ffffffffffffffffffffffffffffffffffffffff1916600160a060020a03929092169190911790555600a165627a7a7230582070b90e2e41391b31df88d419dba24a0068a7d69ecb0d5336ead2987a13953e290029",
  "source": "pragma solidity ^0.4.24;\n\nimport \"./Deck.sol\";\nimport \"openzeppelin-solidity/contracts/ownership/Ownable.sol\";\n\ncontract BountyOne is Ownable {\n\n  event _InitializeBountyOne(address token, uint provision);\n  event _ClaimBountyOne(address addr, uint provision);\n\n  Deck private token;\n  uint256 public provision;\n\n  mapping (address => uint) private map;\n  address[] public claimed;\n\n  function init(address _token, uint256 _provision) public\n    onlyOwner()\n  {\n    require(_token != 0 && address(token) == 0);\n    require(_provision != 0 && provision == 0);\n\n    token = Deck(_token);\n    provision = _provision;\n\n    emit _InitializeBountyOne(_token, _provision);\n  }\n\n  function available() public view returns (uint) {\n    require(address(msg.sender) != 0);\n    return (map[msg.sender] != 0 || token.balanceOf(address(this)) < provision) ? 0 : provision;\n  }\n\n  function count() public view returns (uint) {\n    return uint(claimed.length);\n  }\n\n  function getClaimedUsers() public view returns (address[]) {\n    return claimed;\n  }\n\n  function claim() public {\n    require(address(token) != 0);\n    require(address(msg.sender) != 0);\n    require(map[msg.sender] == 0);\n\n    if (token.transfer(msg.sender, provision)) {\n      map[msg.sender] = provision;\n      claimed.push(msg.sender);\n      emit _ClaimBountyOne(msg.sender, provision);\n    }\n  }\n}\n",
  "sourcePath": "/Users/centroine/Documents/decompanyio/decompanyio/contracts/BountyOne.sol",
  "compiler": {
    "name": "solc",
    "version": "0.4.24+commit.e67f0147.Emscripten.clang"
  },
  "schemaVersion": "2.0.1",
  "updatedAt": "2018-11-14T01:20:09.985Z"
}