{
  "contractName": "BountyOne",
  "abi": [
    {
      "constant": false,
      "inputs": [],
      "name": "renounceOwnership",
      "outputs": [],
      "payable": false,
      "stateMutability": "nonpayable",
      "type": "function",
      "signature": "0x715018a6"
    },
    {
      "constant": true,
      "inputs": [],
      "name": "owner",
      "outputs": [
        {
          "name": "",
          "type": "address"
        }
      ],
      "payable": false,
      "stateMutability": "view",
      "type": "function",
      "signature": "0x8da5cb5b"
    },
    {
      "constant": true,
      "inputs": [],
      "name": "isOwner",
      "outputs": [
        {
          "name": "",
          "type": "bool"
        }
      ],
      "payable": false,
      "stateMutability": "view",
      "type": "function",
      "signature": "0x8f32d59b"
    },
    {
      "constant": true,
      "inputs": [],
      "name": "provision",
      "outputs": [
        {
          "name": "",
          "type": "uint256"
        }
      ],
      "payable": false,
      "stateMutability": "view",
      "type": "function",
      "signature": "0xdcfff8a9"
    },
    {
      "constant": false,
      "inputs": [
        {
          "name": "newOwner",
          "type": "address"
        }
      ],
      "name": "transferOwnership",
      "outputs": [],
      "payable": false,
      "stateMutability": "nonpayable",
      "type": "function",
      "signature": "0xf2fde38b"
    },
    {
      "anonymous": false,
      "inputs": [
        {
          "indexed": false,
          "name": "token",
          "type": "address"
        },
        {
          "indexed": false,
          "name": "provision",
          "type": "uint256"
        }
      ],
      "name": "InitializeBountyOne",
      "type": "event",
      "signature": "0xa43f9eb1f5e8925e935a99e3ad3867517b3dac619dfeb2489dac8d8df7593b4c"
    },
    {
      "anonymous": false,
      "inputs": [
        {
          "indexed": false,
          "name": "addr",
          "type": "address"
        },
        {
          "indexed": false,
          "name": "provision",
          "type": "uint256"
        }
      ],
      "name": "ClaimBountyOne",
      "type": "event",
      "signature": "0x9bf828b438bdf000ca34cec2c15ebd14f39bf4d45d7bb56054b06e1e59fcd2ef"
    },
    {
      "anonymous": false,
      "inputs": [
        {
          "indexed": true,
          "name": "previousOwner",
          "type": "address"
        },
        {
          "indexed": true,
          "name": "newOwner",
          "type": "address"
        }
      ],
      "name": "OwnershipTransferred",
      "type": "event",
      "signature": "0x8be0079c531659141344cd1fd0a4f28419497f9722a3daafe3b4186f6b6457e0"
    },
    {
      "constant": false,
      "inputs": [
        {
          "name": "_token",
          "type": "address"
        },
        {
          "name": "_provision",
          "type": "uint256"
        }
      ],
      "name": "init",
      "outputs": [],
      "payable": false,
      "stateMutability": "nonpayable",
      "type": "function",
      "signature": "0x399ae724"
    },
    {
      "constant": true,
      "inputs": [],
      "name": "available",
      "outputs": [
        {
          "name": "",
          "type": "uint256"
        }
      ],
      "payable": false,
      "stateMutability": "view",
      "type": "function",
      "signature": "0x48a0d754"
    },
    {
      "constant": true,
      "inputs": [],
      "name": "count",
      "outputs": [
        {
          "name": "",
          "type": "uint256"
        }
      ],
      "payable": false,
      "stateMutability": "view",
      "type": "function",
      "signature": "0x06661abd"
    },
    {
      "constant": true,
      "inputs": [],
      "name": "getClaimedUsers",
      "outputs": [
        {
          "name": "",
          "type": "address[]"
        }
      ],
      "payable": false,
      "stateMutability": "view",
      "type": "function",
      "signature": "0xef81fafd"
    },
    {
      "constant": false,
      "inputs": [],
      "name": "claim",
      "outputs": [],
      "payable": false,
      "stateMutability": "nonpayable",
      "type": "function",
      "signature": "0x4e71d92d"
    }
  ],
  "bytecode": "0x6080604081905260008054600160a060020a0319163317808255600160a060020a0316917f8be0079c531659141344cd1fd0a4f28419497f9722a3daafe3b4186f6b6457e0908290a3610714806100576000396000f3fe6080604052600436106100a35763ffffffff7c010000000000000000000000000000000000000000000000000000000060003504166306661abd81146100a8578063399ae724146100cf57806348a0d7541461010a5780634e71d92d1461011f578063715018a6146101345780638da5cb5b146101495780638f32d59b1461017a578063dcfff8a9146101a3578063ef81fafd146101b8578063f2fde38b1461021d575b600080fd5b3480156100b457600080fd5b506100bd610250565b60408051918252519081900360200190f35b3480156100db57600080fd5b50610108600480360360408110156100f257600080fd5b50600160a060020a038135169060200135610256565b005b34801561011657600080fd5b506100bd61031d565b34801561012b57600080fd5b506101086103de565b34801561014057600080fd5b5061010861055a565b34801561015557600080fd5b5061015e6105c4565b60408051600160a060020a039092168252519081900360200190f35b34801561018657600080fd5b5061018f6105d3565b604080519115158252519081900360200190f35b3480156101af57600080fd5b506100bd6105e4565b3480156101c457600080fd5b506101cd6105ea565b60408051602080825283518183015283519192839290830191858101910280838360005b838110156102095781810151838201526020016101f1565b505050509050019250505060405180910390f35b34801561022957600080fd5b506101086004803603602081101561024057600080fd5b5035600160a060020a031661064c565b60045490565b61025e6105d3565b151561026957600080fd5b600160a060020a0382161580159061028a5750600154600160a060020a0316155b151561029557600080fd5b80158015906102a45750600254155b15156102af57600080fd5b6001805473ffffffffffffffffffffffffffffffffffffffff1916600160a060020a0384169081179091556002829055604080519182526020820183905280517fa43f9eb1f5e8925e935a99e3ad3867517b3dac619dfeb2489dac8d8df7593b4c9281900390910190a15050565b336000908152600360205260408120541515806103ca5750600254600154604080517f70a082310000000000000000000000000000000000000000000000000000000081523060048201529051600160a060020a03909216916370a0823191602480820192602092909190829003018186803b15801561039c57600080fd5b505afa1580156103b0573d6000803e3d6000fd5b505050506040513d60208110156103c657600080fd5b5051105b6103d6576002546103d9565b60005b905090565b600154600160a060020a031615156103f557600080fd5b33151561040157600080fd5b3360009081526003602052604090205415156105585760025433600081815260036020908152604080832094855560048054600180820183557f8a35acfbc15ff81a39ae7d344fd709f28e8600b4aa8c65c6b64bfe7fe36bd19b909101805473ffffffffffffffffffffffffffffffffffffffff19168717905554955482517fa9059cbb00000000000000000000000000000000000000000000000000000000815291820195909552602481019490945251600160a060020a039094169363a9059cbb93604480820194918390030190829087803b1580156104e257600080fd5b505af11580156104f6573d6000803e3d6000fd5b505050506040513d602081101561050c57600080fd5b5050336000818152600360209081526040918290205482519384529083015280517f9bf828b438bdf000ca34cec2c15ebd14f39bf4d45d7bb56054b06e1e59fcd2ef9281900390910190a15b565b6105626105d3565b151561056d57600080fd5b60008054604051600160a060020a03909116907f8be0079c531659141344cd1fd0a4f28419497f9722a3daafe3b4186f6b6457e0908390a36000805473ffffffffffffffffffffffffffffffffffffffff19169055565b600054600160a060020a031690565b600054600160a060020a0316331490565b60025481565b6060600480548060200260200160405190810160405280929190818152602001828054801561064257602002820191906000526020600020905b8154600160a060020a03168152600190910190602001808311610624575b5050505050905090565b6106546105d3565b151561065f57600080fd5b6106688161066b565b50565b600160a060020a038116151561068057600080fd5b60008054604051600160a060020a03808516939216917f8be0079c531659141344cd1fd0a4f28419497f9722a3daafe3b4186f6b6457e091a36000805473ffffffffffffffffffffffffffffffffffffffff1916600160a060020a039290921691909117905556fea165627a7a72305820622eb5ebbc1eb35d66e8e04001818eb4e7cd8446099506bd5c053c861ad04e9b0029",
  "source": "pragma solidity 0.5.0;\n\nimport \"./Deck.sol\";\nimport \"openzeppelin-solidity/contracts/ownership/Ownable.sol\";\n\n\ncontract BountyOne is Ownable {\n\n    event InitializeBountyOne(address token, uint provision);\n    event ClaimBountyOne(address addr, uint provision);\n\n    Deck private token;\n    uint256 public provision;\n\n    mapping (address => uint) private map;\n    address[] private claimed;\n\n    function init(address _token, uint256 _provision) public\n        onlyOwner()\n    {\n        require(_token != address(0) && address(token) == address(0));\n        require(_provision != 0 && provision == 0);\n\n        token = Deck(_token);\n        provision = _provision;\n\n        emit InitializeBountyOne(_token, _provision);\n    }\n\n    function available() public view returns (uint) {\n        return (map[msg.sender] != 0 || token.balanceOf(address(this)) < provision) ? 0 : provision;\n    }\n\n    function count() public view returns (uint) {\n        return uint(claimed.length);\n    }\n\n    function getClaimedUsers() public view returns (address[] memory) {\n        return claimed;\n    }\n\n    function claim() public {\n        require(address(token) != address(0));\n        require(address(msg.sender) != address(0));\n\n        if (map[msg.sender] == 0) {\n            map[msg.sender] = provision;\n            claimed.push(msg.sender);\n            token.transfer(msg.sender, map[msg.sender]);\n            emit ClaimBountyOne(msg.sender, map[msg.sender]);\n        }\n    }\n}\n",
  "sourcePath": "/Users/centroine/Documents/iris/decompanyio/decompanyio/contracts/BountyOne.sol",
  "compiler": {
    "name": "solc",
    "version": "0.5.0+commit.1d4f565a.Emscripten.clang"
  },
  "schemaVersion": "3.0.2",
  "updatedAt": "2019-05-27T06:24:47.103Z",
  "devdoc": {
    "methods": {
      "isOwner()": {
        "return": "true if `msg.sender` is the owner of the contract."
      },
      "owner()": {
        "return": "the address of the owner."
      },
      "renounceOwnership()": {
        "details": "Allows the current owner to relinquish control of the contract."
      },
      "transferOwnership(address)": {
        "details": "Allows the current owner to transfer control of the contract to a newOwner.",
        "params": {
          "newOwner": "The address to transfer ownership to."
        }
      }
    }
  },
  "userdoc": {
    "methods": {
      "renounceOwnership()": {
        "notice": "Renouncing to ownership will leave the contract without an owner. It will not be possible to call the functions with the `onlyOwner` modifier anymore."
      }
    }
  }
}