{
  "contractName": "BountyOne",
  "abi": [
    {
      "constant": false,
      "inputs": [],
      "name": "renounceOwnership",
      "outputs": [],
      "payable": false,
      "stateMutability": "nonpayable",
      "type": "function",
      "signature": "0x715018a6"
    },
    {
      "constant": true,
      "inputs": [],
      "name": "owner",
      "outputs": [
        {
          "name": "",
          "type": "address"
        }
      ],
      "payable": false,
      "stateMutability": "view",
      "type": "function",
      "signature": "0x8da5cb5b"
    },
    {
      "constant": true,
      "inputs": [],
      "name": "isOwner",
      "outputs": [
        {
          "name": "",
          "type": "bool"
        }
      ],
      "payable": false,
      "stateMutability": "view",
      "type": "function",
      "signature": "0x8f32d59b"
    },
    {
      "constant": true,
      "inputs": [
        {
          "name": "",
          "type": "uint256"
        }
      ],
      "name": "claimed",
      "outputs": [
        {
          "name": "",
          "type": "address"
        }
      ],
      "payable": false,
      "stateMutability": "view",
      "type": "function",
      "signature": "0xdbe7e3bd"
    },
    {
      "constant": true,
      "inputs": [],
      "name": "provision",
      "outputs": [
        {
          "name": "",
          "type": "uint256"
        }
      ],
      "payable": false,
      "stateMutability": "view",
      "type": "function",
      "signature": "0xdcfff8a9"
    },
    {
      "constant": false,
      "inputs": [
        {
          "name": "newOwner",
          "type": "address"
        }
      ],
      "name": "transferOwnership",
      "outputs": [],
      "payable": false,
      "stateMutability": "nonpayable",
      "type": "function",
      "signature": "0xf2fde38b"
    },
    {
      "anonymous": false,
      "inputs": [
        {
          "indexed": false,
          "name": "token",
          "type": "address"
        },
        {
          "indexed": false,
          "name": "provision",
          "type": "uint256"
        }
      ],
      "name": "_InitializeBountyOne",
      "type": "event",
      "signature": "0xd1e582f8c927a043dcd1e9480493bc663fb80cd326415d3763fe0cefdf2a2c86"
    },
    {
      "anonymous": false,
      "inputs": [
        {
          "indexed": false,
          "name": "addr",
          "type": "address"
        },
        {
          "indexed": false,
          "name": "provision",
          "type": "uint256"
        }
      ],
      "name": "_ClaimBountyOne",
      "type": "event",
      "signature": "0x4db5ac836921cdb01fa55f3e0c67f26b54ed2e661f7ed30b29e25a37a1d0d2bb"
    },
    {
      "anonymous": false,
      "inputs": [
        {
          "indexed": true,
          "name": "previousOwner",
          "type": "address"
        },
        {
          "indexed": true,
          "name": "newOwner",
          "type": "address"
        }
      ],
      "name": "OwnershipTransferred",
      "type": "event",
      "signature": "0x8be0079c531659141344cd1fd0a4f28419497f9722a3daafe3b4186f6b6457e0"
    },
    {
      "constant": false,
      "inputs": [
        {
          "name": "_token",
          "type": "address"
        },
        {
          "name": "_provision",
          "type": "uint256"
        }
      ],
      "name": "init",
      "outputs": [],
      "payable": false,
      "stateMutability": "nonpayable",
      "type": "function",
      "signature": "0x399ae724"
    },
    {
      "constant": true,
      "inputs": [],
      "name": "available",
      "outputs": [
        {
          "name": "",
          "type": "uint256"
        }
      ],
      "payable": false,
      "stateMutability": "view",
      "type": "function",
      "signature": "0x48a0d754"
    },
    {
      "constant": true,
      "inputs": [],
      "name": "count",
      "outputs": [
        {
          "name": "",
          "type": "uint256"
        }
      ],
      "payable": false,
      "stateMutability": "view",
      "type": "function",
      "signature": "0x06661abd"
    },
    {
      "constant": true,
      "inputs": [],
      "name": "getClaimedUsers",
      "outputs": [
        {
          "name": "",
          "type": "address[]"
        }
      ],
      "payable": false,
      "stateMutability": "view",
      "type": "function",
      "signature": "0xef81fafd"
    },
    {
      "constant": false,
      "inputs": [],
      "name": "claim",
      "outputs": [],
      "payable": false,
      "stateMutability": "nonpayable",
      "type": "function",
      "signature": "0x4e71d92d"
    }
  ],
  "bytecode": "0x6080604081905260008054600160a060020a0319163317808255600160a060020a0316917f8be0079c531659141344cd1fd0a4f28419497f9722a3daafe3b4186f6b6457e0908290a361078b806100576000396000f3fe6080604052600436106100ae5763ffffffff7c010000000000000000000000000000000000000000000000000000000060003504166306661abd81146100b3578063399ae724146100da57806348a0d754146101155780634e71d92d1461012a578063715018a61461013f5780638da5cb5b146101545780638f32d59b14610185578063dbe7e3bd146101ae578063dcfff8a9146101d8578063ef81fafd146101ed578063f2fde38b14610252575b600080fd5b3480156100bf57600080fd5b506100c8610285565b60408051918252519081900360200190f35b3480156100e657600080fd5b50610113600480360360408110156100fd57600080fd5b50600160a060020a03813516906020013561028b565b005b34801561012157600080fd5b506100c8610352565b34801561013657600080fd5b50610113610413565b34801561014b57600080fd5b506101136105a9565b34801561016057600080fd5b50610169610613565b60408051600160a060020a039092168252519081900360200190f35b34801561019157600080fd5b5061019a610622565b604080519115158252519081900360200190f35b3480156101ba57600080fd5b50610169600480360360208110156101d157600080fd5b5035610633565b3480156101e457600080fd5b506100c861065b565b3480156101f957600080fd5b50610202610661565b60408051602080825283518183015283519192839290830191858101910280838360005b8381101561023e578181015183820152602001610226565b505050509050019250505060405180910390f35b34801561025e57600080fd5b506101136004803603602081101561027557600080fd5b5035600160a060020a03166106c3565b60045490565b610293610622565b151561029e57600080fd5b600160a060020a038216158015906102bf5750600154600160a060020a0316155b15156102ca57600080fd5b80158015906102d95750600254155b15156102e457600080fd5b6001805473ffffffffffffffffffffffffffffffffffffffff1916600160a060020a0384169081179091556002829055604080519182526020820183905280517fd1e582f8c927a043dcd1e9480493bc663fb80cd326415d3763fe0cefdf2a2c869281900390910190a15050565b336000908152600360205260408120541515806103ff5750600254600154604080517f70a082310000000000000000000000000000000000000000000000000000000081523060048201529051600160a060020a03909216916370a0823191602480820192602092909190829003018186803b1580156103d157600080fd5b505afa1580156103e5573d6000803e3d6000fd5b505050506040513d60208110156103fb57600080fd5b5051105b61040b5760025461040e565b60005b905090565b33600090815260036020526040902054151561056b57600154600254604080517fa9059cbb000000000000000000000000000000000000000000000000000000008152336004820152602481019290925251600160a060020a039092169163a9059cbb916044808201926020929091908290030181600087803b15801561049957600080fd5b505af11580156104ad573d6000803e3d6000fd5b505050506040513d60208110156104c357600080fd5b505060028054336000818152600360209081526040808320949094556004805460018101825592527f8a35acfbc15ff81a39ae7d344fd709f28e8600b4aa8c65c6b64bfe7fe36bd19b909101805473ffffffffffffffffffffffffffffffffffffffff191683179055925482519182529281019290925280517f4db5ac836921cdb01fa55f3e0c67f26b54ed2e661f7ed30b29e25a37a1d0d2bb9281900390910190a16105a7565b604080513381526000602082015281517f4db5ac836921cdb01fa55f3e0c67f26b54ed2e661f7ed30b29e25a37a1d0d2bb929181900390910190a15b565b6105b1610622565b15156105bc57600080fd5b60008054604051600160a060020a03909116907f8be0079c531659141344cd1fd0a4f28419497f9722a3daafe3b4186f6b6457e0908390a36000805473ffffffffffffffffffffffffffffffffffffffff19169055565b600054600160a060020a031690565b600054600160a060020a0316331490565b600480548290811061064157fe5b600091825260209091200154600160a060020a0316905081565b60025481565b606060048054806020026020016040519081016040528092919081815260200182805480156106b957602002820191906000526020600020905b8154600160a060020a0316815260019091019060200180831161069b575b5050505050905090565b6106cb610622565b15156106d657600080fd5b6106df816106e2565b50565b600160a060020a03811615156106f757600080fd5b60008054604051600160a060020a03808516939216917f8be0079c531659141344cd1fd0a4f28419497f9722a3daafe3b4186f6b6457e091a36000805473ffffffffffffffffffffffffffffffffffffffff1916600160a060020a039290921691909117905556fea165627a7a72305820d18934eab2c8aad3c6270c6d4b307e40acc9b6be5584553654498f36fac9f23b0029",
  "source": "pragma solidity ^0.5.0;\n\nimport \"./Deck.sol\";\nimport \"openzeppelin-solidity/contracts/ownership/Ownable.sol\";\n\ncontract BountyOne is Ownable {\n\n  event _InitializeBountyOne(address token, uint provision);\n  event _ClaimBountyOne(address addr, uint provision);\n\n  Deck private token;\n  uint256 public provision;\n\n  mapping (address => uint) private map;\n  address[] public claimed;\n\n  function init(address _token, uint256 _provision) public\n    onlyOwner()\n  {\n    require(_token != address(0) && address(token) == address(0));\n    require(_provision != 0 && provision == 0);\n\n    token = Deck(_token);\n    provision = _provision;\n\n    emit _InitializeBountyOne(_token, _provision);\n  }\n\n  function available() public view returns (uint) {\n    return (map[msg.sender] != 0 || token.balanceOf(address(this)) < provision) ? 0 : provision;\n  }\n\n  function count() public view returns (uint) {\n    return uint(claimed.length);\n  }\n\n  function getClaimedUsers() public view returns (address[] memory) {\n    return claimed;\n  }\n\n  function claim() public {\n    //require(address(token) != 0);\n    //require(address(msg.sender) != 0);\n    //require(map[msg.sender] == 0);\n\n    if (map[msg.sender] == 0) {\n      token.transfer(msg.sender, provision);\n      map[msg.sender] = provision;\n      claimed.push(msg.sender);\n      emit _ClaimBountyOne(msg.sender, provision);\n      return;\n    }\n    emit _ClaimBountyOne(msg.sender, 0);\n  }\n}\n",
  "sourcePath": "/Users/centroine/Documents/iris/decompanyio/decompanyio/contracts/BountyOne.sol",
  "compiler": {
    "name": "solc",
    "version": "0.5.0+commit.1d4f565a.Emscripten.clang"
  },
  "schemaVersion": "3.0.2",
  "updatedAt": "2019-02-27T01:42:18.923Z",
  "devdoc": {
    "methods": {
      "isOwner()": {
        "return": "true if `msg.sender` is the owner of the contract."
      },
      "owner()": {
        "return": "the address of the owner."
      },
      "renounceOwnership()": {
        "details": "Allows the current owner to relinquish control of the contract."
      },
      "transferOwnership(address)": {
        "details": "Allows the current owner to transfer control of the contract to a newOwner.",
        "params": {
          "newOwner": "The address to transfer ownership to."
        }
      }
    }
  },
  "userdoc": {
    "methods": {
      "renounceOwnership()": {
        "notice": "Renouncing to ownership will leave the contract without an owner. It will not be possible to call the functions with the `onlyOwner` modifier anymore."
      }
    }
  }
}