{
  "contractName": "Creator",
  "abi": [
    {
      "constant": false,
      "inputs": [],
      "name": "renounceOwnership",
      "outputs": [],
      "payable": false,
      "stateMutability": "nonpayable",
      "type": "function",
      "signature": "0x715018a6"
    },
    {
      "constant": true,
      "inputs": [],
      "name": "owner",
      "outputs": [
        {
          "name": "",
          "type": "address"
        }
      ],
      "payable": false,
      "stateMutability": "view",
      "type": "function",
      "signature": "0x8da5cb5b"
    },
    {
      "constant": true,
      "inputs": [],
      "name": "isOwner",
      "outputs": [
        {
          "name": "",
          "type": "bool"
        }
      ],
      "payable": false,
      "stateMutability": "view",
      "type": "function",
      "signature": "0x8f32d59b"
    },
    {
      "constant": true,
      "inputs": [],
      "name": "_rewardPool",
      "outputs": [
        {
          "name": "",
          "type": "address"
        }
      ],
      "payable": false,
      "stateMutability": "view",
      "type": "function",
      "signature": "0xdc7ced3d"
    },
    {
      "constant": false,
      "inputs": [
        {
          "name": "newOwner",
          "type": "address"
        }
      ],
      "name": "transferOwnership",
      "outputs": [],
      "payable": false,
      "stateMutability": "nonpayable",
      "type": "function",
      "signature": "0xf2fde38b"
    },
    {
      "anonymous": false,
      "inputs": [
        {
          "indexed": true,
          "name": "previousOwner",
          "type": "address"
        },
        {
          "indexed": true,
          "name": "newOwner",
          "type": "address"
        }
      ],
      "name": "OwnershipTransferred",
      "type": "event",
      "signature": "0x8be0079c531659141344cd1fd0a4f28419497f9722a3daafe3b4186f6b6457e0"
    },
    {
      "constant": false,
      "inputs": [
        {
          "name": "rewardPool",
          "type": "address"
        }
      ],
      "name": "init",
      "outputs": [],
      "payable": false,
      "stateMutability": "nonpayable",
      "type": "function",
      "signature": "0x19ab453c"
    },
    {
      "constant": true,
      "inputs": [
        {
          "name": "owner",
          "type": "address"
        }
      ],
      "name": "getDocuments",
      "outputs": [
        {
          "name": "",
          "type": "bytes32[]"
        }
      ],
      "payable": false,
      "stateMutability": "view",
      "type": "function",
      "signature": "0x27f50a2d"
    },
    {
      "constant": true,
      "inputs": [
        {
          "name": "docId",
          "type": "bytes32"
        }
      ],
      "name": "determine",
      "outputs": [
        {
          "name": "",
          "type": "uint256"
        },
        {
          "name": "",
          "type": "uint256"
        }
      ],
      "payable": false,
      "stateMutability": "view",
      "type": "function",
      "signature": "0x1b53e1e2"
    },
    {
      "constant": true,
      "inputs": [
        {
          "name": "docId",
          "type": "bytes32"
        },
        {
          "name": "day",
          "type": "uint256"
        }
      ],
      "name": "recentEarnings",
      "outputs": [
        {
          "name": "",
          "type": "uint256"
        }
      ],
      "payable": false,
      "stateMutability": "view",
      "type": "function",
      "signature": "0xb55a54e2"
    },
    {
      "constant": true,
      "inputs": [
        {
          "name": "addr",
          "type": "address"
        },
        {
          "name": "docId",
          "type": "bytes32"
        },
        {
          "name": "dateMillis",
          "type": "uint256"
        }
      ],
      "name": "determineAt",
      "outputs": [
        {
          "name": "",
          "type": "uint256"
        },
        {
          "name": "",
          "type": "uint256"
        }
      ],
      "payable": false,
      "stateMutability": "view",
      "type": "function",
      "signature": "0x904e5e57"
    },
    {
      "constant": false,
      "inputs": [
        {
          "name": "docId",
          "type": "bytes32"
        }
      ],
      "name": "register",
      "outputs": [],
      "payable": false,
      "stateMutability": "nonpayable",
      "type": "function",
      "signature": "0xe1fa8e84"
    },
    {
      "constant": false,
      "inputs": [
        {
          "name": "o",
          "type": "address"
        },
        {
          "name": "d",
          "type": "bytes32"
        },
        {
          "name": "ct",
          "type": "uint256"
        },
        {
          "name": "lt",
          "type": "uint256"
        },
        {
          "name": "withdraw",
          "type": "uint256"
        }
      ],
      "name": "update",
      "outputs": [],
      "payable": false,
      "stateMutability": "nonpayable",
      "type": "function",
      "signature": "0xee248193"
    },
    {
      "constant": true,
      "inputs": [
        {
          "name": "pv",
          "type": "uint256"
        },
        {
          "name": "tpv",
          "type": "uint256"
        },
        {
          "name": "drp",
          "type": "uint256"
        }
      ],
      "name": "calculate",
      "outputs": [
        {
          "name": "",
          "type": "uint256"
        }
      ],
      "payable": false,
      "stateMutability": "pure",
      "type": "function",
      "signature": "0xe97cf883"
    }
  ],
  "bytecode": "0x6080604081905260008054600160a060020a0319163317808255600160a060020a0316917f8be0079c531659141344cd1fd0a4f28419497f9722a3daafe3b4186f6b6457e0908290a36113ae806100576000396000f3fe6080604052600436106100ab5763ffffffff60e060020a60003504166319ab453c81146100b05780631b53e1e2146100e557806327f50a2d14610128578063715018a6146101ab5780638da5cb5b146101c05780638f32d59b146101f1578063904e5e571461021a578063b55a54e214610259578063dc7ced3d1461029b578063e1fa8e84146102b0578063e97cf883146102da578063ee24819314610310578063f2fde38b1461035b575b600080fd5b3480156100bc57600080fd5b506100e3600480360360208110156100d357600080fd5b5035600160a060020a031661038e565b005b3480156100f157600080fd5b5061010f6004803603602081101561010857600080fd5b50356103fb565b6040805192835260208301919091528051918290030190f35b34801561013457600080fd5b5061015b6004803603602081101561014b57600080fd5b5035600160a060020a03166106e0565b60408051602080825283518183015283519192839290830191858101910280838360005b8381101561019757818101518382015260200161017f565b505050509050019250505060405180910390f35b3480156101b757600080fd5b506100e3610848565b3480156101cc57600080fd5b506101d56108b2565b60408051600160a060020a039092168252519081900360200190f35b3480156101fd57600080fd5b506102066108c1565b604080519115158252519081900360200190f35b34801561022657600080fd5b5061010f6004803603606081101561023d57600080fd5b50600160a060020a0381351690602081013590604001356108d2565b34801561026557600080fd5b506102896004803603604081101561027c57600080fd5b5080359060200135610a39565b60408051918252519081900360200190f35b3480156102a757600080fd5b506101d5610c27565b3480156102bc57600080fd5b506100e3600480360360208110156102d357600080fd5b5035610c36565b3480156102e657600080fd5b50610289600480360360608110156102fd57600080fd5b5080359060208101359060400135610d37565b34801561031c57600080fd5b506100e3600480360360a081101561033357600080fd5b50600160a060020a038135169060208101359060408101359060608101359060800135610d72565b34801561036757600080fd5b506100e36004803603602081101561037e57600080fd5b5035600160a060020a0316610ea1565b6103966108c1565b15156103a157600080fd5b600160a060020a03811615156103b657600080fd5b600154600160a060020a0316156103cc57600080fd5b6001805473ffffffffffffffffffffffffffffffffffffffff1916600160a060020a0392909216919091179055565b60008082151561040a57600080fd5b600154600160a060020a0316151561042157600080fd5b600160009054906101000a9004600160a060020a0316600160a060020a03166379cbc5fa6040518163ffffffff1660e060020a02815260040160206040518083038186803b15801561047257600080fd5b505afa158015610486573d6000803e3d6000fd5b505050506040513d602081101561049c57600080fd5b5051604080517f1d1a696d000000000000000000000000000000000000000000000000000000008152600481018690529051600160a060020a0390921691631d1a696d91602480820192602092909190829003018186803b15801561050057600080fd5b505afa158015610514573d6000803e3d6000fd5b505050506040513d602081101561052a57600080fd5b5051151561053757600080fd5b6001546040805160e160020a633ce5e2fd0281529051600092600160a060020a0316916379cbc5fa916004808301926020929190829003018186803b15801561057f57600080fd5b505afa158015610593573d6000803e3d6000fd5b505050506040513d60208110156105a957600080fd5b5051604080517fb10d6b41000000000000000000000000000000000000000000000000000000008152600481018790529051600160a060020a039092169163b10d6b4191602480820192608092909190829003018186803b15801561060d57600080fd5b505afa158015610621573d6000803e3d6000fd5b505050506040513d608081101561063757600080fd5b5051905033600160a060020a0382161461065057600080fd5b6106d684600160009054906101000a9004600160a060020a0316600160a060020a0316637ff8b20e6040518163ffffffff1660e060020a02815260040160206040518083038186803b1580156106a557600080fd5b505afa1580156106b9573d6000803e3d6000fd5b505050506040513d60208110156106cf57600080fd5b5051610ec0565b9250925050915091565b6001546040805160e160020a633ce5e2fd0281529051606092600160a060020a0316916379cbc5fa916004808301926020929190829003018186803b15801561072857600080fd5b505afa15801561073c573d6000803e3d6000fd5b505050506040513d602081101561075257600080fd5b5051604080517f27f50a2d000000000000000000000000000000000000000000000000000000008152600160a060020a038581166004830152915191909216916327f50a2d916024808301926000929190829003018186803b1580156107b757600080fd5b505afa1580156107cb573d6000803e3d6000fd5b505050506040513d6000823e601f3d908101601f1916820160405260208110156107f457600080fd5b81019080805164010000000081111561080c57600080fd5b8201602081018481111561081f57600080fd5b815185602082028301116401000000008211171561083c57600080fd5b50909695505050505050565b6108506108c1565b151561085b57600080fd5b60008054604051600160a060020a03909116907f8be0079c531659141344cd1fd0a4f28419497f9722a3daafe3b4186f6b6457e0908390a36000805473ffffffffffffffffffffffffffffffffffffffff19169055565b600054600160a060020a031690565b600054600160a060020a0316331490565b6001546000908190600160a060020a031633146108ee57600080fd5b600154600160a060020a0316151561090557600080fd5b600160009054906101000a9004600160a060020a0316600160a060020a03166379cbc5fa6040518163ffffffff1660e060020a02815260040160206040518083038186803b15801561095657600080fd5b505afa15801561096a573d6000803e3d6000fd5b505050506040513d602081101561098057600080fd5b5051604080517fe96b462a000000000000000000000000000000000000000000000000000000008152600160a060020a038881166004830152602482018890529151919092169163e96b462a916044808301926020929190829003018186803b1580156109ec57600080fd5b505afa158015610a00573d6000803e3d6000fd5b505050506040513d6020811015610a1657600080fd5b50511515610a2357600080fd5b610a2d8484610ec0565b91509150935093915050565b600154604080517f7ff8b20e0000000000000000000000000000000000000000000000000000000081529051600092839283928392600160a060020a031691637ff8b20e916004808301926020929190829003018186803b158015610a9d57600080fd5b505afa158015610ab1573d6000803e3d6000fd5b505050506040513d6020811015610ac757600080fd5b50516001546040805160e160020a633ce5e2fd0281529051929350600092600160a060020a03909216916379cbc5fa91600480820192602092909190829003018186803b158015610b1757600080fd5b505afa158015610b2b573d6000803e3d6000fd5b505050506040513d6020811015610b4157600080fd5b5051604080517fb10d6b41000000000000000000000000000000000000000000000000000000008152600481018a90529051600160a060020a039092169163b10d6b4191602480820192608092909190829003018186803b158015610ba557600080fd5b505afa158015610bb9573d6000803e3d6000fd5b505050506040513d6080811015610bcf57600080fd5b506020015190506305265c00860282038111610bf357856305265c00028203610bf5565b805b92505b81831015610c1c57610c0a8784611033565b840193506305265c0083019250610bf8565b509195945050505050565b600154600160a060020a031681565b600160009054906101000a9004600160a060020a0316600160a060020a03166379cbc5fa6040518163ffffffff1660e060020a02815260040160206040518083038186803b158015610c8757600080fd5b505afa158015610c9b573d6000803e3d6000fd5b505050506040513d6020811015610cb157600080fd5b5051604080517f1e7a505f000000000000000000000000000000000000000000000000000000008152336004820152602481018490529051600160a060020a0390921691631e7a505f9160448082019260009290919082900301818387803b158015610d1c57600080fd5b505af1158015610d30573d6000803e3d6000fd5b5050505050565b6000821580610d44575083155b80610d4d575081155b15610d5a57506000610d6b565b8282811515610d6557fe5b04840290505b9392505050565b610d7a6108c1565b1515610d8557600080fd5b600160009054906101000a9004600160a060020a0316600160a060020a03166379cbc5fa6040518163ffffffff1660e060020a02815260040160206040518083038186803b158015610dd657600080fd5b505afa158015610dea573d6000803e3d6000fd5b505050506040513d6020811015610e0057600080fd5b5051604080517fee248193000000000000000000000000000000000000000000000000000000008152600160a060020a038881166004830152602482018890526044820187905260648201869052608482018590529151919092169163ee2481939160a480830192600092919082900301818387803b158015610e8257600080fd5b505af1158015610e96573d6000803e3d6000fd5b505050505050505050565b610ea96108c1565b1515610eb457600080fd5b610ebd81611305565b50565b60008060008090506000809050600080600160009054906101000a9004600160a060020a0316600160a060020a03166379cbc5fa6040518163ffffffff1660e060020a02815260040160206040518083038186803b158015610f2157600080fd5b505afa158015610f35573d6000803e3d6000fd5b505050506040513d6020811015610f4b57600080fd5b5051604080517fb10d6b41000000000000000000000000000000000000000000000000000000008152600481018b90529051600160a060020a039092169163b10d6b4191602480820192608092909190829003018186803b158015610faf57600080fd5b505afa158015610fc3573d6000803e3d6000fd5b505050506040513d6080811015610fd957600080fd5b50602081015160409091015190925090505b8681101561102457801515610ffd5750805b6110078882611033565b909301926305265c008101925082811061101d57fe5b5081610feb565b50919660009650945050505050565b600080600160009054906101000a9004600160a060020a0316600160a060020a03166379cbc5fa6040518163ffffffff1660e060020a02815260040160206040518083038186803b15801561108757600080fd5b505afa15801561109b573d6000803e3d6000fd5b505050506040513d60208110156110b157600080fd5b5051604080517f4c9d31ca00000000000000000000000000000000000000000000000000000000815260048101879052602481018690529051600160a060020a0390921691634c9d31ca91604480820192602092909190829003018186803b15801561111c57600080fd5b505afa158015611130573d6000803e3d6000fd5b505050506040513d602081101561114657600080fd5b50516001546040805160e160020a633ce5e2fd0281529051929350600092600160a060020a03909216916379cbc5fa91600480820192602092909190829003018186803b15801561119657600080fd5b505afa1580156111aa573d6000803e3d6000fd5b505050506040513d60208110156111c057600080fd5b5051604080517ff26b4482000000000000000000000000000000000000000000000000000000008152600481018790529051600160a060020a039092169163f26b448291602480820192602092909190829003018186803b15801561122457600080fd5b505afa158015611238573d6000803e3d6000fd5b505050506040513d602081101561124e57600080fd5b5051600154604080517fdcb8e50600000000000000000000000000000000000000000000000000000000815260466004820152602481018890529051929350600092600160a060020a039092169163dcb8e50691604480820192602092909190829003018186803b1580156112c257600080fd5b505afa1580156112d6573d6000803e3d6000fd5b505050506040513d60208110156112ec57600080fd5b505190506112fb838383610d37565b9695505050505050565b600160a060020a038116151561131a57600080fd5b60008054604051600160a060020a03808516939216917f8be0079c531659141344cd1fd0a4f28419497f9722a3daafe3b4186f6b6457e091a36000805473ffffffffffffffffffffffffffffffffffffffff1916600160a060020a039290921691909117905556fea165627a7a72305820764a01ffc850a3b996303d09714509e9739ee1e3004e32bd259c7149df199a1f0029",
  "source": "pragma solidity 0.5.0;\n\nimport \"openzeppelin-solidity/contracts/ownership/Ownable.sol\";\nimport \"./RewardPool.sol\";\nimport \"./IAsset.sol\";\n\n\ncontract Creator is IAsset, Ownable {\n\n    RewardPool public _rewardPool;\n\n    function init(address rewardPool) external\n        onlyOwner()\n    {\n        require(address(rewardPool) != address(0));\n        require(address(_rewardPool) == address(0));\n        _rewardPool = RewardPool(rewardPool);\n    }\n\n    function getDocuments(address owner) external view returns (bytes32[] memory) {\n        return _rewardPool._registry().getDocuments(owner);\n    }\n\n    function determine(bytes32 docId) external view returns (uint256, uint256) {\n        require(docId != 0);\n        require(address(_rewardPool) != address(0));\n        require(_rewardPool._registry().contains(docId));\n        (address owner, , ,) = _rewardPool._registry().getDocument(docId);\n        require(msg.sender == owner);\n        return totalReward(docId, _rewardPool.getDateMillis());\n    }\n\n    function recentEarnings(bytes32 docId, uint256 day) external view returns (uint256) {\n        uint256 sum = 0;\n        uint256 next = 0;\n        uint256 todayMillis = _rewardPool.getDateMillis();\n        uint256 listed;\n        (, listed, ,) = _rewardPool._registry().getDocument(docId);\n        next = (todayMillis - (day * 86400000)) < listed ? listed : (todayMillis - (day * 86400000));\n        while (next < todayMillis) {\n            sum += dailyReward(docId, next);\n            next += 86400000;\n        }\n        return sum;\n    }\n\n    function determineAt(address addr, bytes32 docId, uint256 dateMillis) external view returns (uint256, uint256) {\n        require(msg.sender == address(_rewardPool));\n        require(address(_rewardPool) != address(0));\n        require(_rewardPool._registry().isOwner(addr, docId));\n        return totalReward(docId, dateMillis);\n    }\n\n    // register a new document\n    function register(bytes32 docId) public {\n        _rewardPool._registry().register(msg.sender, docId);\n    }\n\n    function update(address o, bytes32 d, uint256 ct, uint256 lt, uint256 withdraw) public\n        onlyOwner()\n    {\n        _rewardPool._registry().update(o, d, ct, lt, withdraw);\n    }\n\n    function calculate(uint pv, uint tpv, uint drp) public pure returns (uint) {\n        if (tpv == 0 || pv == 0 || drp == 0) return uint(0);\n        return uint(pv * uint(drp / tpv));\n    }\n\n    function totalReward(bytes32 docId, uint256 dateMillis) private view returns (uint256, uint256) {\n        uint256 sum = 0;\n        uint256 next = 0;\n        uint256 listed;\n        uint256 last;\n        (, listed, last,) = _rewardPool._registry().getDocument(docId);\n        while (last < dateMillis) {\n            if (last == 0) {\n                last = listed;\n            }\n            sum += dailyReward(docId, last);\n            next = last + 86400000;\n            assert(last < next);\n            last = next;\n        }\n        return (sum, uint256(0));\n    }\n\n    function dailyReward(bytes32 docId, uint256 dateMillis) private view returns (uint) {\n        uint pv = _rewardPool._registry().getPageView(docId, dateMillis);\n        uint tpv = _rewardPool._registry().getTotalPageView(dateMillis);\n        uint drp = _rewardPool.getDailyRewardPool(uint(70), dateMillis);\n        return calculate(pv, tpv, drp);\n    }\n\n}\n",
  "sourcePath": "/Users/centroine/Documents/iris/decompanyio/decompanyio/contracts/Creator.sol",
  "compiler": {
    "name": "solc",
    "version": "0.5.0+commit.1d4f565a.Emscripten.clang"
  },
  "schemaVersion": "3.0.2",
  "updatedAt": "2019-06-18T04:45:07.651Z",
  "devdoc": {
    "methods": {
      "isOwner()": {
        "return": "true if `msg.sender` is the owner of the contract."
      },
      "owner()": {
        "return": "the address of the owner."
      },
      "renounceOwnership()": {
        "details": "Allows the current owner to relinquish control of the contract."
      },
      "transferOwnership(address)": {
        "details": "Allows the current owner to transfer control of the contract to a newOwner.",
        "params": {
          "newOwner": "The address to transfer ownership to."
        }
      }
    }
  },
  "userdoc": {
    "methods": {
      "renounceOwnership()": {
        "notice": "Renouncing to ownership will leave the contract without an owner. It will not be possible to call the functions with the `onlyOwner` modifier anymore."
      }
    }
  }
}