{
  "contractName": "Curator",
  "abi": [
    {
      "constant": false,
      "inputs": [],
      "name": "renounceOwnership",
      "outputs": [],
      "payable": false,
      "stateMutability": "nonpayable",
      "type": "function",
      "signature": "0x715018a6"
    },
    {
      "constant": true,
      "inputs": [],
      "name": "owner",
      "outputs": [
        {
          "name": "",
          "type": "address"
        }
      ],
      "payable": false,
      "stateMutability": "view",
      "type": "function",
      "signature": "0x8da5cb5b"
    },
    {
      "constant": true,
      "inputs": [],
      "name": "isOwner",
      "outputs": [
        {
          "name": "",
          "type": "bool"
        }
      ],
      "payable": false,
      "stateMutability": "view",
      "type": "function",
      "signature": "0x8f32d59b"
    },
    {
      "constant": true,
      "inputs": [],
      "name": "_rewardPool",
      "outputs": [
        {
          "name": "",
          "type": "address"
        }
      ],
      "payable": false,
      "stateMutability": "view",
      "type": "function",
      "signature": "0xdc7ced3d"
    },
    {
      "constant": false,
      "inputs": [
        {
          "name": "newOwner",
          "type": "address"
        }
      ],
      "name": "transferOwnership",
      "outputs": [],
      "payable": false,
      "stateMutability": "nonpayable",
      "type": "function",
      "signature": "0xf2fde38b"
    },
    {
      "anonymous": false,
      "inputs": [
        {
          "indexed": true,
          "name": "previousOwner",
          "type": "address"
        },
        {
          "indexed": true,
          "name": "newOwner",
          "type": "address"
        }
      ],
      "name": "OwnershipTransferred",
      "type": "event",
      "signature": "0x8be0079c531659141344cd1fd0a4f28419497f9722a3daafe3b4186f6b6457e0"
    },
    {
      "constant": false,
      "inputs": [
        {
          "name": "rewardPool",
          "type": "address"
        }
      ],
      "name": "init",
      "outputs": [],
      "payable": false,
      "stateMutability": "nonpayable",
      "type": "function",
      "signature": "0x19ab453c"
    },
    {
      "constant": false,
      "inputs": [
        {
          "name": "docId",
          "type": "bytes32"
        },
        {
          "name": "deposit",
          "type": "uint256"
        }
      ],
      "name": "addVote",
      "outputs": [],
      "payable": false,
      "stateMutability": "nonpayable",
      "type": "function",
      "signature": "0x69d2096e"
    },
    {
      "constant": true,
      "inputs": [
        {
          "name": "i",
          "type": "uint256"
        }
      ],
      "name": "getVote",
      "outputs": [
        {
          "name": "",
          "type": "address"
        },
        {
          "name": "",
          "type": "bytes32"
        },
        {
          "name": "",
          "type": "uint256"
        },
        {
          "name": "",
          "type": "uint256"
        },
        {
          "name": "",
          "type": "uint256"
        }
      ],
      "payable": false,
      "stateMutability": "view",
      "type": "function",
      "signature": "0x5a55c1f0"
    },
    {
      "constant": true,
      "inputs": [
        {
          "name": "owner",
          "type": "address"
        }
      ],
      "name": "getDocuments",
      "outputs": [
        {
          "name": "",
          "type": "bytes32[]"
        }
      ],
      "payable": false,
      "stateMutability": "view",
      "type": "function",
      "signature": "0x27f50a2d"
    },
    {
      "constant": true,
      "inputs": [],
      "name": "count",
      "outputs": [
        {
          "name": "",
          "type": "uint256"
        }
      ],
      "payable": false,
      "stateMutability": "view",
      "type": "function",
      "signature": "0x06661abd"
    },
    {
      "constant": true,
      "inputs": [
        {
          "name": "docId",
          "type": "bytes32"
        }
      ],
      "name": "getActiveVotes",
      "outputs": [
        {
          "name": "",
          "type": "uint256"
        }
      ],
      "payable": false,
      "stateMutability": "view",
      "type": "function",
      "signature": "0x8111c960"
    },
    {
      "constant": true,
      "inputs": [
        {
          "name": "addr",
          "type": "address"
        },
        {
          "name": "docId",
          "type": "bytes32"
        }
      ],
      "name": "getUserActiveVotes",
      "outputs": [
        {
          "name": "",
          "type": "uint256"
        }
      ],
      "payable": false,
      "stateMutability": "view",
      "type": "function",
      "signature": "0x3b4aba68"
    },
    {
      "constant": true,
      "inputs": [
        {
          "name": "addr",
          "type": "address"
        }
      ],
      "name": "getUserDocuments",
      "outputs": [
        {
          "name": "",
          "type": "bytes32[]"
        }
      ],
      "payable": false,
      "stateMutability": "view",
      "type": "function",
      "signature": "0x90a4b162"
    },
    {
      "constant": true,
      "inputs": [
        {
          "name": "docId",
          "type": "bytes32"
        }
      ],
      "name": "determine",
      "outputs": [
        {
          "name": "",
          "type": "uint256"
        },
        {
          "name": "",
          "type": "uint256"
        }
      ],
      "payable": false,
      "stateMutability": "view",
      "type": "function",
      "signature": "0x1b53e1e2"
    },
    {
      "constant": true,
      "inputs": [
        {
          "name": "pool",
          "type": "uint256"
        },
        {
          "name": "v",
          "type": "uint256"
        },
        {
          "name": "tv",
          "type": "uint256"
        },
        {
          "name": "pv",
          "type": "uint256"
        },
        {
          "name": "tpvs",
          "type": "uint256"
        }
      ],
      "name": "calculate",
      "outputs": [
        {
          "name": "",
          "type": "uint256"
        }
      ],
      "payable": false,
      "stateMutability": "pure",
      "type": "function",
      "signature": "0x146701ba"
    },
    {
      "constant": true,
      "inputs": [
        {
          "name": "addr",
          "type": "address"
        },
        {
          "name": "docId",
          "type": "bytes32"
        },
        {
          "name": "dateMillis",
          "type": "uint256"
        }
      ],
      "name": "determineAt",
      "outputs": [
        {
          "name": "",
          "type": "uint256"
        },
        {
          "name": "",
          "type": "uint256"
        }
      ],
      "payable": false,
      "stateMutability": "view",
      "type": "function",
      "signature": "0x904e5e57"
    },
    {
      "constant": true,
      "inputs": [
        {
          "name": "addr",
          "type": "address"
        },
        {
          "name": "docId",
          "type": "bytes32"
        },
        {
          "name": "day",
          "type": "uint256"
        }
      ],
      "name": "recentEarnings",
      "outputs": [
        {
          "name": "",
          "type": "uint256"
        }
      ],
      "payable": false,
      "stateMutability": "view",
      "type": "function",
      "signature": "0xb1487916"
    }
  ],
  "bytecode": "0x6080604081905260008054600160a060020a0319163317808255600160a060020a0316917f8be0079c531659141344cd1fd0a4f28419497f9722a3daafe3b4186f6b6457e0908290a3611d50806100576000396000f3fe6080604052600436106100d75763ffffffff60e060020a60003504166306661abd81146100dc578063146701ba1461010357806319ab453c146101455780631b53e1e21461017a57806327f50a2d146101bd5780633b4aba68146102405780635a55c1f01461027957806369d2096e146102d8578063715018a6146103085780638111c9601461031d5780638da5cb5b146103475780638f32d59b14610378578063904e5e57146103a157806390a4b162146101bd578063b1487916146103e0578063dc7ced3d1461041f578063f2fde38b14610434575b600080fd5b3480156100e857600080fd5b506100f1610467565b60408051918252519081900360200190f35b34801561010f57600080fd5b506100f1600480360360a081101561012657600080fd5b5080359060208101359060408101359060608101359060800135610567565b34801561015157600080fd5b506101786004803603602081101561016857600080fd5b5035600160a060020a03166105d9565b005b34801561018657600080fd5b506101a46004803603602081101561019d57600080fd5b5035610646565b6040805192835260208301919091528051918290030190f35b3480156101c957600080fd5b506101f0600480360360208110156101e057600080fd5b5035600160a060020a03166107a1565b60408051602080825283518183015283519192839290830191858101910280838360005b8381101561022c578181015183820152602001610214565b505050509050019250505060405180910390f35b34801561024c57600080fd5b506100f16004803603604081101561026357600080fd5b50600160a060020a038135169060200135610909565b34801561028557600080fd5b506102a36004803603602081101561029c57600080fd5b5035610aa1565b60408051600160a060020a03909616865260208601949094528484019290925260608401526080830152519081900360a00190f35b3480156102e457600080fd5b50610178600480360360408110156102fb57600080fd5b5080359060200135610bdb565b34801561031457600080fd5b50610178610dc6565b34801561032957600080fd5b506100f16004803603602081101561034057600080fd5b5035610e30565b34801561035357600080fd5b5061035c610fb6565b60408051600160a060020a039092168252519081900360200190f35b34801561038457600080fd5b5061038d610fc5565b604080519115158252519081900360200190f35b3480156103ad57600080fd5b506101a4600480360360608110156103c457600080fd5b50600160a060020a038135169060208101359060400135610fd6565b3480156103ec57600080fd5b506100f16004803603606081101561040357600080fd5b50600160a060020a038135169060208101359060400135611020565b34801561042b57600080fd5b5061035c61132d565b34801561044057600080fd5b506101786004803603602081101561045757600080fd5b5035600160a060020a031661133c565b6001546040805160e060020a634939cf370281529051600092600160a060020a031691634939cf37916004808301926020929190829003018186803b1580156104af57600080fd5b505afa1580156104c3573d6000803e3d6000fd5b505050506040513d60208110156104d957600080fd5b5051604080517f06661abd0000000000000000000000000000000000000000000000000000000081529051600160a060020a03909216916306661abd91600480820192602092909190829003018186803b15801561053657600080fd5b505afa15801561054a573d6000803e3d6000fd5b505050506040513d602081101561056057600080fd5b5051905090565b6000811580610574575082155b8061057d575083155b1561058a575060006105d0565b8484101561059457fe5b6002830a8210156105a157fe5b60008486846002870a8a028115156105b557fe5b04028115156105c057fe5b049050808710156105cd57fe5b90505b95945050505050565b6105e1610fc5565b15156105ec57600080fd5b600160a060020a038116151561060157600080fd5b600154600160a060020a03161561061757600080fd5b6001805473ffffffffffffffffffffffffffffffffffffffff1916600160a060020a0392909216919091179055565b60008082151561065557600080fd5b600154600160a060020a0316151561066c57600080fd5b600160009054906101000a9004600160a060020a0316600160a060020a03166379cbc5fa6040518163ffffffff1660e060020a02815260040160206040518083038186803b1580156106bd57600080fd5b505afa1580156106d1573d6000803e3d6000fd5b505050506040513d60208110156106e757600080fd5b5051604080517f1d1a696d000000000000000000000000000000000000000000000000000000008152600481018690529051600160a060020a0390921691631d1a696d91602480820192602092909190829003018186803b15801561074b57600080fd5b505afa15801561075f573d6000803e3d6000fd5b505050506040513d602081101561077557600080fd5b5051151561078257600080fd5b61079833846201518042046305265c000261135b565b91509150915091565b6001546040805160e060020a634939cf370281529051606092600160a060020a031691634939cf37916004808301926020929190829003018186803b1580156107e957600080fd5b505afa1580156107fd573d6000803e3d6000fd5b505050506040513d602081101561081357600080fd5b5051604080517f90a4b162000000000000000000000000000000000000000000000000000000008152600160a060020a038581166004830152915191909216916390a4b162916024808301926000929190829003018186803b15801561087857600080fd5b505afa15801561088c573d6000803e3d6000fd5b505050506040513d6000823e601f3d908101601f1916820160405260208110156108b557600080fd5b8101908080516401000000008111156108cd57600080fd5b820160208101848111156108e057600080fd5b81518560208202830111640100000000821117156108fd57600080fd5b50909695505050505050565b6001546040805160e060020a634939cf370281529051600092600160a060020a031691634939cf37916004808301926020929190829003018186803b15801561095157600080fd5b505afa158015610965573d6000803e3d6000fd5b505050506040513d602081101561097b57600080fd5b5051600160a060020a0316633a7f631584846201518042046305265c0002600160009054906101000a9004600160a060020a0316600160a060020a0316630f01b0ce6040518163ffffffff1660e060020a02815260040160206040518083038186803b1580156109ea57600080fd5b505afa1580156109fe573d6000803e3d6000fd5b505050506040513d6020811015610a1457600080fd5b50516040805160e060020a63ffffffff8816028152600160a060020a039095166004860152602485019390935260448401919091526064830152516084808301926020929190829003018186803b158015610a6e57600080fd5b505afa158015610a82573d6000803e3d6000fd5b505050506040513d6020811015610a9857600080fd5b50519392505050565b6000806000806000600160009054906101000a9004600160a060020a0316600160a060020a0316634939cf376040518163ffffffff1660e060020a02815260040160206040518083038186803b158015610afa57600080fd5b505afa158015610b0e573d6000803e3d6000fd5b505050506040513d6020811015610b2457600080fd5b5051604080517f5a55c1f0000000000000000000000000000000000000000000000000000000008152600481018990529051600160a060020a0390921691635a55c1f09160248082019260a092909190829003018186803b158015610b8857600080fd5b505afa158015610b9c573d6000803e3d6000fd5b505050506040513d60a0811015610bb257600080fd5b508051602082015160408301516060840151608090940151929a91995097509195509350915050565b600160009054906101000a9004600160a060020a0316600160a060020a0316634939cf376040518163ffffffff1660e060020a02815260040160206040518083038186803b158015610c2c57600080fd5b505afa158015610c40573d6000803e3d6000fd5b505050506040513d6020811015610c5657600080fd5b50516001546040805160e060020a634939cf370281529051600160a060020a039384169363b55af6a8931691634939cf37916004808301926020929190829003018186803b158015610ca757600080fd5b505afa158015610cbb573d6000803e3d6000fd5b505050506040513d6020811015610cd157600080fd5b5051604080517f4c8fe5260000000000000000000000000000000000000000000000000000000081529051600160a060020a0390921691634c8fe52691600480820192602092909190829003018186803b158015610d2e57600080fd5b505afa158015610d42573d6000803e3d6000fd5b505050506040513d6020811015610d5857600080fd5b50516040805160e060020a63ffffffff85160281526004810192909252336024830152604482018690526064820185905251608480830192600092919082900301818387803b158015610daa57600080fd5b505af1158015610dbe573d6000803e3d6000fd5b505050505050565b610dce610fc5565b1515610dd957600080fd5b60008054604051600160a060020a03909116907f8be0079c531659141344cd1fd0a4f28419497f9722a3daafe3b4186f6b6457e0908390a36000805473ffffffffffffffffffffffffffffffffffffffff19169055565b6001546040805160e060020a634939cf370281529051600092600160a060020a031691634939cf37916004808301926020929190829003018186803b158015610e7857600080fd5b505afa158015610e8c573d6000803e3d6000fd5b505050506040513d6020811015610ea257600080fd5b5051600160a060020a0316638c239c70836201518042046305265c0002600160009054906101000a9004600160a060020a0316600160a060020a0316630f01b0ce6040518163ffffffff1660e060020a02815260040160206040518083038186803b158015610f1057600080fd5b505afa158015610f24573d6000803e3d6000fd5b505050506040513d6020811015610f3a57600080fd5b50516040805160e060020a63ffffffff8716028152600481019490945260248401929092526044830152516064808301926020929190829003018186803b158015610f8457600080fd5b505afa158015610f98573d6000803e3d6000fd5b505050506040513d6020811015610fae57600080fd5b505192915050565b600054600160a060020a031690565b600054600160a060020a0316331490565b6001546000908190600160a060020a03163314610ff257600080fd5b600154600160a060020a0316151561100957600080fd5b61101485858561135b565b91509150935093915050565b60008080806201518042046305265c000290506000600160009054906101000a9004600160a060020a0316600160a060020a03166379cbc5fa6040518163ffffffff1660e060020a02815260040160206040518083038186803b15801561108657600080fd5b505afa15801561109a573d6000803e3d6000fd5b505050506040513d60208110156110b057600080fd5b5051604080517fb10d6b41000000000000000000000000000000000000000000000000000000008152600481018a90529051600160a060020a039092169163b10d6b4191602480820192608092909190829003018186803b15801561111457600080fd5b505afa158015611128573d6000803e3d6000fd5b505050506040513d608081101561113e57600080fd5b506020015190506305265c0086028203811161116257856305265c00028203611164565b805b92505b81831015611321576001546040805160e060020a634939cf370281529051600092600160a060020a031691634939cf37916004808301926020929190829003018186803b1580156111b757600080fd5b505afa1580156111cb573d6000803e3d6000fd5b505050506040513d60208110156111e157600080fd5b5051600154604080517f0f01b0ce0000000000000000000000000000000000000000000000000000000081529051600160a060020a0393841693633a7f6315938e938e938b9390921691630f01b0ce91600480820192602092909190829003018186803b15801561125157600080fd5b505afa158015611265573d6000803e3d6000fd5b505050506040513d602081101561127b57600080fd5b50516040805160e060020a63ffffffff8816028152600160a060020a039095166004860152602485019390935260448401919091526064830152516084808301926020929190829003018186803b1580156112d557600080fd5b505afa1580156112e9573d6000803e3d6000fd5b505050506040513d60208110156112ff57600080fd5b5051905061130e888583611687565b850194506305265c008401935050611167565b50919695505050505050565b600154600160a060020a031681565b611344610fc5565b151561134f57600080fd5b61135881611b08565b50565b600154604080517f79cbc5fa0000000000000000000000000000000000000000000000000000000081529051600092839283928392839283928392600160a060020a0316916379cbc5fa916004808301926020929190829003018186803b1580156113c557600080fd5b505afa1580156113d9573d6000803e3d6000fd5b505050506040513d60208110156113ef57600080fd5b5051604080517fb10d6b41000000000000000000000000000000000000000000000000000000008152600481018c90529051600160a060020a039092169163b10d6b4191602480820192608092909190829003018186803b15801561145357600080fd5b505afa158015611467573d6000803e3d6000fd5b505050506040513d608081101561147d57600080fd5b50602081015160409091015190925090505b878111611677578015156114a05750805b6001546040805160e060020a634939cf370281529051600092600160a060020a031691634939cf37916004808301926020929190829003018186803b1580156114e857600080fd5b505afa1580156114fc573d6000803e3d6000fd5b505050506040513d602081101561151257600080fd5b8101908080519060200190929190505050600160a060020a0316635a271e748c8c858d600160009054906101000a9004600160a060020a0316600160a060020a0316630f01b0ce6040518163ffffffff1660e060020a02815260040160206040518083038186803b15801561158657600080fd5b505afa15801561159a573d6000803e3d6000fd5b505050506040513d60208110156115b057600080fd5b50516040805160e060020a63ffffffff8916028152600160a060020a03909616600487015260248601949094526044850192909252606484015260848301525160a4808301926020929190829003018186803b15801561160f57600080fd5b505afa158015611623573d6000803e3d6000fd5b505050506040513d602081101561163957600080fd5b505190506116488a8383611687565b860195506116588b8b848c611b85565b909401936305265c008201935083821061166e57fe5b8391505061148f565b5092989197509095505050505050565b600154604080517fdcb8e506000000000000000000000000000000000000000000000000000000008152601e60048201526024810185905290516000928392600160a060020a039091169163dcb8e50691604480820192602092909190829003018186803b1580156116f857600080fd5b505afa15801561170c573d6000803e3d6000fd5b505050506040513d602081101561172257600080fd5b50516001546040805160e060020a634939cf370281529051929350600092600160a060020a0390921691634939cf3791600480820192602092909190829003018186803b15801561177257600080fd5b505afa158015611786573d6000803e3d6000fd5b505050506040513d602081101561179c57600080fd5b5051600154604080517f0f01b0ce0000000000000000000000000000000000000000000000000000000081529051600160a060020a0393841693638c239c70938b938b939190921691630f01b0ce916004808301926020929190829003018186803b15801561180a57600080fd5b505afa15801561181e573d6000803e3d6000fd5b505050506040513d602081101561183457600080fd5b50516040805160e060020a63ffffffff8716028152600481019490945260248401929092526044830152516064808301926020929190829003018186803b15801561187e57600080fd5b505afa158015611892573d6000803e3d6000fd5b505050506040513d60208110156118a857600080fd5b5051600154604080517f79cbc5fa0000000000000000000000000000000000000000000000000000000081529051929350600092600160a060020a03909216916379cbc5fa91600480820192602092909190829003018186803b15801561190e57600080fd5b505afa158015611922573d6000803e3d6000fd5b505050506040513d602081101561193857600080fd5b5051604080517f4c9d31ca000000000000000000000000000000000000000000000000000000008152600481018a9052602481018990529051600160a060020a0390921691634c9d31ca91604480820192602092909190829003018186803b1580156119a357600080fd5b505afa1580156119b7573d6000803e3d6000fd5b505050506040513d60208110156119cd57600080fd5b5051600154604080517f79cbc5fa0000000000000000000000000000000000000000000000000000000081529051929350600092600160a060020a03909216916379cbc5fa91600480820192602092909190829003018186803b158015611a3357600080fd5b505afa158015611a47573d6000803e3d6000fd5b505050506040513d6020811015611a5d57600080fd5b5051604080517f7ca36b94000000000000000000000000000000000000000000000000000000008152600481018a90529051600160a060020a0390921691637ca36b9491602480820192602092909190829003018186803b158015611ac157600080fd5b505afa158015611ad5573d6000803e3d6000fd5b505050506040513d6020811015611aeb57600080fd5b50519050611afc8487858585610567565b98975050505050505050565b600160a060020a0381161515611b1d57600080fd5b60008054604051600160a060020a03808516939216917f8be0079c531659141344cd1fd0a4f28419497f9722a3daafe3b4186f6b6457e091a36000805473ffffffffffffffffffffffffffffffffffffffff1916600160a060020a0392909216919091179055565b6001546040805160e060020a634939cf370281529051600092600160a060020a031691634939cf37916004808301926020929190829003018186803b158015611bcd57600080fd5b505afa158015611be1573d6000803e3d6000fd5b505050506040513d6020811015611bf757600080fd5b5051600154604080517f0f01b0ce0000000000000000000000000000000000000000000000000000000081529051600160a060020a039384169363f08ce73c938a938a938a938a931691630f01b0ce916004808301926020929190829003018186803b158015611c6657600080fd5b505afa158015611c7a573d6000803e3d6000fd5b505050506040513d6020811015611c9057600080fd5b50516040805160e060020a63ffffffff8916028152600160a060020a03909616600487015260248601949094526044850192909252606484015260848301525160a4808301926020929190829003018186803b158015611cef57600080fd5b505afa158015611d03573d6000803e3d6000fd5b505050506040513d6020811015611d1957600080fd5b50519594505050505056fea165627a7a72305820ff48ae0c1f3eda8029da7f3f6050de122f5d9c6b0b462a5e1e8d9c03b18028010029",
  "source": "pragma solidity ^0.5.0;\n\nimport \"openzeppelin-solidity/contracts/ownership/Ownable.sol\";\nimport \"./RewardPool.sol\";\nimport \"./IAsset.sol\";\n\ncontract Curator is IAsset, Ownable {\n\n  RewardPool public _rewardPool;\n\n  function init(address rewardPool) external\n    onlyOwner()\n  {\n    require(address(rewardPool) != address(0));\n    require(address(_rewardPool) == address(0));\n    _rewardPool = RewardPool(rewardPool);\n  }\n\n  function addVote(bytes32 docId, uint256 deposit) external {\n    _rewardPool._ballot().create(_rewardPool._ballot().next(), msg.sender, docId, deposit);\n  }\n\n  function getVote(uint256 i) external view returns (address, bytes32, uint256, uint256, uint256) {\n    return _rewardPool._ballot().getVote(i);\n  }\n\n  function getDocuments(address owner) external view returns (bytes32[] memory) {\n    return _rewardPool._ballot().getUserDocuments(owner);\n  }\n\n  function count() external view returns (uint256) {\n    return _rewardPool._ballot().count();\n  }\n\n  function getActiveVotes(bytes32 docId) external view returns (uint256) {\n    return _rewardPool._ballot().getActiveVotes(docId, uint(block.timestamp/86400) * 86400000, _rewardPool.getVestingMillis());\n  }\n\n  function getUserActiveVotes(address addr, bytes32 docId) external view returns (uint256) {\n    return _rewardPool._ballot().getUserActiveVotes(addr, docId, uint(block.timestamp/86400) * 86400000, _rewardPool.getVestingMillis());\n  }\n\n  function getUserDocuments(address addr) external view returns (bytes32[] memory) {\n    return _rewardPool._ballot().getUserDocuments(addr);\n  }\n\n  function determine(bytes32 docId) external view returns (uint256, uint256) {\n    require(docId != 0);\n    require(address(_rewardPool) != address(0));\n    require(_rewardPool._registry().contains(docId));\n    return totalReward(msg.sender, docId, uint(block.timestamp/86400) * 86400000);\n  }\n\n  function totalReward(address addr, bytes32 docId, uint256 claimMillis) private view returns (uint256, uint256) {\n    uint256 sum = 0;\n    uint256 refund = 0;\n    uint256 next = 0;\n    uint256 listed = 0;\n    uint256 last = 0;\n    (,listed,last,) = _rewardPool._registry().getDocument(docId);\n    while (last <= claimMillis) {\n      if (last == 0) {\n        last = listed;\n      }\n      uint deposit = _rewardPool._ballot().getUserClaimableVotes(addr, docId, last, claimMillis, _rewardPool.getVestingMillis());\n      sum += dailyReward(docId, last, deposit);\n      refund += dailyRefund(addr, docId, last, claimMillis);\n      next = last + 86400000;\n      assert(last < next);\n      last = next;\n    }\n    return (sum, refund);\n  }\n\n  function dailyReward(bytes32 docId, uint dateMillis, uint deposit) private view returns (uint) {\n    uint pool = _rewardPool.getDailyRewardPool(uint(30), dateMillis);\n    uint tvd = _rewardPool._ballot().getActiveVotes(docId, dateMillis, _rewardPool.getVestingMillis());\n    uint pv = _rewardPool._registry().getPageView(docId, dateMillis);\n    uint tpvs = _rewardPool._registry().getTotalPageViewSquare(dateMillis);\n    return calculate(pool, deposit, tvd, pv, tpvs);\n  }\n\n  function dailyRefund(address addr, bytes32 docId, uint dateMillis, uint claimMillis) private view returns (uint) {\n    return _rewardPool._ballot().getUserRefundableDeposit(addr, docId, dateMillis, claimMillis, _rewardPool.getVestingMillis());\n  }\n\n  function calculate(uint pool, uint v, uint tv, uint pv, uint tpvs) public pure returns (uint) {\n    if (tpvs == 0 || pv == 0 || tv == 0) {\n      return uint(0);\n    }\n    assert(tv >= v);\n    assert(tpvs >= (pv ** 2));\n    uint reward = uint(uint((pool * (pv ** 2)) / tpvs) * v / tv);\n    assert(pool >= reward);\n    return reward;\n  }\n\n  function determineAt(address addr, bytes32 docId, uint256 dateMillis) external view returns (uint256, uint256) {\n    require(msg.sender == address(_rewardPool));\n    require(address(_rewardPool) != address(0));\n    return totalReward(addr, docId, dateMillis);\n  }\n\n  function recentEarnings(address addr, bytes32 docId, uint256 day) external view returns (uint256) {\n    uint256 sum = 0;\n    uint256 next = 0;\n    uint256 todayMillis = uint(block.timestamp/86400) * 86400000;\n    uint256 listed;\n    (,listed,,) = _rewardPool._registry().getDocument(docId);\n    next = (todayMillis - (day * 86400000)) < listed ? listed : (todayMillis - (day * 86400000));\n    while (next < todayMillis) {\n      uint deposit = _rewardPool._ballot().getUserActiveVotes(addr, docId, next, _rewardPool.getVestingMillis());\n      sum += dailyReward(docId, next, deposit);\n      next += 86400000;\n    }\n    return sum;\n  }\n}\n",
  "sourcePath": "/Users/centroine/Documents/iris/decompanyio/decompanyio/contracts/Curator.sol",
  "compiler": {
    "name": "solc",
    "version": "0.5.0+commit.1d4f565a.Emscripten.clang"
  },
  "schemaVersion": "3.0.2",
  "updatedAt": "2019-02-27T01:41:34.117Z",
  "devdoc": {
    "methods": {
      "isOwner()": {
        "return": "true if `msg.sender` is the owner of the contract."
      },
      "owner()": {
        "return": "the address of the owner."
      },
      "renounceOwnership()": {
        "details": "Allows the current owner to relinquish control of the contract."
      },
      "transferOwnership(address)": {
        "details": "Allows the current owner to transfer control of the contract to a newOwner.",
        "params": {
          "newOwner": "The address to transfer ownership to."
        }
      }
    }
  },
  "userdoc": {
    "methods": {
      "renounceOwnership()": {
        "notice": "Renouncing to ownership will leave the contract without an owner. It will not be possible to call the functions with the `onlyOwner` modifier anymore."
      }
    }
  }
}