{
  "contractName": "Curator",
  "abi": [
    {
      "constant": false,
      "inputs": [],
      "name": "renounceOwnership",
      "outputs": [],
      "payable": false,
      "stateMutability": "nonpayable",
      "type": "function",
      "signature": "0x715018a6"
    },
    {
      "constant": true,
      "inputs": [],
      "name": "owner",
      "outputs": [
        {
          "name": "",
          "type": "address"
        }
      ],
      "payable": false,
      "stateMutability": "view",
      "type": "function",
      "signature": "0x8da5cb5b"
    },
    {
      "constant": true,
      "inputs": [],
      "name": "isOwner",
      "outputs": [
        {
          "name": "",
          "type": "bool"
        }
      ],
      "payable": false,
      "stateMutability": "view",
      "type": "function",
      "signature": "0x8f32d59b"
    },
    {
      "constant": true,
      "inputs": [],
      "name": "_rewardPool",
      "outputs": [
        {
          "name": "",
          "type": "address"
        }
      ],
      "payable": false,
      "stateMutability": "view",
      "type": "function",
      "signature": "0xdc7ced3d"
    },
    {
      "constant": false,
      "inputs": [
        {
          "name": "newOwner",
          "type": "address"
        }
      ],
      "name": "transferOwnership",
      "outputs": [],
      "payable": false,
      "stateMutability": "nonpayable",
      "type": "function",
      "signature": "0xf2fde38b"
    },
    {
      "anonymous": false,
      "inputs": [
        {
          "indexed": true,
          "name": "previousOwner",
          "type": "address"
        },
        {
          "indexed": true,
          "name": "newOwner",
          "type": "address"
        }
      ],
      "name": "OwnershipTransferred",
      "type": "event",
      "signature": "0x8be0079c531659141344cd1fd0a4f28419497f9722a3daafe3b4186f6b6457e0"
    },
    {
      "constant": false,
      "inputs": [
        {
          "name": "rewardPool",
          "type": "address"
        }
      ],
      "name": "init",
      "outputs": [],
      "payable": false,
      "stateMutability": "nonpayable",
      "type": "function",
      "signature": "0x19ab453c"
    },
    {
      "constant": false,
      "inputs": [
        {
          "name": "docId",
          "type": "bytes32"
        },
        {
          "name": "deposit",
          "type": "uint256"
        }
      ],
      "name": "addVote",
      "outputs": [],
      "payable": false,
      "stateMutability": "nonpayable",
      "type": "function",
      "signature": "0x69d2096e"
    },
    {
      "constant": true,
      "inputs": [
        {
          "name": "i",
          "type": "uint256"
        }
      ],
      "name": "getVote",
      "outputs": [
        {
          "name": "",
          "type": "address"
        },
        {
          "name": "",
          "type": "bytes32"
        },
        {
          "name": "",
          "type": "uint256"
        },
        {
          "name": "",
          "type": "uint256"
        }
      ],
      "payable": false,
      "stateMutability": "view",
      "type": "function",
      "signature": "0x5a55c1f0"
    },
    {
      "constant": true,
      "inputs": [
        {
          "name": "owner",
          "type": "address"
        }
      ],
      "name": "getDocuments",
      "outputs": [
        {
          "name": "",
          "type": "bytes32[]"
        }
      ],
      "payable": false,
      "stateMutability": "view",
      "type": "function",
      "signature": "0x27f50a2d"
    },
    {
      "constant": true,
      "inputs": [],
      "name": "count",
      "outputs": [
        {
          "name": "",
          "type": "uint256"
        }
      ],
      "payable": false,
      "stateMutability": "view",
      "type": "function",
      "signature": "0x06661abd"
    },
    {
      "constant": true,
      "inputs": [
        {
          "name": "d",
          "type": "bytes32"
        }
      ],
      "name": "getActiveVotes",
      "outputs": [
        {
          "name": "",
          "type": "uint256"
        }
      ],
      "payable": false,
      "stateMutability": "view",
      "type": "function",
      "signature": "0x8111c960"
    },
    {
      "constant": true,
      "inputs": [
        {
          "name": "a",
          "type": "address"
        },
        {
          "name": "d",
          "type": "bytes32"
        }
      ],
      "name": "getUserActiveVotes",
      "outputs": [
        {
          "name": "",
          "type": "uint256"
        }
      ],
      "payable": false,
      "stateMutability": "view",
      "type": "function",
      "signature": "0x3b4aba68"
    },
    {
      "constant": true,
      "inputs": [
        {
          "name": "a",
          "type": "address"
        }
      ],
      "name": "getUserDocuments",
      "outputs": [
        {
          "name": "",
          "type": "bytes32[]"
        }
      ],
      "payable": false,
      "stateMutability": "view",
      "type": "function",
      "signature": "0x90a4b162"
    },
    {
      "constant": true,
      "inputs": [
        {
          "name": "d",
          "type": "bytes32"
        }
      ],
      "name": "determine",
      "outputs": [
        {
          "name": "",
          "type": "uint256"
        },
        {
          "name": "",
          "type": "uint256"
        }
      ],
      "payable": false,
      "stateMutability": "view",
      "type": "function",
      "signature": "0x1b53e1e2"
    },
    {
      "constant": true,
      "inputs": [
        {
          "name": "a",
          "type": "address"
        },
        {
          "name": "d",
          "type": "bytes32"
        },
        {
          "name": "dm",
          "type": "uint256"
        }
      ],
      "name": "determineAt",
      "outputs": [
        {
          "name": "",
          "type": "uint256"
        },
        {
          "name": "",
          "type": "uint256"
        }
      ],
      "payable": false,
      "stateMutability": "view",
      "type": "function",
      "signature": "0x904e5e57"
    },
    {
      "constant": true,
      "inputs": [
        {
          "name": "a",
          "type": "address"
        },
        {
          "name": "d",
          "type": "bytes32"
        },
        {
          "name": "day",
          "type": "uint256"
        }
      ],
      "name": "recentEarnings",
      "outputs": [
        {
          "name": "",
          "type": "uint256"
        }
      ],
      "payable": false,
      "stateMutability": "view",
      "type": "function",
      "signature": "0xb1487916"
    },
    {
      "constant": true,
      "inputs": [
        {
          "name": "pool",
          "type": "uint256"
        },
        {
          "name": "v",
          "type": "uint256"
        },
        {
          "name": "tv",
          "type": "uint256"
        },
        {
          "name": "pv",
          "type": "uint256"
        },
        {
          "name": "tpvs",
          "type": "uint256"
        }
      ],
      "name": "calculate",
      "outputs": [
        {
          "name": "",
          "type": "uint256"
        }
      ],
      "payable": false,
      "stateMutability": "pure",
      "type": "function",
      "signature": "0x146701ba"
    }
  ],
  "bytecode": "0x6080604081905260008054600160a060020a0319163317808255600160a060020a0316917f8be0079c531659141344cd1fd0a4f28419497f9722a3daafe3b4186f6b6457e0908290a3611eff806100576000396000f3fe6080604052600436106100d75763ffffffff60e060020a60003504166306661abd81146100dc578063146701ba1461010357806319ab453c146101455780631b53e1e21461017a57806327f50a2d146101bd5780633b4aba68146102405780635a55c1f01461027957806369d2096e146102d3578063715018a6146103035780638111c960146103185780638da5cb5b146103425780638f32d59b14610373578063904e5e571461039c57806390a4b162146101bd578063b1487916146103db578063dc7ced3d1461041a578063f2fde38b1461042f575b600080fd5b3480156100e857600080fd5b506100f1610462565b60408051918252519081900360200190f35b34801561010f57600080fd5b506100f1600480360360a081101561012657600080fd5b5080359060208101359060408101359060608101359060800135610562565b34801561015157600080fd5b506101786004803603602081101561016857600080fd5b5035600160a060020a03166105d4565b005b34801561018657600080fd5b506101a46004803603602081101561019d57600080fd5b5035610641565b6040805192835260208301919091528051918290030190f35b3480156101c957600080fd5b506101f0600480360360208110156101e057600080fd5b5035600160a060020a0316610798565b60408051602080825283518183015283519192839290830191858101910280838360005b8381101561022c578181015183820152602001610214565b505050509050019250505060405180910390f35b34801561024c57600080fd5b506100f16004803603604081101561026357600080fd5b50600160a060020a038135169060200135610900565b34801561028557600080fd5b506102a36004803603602081101561029c57600080fd5b5035610a94565b60408051600160a060020a0390951685526020850193909352838301919091526060830152519081900360800190f35b3480156102df57600080fd5b50610178600480360360408110156102f657600080fd5b5080359060200135610bc5565b34801561030f57600080fd5b50610178610f61565b34801561032457600080fd5b506100f16004803603602081101561033b57600080fd5b5035610fcb565b34801561034e57600080fd5b5061035761114d565b60408051600160a060020a039092168252519081900360200190f35b34801561037f57600080fd5b5061038861115c565b604080519115158252519081900360200190f35b3480156103a857600080fd5b506101a4600480360360608110156103bf57600080fd5b50600160a060020a03813516906020810135906040013561116d565b3480156103e757600080fd5b506100f1600480360360608110156103fe57600080fd5b50600160a060020a0381351690602081013590604001356111b7565b34801561042657600080fd5b506103576114c0565b34801561043b57600080fd5b506101786004803603602081101561045257600080fd5b5035600160a060020a03166114cf565b6001546040805160e060020a634939cf370281529051600092600160a060020a031691634939cf37916004808301926020929190829003018186803b1580156104aa57600080fd5b505afa1580156104be573d6000803e3d6000fd5b505050506040513d60208110156104d457600080fd5b5051604080517f06661abd0000000000000000000000000000000000000000000000000000000081529051600160a060020a03909216916306661abd91600480820192602092909190829003018186803b15801561053157600080fd5b505afa158015610545573d6000803e3d6000fd5b505050506040513d602081101561055b57600080fd5b5051905090565b600081158061056f575082155b80610578575083155b15610585575060006105cb565b8484101561058f57fe5b6002830a82101561059c57fe5b60008486846002870a8a028115156105b057fe5b04028115156105bb57fe5b049050808710156105c857fe5b90505b95945050505050565b6105dc61115c565b15156105e757600080fd5b600160a060020a03811615156105fc57600080fd5b600154600160a060020a03161561061257600080fd5b6001805473ffffffffffffffffffffffffffffffffffffffff1916600160a060020a0392909216919091179055565b60008082151561065057600080fd5b600154600160a060020a0316151561066757600080fd5b600160009054906101000a9004600160a060020a0316600160a060020a03166379cbc5fa6040518163ffffffff1660e060020a02815260040160206040518083038186803b1580156106b857600080fd5b505afa1580156106cc573d6000803e3d6000fd5b505050506040513d60208110156106e257600080fd5b5051604080517f1d1a696d000000000000000000000000000000000000000000000000000000008152600481018690529051600160a060020a0390921691631d1a696d91602480820192602092909190829003018186803b15801561074657600080fd5b505afa15801561075a573d6000803e3d6000fd5b505050506040513d602081101561077057600080fd5b5051151561077d57600080fd5b61078f338461078a6114ee565b61154c565b91509150915091565b6001546040805160e060020a634939cf370281529051606092600160a060020a031691634939cf37916004808301926020929190829003018186803b1580156107e057600080fd5b505afa1580156107f4573d6000803e3d6000fd5b505050506040513d602081101561080a57600080fd5b5051604080517f90a4b162000000000000000000000000000000000000000000000000000000008152600160a060020a038581166004830152915191909216916390a4b162916024808301926000929190829003018186803b15801561086f57600080fd5b505afa158015610883573d6000803e3d6000fd5b505050506040513d6000823e601f3d908101601f1916820160405260208110156108ac57600080fd5b8101908080516401000000008111156108c457600080fd5b820160208101848111156108d757600080fd5b81518560208202830111640100000000821117156108f457600080fd5b50909695505050505050565b6001546040805160e060020a634939cf370281529051600092600160a060020a031691634939cf37916004808301926020929190829003018186803b15801561094857600080fd5b505afa15801561095c573d6000803e3d6000fd5b505050506040513d602081101561097257600080fd5b5051600160a060020a0316633a7f6315848461098c6114ee565b600160009054906101000a9004600160a060020a0316600160a060020a0316630f01b0ce6040518163ffffffff1660e060020a02815260040160206040518083038186803b1580156109dd57600080fd5b505afa1580156109f1573d6000803e3d6000fd5b505050506040513d6020811015610a0757600080fd5b50516040805160e060020a63ffffffff8816028152600160a060020a039095166004860152602485019390935260448401919091526064830152516084808301926020929190829003018186803b158015610a6157600080fd5b505afa158015610a75573d6000803e3d6000fd5b505050506040513d6020811015610a8b57600080fd5b50519392505050565b600080600080600160009054906101000a9004600160a060020a0316600160a060020a0316634939cf376040518163ffffffff1660e060020a02815260040160206040518083038186803b158015610aeb57600080fd5b505afa158015610aff573d6000803e3d6000fd5b505050506040513d6020811015610b1557600080fd5b5051604080517f5a55c1f0000000000000000000000000000000000000000000000000000000008152600481018890529051600160a060020a0390921691635a55c1f091602480820192608092909190829003018186803b158015610b7957600080fd5b505afa158015610b8d573d6000803e3d6000fd5b505050506040513d6080811015610ba357600080fd5b5080516020820151604083015160609093015191989097509195509350915050565b60008111610bd257600080fd5b600154604080517fecd0c0c300000000000000000000000000000000000000000000000000000000815290518392600160a060020a03169163ecd0c0c3916004808301926020929190829003018186803b158015610c2f57600080fd5b505afa158015610c43573d6000803e3d6000fd5b505050506040513d6020811015610c5957600080fd5b5051604080517f70a082310000000000000000000000000000000000000000000000000000000081523360048201529051600160a060020a03909216916370a0823191602480820192602092909190829003018186803b158015610cbc57600080fd5b505afa158015610cd0573d6000803e3d6000fd5b505050506040513d6020811015610ce657600080fd5b505111610cf257600080fd5b600154604080517f47e7ef24000000000000000000000000000000000000000000000000000000008152336004820152602481018490529051600160a060020a03909216916347e7ef249160448082019260009290919082900301818387803b158015610d5e57600080fd5b505af1158015610d72573d6000803e3d6000fd5b50505050600160009054906101000a9004600160a060020a0316600160a060020a0316634939cf376040518163ffffffff1660e060020a02815260040160206040518083038186803b158015610dc757600080fd5b505afa158015610ddb573d6000803e3d6000fd5b505050506040513d6020811015610df157600080fd5b50516001546040805160e060020a634939cf370281529051600160a060020a039384169363b55af6a8931691634939cf37916004808301926020929190829003018186803b158015610e4257600080fd5b505afa158015610e56573d6000803e3d6000fd5b505050506040513d6020811015610e6c57600080fd5b5051604080517f4c8fe5260000000000000000000000000000000000000000000000000000000081529051600160a060020a0390921691634c8fe52691600480820192602092909190829003018186803b158015610ec957600080fd5b505afa158015610edd573d6000803e3d6000fd5b505050506040513d6020811015610ef357600080fd5b50516040805160e060020a63ffffffff85160281526004810192909252336024830152604482018690526064820185905251608480830192600092919082900301818387803b158015610f4557600080fd5b505af1158015610f59573d6000803e3d6000fd5b505050505050565b610f6961115c565b1515610f7457600080fd5b60008054604051600160a060020a03909116907f8be0079c531659141344cd1fd0a4f28419497f9722a3daafe3b4186f6b6457e0908390a36000805473ffffffffffffffffffffffffffffffffffffffff19169055565b6001546040805160e060020a634939cf370281529051600092600160a060020a031691634939cf37916004808301926020929190829003018186803b15801561101357600080fd5b505afa158015611027573d6000803e3d6000fd5b505050506040513d602081101561103d57600080fd5b5051600160a060020a0316638c239c70836110566114ee565b600160009054906101000a9004600160a060020a0316600160a060020a0316630f01b0ce6040518163ffffffff1660e060020a02815260040160206040518083038186803b1580156110a757600080fd5b505afa1580156110bb573d6000803e3d6000fd5b505050506040513d60208110156110d157600080fd5b50516040805160e060020a63ffffffff8716028152600481019490945260248401929092526044830152516064808301926020929190829003018186803b15801561111b57600080fd5b505afa15801561112f573d6000803e3d6000fd5b505050506040513d602081101561114557600080fd5b505192915050565b600054600160a060020a031690565b600054600160a060020a0316331490565b6001546000908190600160a060020a0316331461118957600080fd5b600154600160a060020a031615156111a057600080fd5b6111ab85858561154c565b91509150935093915050565b6001546040805160e160020a633ce5e2fd0281529051600092839283928392600160a060020a0316916379cbc5fa916004808301926020929190829003018186803b15801561120557600080fd5b505afa158015611219573d6000803e3d6000fd5b505050506040513d602081101561122f57600080fd5b5051604080517fb10d6b41000000000000000000000000000000000000000000000000000000008152600481018990529051600160a060020a039092169163b10d6b4191602480820192608092909190829003018186803b15801561129357600080fd5b505afa1580156112a7573d6000803e3d6000fd5b505050506040513d60808110156112bd57600080fd5b50602001519050806305265c0086026112d46114ee565b03106112ef57846305265c00026112e96114ee565b036112f1565b805b91505b6112fc6114ee565b8210156114b5576001546040805160e060020a634939cf370281529051600092600160a060020a031691634939cf37916004808301926020929190829003018186803b15801561134b57600080fd5b505afa15801561135f573d6000803e3d6000fd5b505050506040513d602081101561137557600080fd5b5051600154604080517f0f01b0ce0000000000000000000000000000000000000000000000000000000081529051600160a060020a0393841693633a7f6315938d938d938a9390921691630f01b0ce91600480820192602092909190829003018186803b1580156113e557600080fd5b505afa1580156113f9573d6000803e3d6000fd5b505050506040513d602081101561140f57600080fd5b50516040805160e060020a63ffffffff8816028152600160a060020a039095166004860152602485019390935260448401919091526064830152516084808301926020929190829003018186803b15801561146957600080fd5b505afa15801561147d573d6000803e3d6000fd5b505050506040513d602081101561149357600080fd5b505190506114a2878483611862565b840193506305265c0083019250506112f4565b509095945050505050565b600154600160a060020a031681565b6114d761115c565b15156114e257600080fd5b6114eb81611cb7565b50565b600154604080517f7ff8b20e0000000000000000000000000000000000000000000000000000000081529051600092600160a060020a031691637ff8b20e916004808301926020929190829003018186803b15801561053157600080fd5b6001546040805160e160020a633ce5e2fd0281529051600092839283928392839283928392600160a060020a0316916379cbc5fa916004808301926020929190829003018186803b1580156115a057600080fd5b505afa1580156115b4573d6000803e3d6000fd5b505050506040513d60208110156115ca57600080fd5b5051604080517fb10d6b41000000000000000000000000000000000000000000000000000000008152600481018c90529051600160a060020a039092169163b10d6b4191602480820192608092909190829003018186803b15801561162e57600080fd5b505afa158015611642573d6000803e3d6000fd5b505050506040513d608081101561165857600080fd5b50602081015160409091015190925090505b8781116118525780151561167b5750805b6001546040805160e060020a634939cf370281529051600092600160a060020a031691634939cf37916004808301926020929190829003018186803b1580156116c357600080fd5b505afa1580156116d7573d6000803e3d6000fd5b505050506040513d60208110156116ed57600080fd5b8101908080519060200190929190505050600160a060020a0316635a271e748c8c858d600160009054906101000a9004600160a060020a0316600160a060020a0316630f01b0ce6040518163ffffffff1660e060020a02815260040160206040518083038186803b15801561176157600080fd5b505afa158015611775573d6000803e3d6000fd5b505050506040513d602081101561178b57600080fd5b50516040805160e060020a63ffffffff8916028152600160a060020a03909616600487015260248601949094526044850192909252606484015260848301525160a4808301926020929190829003018186803b1580156117ea57600080fd5b505afa1580156117fe573d6000803e3d6000fd5b505050506040513d602081101561181457600080fd5b505190506118238a8383611862565b860195506118338b8b848c611d34565b909401936305265c008201935083821061184957fe5b8391505061166a565b5092989197509095505050505050565b600154604080517fdcb8e506000000000000000000000000000000000000000000000000000000008152601e60048201526024810185905290516000928392600160a060020a039091169163dcb8e50691604480820192602092909190829003018186803b1580156118d357600080fd5b505afa1580156118e7573d6000803e3d6000fd5b505050506040513d60208110156118fd57600080fd5b50516001546040805160e060020a634939cf370281529051929350600092600160a060020a0390921691634939cf3791600480820192602092909190829003018186803b15801561194d57600080fd5b505afa158015611961573d6000803e3d6000fd5b505050506040513d602081101561197757600080fd5b5051600154604080517f0f01b0ce0000000000000000000000000000000000000000000000000000000081529051600160a060020a0393841693638c239c70938b938b939190921691630f01b0ce916004808301926020929190829003018186803b1580156119e557600080fd5b505afa1580156119f9573d6000803e3d6000fd5b505050506040513d6020811015611a0f57600080fd5b50516040805160e060020a63ffffffff8716028152600481019490945260248401929092526044830152516064808301926020929190829003018186803b158015611a5957600080fd5b505afa158015611a6d573d6000803e3d6000fd5b505050506040513d6020811015611a8357600080fd5b50516001546040805160e160020a633ce5e2fd0281529051929350600092600160a060020a03909216916379cbc5fa91600480820192602092909190829003018186803b158015611ad357600080fd5b505afa158015611ae7573d6000803e3d6000fd5b505050506040513d6020811015611afd57600080fd5b5051604080517f4c9d31ca000000000000000000000000000000000000000000000000000000008152600481018a9052602481018990529051600160a060020a0390921691634c9d31ca91604480820192602092909190829003018186803b158015611b6857600080fd5b505afa158015611b7c573d6000803e3d6000fd5b505050506040513d6020811015611b9257600080fd5b50516001546040805160e160020a633ce5e2fd0281529051929350600092600160a060020a03909216916379cbc5fa91600480820192602092909190829003018186803b158015611be257600080fd5b505afa158015611bf6573d6000803e3d6000fd5b505050506040513d6020811015611c0c57600080fd5b5051604080517f7ca36b94000000000000000000000000000000000000000000000000000000008152600481018a90529051600160a060020a0390921691637ca36b9491602480820192602092909190829003018186803b158015611c7057600080fd5b505afa158015611c84573d6000803e3d6000fd5b505050506040513d6020811015611c9a57600080fd5b50519050611cab8487858585610562565b98975050505050505050565b600160a060020a0381161515611ccc57600080fd5b60008054604051600160a060020a03808516939216917f8be0079c531659141344cd1fd0a4f28419497f9722a3daafe3b4186f6b6457e091a36000805473ffffffffffffffffffffffffffffffffffffffff1916600160a060020a0392909216919091179055565b6001546040805160e060020a634939cf370281529051600092600160a060020a031691634939cf37916004808301926020929190829003018186803b158015611d7c57600080fd5b505afa158015611d90573d6000803e3d6000fd5b505050506040513d6020811015611da657600080fd5b5051600154604080517f0f01b0ce0000000000000000000000000000000000000000000000000000000081529051600160a060020a039384169363f08ce73c938a938a938a938a931691630f01b0ce916004808301926020929190829003018186803b158015611e1557600080fd5b505afa158015611e29573d6000803e3d6000fd5b505050506040513d6020811015611e3f57600080fd5b50516040805160e060020a63ffffffff8916028152600160a060020a03909616600487015260248601949094526044850192909252606484015260848301525160a4808301926020929190829003018186803b158015611e9e57600080fd5b505afa158015611eb2573d6000803e3d6000fd5b505050506040513d6020811015611ec857600080fd5b50519594505050505056fea165627a7a72305820bad199fcdb758d40a82d0afd16a89d82d5937c496d49ee8783ad553bd64119dc0029",
  "source": "pragma solidity 0.5.0;\n\nimport \"openzeppelin-solidity/contracts/ownership/Ownable.sol\";\nimport \"./RewardPool.sol\";\nimport \"./IAsset.sol\";\n\n\ncontract Curator is IAsset, Ownable {\n\n    RewardPool public _rewardPool;\n\n    function init(address rewardPool) external\n        onlyOwner()\n    {\n        require(address(rewardPool) != address(0));\n        require(address(_rewardPool) == address(0));\n        _rewardPool = RewardPool(rewardPool);\n    }\n\n    function addVote(bytes32 docId, uint256 deposit) external {\n        require(deposit > 0);\n        require(_rewardPool._token().balanceOf(msg.sender) > deposit);\n        _rewardPool.deposit(msg.sender, deposit);\n        _rewardPool._ballot().create(_rewardPool._ballot().next(), msg.sender, docId, deposit);\n    }\n\n    function getVote(uint256 i) external view returns (address, bytes32, uint256, uint256) {\n        return _rewardPool._ballot().getVote(i);\n    }\n\n    function getDocuments(address owner) external view returns (bytes32[] memory) {\n        return _rewardPool._ballot().getUserDocuments(owner);\n    }\n\n    function count() external view returns (uint256) {\n        return _rewardPool._ballot().count();\n    }\n\n    function getActiveVotes(bytes32 d) external view returns (uint256) {\n        return _rewardPool._ballot().getActiveVotes(d, getMillis(), _rewardPool.getVestingMillis());\n    }\n\n    function getUserActiveVotes(address a, bytes32 d) external view returns (uint256) {\n        return _rewardPool._ballot().getUserActiveVotes(a, d, getMillis(), _rewardPool.getVestingMillis());\n    }\n\n    function getUserDocuments(address a) external view returns (bytes32[] memory) {\n        return _rewardPool._ballot().getUserDocuments(a);\n    }\n\n    function determine(bytes32 d) external view returns (uint256, uint256) {\n        require(d != 0);\n        require(address(_rewardPool) != address(0));\n        require(_rewardPool._registry().contains(d));\n        return totalReward(msg.sender, d, getMillis());\n    }\n\n    function determineAt(address a, bytes32 d, uint256 dm) external view returns (uint256, uint256) {\n        require(msg.sender == address(_rewardPool));\n        require(address(_rewardPool) != address(0));\n        return totalReward(a, d, dm);\n    }\n\n    function recentEarnings(address a, bytes32 d, uint256 day) external view returns (uint256) {\n        uint256 sum = 0;\n        uint256 next = 0;\n        uint256 listed;\n        (, listed, , ) = _rewardPool._registry().getDocument(d);\n        next = (getMillis() - (day * 86400000)) < listed ? listed : (getMillis() - (day * 86400000));\n        while (next < getMillis()) {\n            uint deposit = _rewardPool._ballot().getUserActiveVotes(a, d, next, _rewardPool.getVestingMillis());\n            sum += dailyReward(d, next, deposit);\n            next += 86400000;\n        }\n        return sum;\n    }\n\n    function calculate(uint pool, uint v, uint tv, uint pv, uint tpvs) public pure returns (uint) {\n        if (tpvs == 0 || pv == 0 || tv == 0) {\n            return uint(0);\n        }\n        assert(tv >= v);\n        assert(tpvs >= (pv ** 2));\n        uint reward = uint(uint((pool * (pv ** 2)) / tpvs) * v / tv);\n        assert(pool >= reward);\n        return reward;\n    }\n\n    function totalReward(address a, bytes32 d, uint256 cm) private view returns (uint256, uint256) {\n        uint256 sum = 0;\n        uint256 refund = 0;\n        uint256 next = 0;\n        uint256 listed = 0;\n        uint256 last = 0;\n        (, listed, last,) = _rewardPool._registry().getDocument(d);\n        while (last <= cm) {\n            if (last == 0) {\n                last = listed;\n            }\n            uint deposit = _rewardPool._ballot().getUserClaimableVotes(a, d, last, cm, _rewardPool.getVestingMillis());\n            sum += dailyReward(d, last, deposit);\n            refund += dailyRefund(a, d, last, cm);\n            next = last + 86400000;\n            assert(last < next);\n            last = next;\n        }\n        return (sum, refund);\n    }\n\n    function dailyReward(bytes32 docId, uint dateMillis, uint deposit) private view returns (uint) {\n        uint pool = _rewardPool.getDailyRewardPool(uint(30), dateMillis);\n        uint tvd = _rewardPool._ballot().getActiveVotes(docId, dateMillis, _rewardPool.getVestingMillis());\n        uint pv = _rewardPool._registry().getPageView(docId, dateMillis);\n        uint tpvs = _rewardPool._registry().getTotalPageViewSquare(dateMillis);\n        return calculate(pool, deposit, tvd, pv, tpvs);\n    }\n\n    function dailyRefund(address a, bytes32 d, uint dm, uint cm) private view returns (uint) {\n        return _rewardPool._ballot().getUserRefundableDeposit(a, d, dm, cm, _rewardPool.getVestingMillis());\n    }\n\n    function getMillis() private view returns (uint) {\n        return _rewardPool.getDateMillis();\n    }\n\n}\n",
  "sourcePath": "/Users/centroine/Documents/iris/decompanyio/decompanyio/contracts/Curator.sol",
  "compiler": {
    "name": "solc",
    "version": "0.5.0+commit.1d4f565a.Emscripten.clang"
  },
  "schemaVersion": "3.0.2",
  "updatedAt": "2019-05-27T06:24:17.016Z",
  "devdoc": {
    "methods": {
      "isOwner()": {
        "return": "true if `msg.sender` is the owner of the contract."
      },
      "owner()": {
        "return": "the address of the owner."
      },
      "renounceOwnership()": {
        "details": "Allows the current owner to relinquish control of the contract."
      },
      "transferOwnership(address)": {
        "details": "Allows the current owner to transfer control of the contract to a newOwner.",
        "params": {
          "newOwner": "The address to transfer ownership to."
        }
      }
    }
  },
  "userdoc": {
    "methods": {
      "renounceOwnership()": {
        "notice": "Renouncing to ownership will leave the contract without an owner. It will not be possible to call the functions with the `onlyOwner` modifier anymore."
      }
    }
  }
}