{
  "contractName": "CuratorPool",
  "abi": [
    {
      "constant": true,
      "inputs": [],
      "name": "createTime",
      "outputs": [
        {
          "name": "",
          "type": "uint256"
        }
      ],
      "payable": false,
      "stateMutability": "view",
      "type": "function"
    },
    {
      "constant": false,
      "inputs": [],
      "name": "renounceOwnership",
      "outputs": [],
      "payable": false,
      "stateMutability": "nonpayable",
      "type": "function"
    },
    {
      "constant": true,
      "inputs": [],
      "name": "owner",
      "outputs": [
        {
          "name": "",
          "type": "address"
        }
      ],
      "payable": false,
      "stateMutability": "view",
      "type": "function"
    },
    {
      "constant": false,
      "inputs": [
        {
          "name": "_newOwner",
          "type": "address"
        }
      ],
      "name": "transferOwnership",
      "outputs": [],
      "payable": false,
      "stateMutability": "nonpayable",
      "type": "function"
    },
    {
      "anonymous": false,
      "inputs": [
        {
          "indexed": false,
          "name": "timestamp",
          "type": "uint256"
        },
        {
          "indexed": false,
          "name": "token",
          "type": "address"
        }
      ],
      "name": "_InitializeCuratorPool",
      "type": "event"
    },
    {
      "anonymous": false,
      "inputs": [
        {
          "indexed": true,
          "name": "docId",
          "type": "bytes32"
        },
        {
          "indexed": false,
          "name": "timestamp",
          "type": "uint256"
        },
        {
          "indexed": false,
          "name": "deposit",
          "type": "uint256"
        },
        {
          "indexed": true,
          "name": "applicant",
          "type": "address"
        }
      ],
      "name": "_AddVote",
      "type": "event"
    },
    {
      "anonymous": false,
      "inputs": [
        {
          "indexed": true,
          "name": "docId",
          "type": "bytes32"
        },
        {
          "indexed": false,
          "name": "timestamp",
          "type": "uint256"
        },
        {
          "indexed": false,
          "name": "deposit",
          "type": "uint256"
        },
        {
          "indexed": true,
          "name": "applicant",
          "type": "address"
        }
      ],
      "name": "_UpdateVote",
      "type": "event"
    },
    {
      "anonymous": false,
      "inputs": [
        {
          "indexed": true,
          "name": "applicant",
          "type": "address"
        },
        {
          "indexed": false,
          "name": "idx",
          "type": "uint256"
        },
        {
          "indexed": false,
          "name": "withdraw",
          "type": "uint256"
        }
      ],
      "name": "_Withdraw",
      "type": "event"
    },
    {
      "anonymous": false,
      "inputs": [
        {
          "indexed": true,
          "name": "previousOwner",
          "type": "address"
        }
      ],
      "name": "OwnershipRenounced",
      "type": "event"
    },
    {
      "anonymous": false,
      "inputs": [
        {
          "indexed": true,
          "name": "previousOwner",
          "type": "address"
        },
        {
          "indexed": true,
          "name": "newOwner",
          "type": "address"
        }
      ],
      "name": "OwnershipTransferred",
      "type": "event"
    },
    {
      "constant": false,
      "inputs": [
        {
          "name": "_token",
          "type": "address"
        },
        {
          "name": "_utility",
          "type": "address"
        }
      ],
      "name": "init",
      "outputs": [],
      "payable": false,
      "stateMutability": "nonpayable",
      "type": "function"
    },
    {
      "constant": false,
      "inputs": [
        {
          "name": "_curator",
          "type": "address"
        },
        {
          "name": "_docId",
          "type": "bytes32"
        },
        {
          "name": "_deposit",
          "type": "uint256"
        }
      ],
      "name": "addVote",
      "outputs": [],
      "payable": false,
      "stateMutability": "nonpayable",
      "type": "function"
    },
    {
      "constant": false,
      "inputs": [
        {
          "name": "_curator",
          "type": "address"
        },
        {
          "name": "_docId",
          "type": "bytes32"
        },
        {
          "name": "_deposit",
          "type": "uint256"
        },
        {
          "name": "_dateMillis",
          "type": "uint256"
        }
      ],
      "name": "updateVote",
      "outputs": [],
      "payable": false,
      "stateMutability": "nonpayable",
      "type": "function"
    },
    {
      "constant": false,
      "inputs": [
        {
          "name": "_curator",
          "type": "address"
        },
        {
          "name": "_idx",
          "type": "uint256"
        },
        {
          "name": "_withdraw",
          "type": "uint256"
        }
      ],
      "name": "withdraw",
      "outputs": [],
      "payable": false,
      "stateMutability": "nonpayable",
      "type": "function"
    },
    {
      "constant": true,
      "inputs": [
        {
          "name": "_addr",
          "type": "address"
        }
      ],
      "name": "getVoteCountByAddr",
      "outputs": [
        {
          "name": "",
          "type": "uint256"
        }
      ],
      "payable": false,
      "stateMutability": "view",
      "type": "function"
    },
    {
      "constant": true,
      "inputs": [
        {
          "name": "_addr",
          "type": "address"
        },
        {
          "name": "_idx",
          "type": "uint256"
        }
      ],
      "name": "getDocIdByAddr",
      "outputs": [
        {
          "name": "",
          "type": "bytes32"
        }
      ],
      "payable": false,
      "stateMutability": "view",
      "type": "function"
    },
    {
      "constant": true,
      "inputs": [
        {
          "name": "_addr",
          "type": "address"
        },
        {
          "name": "_idx",
          "type": "uint256"
        }
      ],
      "name": "getStartDateByAddr",
      "outputs": [
        {
          "name": "",
          "type": "uint256"
        }
      ],
      "payable": false,
      "stateMutability": "view",
      "type": "function"
    },
    {
      "constant": true,
      "inputs": [
        {
          "name": "_addr",
          "type": "address"
        },
        {
          "name": "_idx",
          "type": "uint256"
        }
      ],
      "name": "getDepositByAddr",
      "outputs": [
        {
          "name": "",
          "type": "uint256"
        }
      ],
      "payable": false,
      "stateMutability": "view",
      "type": "function"
    },
    {
      "constant": true,
      "inputs": [
        {
          "name": "_addr",
          "type": "address"
        },
        {
          "name": "_idx",
          "type": "uint256"
        }
      ],
      "name": "getWithdrawByAddr",
      "outputs": [
        {
          "name": "",
          "type": "uint256"
        }
      ],
      "payable": false,
      "stateMutability": "view",
      "type": "function"
    },
    {
      "constant": true,
      "inputs": [
        {
          "name": "_docId",
          "type": "bytes32"
        }
      ],
      "name": "getVoteCountByDoc",
      "outputs": [
        {
          "name": "",
          "type": "uint256"
        }
      ],
      "payable": false,
      "stateMutability": "view",
      "type": "function"
    },
    {
      "constant": true,
      "inputs": [
        {
          "name": "_docId",
          "type": "bytes32"
        },
        {
          "name": "_idx",
          "type": "uint256"
        }
      ],
      "name": "getAddressByDoc",
      "outputs": [
        {
          "name": "",
          "type": "bytes32"
        }
      ],
      "payable": false,
      "stateMutability": "view",
      "type": "function"
    },
    {
      "constant": true,
      "inputs": [
        {
          "name": "_docId",
          "type": "bytes32"
        },
        {
          "name": "_idx",
          "type": "uint256"
        }
      ],
      "name": "getStartDateByDoc",
      "outputs": [
        {
          "name": "",
          "type": "uint256"
        }
      ],
      "payable": false,
      "stateMutability": "view",
      "type": "function"
    },
    {
      "constant": true,
      "inputs": [
        {
          "name": "_docId",
          "type": "bytes32"
        },
        {
          "name": "_idx",
          "type": "uint256"
        }
      ],
      "name": "getDepositByDoc",
      "outputs": [
        {
          "name": "",
          "type": "uint256"
        }
      ],
      "payable": false,
      "stateMutability": "view",
      "type": "function"
    },
    {
      "constant": true,
      "inputs": [
        {
          "name": "_docId",
          "type": "bytes32"
        },
        {
          "name": "_idx",
          "type": "uint256"
        }
      ],
      "name": "getWithdrawByDoc",
      "outputs": [
        {
          "name": "",
          "type": "uint256"
        }
      ],
      "payable": false,
      "stateMutability": "view",
      "type": "function"
    },
    {
      "constant": true,
      "inputs": [
        {
          "name": "_addr",
          "type": "address"
        },
        {
          "name": "_docId",
          "type": "bytes32"
        },
        {
          "name": "_index",
          "type": "uint256"
        }
      ],
      "name": "indexOfNextVoteForClaim",
      "outputs": [
        {
          "name": "",
          "type": "int256"
        }
      ],
      "payable": false,
      "stateMutability": "view",
      "type": "function"
    },
    {
      "constant": true,
      "inputs": [
        {
          "name": "_addr",
          "type": "address"
        },
        {
          "name": "_idx",
          "type": "uint256"
        },
        {
          "name": "_dateMillis",
          "type": "uint256"
        },
        {
          "name": "_pv",
          "type": "uint256"
        },
        {
          "name": "_tpvs",
          "type": "uint256"
        }
      ],
      "name": "determineReward",
      "outputs": [
        {
          "name": "",
          "type": "uint256"
        }
      ],
      "payable": false,
      "stateMutability": "view",
      "type": "function"
    },
    {
      "constant": true,
      "inputs": [
        {
          "name": "_docId",
          "type": "bytes32"
        },
        {
          "name": "_idx",
          "type": "uint256"
        },
        {
          "name": "_dateMillis",
          "type": "uint256"
        },
        {
          "name": "_pv",
          "type": "uint256"
        },
        {
          "name": "_tpvs",
          "type": "uint256"
        }
      ],
      "name": "getRewardByDoc",
      "outputs": [
        {
          "name": "",
          "type": "uint256"
        }
      ],
      "payable": false,
      "stateMutability": "view",
      "type": "function"
    },
    {
      "constant": true,
      "inputs": [
        {
          "name": "_addr",
          "type": "address"
        },
        {
          "name": "_docId",
          "type": "bytes32"
        },
        {
          "name": "_dateMillis",
          "type": "uint256"
        }
      ],
      "name": "getSumDepositByAddr",
      "outputs": [
        {
          "name": "",
          "type": "uint256"
        }
      ],
      "payable": false,
      "stateMutability": "view",
      "type": "function"
    },
    {
      "constant": true,
      "inputs": [
        {
          "name": "_docId",
          "type": "bytes32"
        },
        {
          "name": "_dateMillis",
          "type": "uint256"
        }
      ],
      "name": "getSumDepositByDoc",
      "outputs": [
        {
          "name": "",
          "type": "uint256"
        }
      ],
      "payable": false,
      "stateMutability": "view",
      "type": "function"
    },
    {
      "constant": true,
      "inputs": [
        {
          "name": "_addr",
          "type": "address"
        },
        {
          "name": "_docId",
          "type": "bytes32"
        },
        {
          "name": "_dateMillis",
          "type": "uint256"
        }
      ],
      "name": "getSumWithdrawByAddr",
      "outputs": [
        {
          "name": "",
          "type": "uint256"
        }
      ],
      "payable": false,
      "stateMutability": "view",
      "type": "function"
    },
    {
      "constant": true,
      "inputs": [
        {
          "name": "_docId",
          "type": "bytes32"
        },
        {
          "name": "_dateMillis",
          "type": "uint256"
        }
      ],
      "name": "getSumWithdrawByDoc",
      "outputs": [
        {
          "name": "",
          "type": "uint256"
        }
      ],
      "payable": false,
      "stateMutability": "view",
      "type": "function"
    }
  ],
  "bytecode": "0x608060405260008054600160a060020a03191633179055611be0806100256000396000f30060806040526004361061012f5763ffffffff60e060020a60003504166302096d83811461013457806314158bec1461015d578063369e6963146101935780633b7aecf7146101b75780633c8740d8146101de578063604b2eb21461020b57806361dcd7ab1461022f57806365ab4f4514610244578063715018a61461025f57806385872028146102745780638da5cb5b1461028c578063a975a500146102bd578063aeb9753b146102d8578063b4156c0e146102ff578063b5c5f67214610323578063b8122eac1461034a578063bc6e874f14610374578063c6071fe11461038f578063d7587e60146103b3578063d919eda3146103da578063de3d12e9146103f5578063e49442f414610416578063f09a401614610431578063f2fde38b14610458578063f3ca340714610479575b600080fd5b34801561014057600080fd5b5061015b600160a060020a0360043516602435604435610494565b005b34801561016957600080fd5b50610181600160a060020a03600435166024356106bd565b60408051918252519081900360200190f35b34801561019f57600080fd5b50610181600160a060020a03600435166024356106fb565b3480156101c357600080fd5b50610181600160a060020a0360043516602435604435610739565b3480156101ea57600080fd5b50610181600160a060020a03600435166024356044356064356084356109ca565b34801561021757600080fd5b50610181600160a060020a0360043516602435610b2a565b34801561023b57600080fd5b50610181610b68565b34801561025057600080fd5b50610181600435602435610b6e565b34801561026b57600080fd5b5061015b610b88565b34801561028057600080fd5b50610181600435610bf4565b34801561029857600080fd5b506102a1610c06565b60408051600160a060020a039092168252519081900360200190f35b3480156102c957600080fd5b50610181600435602435610c15565b3480156102e457600080fd5b50610181600160a060020a0360043516602435604435610c2f565b34801561030b57600080fd5b50610181600435602435604435606435608435610dce565b34801561032f57600080fd5b5061015b600160a060020a0360043516602435604435610e70565b34801561035657600080fd5b5061015b600160a060020a0360043516602435604435606435611087565b34801561038057600080fd5b50610181600435602435611192565b34801561039b57600080fd5b50610181600160a060020a03600435166024356111c6565b3480156103bf57600080fd5b50610181600160a060020a03600435166024356044356111ea565b3480156103e657600080fd5b506101816004356024356113a8565b34801561040157600080fd5b50610181600160a060020a03600435166113c2565b34801561042257600080fd5b506101816004356024356113dd565b34801561043d57600080fd5b5061015b600160a060020a0360043581169060243516611577565b34801561046457600080fd5b5061015b600160a060020a03600435166116eb565b34801561048557600080fd5b5061018160043560243561170e565b600061049e611b88565b600054600160a060020a031633146104b557600080fd5b600360009054906101000a9004600160a060020a0316600160a060020a0316637ff8b20e6040518163ffffffff1660e060020a028152600401602060405180830381600087803b15801561050857600080fd5b505af115801561051c573d6000803e3d6000fd5b505050506040513d602081101561053257600080fd5b8101908080519060200190929190505050915060806040519081016040528085600019168152602001838152602001848152602001600081525090506001600086600160a060020a0316600160a060020a0316815260200190815260200160002081908060018154018082558091505090600182039060005260206000209060040201600090919290919091506000820151816000019060001916905560208201518160010155604082015181600201556060820151816003015550505060026000856000191660001916815260200190815260200160002081908060018154018082558091505090600182039060005260206000209060040201600090919290919091506000820151816000019060001916905560208201518160010155604082015181600201556060820151816003015550505084600160a060020a031684600019167f879d4a2c015ee414e9d66796e6ac8c117c1fb47d9bb5e73eb0d2303f4e45ecd78486604051808381526020018281526020019250505060405180910390a35050505050565b600160a060020a03821660009081526001602052604081208054839081106106e157fe5b906000526020600020906004020160020154905092915050565b600160a060020a038216600090815260016020526040812080548390811061071f57fe5b906000526020600020906004020160030154905092915050565b600160a060020a0383166000908152600160205260408120548190819015156107665760001992506109c1565b60008581526002602052604090205415156107855760001992506109c1565b600360009054906101000a9004600160a060020a0316600160a060020a0316637ff8b20e6040518163ffffffff1660e060020a028152600401602060405180830381600087803b1580156107d857600080fd5b505af11580156107ec573d6000803e3d6000fd5b505050506040513d602081101561080257600080fd5b5051915050600183015b600160a060020a0386166000908152600160205260409020548110156109bb57600160a060020a038616600090815260016020526040902080548691908390811061085357fe5b60009182526020909120600490910201541480156108a65750600160a060020a038616600090815260016020526040902080548290811061089057fe5b9060005260206000209060040201600301546000145b80156108e65750600160a060020a03861660009081526001602052604090208054829081106108d157fe5b90600052602060002090600402016001015482115b80156109a65750600360009054906101000a9004600160a060020a0316600160a060020a031663877211666040518163ffffffff1660e060020a028152600401602060405180830381600087803b15801561094057600080fd5b505af1158015610954573d6000803e3d6000fd5b505050506040513d602081101561096a57600080fd5b5051600160a060020a038716600090815260016020526040902080548390811061099057fe5b9060005260206000209060040201600101548303115b156109b3578092506109c1565b60010161080c565b60001992505b50509392505050565b60006109d4611b88565b600160a060020a03871615156109e957600080fd5b600085116109f657600080fd5b600160a060020a0387166000908152600160205260409020805487908110610a1a57fe5b60009182526020918290206040805160808101825260049093029091018054835260018101549383018490526002810154918301919091526003015460608201529150851080610a6c57506040810151155b80610afa5750600360009054906101000a9004600160a060020a0316600160a060020a031663877211666040518163ffffffff1660e060020a028152600401602060405180830381600087803b158015610ac557600080fd5b505af1158015610ad9573d6000803e3d6000fd5b505050506040513d6020811015610aef57600080fd5b505160208201518603115b15610b085760009150610b20565b610b1d81600001518686868560400151611874565b91505b5095945050505050565b600160a060020a0382166000908152600160205260408120805483908110610b4e57fe5b906000526020600020906004020160000154905092915050565b60055481565b6000828152600260205260408120805483908110610b4e57fe5b600054600160a060020a03163314610b9f57600080fd5b60008054604051600160a060020a03909116917ff8df31144d9c2f0f6b59d69b8b98abd5459d07f2742c4df920b25aae33c6482091a26000805473ffffffffffffffffffffffffffffffffffffffff19169055565b60009081526002602052604090205490565b600054600160a060020a031681565b600082815260026020526040812080548390811061071f57fe5b600160a060020a038316600090815260016020908152604080832080548251818502810185019093528083528493606093859390929091849084015b82821015610cbf576000848152602090819020604080516080810182526004860290920180548352600180820154848601526002820154928401929092526003015460608301529083529092019101610c6b565b505050509150600090505b8151811015610dc35781518690839083908110610ce357fe5b6020908102909101015151148015610d955750600360009054906101000a9004600160a060020a0316600160a060020a031663877211666040518163ffffffff1660e060020a028152600401602060405180830381600087803b158015610d4957600080fd5b505af1158015610d5d573d6000803e3d6000fd5b505050506040513d6020811015610d7357600080fd5b50518251839083908110610d8357fe5b90602001906020020151602001518603115b15610dbb578181815181101515610da857fe5b9060200190602002015160600151830192505b600101610cca565b509095945050505050565b6000610dd8611b88565b60008511610de557600080fd5b6000878152600260205260409020805487908110610dff57fe5b60009182526020918290206040805160808101825260049093029091018054835260018101549383018490526002810154918301919091526003015460608201529150851080610e5157506040810151155b15610e5f5760009150610b20565b610b1d878686868560400151611874565b600080548190600160a060020a03163314610e8a57600080fd5b600160a060020a0385166000908152600160205260409020805484919086908110610eb157fe5b906000526020600020906004020160030181905550600260006001600088600160a060020a0316600160a060020a0316815260200190815260200160002086815481101515610efc57fe5b6000918252602080832060049092029091015483528201929092526040018120925090505b815481101561103d57600160a060020a0385166000908152600160205260409020805485908110610f4e57fe5b9060005260206000209060040201600101548282815481101515610f6e57fe5b906000526020600020906004020160010154148015610fe05750600160a060020a0385166000908152600160205260409020805485908110610fac57fe5b9060005260206000209060040201600201548282815481101515610fcc57fe5b906000526020600020906004020160020154145b801561100b57508181815481101515610ff557fe5b9060005260206000209060040201600301546000145b156110355782828281548110151561101f57fe5b9060005260206000209060040201600301819055505b600101610f21565b60408051858152602081018590528151600160a060020a038816927fe3a578db023c93c17a32f818b53100ba3479950e72d911afbee045639067f87f928290030190a25050505050565b61108f611b88565b600054600160a060020a031633146110a657600080fd5b50604080516080810182528481526020808201848152828401868152600060608501818152600160a060020a038b1680835260018087528884208054808301825590855287852089516004928302909101908155875181840155865160028083019190915585516003928301558e8752808a528b872080548086018255908852968a90208b519790930290920195865596519185019190915593519383019390935551920191909155835185815291820186905283519293909287927f4c0ed8d7373691c3c3e6b0742d192e715f50c11b05949c729ed17e7af7fb6d2c92908290030190a35050505050565b60008281526002602052604081208054839081106111ac57fe5b906000526020600020906004020160010154905092915050565b600160a060020a03821660009081526001602052604081208054839081106111ac57fe5b600160a060020a038316600090815260016020908152604080832080548251818502810185019093528083528493606093859390929091849084015b8282101561127a576000848152602090819020604080516080810182526004860290920180548352600180820154848601526002820154928401929092526003015460608301529083529092019101611226565b505050509150600090505b8151811015610dc3578151869083908390811061129e57fe5b60209081029091010151511480156112d45750600082828151811015156112c157fe5b9060200190602002015160200151860310155b801561137a5750600360009054906101000a9004600160a060020a0316600160a060020a031663877211666040518163ffffffff1660e060020a028152600401602060405180830381600087803b15801561132e57600080fd5b505af1158015611342573d6000803e3d6000fd5b505050506040513d602081101561135857600080fd5b5051825183908390811061136857fe5b90602001906020020151602001518603105b156113a057818181518110151561138d57fe5b9060200190602002015160400151830192505b600101611285565b60008281526002602052604081208054839081106106e157fe5b600160a060020a031660009081526001602052604090205490565b600082815260026020908152604080832080548251818502810185019093528083528493606093859390929091849084015b8282101561146357600084815260209081902060408051608081018252600486029092018054835260018082015484860152600282015492840192909252600301546060830152908352909201910161140f565b505050509150600090505b815181101561156d576000828281518110151561148757fe5b906020019060200201516020015186031015801561153f5750600360009054906101000a9004600160a060020a0316600160a060020a031663877211666040518163ffffffff1660e060020a028152600401602060405180830381600087803b1580156114f357600080fd5b505af1158015611507573d6000803e3d6000fd5b505050506040513d602081101561151d57600080fd5b5051825183908390811061152d57fe5b90602001906020020151602001518603105b1561156557818181518110151561155257fe5b9060200190602002015160400151830192505b60010161146e565b5090949350505050565b600054600160a060020a0316331461158e57600080fd5b600160a060020a038216158015906115af5750600454600160a060020a0316155b15156115ba57600080fd5b600160a060020a038116158015906115db5750600354600160a060020a0316155b15156115e657600080fd5b60048054600160a060020a0380851673ffffffffffffffffffffffffffffffffffffffff199283161783556003805485831693169290921791829055604080517fc03812220000000000000000000000000000000000000000000000000000000081529051929091169263c03812229282820192602092908290030181600087803b15801561167457600080fd5b505af1158015611688573d6000803e3d6000fd5b505050506040513d602081101561169e57600080fd5b5051600581905560408051918252600160a060020a038416602083015280517fe1aeefe9472a1e962f43c3127e6bfaffee0bb06ebab1b5bd3b2b3735e30d963a9281900390910190a15050565b600054600160a060020a0316331461170257600080fd5b61170b81611b0b565b50565b600082815260026020908152604080832080548251818502810185019093528083528493606093859390929091849084015b82821015611794576000848152602090819020604080516080810182526004860290920180548352600180820154848601526002820154928401929092526003015460608301529083529092019101611740565b505050509150600090505b815181101561156d57600360009054906101000a9004600160a060020a0316600160a060020a031663877211666040518163ffffffff1660e060020a028152600401602060405180830381600087803b1580156117fb57600080fd5b505af115801561180f573d6000803e3d6000fd5b505050506040513d602081101561182557600080fd5b5051825183908390811061183557fe5b90602001906020020151602001518603111561186c57818181518110151561185957fe5b9060200190602002015160600151830192505b60010161179f565b600080606081808080881580611888575089155b156118965760009650611afc565b60008c8152600260209081526040808320805482518185028101850190935280835293995090929091899084015b828210156119185760008481526020908190206040805160808101825260048602909201805483526001808201548486015260028201549284019290925260030154606083015290835290920191016118c4565b505050509450600093505b8451841015611a0b57848481518110151561193a57fe5b90602001906020020151602001518b039250600083101580156119da5750600360009054906101000a9004600160a060020a0316600160a060020a031663877211666040518163ffffffff1660e060020a028152600401602060405180830381600087803b1580156119ab57600080fd5b505af11580156119bf573d6000803e3d6000fd5b505050506040513d60208110156119d557600080fd5b505183105b15611a005784848151811015156119ed57fe5b9060200190602002015160400151860195505b600190930192611923565b851515611a1b5760009650611afc565b87861015611a2557fe5b60028a0a891015611a3257fe5b600354604080517fdcb8e506000000000000000000000000000000000000000000000000000000008152601e6004820152602481018e90529051600160a060020a039092169163dcb8e506916044808201926020929091908290030181600087803b158015611aa057600080fd5b505af1158015611ab4573d6000803e3d6000fd5b505050506040513d6020811015611aca57600080fd5b5051915085888a60028d0a8502811515611ae057fe5b0402811515611aeb57fe5b04905080821015611af857fe5b8096505b50505050505095945050505050565b600160a060020a0381161515611b2057600080fd5b60008054604051600160a060020a03808516939216917f8be0079c531659141344cd1fd0a4f28419497f9722a3daafe3b4186f6b6457e091a36000805473ffffffffffffffffffffffffffffffffffffffff1916600160a060020a0392909216919091179055565b6080604051908101604052806000801916815260200160008152602001600081526020016000815250905600a165627a7a72305820fccccb88e33a1d96e35b740338d49b13786786d5422b33db947e6520fd47aef00029",
  "source": "pragma solidity ^0.4.24;\n\nimport \"./Deck.sol\";\nimport \"./Utility.sol\";\n\ncontract CuratorPool is Ownable {\n\n  event _InitializeCuratorPool(uint timestamp, address token);\n  event _AddVote(bytes32 indexed docId, uint timestamp, uint deposit, address indexed applicant);\n  event _UpdateVote(bytes32 indexed docId, uint timestamp, uint deposit, address indexed applicant);\n  event _Withdraw(address indexed applicant, uint idx, uint withdraw);\n  //event _DetermineReward(bytes32 indexed docId, uint cvd, uint tvd, uint pv, uint tpvs, uint drp);\n\n  struct Vote {\n    bytes32 docId;\n    uint startDate;\n    uint deposit;\n    uint withdraw;\n  }\n\n  // maps address to the curator's vote data\n  mapping (address => Vote[]) internal mapByAddr;\n\n  // maps docId to the curator's vote data\n  mapping (bytes32 => Vote[]) internal mapByDoc;\n\n  // key list for iteration\n  //address[] private keys;\n\n  // private variables\n  Utility private util;\n  Deck private token;\n\n  // public variables\n  uint public createTime;\n\n  function init(address _token, address _utility) public\n    onlyOwner()\n  {\n    require(_token != 0 && address(token) == 0);\n    require(_utility != 0 && address(util) == 0);\n\n    token = Deck(_token);\n    util = Utility(_utility);\n\n    createTime = util.getTimeMillis();\n    emit _InitializeCuratorPool(createTime, _token);\n  }\n\n  // -------------------------------\n  // For iteration\n  // -------------------------------\n\n  // curator list for iteration\n  //function getCurators() public view returns (address[]) {\n  //  return keys;\n  //}\n\n  // -------------------------------\n  // Voting Information Functions\n  // -------------------------------\n\n  // adding a new vote\n  function addVote(address _curator, bytes32 _docId, uint _deposit) public\n    onlyOwner()\n  {\n    uint dateMillis = util.getDateMillis();\n\n    Vote memory vote = Vote(_docId, dateMillis, _deposit, 0);\n\n    mapByAddr[_curator].push(vote);\n    mapByDoc[_docId].push(vote);\n\n    //if (mapByAddr[_curator].length == 1) {\n    //  keys.push(_curator);\n    //}\n\n    emit _AddVote(_docId, dateMillis, _deposit, _curator);\n  }\n\n  function updateVote(address _curator, bytes32 _docId, uint _deposit, uint _dateMillis) public\n    onlyOwner()\n  {\n    Vote memory vote = Vote(_docId, _dateMillis, _deposit, 0);\n\n    mapByAddr[_curator].push(vote);\n    mapByDoc[_docId].push(vote);\n\n    //if (idx == 1) {\n    //  keys.push(_curator);\n    //}\n\n    emit _UpdateVote(_docId, _dateMillis, _deposit, _curator);\n  }\n\n  function withdraw(address _curator, uint _idx, uint _withdraw) public\n    onlyOwner()\n  {\n    mapByAddr[_curator][_idx].withdraw = _withdraw;\n    Vote[] storage voteList = mapByDoc[mapByAddr[_curator][_idx].docId];\n    for (uint i=0; i<voteList.length; i++) {\n      if (voteList[i].startDate == mapByAddr[_curator][_idx].startDate\n       && voteList[i].deposit == mapByAddr[_curator][_idx].deposit\n       && voteList[i].withdraw == 0) {\n         voteList[i].withdraw = _withdraw;\n      }\n    }\n    emit _Withdraw(_curator, _idx, _withdraw);\n  }\n\n  function getVoteCountByAddr(address _addr) public view returns (uint) {\n    return mapByAddr[_addr].length;\n  }\n\n  function getDocIdByAddr(address _addr, uint _idx) public view returns (bytes32) {\n    return mapByAddr[_addr][uint(_idx)].docId;\n  }\n\n  function getStartDateByAddr(address _addr, uint _idx) public view returns (uint) {\n    return mapByAddr[_addr][uint(_idx)].startDate;\n  }\n\n  function getDepositByAddr(address _addr, uint _idx) public view returns (uint) {\n    return mapByAddr[_addr][uint(_idx)].deposit;\n  }\n\n  function getWithdrawByAddr(address _addr, uint _idx) public view returns (uint) {\n    return mapByAddr[_addr][uint(_idx)].withdraw;\n  }\n\n  function getVoteCountByDoc(bytes32 _docId) public view returns (uint) {\n    return mapByDoc[_docId].length;\n  }\n\n  function getAddressByDoc(bytes32 _docId, uint _idx) public view returns (bytes32) {\n    return mapByDoc[_docId][uint(_idx)].docId;\n  }\n\n  function getStartDateByDoc(bytes32 _docId, uint _idx) public view returns (uint) {\n    return mapByDoc[_docId][uint(_idx)].startDate;\n  }\n\n  function getDepositByDoc(bytes32 _docId, uint _idx) public view returns (uint) {\n    return mapByDoc[_docId][uint(_idx)].deposit;\n  }\n\n  function getWithdrawByDoc(bytes32 _docId, uint _idx) public view returns (uint) {\n    return mapByDoc[_docId][uint(_idx)].withdraw;\n  }\n\n  // --------------------------------\n  // Find the next index of votes that can be claimed\n  // --------------------------------\n  function indexOfNextVoteForClaim(address _addr, bytes32 _docId, uint _index) public view returns (int) {\n\n    if (mapByAddr[_addr].length == 0) {\n      return int(-1);\n    }\n\n    if (mapByDoc[_docId].length == 0) {\n      return int(-1);\n    }\n\n    // Going around the full vote list of the curator\n    //  a. Select only the votes for the specified docuemnt\n    //  b. Exclude votes that have already been withdrawn\n    //  c. Check whether voting period expired since start date (can be claimed)\n    uint dateMillis = util.getDateMillis();\n    for (uint i=(_index+1); i<mapByAddr[_addr].length; i++) {\n      if ((mapByAddr[_addr][i].docId == _docId)\n       && (mapByAddr[_addr][i].withdraw == 0)\n       && (dateMillis > mapByAddr[_addr][i].startDate)\n       && (dateMillis - mapByAddr[_addr][i].startDate > util.getVoteDepositMillis())) {\n         return int(i);\n      }\n    }\n    return -1;\n  }\n\n  function determineReward(address _addr, uint _idx, uint _dateMillis, uint _pv, uint _tpvs) public view returns (uint) {\n\n    require(_addr != 0);\n    require(_dateMillis > 0);\n\n    Vote memory vote = mapByAddr[_addr][_idx];\n    if (vote.startDate > _dateMillis || vote.deposit == 0 || (_dateMillis - vote.startDate) > util.getVoteDepositMillis()) {\n      return uint(0);\n    }\n\n    return calculateReward(vote.docId, _dateMillis, _pv, _tpvs, vote.deposit);\n  }\n\n  function getRewardByDoc(bytes32 _docId, uint _idx, uint _dateMillis, uint _pv, uint _tpvs) public view returns (uint) {\n\n    require(_dateMillis > 0);\n\n    Vote memory vote = mapByDoc[_docId][_idx];\n    if (vote.startDate > _dateMillis || vote.deposit == 0) {\n      return uint(0);\n    }\n\n    return calculateReward(_docId, _dateMillis, _pv, _tpvs, vote.deposit);\n  }\n\n  function calculateReward(bytes32 _docId, uint _dateMillis, uint _pv, uint _tpvs, uint _deposit) private view returns (uint) {\n\n    if (_tpvs == 0 || _pv == 0) {\n      return uint(0);\n    }\n\n    uint tvd = 0;\n    Vote[] memory voteTotalList = mapByDoc[_docId];\n    for (uint i=0; i<voteTotalList.length; i++) {\n      uint offset = _dateMillis - voteTotalList[i].startDate;\n      if (offset >= 0 && offset < util.getVoteDepositMillis()) {\n        tvd += voteTotalList[i].deposit;\n      }\n    }\n\n    if (tvd == 0) {\n      return uint(0);\n    }\n\n    assert(tvd >= _deposit);\n    assert(_tpvs >= (_pv ** 2));\n\n    uint drp = util.getDailyRewardPool(30, _dateMillis);\n    uint reward = uint(uint((drp * (_pv ** 2)) / _tpvs) * _deposit / tvd);\n\n    assert(drp >= reward);\n\n    return reward;\n  }\n\n  function getSumDepositByAddr(address _addr, bytes32 _docId, uint _dateMillis) public view returns (uint) {\n    uint sumDeposit = 0;\n    Vote[] memory voteList = mapByAddr[_addr];\n    for (uint i=0; i<voteList.length; i++) {\n      if (voteList[i].docId == _docId\n        && (_dateMillis - voteList[i].startDate) >= 0\n        && (_dateMillis - voteList[i].startDate) < util.getVoteDepositMillis()) {\n        sumDeposit += voteList[i].deposit;\n      }\n    }\n    return sumDeposit;\n  }\n\n  function getSumDepositByDoc(bytes32 _docId, uint _dateMillis) public view returns (uint) {\n    uint sumDeposit = 0;\n    Vote[] memory voteList = mapByDoc[_docId];\n    for (uint i=0; i<voteList.length; i++) {\n      if ((_dateMillis - voteList[i].startDate) >= 0\n       && (_dateMillis - voteList[i].startDate) < util.getVoteDepositMillis()) {\n        sumDeposit += voteList[i].deposit;\n      }\n    }\n    return sumDeposit;\n  }\n\n  function getSumWithdrawByAddr(address _addr, bytes32 _docId, uint _dateMillis) public view returns (uint) {\n    uint sumWithdraw = 0;\n    Vote[] memory voteList = mapByAddr[_addr];\n    for (uint i=0; i<voteList.length; i++) {\n      if (voteList[i].docId == _docId\n        && (_dateMillis - voteList[i].startDate) > util.getVoteDepositMillis()) {\n        sumWithdraw += voteList[i].withdraw;\n      }\n    }\n    return sumWithdraw;\n  }\n\n  function getSumWithdrawByDoc(bytes32 _docId, uint _dateMillis) public view returns (uint) {\n    uint sumWithdraw = 0;\n    Vote[] memory voteList = mapByDoc[_docId];\n    for (uint i=0; i<voteList.length; i++) {\n      if ((_dateMillis - voteList[i].startDate) > util.getVoteDepositMillis()) {\n        sumWithdraw += voteList[i].withdraw;\n      }\n    }\n    return sumWithdraw;\n  }\n\n}\n",
  "sourcePath": "/Users/centroine/Documents/github/bluebottle/contracts/CuratorPool.sol",
  "compiler": {
    "name": "solc",
    "version": "0.4.24+commit.e67f0147.Emscripten.clang"
  },
  "schemaVersion": "2.0.1",
  "updatedAt": "2018-10-30T10:36:16.963Z"
}