{
  "contractName": "Deck",
  "abi": [
    {
      "constant": true,
      "inputs": [],
      "name": "name",
      "outputs": [
        {
          "name": "",
          "type": "string"
        }
      ],
      "payable": false,
      "stateMutability": "view",
      "type": "function"
    },
    {
      "constant": false,
      "inputs": [
        {
          "name": "_spender",
          "type": "address"
        },
        {
          "name": "_value",
          "type": "uint256"
        }
      ],
      "name": "approve",
      "outputs": [
        {
          "name": "",
          "type": "bool"
        }
      ],
      "payable": false,
      "stateMutability": "nonpayable",
      "type": "function"
    },
    {
      "constant": true,
      "inputs": [],
      "name": "totalSupply",
      "outputs": [
        {
          "name": "",
          "type": "uint256"
        }
      ],
      "payable": false,
      "stateMutability": "view",
      "type": "function"
    },
    {
      "constant": true,
      "inputs": [],
      "name": "decimals",
      "outputs": [
        {
          "name": "",
          "type": "uint8"
        }
      ],
      "payable": false,
      "stateMutability": "view",
      "type": "function"
    },
    {
      "constant": false,
      "inputs": [
        {
          "name": "_spender",
          "type": "address"
        },
        {
          "name": "_subtractedValue",
          "type": "uint256"
        }
      ],
      "name": "decreaseApproval",
      "outputs": [
        {
          "name": "",
          "type": "bool"
        }
      ],
      "payable": false,
      "stateMutability": "nonpayable",
      "type": "function"
    },
    {
      "constant": true,
      "inputs": [
        {
          "name": "_owner",
          "type": "address"
        }
      ],
      "name": "balanceOf",
      "outputs": [
        {
          "name": "",
          "type": "uint256"
        }
      ],
      "payable": false,
      "stateMutability": "view",
      "type": "function"
    },
    {
      "constant": false,
      "inputs": [],
      "name": "renounceOwnership",
      "outputs": [],
      "payable": false,
      "stateMutability": "nonpayable",
      "type": "function"
    },
    {
      "constant": true,
      "inputs": [],
      "name": "owner",
      "outputs": [
        {
          "name": "",
          "type": "address"
        }
      ],
      "payable": false,
      "stateMutability": "view",
      "type": "function"
    },
    {
      "constant": true,
      "inputs": [],
      "name": "symbol",
      "outputs": [
        {
          "name": "",
          "type": "string"
        }
      ],
      "payable": false,
      "stateMutability": "view",
      "type": "function"
    },
    {
      "constant": false,
      "inputs": [
        {
          "name": "_spender",
          "type": "address"
        },
        {
          "name": "_addedValue",
          "type": "uint256"
        }
      ],
      "name": "increaseApproval",
      "outputs": [
        {
          "name": "",
          "type": "bool"
        }
      ],
      "payable": false,
      "stateMutability": "nonpayable",
      "type": "function"
    },
    {
      "constant": true,
      "inputs": [
        {
          "name": "_owner",
          "type": "address"
        },
        {
          "name": "_spender",
          "type": "address"
        }
      ],
      "name": "allowance",
      "outputs": [
        {
          "name": "",
          "type": "uint256"
        }
      ],
      "payable": false,
      "stateMutability": "view",
      "type": "function"
    },
    {
      "constant": true,
      "inputs": [],
      "name": "releasedForTransfer",
      "outputs": [
        {
          "name": "",
          "type": "bool"
        }
      ],
      "payable": false,
      "stateMutability": "view",
      "type": "function"
    },
    {
      "constant": false,
      "inputs": [
        {
          "name": "_newOwner",
          "type": "address"
        }
      ],
      "name": "transferOwnership",
      "outputs": [],
      "payable": false,
      "stateMutability": "nonpayable",
      "type": "function"
    },
    {
      "inputs": [],
      "payable": false,
      "stateMutability": "nonpayable",
      "type": "constructor"
    },
    {
      "anonymous": false,
      "inputs": [
        {
          "indexed": true,
          "name": "owner",
          "type": "address"
        },
        {
          "indexed": true,
          "name": "spender",
          "type": "address"
        },
        {
          "indexed": false,
          "name": "value",
          "type": "uint256"
        }
      ],
      "name": "Approval",
      "type": "event"
    },
    {
      "anonymous": false,
      "inputs": [
        {
          "indexed": true,
          "name": "from",
          "type": "address"
        },
        {
          "indexed": true,
          "name": "to",
          "type": "address"
        },
        {
          "indexed": false,
          "name": "value",
          "type": "uint256"
        }
      ],
      "name": "Transfer",
      "type": "event"
    },
    {
      "anonymous": false,
      "inputs": [
        {
          "indexed": true,
          "name": "previousOwner",
          "type": "address"
        }
      ],
      "name": "OwnershipRenounced",
      "type": "event"
    },
    {
      "anonymous": false,
      "inputs": [
        {
          "indexed": true,
          "name": "previousOwner",
          "type": "address"
        },
        {
          "indexed": true,
          "name": "newOwner",
          "type": "address"
        }
      ],
      "name": "OwnershipTransferred",
      "type": "event"
    },
    {
      "constant": false,
      "inputs": [
        {
          "name": "_to",
          "type": "address"
        },
        {
          "name": "_value",
          "type": "uint256"
        }
      ],
      "name": "transfer",
      "outputs": [
        {
          "name": "",
          "type": "bool"
        }
      ],
      "payable": false,
      "stateMutability": "nonpayable",
      "type": "function"
    },
    {
      "constant": false,
      "inputs": [
        {
          "name": "_from",
          "type": "address"
        },
        {
          "name": "_to",
          "type": "address"
        },
        {
          "name": "_value",
          "type": "uint256"
        }
      ],
      "name": "transferFrom",
      "outputs": [
        {
          "name": "",
          "type": "bool"
        }
      ],
      "payable": false,
      "stateMutability": "nonpayable",
      "type": "function"
    },
    {
      "constant": false,
      "inputs": [],
      "name": "release",
      "outputs": [],
      "payable": false,
      "stateMutability": "nonpayable",
      "type": "function"
    },
    {
      "constant": false,
      "inputs": [
        {
          "name": "_recepient",
          "type": "address"
        },
        {
          "name": "_amount",
          "type": "uint256"
        }
      ],
      "name": "issue",
      "outputs": [],
      "payable": false,
      "stateMutability": "nonpayable",
      "type": "function"
    }
  ],
  "bytecode": "0x608060405234801561001057600080fd5b5060008054600160a060020a031916331790556040805180820190915260148082527f4465636f6d70616e79204445434b20546f6b656e0000000000000000000000006020909201918252610067916004916100bf565b506040805180820190915260048082527f4445434b0000000000000000000000000000000000000000000000000000000060209092019182526100ac916005916100bf565b506006805460ff1916601217905561015a565b828054600181600116156101000203166002900490600052602060002090601f016020900481019282601f1061010057805160ff191683800117855561012d565b8280016001018555821561012d579182015b8281111561012d578251825591602001919060010190610112565b5061013992915061013d565b5090565b61015791905b808211156101395760008155600101610143565b90565b610b6f806101696000396000f3006080604052600436106100f05763ffffffff7c010000000000000000000000000000000000000000000000000000000060003504166306fdde0381146100f5578063095ea7b31461017f57806318160ddd146101b757806323b872dd146101de578063313ce56714610208578063661884631461023357806370a0823114610257578063715018a614610278578063867904b41461028f57806386d1a69f146102b35780638da5cb5b146102c857806395d89b41146102f9578063a9059cbb1461030e578063d73dd62314610332578063dd62ed3e14610356578063e69d09cf1461037d578063f2fde38b14610392575b600080fd5b34801561010157600080fd5b5061010a6103b3565b6040805160208082528351818301528351919283929083019185019080838360005b8381101561014457818101518382015260200161012c565b50505050905090810190601f1680156101715780820380516001836020036101000a031916815260200191505b509250505060405180910390f35b34801561018b57600080fd5b506101a3600160a060020a0360043516602435610441565b604080519115158252519081900360200190f35b3480156101c357600080fd5b506101cc6104a7565b60408051918252519081900360200190f35b3480156101ea57600080fd5b506101a3600160a060020a03600435811690602435166044356104ad565b34801561021457600080fd5b5061021d6104d4565b6040805160ff9092168252519081900360200190f35b34801561023f57600080fd5b506101a3600160a060020a03600435166024356104dd565b34801561026357600080fd5b506101cc600160a060020a03600435166105cc565b34801561028457600080fd5b5061028d6105e7565b005b34801561029b57600080fd5b5061028d600160a060020a0360043516602435610653565b3480156102bf57600080fd5b5061028d6106a4565b3480156102d457600080fd5b506102dd6106ca565b60408051600160a060020a039092168252519081900360200190f35b34801561030557600080fd5b5061010a6106d9565b34801561031a57600080fd5b506101a3600160a060020a0360043516602435610734565b34801561033e57600080fd5b506101a3600160a060020a0360043516602435610759565b34801561036257600080fd5b506101cc600160a060020a03600435811690602435166107f2565b34801561038957600080fd5b506101a361081d565b34801561039e57600080fd5b5061028d600160a060020a0360043516610826565b6004805460408051602060026001851615610100026000190190941693909304601f810184900484028201840190925281815292918301828280156104395780601f1061040e57610100808354040283529160200191610439565b820191906000526020600020905b81548152906001019060200180831161041c57829003601f168201915b505050505081565b336000818152600360209081526040808320600160a060020a038716808552908352818420869055815186815291519394909390927f8c5be1e5ebec7d5bd14f71427d1e84f3dd0314c0f7b2291e5b200ac8c7c3b925928290030190a350600192915050565b60075481565b60085460009060ff1615156104c157600080fd5b6104cc848484610849565b949350505050565b60065460ff1681565b336000908152600360209081526040808320600160a060020a038616845290915281205480831061053157336000908152600360209081526040808320600160a060020a0388168452909152812055610566565b610541818463ffffffff6109c016565b336000908152600360209081526040808320600160a060020a03891684529091529020555b336000818152600360209081526040808320600160a060020a0389168085529083529281902054815190815290519293927f8c5be1e5ebec7d5bd14f71427d1e84f3dd0314c0f7b2291e5b200ac8c7c3b925929181900390910190a35060019392505050565b600160a060020a031660009081526001602052604090205490565b600054600160a060020a031633146105fe57600080fd5b60008054604051600160a060020a03909116917ff8df31144d9c2f0f6b59d69b8b98abd5459d07f2742c4df920b25aae33c6482091a26000805473ffffffffffffffffffffffffffffffffffffffff19169055565b600054600160a060020a0316331461066a57600080fd5b60085460ff161561067a57600080fd5b600160a060020a039091166000908152600160205260409020805482019055600780549091019055565b600054600160a060020a031633146106bb57600080fd5b6008805460ff19166001179055565b600054600160a060020a031681565b6005805460408051602060026001851615610100026000190190941693909304601f810184900484028201840190925281815292918301828280156104395780601f1061040e57610100808354040283529160200191610439565b60085460009060ff16151561074857600080fd5b61075283836109d2565b9392505050565b336000908152600360209081526040808320600160a060020a038616845290915281205461078d908363ffffffff610ab316565b336000818152600360209081526040808320600160a060020a0389168085529083529281902085905580519485525191937f8c5be1e5ebec7d5bd14f71427d1e84f3dd0314c0f7b2291e5b200ac8c7c3b925929081900390910190a350600192915050565b600160a060020a03918216600090815260036020908152604080832093909416825291909152205490565b60085460ff1681565b600054600160a060020a0316331461083d57600080fd5b61084681610ac6565b50565b600160a060020a03831660009081526001602052604081205482111561086e57600080fd5b600160a060020a038416600090815260036020908152604080832033845290915290205482111561089e57600080fd5b600160a060020a03831615156108b357600080fd5b600160a060020a0384166000908152600160205260409020546108dc908363ffffffff6109c016565b600160a060020a038086166000908152600160205260408082209390935590851681522054610911908363ffffffff610ab316565b600160a060020a038085166000908152600160209081526040808320949094559187168152600382528281203382529091522054610955908363ffffffff6109c016565b600160a060020a03808616600081815260036020908152604080832033845282529182902094909455805186815290519287169391927fddf252ad1be2c89b69c2b068fc378daa952ba7f163c4a11628f55a4df523b3ef929181900390910190a35060019392505050565b6000828211156109cc57fe5b50900390565b336000908152600160205260408120548211156109ee57600080fd5b600160a060020a0383161515610a0357600080fd5b33600090815260016020526040902054610a23908363ffffffff6109c016565b3360009081526001602052604080822092909255600160a060020a03851681522054610a55908363ffffffff610ab316565b600160a060020a0384166000818152600160209081526040918290209390935580518581529051919233927fddf252ad1be2c89b69c2b068fc378daa952ba7f163c4a11628f55a4df523b3ef9281900390910190a350600192915050565b81810182811015610ac057fe5b92915050565b600160a060020a0381161515610adb57600080fd5b60008054604051600160a060020a03808516939216917f8be0079c531659141344cd1fd0a4f28419497f9722a3daafe3b4186f6b6457e091a36000805473ffffffffffffffffffffffffffffffffffffffff1916600160a060020a03929092169190911790555600a165627a7a723058205292f951928ad35994bd24bdd566a98ea7fdfc69014c67d754be9e5a2d2a8bca0029",
  "source": "pragma solidity ^0.4.24;\n\nimport \"openzeppelin-solidity/contracts/token/ERC20/StandardToken.sol\";\nimport \"openzeppelin-solidity/contracts/ownership/Ownable.sol\";\n\ncontract Deck is Ownable, StandardToken {\n\n  string public name;\n  string public symbol;\n  uint8 public decimals;\n  uint256 public totalSupply;\n\n  bool public releasedForTransfer;\n\n  constructor() public {\n    name = \"Decompany DECK Token\";\n    symbol = \"DECK\";\n    decimals = 18;\n  }\n\n  function transfer(address _to, uint256 _value) public returns (bool) {\n      require(releasedForTransfer);\n      return super.transfer(_to, _value);\n  }\n\n  function transferFrom(address _from, address _to, uint256 _value) public returns (bool) {\n      require(releasedForTransfer);\n      return super.transferFrom(_from, _to, _value);\n  }\n\n  function release() public\n      onlyOwner()\n  {\n      releasedForTransfer = true;\n  }\n\n  function issue(address _recepient, uint256 _amount) public\n      onlyOwner()\n  {\n      require (!releasedForTransfer);\n      balances[_recepient] += _amount;\n      totalSupply += _amount;\n  }\n\n}\n",
  "sourcePath": "/Users/centroine/Documents/github/bluebottle/contracts/Deck.sol",
  "compiler": {
    "name": "solc",
    "version": "0.4.24+commit.e67f0147.Emscripten.clang"
  },
  "schemaVersion": "2.0.1",
  "updatedAt": "2018-10-30T10:36:16.942Z"
}