{
  "contractName": "DocumentReg",
  "abi": [
    {
      "constant": true,
      "inputs": [],
      "name": "createTime",
      "outputs": [
        {
          "name": "",
          "type": "uint256"
        }
      ],
      "payable": false,
      "stateMutability": "view",
      "type": "function"
    },
    {
      "constant": false,
      "inputs": [],
      "name": "renounceOwnership",
      "outputs": [],
      "payable": false,
      "stateMutability": "nonpayable",
      "type": "function"
    },
    {
      "constant": true,
      "inputs": [],
      "name": "owner",
      "outputs": [
        {
          "name": "",
          "type": "address"
        }
      ],
      "payable": false,
      "stateMutability": "view",
      "type": "function"
    },
    {
      "constant": false,
      "inputs": [
        {
          "name": "_newOwner",
          "type": "address"
        }
      ],
      "name": "transferOwnership",
      "outputs": [],
      "payable": false,
      "stateMutability": "nonpayable",
      "type": "function"
    },
    {
      "anonymous": false,
      "inputs": [
        {
          "indexed": false,
          "name": "timestamp",
          "type": "uint256"
        },
        {
          "indexed": false,
          "name": "token",
          "type": "address"
        }
      ],
      "name": "_InitializeDocumentReg",
      "type": "event"
    },
    {
      "anonymous": false,
      "inputs": [
        {
          "indexed": true,
          "name": "docId",
          "type": "bytes32"
        },
        {
          "indexed": false,
          "name": "timestamp",
          "type": "uint256"
        },
        {
          "indexed": true,
          "name": "applicant",
          "type": "address"
        },
        {
          "indexed": false,
          "name": "count",
          "type": "uint256"
        }
      ],
      "name": "_RegisterNewDocument",
      "type": "event"
    },
    {
      "anonymous": false,
      "inputs": [
        {
          "indexed": true,
          "name": "docId",
          "type": "bytes32"
        },
        {
          "indexed": false,
          "name": "timestamp",
          "type": "uint256"
        },
        {
          "indexed": true,
          "name": "applicant",
          "type": "address"
        }
      ],
      "name": "_UpdateDocument",
      "type": "event"
    },
    {
      "anonymous": false,
      "inputs": [
        {
          "indexed": true,
          "name": "docId",
          "type": "bytes32"
        },
        {
          "indexed": false,
          "name": "timestamp",
          "type": "uint256"
        },
        {
          "indexed": false,
          "name": "pageView",
          "type": "uint256"
        }
      ],
      "name": "_ConfirmPageView",
      "type": "event"
    },
    {
      "anonymous": false,
      "inputs": [
        {
          "indexed": false,
          "name": "timestamp",
          "type": "uint256"
        },
        {
          "indexed": false,
          "name": "pageView",
          "type": "uint256"
        },
        {
          "indexed": false,
          "name": "pageViewSquare",
          "type": "uint256"
        }
      ],
      "name": "_ConfirmTotalPageView",
      "type": "event"
    },
    {
      "anonymous": false,
      "inputs": [
        {
          "indexed": true,
          "name": "docId",
          "type": "bytes32"
        },
        {
          "indexed": false,
          "name": "deposit",
          "type": "uint256"
        },
        {
          "indexed": true,
          "name": "applicant",
          "type": "address"
        }
      ],
      "name": "_VoteOnDocument",
      "type": "event"
    },
    {
      "anonymous": false,
      "inputs": [
        {
          "indexed": true,
          "name": "docId",
          "type": "bytes32"
        },
        {
          "indexed": false,
          "name": "deposit",
          "type": "uint256"
        },
        {
          "indexed": true,
          "name": "applicant",
          "type": "address"
        },
        {
          "indexed": false,
          "name": "timestamp",
          "type": "uint256"
        }
      ],
      "name": "_UpdateVoteOnDocument",
      "type": "event"
    },
    {
      "anonymous": false,
      "inputs": [
        {
          "indexed": true,
          "name": "docId",
          "type": "bytes32"
        },
        {
          "indexed": false,
          "name": "reward",
          "type": "uint256"
        },
        {
          "indexed": true,
          "name": "applicant",
          "type": "address"
        }
      ],
      "name": "_ClaimAuthorReward",
      "type": "event"
    },
    {
      "anonymous": false,
      "inputs": [
        {
          "indexed": true,
          "name": "docId",
          "type": "bytes32"
        },
        {
          "indexed": false,
          "name": "reward",
          "type": "uint256"
        },
        {
          "indexed": true,
          "name": "applicant",
          "type": "address"
        }
      ],
      "name": "_ClaimCuratorReward",
      "type": "event"
    },
    {
      "anonymous": false,
      "inputs": [
        {
          "indexed": true,
          "name": "previousOwner",
          "type": "address"
        }
      ],
      "name": "OwnershipRenounced",
      "type": "event"
    },
    {
      "anonymous": false,
      "inputs": [
        {
          "indexed": true,
          "name": "previousOwner",
          "type": "address"
        },
        {
          "indexed": true,
          "name": "newOwner",
          "type": "address"
        }
      ],
      "name": "OwnershipTransferred",
      "type": "event"
    },
    {
      "constant": false,
      "inputs": [
        {
          "name": "_token",
          "type": "address"
        },
        {
          "name": "_author",
          "type": "address"
        },
        {
          "name": "_curator",
          "type": "address"
        },
        {
          "name": "_utility",
          "type": "address"
        }
      ],
      "name": "init",
      "outputs": [],
      "payable": false,
      "stateMutability": "nonpayable",
      "type": "function"
    },
    {
      "constant": false,
      "inputs": [
        {
          "name": "_foundation",
          "type": "address"
        }
      ],
      "name": "setFoundation",
      "outputs": [],
      "payable": false,
      "stateMutability": "nonpayable",
      "type": "function"
    },
    {
      "constant": false,
      "inputs": [
        {
          "name": "_docId",
          "type": "bytes32"
        }
      ],
      "name": "register",
      "outputs": [],
      "payable": false,
      "stateMutability": "nonpayable",
      "type": "function"
    },
    {
      "constant": false,
      "inputs": [
        {
          "name": "_addr",
          "type": "address"
        },
        {
          "name": "_docId",
          "type": "bytes32"
        },
        {
          "name": "_timestamp",
          "type": "uint256"
        }
      ],
      "name": "update",
      "outputs": [],
      "payable": false,
      "stateMutability": "nonpayable",
      "type": "function"
    },
    {
      "constant": true,
      "inputs": [
        {
          "name": "_docId",
          "type": "bytes32"
        }
      ],
      "name": "contains",
      "outputs": [
        {
          "name": "",
          "type": "bool"
        }
      ],
      "payable": false,
      "stateMutability": "view",
      "type": "function"
    },
    {
      "constant": true,
      "inputs": [
        {
          "name": "_docId",
          "type": "bytes32"
        }
      ],
      "name": "getAuthorByKey",
      "outputs": [
        {
          "name": "",
          "type": "address"
        }
      ],
      "payable": false,
      "stateMutability": "view",
      "type": "function"
    },
    {
      "constant": true,
      "inputs": [
        {
          "name": "_docId",
          "type": "bytes32"
        }
      ],
      "name": "getCreateTimeByKey",
      "outputs": [
        {
          "name": "",
          "type": "uint256"
        }
      ],
      "payable": false,
      "stateMutability": "view",
      "type": "function"
    },
    {
      "constant": true,
      "inputs": [],
      "name": "count",
      "outputs": [
        {
          "name": "",
          "type": "uint256"
        }
      ],
      "payable": false,
      "stateMutability": "view",
      "type": "function"
    },
    {
      "constant": true,
      "inputs": [],
      "name": "getDocuments",
      "outputs": [
        {
          "name": "",
          "type": "bytes32[]"
        }
      ],
      "payable": false,
      "stateMutability": "view",
      "type": "function"
    },
    {
      "constant": true,
      "inputs": [
        {
          "name": "_date",
          "type": "uint256"
        }
      ],
      "name": "getTotalPageView",
      "outputs": [
        {
          "name": "",
          "type": "uint256"
        }
      ],
      "payable": false,
      "stateMutability": "view",
      "type": "function"
    },
    {
      "constant": true,
      "inputs": [
        {
          "name": "_date",
          "type": "uint256"
        }
      ],
      "name": "getTotalPageViewSquare",
      "outputs": [
        {
          "name": "",
          "type": "uint256"
        }
      ],
      "payable": false,
      "stateMutability": "view",
      "type": "function"
    },
    {
      "constant": false,
      "inputs": [
        {
          "name": "_docId",
          "type": "bytes32"
        },
        {
          "name": "_date",
          "type": "uint256"
        },
        {
          "name": "_pageView",
          "type": "uint256"
        }
      ],
      "name": "confirmPageView",
      "outputs": [],
      "payable": false,
      "stateMutability": "nonpayable",
      "type": "function"
    },
    {
      "constant": true,
      "inputs": [
        {
          "name": "_docId",
          "type": "bytes32"
        },
        {
          "name": "_date",
          "type": "uint256"
        }
      ],
      "name": "getPageView",
      "outputs": [
        {
          "name": "",
          "type": "uint256"
        }
      ],
      "payable": false,
      "stateMutability": "view",
      "type": "function"
    },
    {
      "constant": true,
      "inputs": [
        {
          "name": "_addr",
          "type": "address"
        },
        {
          "name": "_docId",
          "type": "bytes32"
        }
      ],
      "name": "determineAuthorReward",
      "outputs": [
        {
          "name": "",
          "type": "uint256"
        }
      ],
      "payable": false,
      "stateMutability": "view",
      "type": "function"
    },
    {
      "constant": true,
      "inputs": [
        {
          "name": "_pv",
          "type": "uint256"
        },
        {
          "name": "_tpv",
          "type": "uint256"
        }
      ],
      "name": "calculateAuthorReward",
      "outputs": [
        {
          "name": "",
          "type": "uint256"
        }
      ],
      "payable": false,
      "stateMutability": "view",
      "type": "function"
    },
    {
      "constant": false,
      "inputs": [
        {
          "name": "_docId",
          "type": "bytes32"
        }
      ],
      "name": "claimAuthorReward",
      "outputs": [],
      "payable": false,
      "stateMutability": "nonpayable",
      "type": "function"
    },
    {
      "constant": true,
      "inputs": [
        {
          "name": "_docId",
          "type": "bytes32"
        }
      ],
      "name": "determineCuratorReward",
      "outputs": [
        {
          "name": "",
          "type": "uint256"
        }
      ],
      "payable": false,
      "stateMutability": "view",
      "type": "function"
    },
    {
      "constant": true,
      "inputs": [
        {
          "name": "_addr",
          "type": "address"
        },
        {
          "name": "_docId",
          "type": "bytes32"
        },
        {
          "name": "_pv",
          "type": "uint256"
        },
        {
          "name": "_tpvs",
          "type": "uint256"
        }
      ],
      "name": "calculateCuratorReward",
      "outputs": [
        {
          "name": "",
          "type": "uint256"
        }
      ],
      "payable": false,
      "stateMutability": "view",
      "type": "function"
    },
    {
      "constant": false,
      "inputs": [
        {
          "name": "_docId",
          "type": "bytes32"
        }
      ],
      "name": "claimCuratorReward",
      "outputs": [],
      "payable": false,
      "stateMutability": "nonpayable",
      "type": "function"
    },
    {
      "constant": false,
      "inputs": [
        {
          "name": "_docId",
          "type": "bytes32"
        },
        {
          "name": "_deposit",
          "type": "uint256"
        }
      ],
      "name": "voteOnDocument",
      "outputs": [],
      "payable": false,
      "stateMutability": "nonpayable",
      "type": "function"
    },
    {
      "constant": false,
      "inputs": [
        {
          "name": "_addr",
          "type": "address"
        },
        {
          "name": "_docId",
          "type": "bytes32"
        },
        {
          "name": "_deposit",
          "type": "uint256"
        },
        {
          "name": "_dateMillis",
          "type": "uint256"
        }
      ],
      "name": "updateVoteOnDocument",
      "outputs": [],
      "payable": false,
      "stateMutability": "nonpayable",
      "type": "function"
    },
    {
      "constant": true,
      "inputs": [
        {
          "name": "_docId",
          "type": "bytes32"
        },
        {
          "name": "_dateMillis",
          "type": "uint256"
        }
      ],
      "name": "getCuratorDepositOnDocument",
      "outputs": [
        {
          "name": "",
          "type": "uint256"
        }
      ],
      "payable": false,
      "stateMutability": "view",
      "type": "function"
    },
    {
      "constant": true,
      "inputs": [
        {
          "name": "_addr",
          "type": "address"
        },
        {
          "name": "_docId",
          "type": "bytes32"
        },
        {
          "name": "_dateMillis",
          "type": "uint256"
        }
      ],
      "name": "getCuratorDepositOnUserDocument",
      "outputs": [
        {
          "name": "",
          "type": "uint256"
        }
      ],
      "payable": false,
      "stateMutability": "view",
      "type": "function"
    },
    {
      "constant": true,
      "inputs": [
        {
          "name": "_docId",
          "type": "bytes32"
        },
        {
          "name": "_dateMillis",
          "type": "uint256"
        }
      ],
      "name": "getCuratorWithdrawOnDocument",
      "outputs": [
        {
          "name": "",
          "type": "uint256"
        }
      ],
      "payable": false,
      "stateMutability": "view",
      "type": "function"
    },
    {
      "constant": true,
      "inputs": [
        {
          "name": "_addr",
          "type": "address"
        },
        {
          "name": "_docId",
          "type": "bytes32"
        },
        {
          "name": "_dateMillis",
          "type": "uint256"
        }
      ],
      "name": "getCuratorWithdrawOnUserDocument",
      "outputs": [
        {
          "name": "",
          "type": "uint256"
        }
      ],
      "payable": false,
      "stateMutability": "view",
      "type": "function"
    },
    {
      "constant": true,
      "inputs": [
        {
          "name": "_addr",
          "type": "address"
        },
        {
          "name": "_docId",
          "type": "bytes32"
        }
      ],
      "name": "getCurator3DayRewardOnUserDocument",
      "outputs": [
        {
          "name": "",
          "type": "uint256"
        }
      ],
      "payable": false,
      "stateMutability": "view",
      "type": "function"
    },
    {
      "constant": true,
      "inputs": [
        {
          "name": "_addr",
          "type": "address"
        },
        {
          "name": "_docId",
          "type": "bytes32"
        },
        {
          "name": "_dateMillis",
          "type": "uint256"
        }
      ],
      "name": "getCurator3DayRewardOnUserDocument",
      "outputs": [
        {
          "name": "",
          "type": "uint256"
        }
      ],
      "payable": false,
      "stateMutability": "view",
      "type": "function"
    },
    {
      "constant": true,
      "inputs": [
        {
          "name": "_addr",
          "type": "address"
        },
        {
          "name": "_docId",
          "type": "bytes32"
        }
      ],
      "name": "getCuratorRewardOnUserDocument",
      "outputs": [
        {
          "name": "",
          "type": "uint256"
        }
      ],
      "payable": false,
      "stateMutability": "view",
      "type": "function"
    },
    {
      "constant": true,
      "inputs": [
        {
          "name": "_docId",
          "type": "bytes32"
        }
      ],
      "name": "getCuratorRewardOnDocument",
      "outputs": [
        {
          "name": "",
          "type": "uint256"
        }
      ],
      "payable": false,
      "stateMutability": "view",
      "type": "function"
    },
    {
      "constant": true,
      "inputs": [
        {
          "name": "_docId",
          "type": "bytes32"
        },
        {
          "name": "_dateMillis",
          "type": "uint256"
        }
      ],
      "name": "getCurator3DayRewardOnDocument",
      "outputs": [
        {
          "name": "",
          "type": "uint256"
        }
      ],
      "payable": false,
      "stateMutability": "view",
      "type": "function"
    },
    {
      "constant": true,
      "inputs": [
        {
          "name": "_docId",
          "type": "bytes32"
        }
      ],
      "name": "getCurator3DayRewardOnDocument",
      "outputs": [
        {
          "name": "",
          "type": "uint256"
        }
      ],
      "payable": false,
      "stateMutability": "view",
      "type": "function"
    },
    {
      "constant": true,
      "inputs": [
        {
          "name": "_addr",
          "type": "address"
        },
        {
          "name": "_docId",
          "type": "bytes32"
        }
      ],
      "name": "getAuthorWithdrawOnUserDocument",
      "outputs": [
        {
          "name": "",
          "type": "uint256"
        }
      ],
      "payable": false,
      "stateMutability": "view",
      "type": "function"
    },
    {
      "constant": true,
      "inputs": [
        {
          "name": "_addr",
          "type": "address"
        },
        {
          "name": "_docId",
          "type": "bytes32"
        }
      ],
      "name": "getAuthorRewardOnDocument",
      "outputs": [
        {
          "name": "",
          "type": "uint256"
        }
      ],
      "payable": false,
      "stateMutability": "view",
      "type": "function"
    },
    {
      "constant": true,
      "inputs": [
        {
          "name": "_addr",
          "type": "address"
        },
        {
          "name": "_docId",
          "type": "bytes32"
        }
      ],
      "name": "getAuthor3DayRewardOnDocument",
      "outputs": [
        {
          "name": "",
          "type": "uint256"
        }
      ],
      "payable": false,
      "stateMutability": "view",
      "type": "function"
    },
    {
      "constant": true,
      "inputs": [
        {
          "name": "_addr",
          "type": "address"
        },
        {
          "name": "_docId",
          "type": "bytes32"
        },
        {
          "name": "_dateMillis",
          "type": "uint256"
        }
      ],
      "name": "getAuthor3DayRewardOnDocument",
      "outputs": [
        {
          "name": "",
          "type": "uint256"
        }
      ],
      "payable": false,
      "stateMutability": "view",
      "type": "function"
    }
  ],
  "bytecode": "0x608060405260008054600160a060020a031916331790556144c5806100256000396000f3006080604052600436106101c95763ffffffff60e060020a60003504166306552ff381146101ce57806306661abd1461020357806309547eec1461022a5780630b80a0d91461025157806314766128146102755780631d1a696d1461029057806333617a68146102bc5780633a7247c6146102d7578063459259fd146102fb5780634c9d31ca1461031f57806357835e011461033a578063590ebfbf146103525780635dea52b31461037c57806361dcd7ab146103975780636bb05847146103ac578063715018a6146103c4578063728eb289146103d957806373760452146104005780637ca36b94146104275780637df0bf311461043f5780638c8674f2146104635780638da5cb5b1461048757806393cbcec3146104b857806395aa38ae146104d05780639758a433146104e8578063999d6bf414610503578063a94c87fe1461051b578063aa55a67e14610542578063c40862f61461056c578063c9508b1c14610584578063caac83e41461059f578063ce193a6d146105bd578063d5ef66ac146105e4578063db3543f514610608578063e1fa8e8414610629578063ef2d870014610641578063f26b4482146106a6578063f2cf4754146106be578063f2fde38b146106d6575b600080fd5b3480156101da57600080fd5b50610201600160a060020a03600435811690602435811690604435811690606435166106f7565b005b34801561020f57600080fd5b506102186109f0565b60408051918252519081900360200190f35b34801561023657600080fd5b50610201600160a060020a03600435166024356044356109f6565b34801561025d57600080fd5b50610218600160a060020a0360043516602435610b6d565b34801561028157600080fd5b50610201600435602435610bff565b34801561029c57600080fd5b506102a8600435610dfb565b604080519115158252519081900360200190f35b3480156102c857600080fd5b50610218600435602435610e13565b3480156102e357600080fd5b50610218600160a060020a0360043516602435610f2f565b34801561030757600080fd5b50610218600160a060020a03600435166024356113a9565b34801561032b57600080fd5b506102186004356024356113b7565b34801561034657600080fd5b506102016004356113f6565b34801561035e57600080fd5b50610218600160a060020a0360043516602435604435606435611cb1565b34801561038857600080fd5b5061021860043560243561205f565b3480156103a357600080fd5b506102186120cc565b3480156103b857600080fd5b506102016004356120d2565b3480156103d057600080fd5b50610201612714565b3480156103e557600080fd5b50610218600160a060020a0360043516602435604435612773565b34801561040c57600080fd5b50610218600160a060020a0360043516602435604435612bdb565b34801561043357600080fd5b5061021860043561305f565b34801561044b57600080fd5b50610218600160a060020a0360043516602435613080565b34801561046f57600080fd5b50610218600160a060020a036004351660243561308e565b34801561049357600080fd5b5061049c613100565b60408051600160a060020a039092168252519081900360200190f35b3480156104c457600080fd5b5061021860043561310f565b3480156104dc57600080fd5b50610218600435613661565b3480156104f457600080fd5b50610218600435602435613674565b34801561050f57600080fd5b506102186004356136e1565b34801561052757600080fd5b50610218600160a060020a0360043516602435604435613715565b34801561054e57600080fd5b50610201600160a060020a03600435166024356044356064356137c2565b34801561057857600080fd5b50610218600435613952565b34801561059057600080fd5b506102186004356024356139d8565b3480156105ab57600080fd5b50610201600435602435604435613ddd565b3480156105c957600080fd5b50610218600160a060020a0360043516602435604435613f84565b3480156105f057600080fd5b50610218600160a060020a0360043516602435613ffd565b34801561061457600080fd5b50610201600160a060020a0360043516614088565b34801561063557600080fd5b506102016004356140d6565b34801561064d57600080fd5b50610656614353565b60408051602080825283518183015283519192839290830191858101910280838360005b8381101561069257818101518382015260200161067a565b505050509050019250505060405180910390f35b3480156106b257600080fd5b506102186004356143ac565b3480156106ca57600080fd5b5061049c6004356143cd565b3480156106e257600080fd5b50610201600160a060020a0360043516614406565b600054600160a060020a0316331461070e57600080fd5b600160a060020a0384161580159061072f5750600554600160a060020a0316155b151561073a57600080fd5b600160a060020a0383161580159061075b5750600754600160a060020a0316155b151561076657600080fd5b600160a060020a038216158015906107875750600854600160a060020a0316155b151561079257600080fd5b600160a060020a038116158015906107b35750600654600160a060020a0316155b15156107be57600080fd5b60058054600160a060020a03808716600160a060020a03199283161792839055600680548583169084161790819055600a80548416331790556007805488841694169390931792839055604080517ff09a4016000000000000000000000000000000000000000000000000000000008152948316600486015290821660248501525191169163f09a401691604480830192600092919082900301818387803b15801561086957600080fd5b505af115801561087d573d6000803e3d6000fd5b505060088054600160a060020a031916600160a060020a038681169190911791829055600554600654604080517ff09a4016000000000000000000000000000000000000000000000000000000008152928416600484015290831660248301525192909116935063f09a4016925060448082019260009290919082900301818387803b15801561090c57600080fd5b505af1158015610920573d6000803e3d6000fd5b50505050600660009054906101000a9004600160a060020a0316600160a060020a031663c03812226040518163ffffffff1660e060020a028152600401602060405180830381600087803b15801561097757600080fd5b505af115801561098b573d6000803e3d6000fd5b505050506040513d60208110156109a157600080fd5b5051600981905560408051918252600160a060020a038616602083015280517f8742e3e96e789a57b576070034c2cdb8980c6be1567aabcac37dbe7130db92799281900390910190a150505050565b60025490565b600054600160a060020a03163314610a0d57600080fd5b600082815260016020819052604090912001541515610a5c57600280546001810182556000919091527f405787fa12a823e0f2b7631cc41b3ba8828b3321ca811111fa75cd3aa3bb5ace018290555b604080518082018252600160a060020a038581168083526020808401868152600088815260019283905286812095518654600160a060020a0319169086161786559051949091019390935560075484517ffc2ce2af000000000000000000000000000000000000000000000000000000008152600481018890526024810192909252604482018690529351939091169263fc2ce2af9260648084019391929182900301818387803b158015610b1057600080fd5b505af1158015610b24573d6000803e3d6000fd5b5050604080518481529051600160a060020a03871693508592507f0b94e4ec34698b1da6ae21b109ae0c268dfd3436981a7e949de44a8df4a112f59181900360200190a3505050565b6000610bf88383600660009054906101000a9004600160a060020a0316600160a060020a0316637ff8b20e6040518163ffffffff1660e060020a028152600401602060405180830381600087803b158015610bc757600080fd5b505af1158015610bdb573d6000803e3d6000fd5b505050506040513d6020811015610bf157600080fd5b5051612bdb565b9392505050565b60008111610c0c57600080fd5b600860009054906101000a9004600160a060020a0316600160a060020a03166361dcd7ab6040518163ffffffff1660e060020a028152600401602060405180830381600087803b158015610c5f57600080fd5b505af1158015610c73573d6000803e3d6000fd5b505050506040513d6020811015610c8957600080fd5b50511515610c9657600080fd5b600554604080517f23b872dd000000000000000000000000000000000000000000000000000000008152336004820152306024820152604481018490529051600160a060020a03909216916323b872dd916064808201926020929091908290030181600087803b158015610d0957600080fd5b505af1158015610d1d573d6000803e3d6000fd5b505050506040513d6020811015610d3357600080fd5b5050600854604080517f02096d8300000000000000000000000000000000000000000000000000000000815233600482015260248101859052604481018490529051600160a060020a03909216916302096d839160648082019260009290919082900301818387803b158015610da857600080fd5b505af1158015610dbc573d6000803e3d6000fd5b50506040805184815290513393508592507f0c75c6a0cc6b6403ea7acee71d8aa1556e09a34e8560c6f9ab5b6152bfcd8ef19181900360200190a35050565b60009081526001602081905260409091200154151590565b600754600654604080517f7ff8b20e0000000000000000000000000000000000000000000000000000000081529051600093600160a060020a039081169363e41b28aa938893889390921691637ff8b20e9160048082019260209290919082900301818b87803b158015610e8657600080fd5b505af1158015610e9a573d6000803e3d6000fd5b505050506040513d6020811015610eb057600080fd5b50516040805160e060020a63ffffffff87160281526004810194909452602484019290925260448301525160648083019260209291908290030181600087803b158015610efc57600080fd5b505af1158015610f10573d6000803e3d6000fd5b505050506040513d6020811015610f2657600080fd5b50519392505050565b6000808080808080600160a060020a0389161515610f4c57600080fd5b600760009054906101000a9004600160a060020a0316600160a060020a03166361dcd7ab6040518163ffffffff1660e060020a028152600401602060405180830381600087803b158015610f9f57600080fd5b505af1158015610fb3573d6000803e3d6000fd5b505050506040513d6020811015610fc957600080fd5b50511515610fd657600080fd5b600754604080517fbfb2290d000000000000000000000000000000000000000000000000000000008152600160a060020a038c81166004830152602482018c90529151919092169163bfb2290d9160448083019260209291908290030181600087803b15801561104557600080fd5b505af1158015611059573d6000803e3d6000fd5b505050506040513d602081101561106f57600080fd5b505195506000861215611085576000965061139d565b600754604080517fc7280473000000000000000000000000000000000000000000000000000000008152600160a060020a038c81166004830152602482018a9052915160009850919092169163c728047391604480830192602092919082900301818b87803b1580156110f757600080fd5b505af115801561110b573d6000803e3d6000fd5b505050506040513d602081101561112157600080fd5b505193505b600660009054906101000a9004600160a060020a0316600160a060020a0316637ff8b20e6040518163ffffffff1660e060020a028152600401602060405180830381600087803b15801561117957600080fd5b505af115801561118d573d6000803e3d6000fd5b505050506040513d60208110156111a357600080fd5b50518410156113995783151561125157600754604080517f85b08ade000000000000000000000000000000000000000000000000000000008152600160a060020a038c81166004830152602482018a9052915191909216916385b08ade9160448083019260209291908290030181600087803b15801561122257600080fd5b505af1158015611236573d6000803e3d6000fd5b505050506040513d602081101561124c57600080fd5b505193505b61125a846143ac565b925061126688856113b7565b600754604080517fe41b28aa0000000000000000000000000000000000000000000000000000000081526004810184905260248101879052604481018890529051929450600160a060020a039091169163e41b28aa916064808201926020929091908290030181600087803b1580156112de57600080fd5b505af11580156112f2573d6000803e3d6000fd5b505050506040513d602081101561130857600080fd5b50516006546040805160e060020a63f733ad9502815290519790920196600160a060020a039091169163f733ad959160048083019260209291908290030181600087803b15801561135857600080fd5b505af115801561136c573d6000803e3d6000fd5b505050506040513d602081101561138257600080fd5b50518401905080841061139157fe5b809350611126565b8496505b50505050505092915050565b6000610bf883836000612bdb565b60008281526001602081905260408220015415156113d457600080fd5b5060009182526001602090815260408084209284526002909201905290205490565b6000806000606080600080600080600080600860009054906101000a9004600160a060020a0316600160a060020a03166361dcd7ab6040518163ffffffff1660e060020a028152600401602060405180830381600087803b15801561145a57600080fd5b505af115801561146e573d6000803e3d6000fd5b505050506040513d602081101561148457600080fd5b5051151561149157600080fd5b60009a50600860009054906101000a9004600160a060020a0316600160a060020a0316633b7aecf7338e60006040518463ffffffff1660e060020a0281526004018084600160a060020a0316600160a060020a0316815260200183600019166000191681526020018281526020019350505050602060405180830381600087803b15801561151e57600080fd5b505af1158015611532573d6000803e3d6000fd5b505050506040513d602081101561154857600080fd5b505199505b60008a126115ec576008546040805160e060020a633b7aecf7028152336004820152602481018f9052604481018d905290516001909d019c600160a060020a0390921691633b7aecf7916064808201926020929091908290030181600087803b1580156115b957600080fd5b505af11580156115cd573d6000803e3d6000fd5b505050506040513d60208110156115e357600080fd5b5051995061154d565b8a15156115f857611ca3565b600098508a604051908082528060200260200182016040528015611626578160200160208202803883390190505b5097508a604051908082528060200260200182016040528015611653578160200160208202803883390190505b509650600860009054906101000a9004600160a060020a0316600160a060020a0316633b7aecf7338e60006040518463ffffffff1660e060020a0281526004018084600160a060020a0316600160a060020a0316815260200183600019166000191681526020018281526020019350505050602060405180830381600087803b1580156116df57600080fd5b505af11580156116f3573d6000803e3d6000fd5b505050506040513d602081101561170957600080fd5b50519950600095505b8a861015611b00576008546040805160e060020a63c6071fe1028152336004820152602481018d9052905160009750600160a060020a039092169163c6071fe19160448082019260209290919082900301818b87803b15801561177457600080fd5b505af1158015611788573d6000803e3d6000fd5b505050506040513d602081101561179e57600080fd5b50519350600092505b600660009054906101000a9004600160a060020a0316600160a060020a031663cb41501e6040518163ffffffff1660e060020a028152600401602060405180830381600087803b1580156117fa57600080fd5b505af115801561180e573d6000803e3d6000fd5b505050506040513d602081101561182457600080fd5b5051831015611967576118378c856113b7565b91506118428461305f565b6008546040805160e360020a630790e81b028152336004820152602481018e90526044810188905260648101869052608481018490529051929350600160a060020a0390911691633c8740d89160a4808201926020929091908290030181600087803b1580156118b157600080fd5b505af11580156118c5573d6000803e3d6000fd5b505050506040513d60208110156118db57600080fd5b50516006546040805160e060020a63f733ad9502815290519790920196600160a060020a039091169163f733ad959160048083019260209291908290030181600087803b15801561192b57600080fd5b505af115801561193f573d6000803e3d6000fd5b505050506040513d602081101561195557600080fd5b505193909301926001909201916117a7565b600854604080517f14158bec000000000000000000000000000000000000000000000000000000008152336004820152602481018d905290519a87019a600160a060020a03909216916314158bec916044808201926020929091908290030181600087803b1580156119d857600080fd5b505af11580156119ec573d6000803e3d6000fd5b505050506040513d6020811015611a0257600080fd5b505188519901988a90899088908110611a1757fe5b6020908102909101015286518590889088908110611a3157fe5b9060200190602002018181525050600860009054906101000a9004600160a060020a0316600160a060020a0316633b7aecf7338e8d6040518463ffffffff1660e060020a0281526004018084600160a060020a0316600160a060020a0316815260200183600019166000191681526020018281526020019350505050602060405180830381600087803b158015611ac757600080fd5b505af1158015611adb573d6000803e3d6000fd5b505050506040513d6020811015611af157600080fd5b50519950600190950194611712565b600554604080517fa9059cbb000000000000000000000000000000000000000000000000000000008152336004820152602481018c90529051600160a060020a039092169163a9059cbb916044808201926020929091908290030181600087803b158015611b6d57600080fd5b505af1158015611b81573d6000803e3d6000fd5b505050506040513d6020811015611b9757600080fd5b5060009650505b8751861015611c6b576008548851600160a060020a039091169063b5c5f6729033908b908a908110611bcc57fe5b906020019060200201518a8a815181101515611be457fe5b906020019060200201516040518463ffffffff1660e060020a0281526004018084600160a060020a0316600160a060020a031681526020018381526020018281526020019350505050600060405180830381600087803b158015611c4757600080fd5b505af1158015611c5b573d6000803e3d6000fd5b505060019097019650611b9e9050565b604080518a8152905133918e917ff52a79cb351c7f71a9cb184d7e1a0c68127f783b1db70273ad6085cf4800ab689181900360200190a35b505050505050505050505050565b600854604080517fde3d12e9000000000000000000000000000000000000000000000000000000008152600160a060020a03878116600483015291516000938493849384938493929092169163de3d12e99160248082019260209290919082900301818787803b158015611d2457600080fd5b505af1158015611d38573d6000803e3d6000fd5b505050506040513d6020811015611d4e57600080fd5b50519350831515611d625760009450612053565b60009250600660009054906101000a9004600160a060020a0316600160a060020a0316637ff8b20e6040518163ffffffff1660e060020a028152600401602060405180830381600087803b158015611db957600080fd5b505af1158015611dcd573d6000803e3d6000fd5b505050506040513d6020811015611de357600080fd5b50519150600090505b8381101561204f57600854604080517f604b2eb2000000000000000000000000000000000000000000000000000000008152600160a060020a038c811660048301526024820185905291518b93929092169163604b2eb2916044808201926020929091908290030181600087803b158015611e6657600080fd5b505af1158015611e7a573d6000803e3d6000fd5b505050506040513d6020811015611e9057600080fd5b5051148015611fa25750600660009054906101000a9004600160a060020a0316600160a060020a031663877211666040518163ffffffff1660e060020a028152600401602060405180830381600087803b158015611eed57600080fd5b505af1158015611f01573d6000803e3d6000fd5b505050506040513d6020811015611f1757600080fd5b50516008546040805160e060020a63c6071fe1028152600160a060020a038d81166004830152602482018690529151919092169163c6071fe19160448083019260209291908290030181600087803b158015611f7257600080fd5b505af1158015611f86573d6000803e3d6000fd5b505050506040513d6020811015611f9c57600080fd5b50518303105b15612047576008546040805160e360020a630790e81b028152600160a060020a038c811660048301526024820185905260448201869052606482018b9052608482018a905291519190921691633c8740d89160a48083019260209291908290030181600087803b15801561201557600080fd5b505af1158015612029573d6000803e3d6000fd5b505050506040513d602081101561203f57600080fd5b505192909201915b600101611dec565b8294505b50505050949350505050565b600854604080517ff3ca340700000000000000000000000000000000000000000000000000000000815260048101859052602481018490529051600092600160a060020a03169163f3ca340791604480830192602092919082900301818787803b158015610efc57600080fd5b60095481565b60008080808080803315156120e657600080fd5b600760009054906101000a9004600160a060020a0316600160a060020a03166361dcd7ab6040518163ffffffff1660e060020a028152600401602060405180830381600087803b15801561213957600080fd5b505af115801561214d573d6000803e3d6000fd5b505050506040513d602081101561216357600080fd5b5051151561217057600080fd5b600754604080517fbfb2290d000000000000000000000000000000000000000000000000000000008152336004820152602481018b90529051600160a060020a039092169163bfb2290d916044808201926020929091908290030181600087803b1580156121dd57600080fd5b505af11580156121f1573d6000803e3d6000fd5b505050506040513d602081101561220757600080fd5b5051965060008712156122195761270a565b60408051888152905133918a917f4c392ff5289c397ab3c803ffe08711686c2cc0ebf2fc6f49a409ebc3a7d992d49181900360200190a3600754604080517fc7280473000000000000000000000000000000000000000000000000000000008152336004820152602481018a90529051600160a060020a039092169163c7280473916044808201926020929091908290030181600087803b1580156122bd57600080fd5b505af11580156122d1573d6000803e3d6000fd5b505050506040513d60208110156122e757600080fd5b505160408051828152905191975033918a917f4c392ff5289c397ab3c803ffe08711686c2cc0ebf2fc6f49a409ebc3a7d992d4919081900360200190a3600660009054906101000a9004600160a060020a0316600160a060020a0316637ff8b20e6040518163ffffffff1660e060020a028152600401602060405180830381600087803b15801561237757600080fd5b505af115801561238b573d6000803e3d6000fd5b505050506040513d60208110156123a157600080fd5b50519450600093505b848610156125a75785151561245557600754604080517f85b08ade000000000000000000000000000000000000000000000000000000008152336004820152602481018a90529051600160a060020a03909216916385b08ade916044808201926020929091908290030181600087803b15801561242657600080fd5b505af115801561243a573d6000803e3d6000fd5b505050506040513d602081101561245057600080fd5b505195505b8486111561245f57fe5b612468866143ac565b925061247488876113b7565b600754604080517fe41b28aa0000000000000000000000000000000000000000000000000000000081526004810184905260248101879052604481018a90529051929450600160a060020a039091169163e41b28aa916064808201926020929091908290030181600087803b1580156124ec57600080fd5b505af1158015612500573d6000803e3d6000fd5b505050506040513d602081101561251657600080fd5b50516006546040805160e060020a63f733ad9502815290519690920195600160a060020a039091169163f733ad959160048083019260209291908290030181600087803b15801561256657600080fd5b505af115801561257a573d6000803e3d6000fd5b505050506040513d602081101561259057600080fd5b50518601905085811161259f57fe5b8095506123aa565b600554604080517fa9059cbb000000000000000000000000000000000000000000000000000000008152336004820152602481018790529051600160a060020a039092169163a9059cbb916044808201926020929091908290030181600087803b15801561261457600080fd5b505af1158015612628573d6000803e3d6000fd5b505050506040513d602081101561263e57600080fd5b5050600754604080517f4532d776000000000000000000000000000000000000000000000000000000008152336004820152602481018a905260448101879052606481018990529051600160a060020a0390921691634532d7769160848082019260009290919082900301818387803b1580156126ba57600080fd5b505af11580156126ce573d6000803e3d6000fd5b50506040805187815290513393508b92507f4c392ff5289c397ab3c803ffe08711686c2cc0ebf2fc6f49a409ebc3a7d992d49181900360200190a35b5050505050505050565b600054600160a060020a0316331461272b57600080fd5b60008054604051600160a060020a03909116917ff8df31144d9c2f0f6b59d69b8b98abd5459d07f2742c4df920b25aae33c6482091a260008054600160a060020a0319169055565b600754604080517fbfb2290d000000000000000000000000000000000000000000000000000000008152600160a060020a03868116600483015260248201869052915160009384938493849384938493849391169163bfb2290d9160448082019260209290919082900301818787803b1580156127ef57600080fd5b505af1158015612803573d6000803e3d6000fd5b505050506040513d602081101561281957600080fd5b50519550600086121561282f5760009650612bce565b600754604080517f85b08ade000000000000000000000000000000000000000000000000000000008152600160a060020a038d81166004830152602482018a905291516000985091909216916385b08ade91604480830192602092919082900301818b87803b1580156128a157600080fd5b505af11580156128b5573d6000803e3d6000fd5b505050506040513d60208110156128cb57600080fd5b5051600654604080517f7ff8b20e0000000000000000000000000000000000000000000000000000000081529051929650600160a060020a0390911691637ff8b20e916004808201926020929091908290030181600087803b15801561293057600080fd5b505af1158015612944573d6000803e3d6000fd5b505050506040513d602081101561295a57600080fd5b505192508715612968578792505b828411612bca57600660009054906101000a9004600160a060020a0316600160a060020a031663f733ad956040518163ffffffff1660e060020a028152600401602060405180830381600087803b1580156129c257600080fd5b505af11580156129d6573d6000803e3d6000fd5b505050506040513d60208110156129ec57600080fd5b505160030284840311612ab857612a02846143ac565b9150612a0e89856113b7565b600754604080517fe41b28aa0000000000000000000000000000000000000000000000000000000081526004810184905260248101869052604481018890529051929350600160a060020a039091169163e41b28aa916064808201926020929091908290030181600087803b158015612a8657600080fd5b505af1158015612a9a573d6000803e3d6000fd5b505050506040513d6020811015612ab057600080fd5b505194909401935b600660009054906101000a9004600160a060020a0316600160a060020a031663f733ad956040518163ffffffff1660e060020a028152600401602060405180830381600087803b158015612b0b57600080fd5b505af1158015612b1f573d6000803e3d6000fd5b505050506040513d6020811015612b3557600080fd5b505184018410612b4157fe5b600660009054906101000a9004600160a060020a0316600160a060020a031663f733ad956040518163ffffffff1660e060020a028152600401602060405180830381600087803b158015612b9457600080fd5b505af1158015612ba8573d6000803e3d6000fd5b505050506040513d6020811015612bbe57600080fd5b50519390930192612968565b8496505b5050505050509392505050565b600080600080600080600080600860009054906101000a9004600160a060020a0316600160a060020a031663de3d12e98c6040518263ffffffff1660e060020a0281526004018082600160a060020a0316600160a060020a03168152602001915050602060405180830381600087803b158015612c5757600080fd5b505af1158015612c6b573d6000803e3d6000fd5b505050506040513d6020811015612c8157600080fd5b50519650861515612c955760009750613051565b60009550600094505b8685101561304d57600854604080517f604b2eb2000000000000000000000000000000000000000000000000000000008152600160a060020a038e811660048301526024820189905291518d93929092169163604b2eb2916044808201926020929091908290030181600087803b158015612d1857600080fd5b505af1158015612d2c573d6000803e3d6000fd5b505050506040513d6020811015612d4257600080fd5b50511415613042576008546040805160e060020a63c6071fe1028152600160a060020a038e81166004830152602482018990529151919092169163c6071fe19160448083019260209291908290030181600087803b158015612da357600080fd5b505af1158015612db7573d6000803e3d6000fd5b505050506040513d6020811015612dcd57600080fd5b50519350600092505b600660009054906101000a9004600160a060020a0316600160a060020a031663cb41501e6040518163ffffffff1660e060020a028152600401602060405180830381600087803b158015612e2957600080fd5b505af1158015612e3d573d6000803e3d6000fd5b505050506040513d6020811015612e5357600080fd5b505183101561304257881580612ef75750838910158015612ef75750600660009054906101000a9004600160a060020a0316600160a060020a031663f733ad956040518163ffffffff1660e060020a028152600401602060405180830381600087803b158015612ec257600080fd5b505af1158015612ed6573d6000803e3d6000fd5b505050506040513d6020811015612eec57600080fd5b5051600302848a0311155b15612fb357612f068a856113b7565b9150612f118461305f565b6008546040805160e360020a630790e81b028152600160a060020a038f81166004830152602482018a90526044820189905260648201879052608482018590529151939450911691633c8740d89160a4808201926020929091908290030181600087803b158015612f8157600080fd5b505af1158015612f95573d6000803e3d6000fd5b505050506040513d6020811015612fab57600080fd5b505195909501945b600660009054906101000a9004600160a060020a0316600160a060020a031663f733ad956040518163ffffffff1660e060020a028152600401602060405180830381600087803b15801561300657600080fd5b505af115801561301a573d6000803e3d6000fd5b505050506040513d602081101561303057600080fd5b50519390930192600190920191612dd6565b600190940193612c9e565b8597505b505050505050509392505050565b600081151561306d57600080fd5b5060009081526004602052604090205490565b6000610bf883836000612773565b600754604080517fcece1c89000000000000000000000000000000000000000000000000000000008152600160a060020a038581166004830152602482018590529151600093929092169163cece1c899160448082019260209290919082900301818787803b158015610efc57600080fd5b600054600160a060020a031681565b6000806000806000806000806000600860009054906101000a9004600160a060020a0316600160a060020a03166361dcd7ab6040518163ffffffff1660e060020a028152600401602060405180830381600087803b15801561317057600080fd5b505af1158015613184573d6000803e3d6000fd5b505050506040513d602081101561319a57600080fd5b505115156131a757600080fd5b6008546040805160e060020a633b7aecf7028152336004820152602481018d90526000604482018190529151919a50600160a060020a0390921691633b7aecf791606480830192602092919082900301818e87803b15801561320857600080fd5b505af115801561321c573d6000803e3d6000fd5b505050506040513d602081101561323257600080fd5b505196505b600087126132d6576008546040805160e060020a633b7aecf7028152336004820152602481018d9052604481018a905290516001909a0199600160a060020a0390921691633b7aecf7916064808201926020929091908290030181600087803b1580156132a357600080fd5b505af11580156132b7573d6000803e3d6000fd5b505050506040513d60208110156132cd57600080fd5b50519650613237565b6008546040805160e060020a633b7aecf7028152336004820152602481018d90526000604482018190529151919850600160a060020a0390921691633b7aecf791606480830192602092919082900301818c87803b15801561333757600080fd5b505af115801561334b573d6000803e3d6000fd5b505050506040513d602081101561336157600080fd5b50519650600094505b87851015613653576008546040805160e060020a63c6071fe1028152336004820152602481018a90529051600160a060020a039092169163c6071fe1916044808201926020929091908290030181600087803b1580156133c957600080fd5b505af11580156133dd573d6000803e3d6000fd5b505050506040513d60208110156133f357600080fd5b50519350600092505b600660009054906101000a9004600160a060020a0316600160a060020a031663cb41501e6040518163ffffffff1660e060020a028152600401602060405180830381600087803b15801561344f57600080fd5b505af1158015613463573d6000803e3d6000fd5b505050506040513d602081101561347957600080fd5b50518310156135bc5761348c8a856113b7565b91506134978461305f565b6008546040805160e360020a630790e81b028152336004820152602481018b90526044810188905260648101869052608481018490529051929350600160a060020a0390911691633c8740d89160a4808201926020929091908290030181600087803b15801561350657600080fd5b505af115801561351a573d6000803e3d6000fd5b505050506040513d602081101561353057600080fd5b50516006546040805160e060020a63f733ad9502815290519890920197600160a060020a039091169163f733ad959160048083019260209291908290030181600087803b15801561358057600080fd5b505af1158015613594573d6000803e3d6000fd5b505050506040513d60208110156135aa57600080fd5b505193909301926001909201916133fc565b6008546040805160e060020a633b7aecf7028152336004820152602481018d9052604481018a90529051600160a060020a0390921691633b7aecf7916064808201926020929091908290030181600087803b15801561361a57600080fd5b505af115801561362e573d6000803e3d6000fd5b505050506040513d602081101561364457600080fd5b5051965060019094019361336a565b509398975050505050505050565b600061366e8260006139d8565b92915050565b600854604080517fe49442f400000000000000000000000000000000000000000000000000000000815260048101859052602481018490529051600092600160a060020a03169163e49442f491604480830192602092919082900301818787803b158015610efc57600080fd5b60008181526001602081905260408220015415156136fe57600080fd5b506000908152600160208190526040909120015490565b600854604080517fd7587e60000000000000000000000000000000000000000000000000000000008152600160a060020a03868116600483015260248201869052604482018590529151600093929092169163d7587e609160648082019260209290919082900301818787803b15801561378e57600080fd5b505af11580156137a2573d6000803e3d6000fd5b505050506040513d60208110156137b857600080fd5b5051949350505050565b600054600160a060020a031633146137d957600080fd5b600082116137e657600080fd5b600860009054906101000a9004600160a060020a0316600160a060020a03166361dcd7ab6040518163ffffffff1660e060020a028152600401602060405180830381600087803b15801561383957600080fd5b505af115801561384d573d6000803e3d6000fd5b505050506040513d602081101561386357600080fd5b5051151561387057600080fd5b600854604080517fb8122eac000000000000000000000000000000000000000000000000000000008152600160a060020a0387811660048301526024820187905260448201869052606482018590529151919092169163b8122eac91608480830192600092919082900301818387803b1580156138ec57600080fd5b505af1158015613900573d6000803e3d6000fd5b505060408051858152602081018590528151600160a060020a03891694508793507f73f9ddafe55f8b3fd3b932ed16d0c08f9a6406edb112b7e4c29620073b9957b7929181900390910190a350505050565b600061366e82600660009054906101000a9004600160a060020a0316600160a060020a0316637ff8b20e6040518163ffffffff1660e060020a028152600401602060405180830381600087803b1580156139ab57600080fd5b505af11580156139bf573d6000803e3d6000fd5b505050506040513d60208110156139d557600080fd5b50515b600854604080517f858720280000000000000000000000000000000000000000000000000000000081526004810185905290516000928392839283928392839283928392600160a060020a039091169163858720289160248082019260209290919082900301818787803b158015613a4f57600080fd5b505af1158015613a63573d6000803e3d6000fd5b505050506040513d6020811015613a7957600080fd5b50519650861515613a8d5760009750613dd0565b60009550600094505b86851015613dcc57600854604080517fbc6e874f000000000000000000000000000000000000000000000000000000008152600481018d9052602481018890529051600160a060020a039092169163bc6e874f916044808201926020929091908290030181600087803b158015613b0c57600080fd5b505af1158015613b20573d6000803e3d6000fd5b505050506040513d6020811015613b3657600080fd5b50519350600092505b600660009054906101000a9004600160a060020a0316600160a060020a031663cb41501e6040518163ffffffff1660e060020a028152600401602060405180830381600087803b158015613b9257600080fd5b505af1158015613ba6573d6000803e3d6000fd5b505050506040513d6020811015613bbc57600080fd5b5051831015613dc157881580613c605750838910158015613c605750600660009054906101000a9004600160a060020a0316600160a060020a031663f733ad956040518163ffffffff1660e060020a028152600401602060405180830381600087803b158015613c2b57600080fd5b505af1158015613c3f573d6000803e3d6000fd5b505050506040513d6020811015613c5557600080fd5b5051600302848a0311155b15613d3257613c6f8a856113b7565b9150613c7a8461305f565b600854604080517fb4156c0e000000000000000000000000000000000000000000000000000000008152600481018e9052602481018990526044810188905260648101869052608481018490529051929350600160a060020a039091169163b4156c0e9160a4808201926020929091908290030181600087803b158015613d0057600080fd5b505af1158015613d14573d6000803e3d6000fd5b505050506040513d6020811015613d2a57600080fd5b505195909501945b600660009054906101000a9004600160a060020a0316600160a060020a031663f733ad956040518163ffffffff1660e060020a028152600401602060405180830381600087803b158015613d8557600080fd5b505af1158015613d99573d6000803e3d6000fd5b505050506040513d6020811015613daf57600080fd5b50519390930192600190920191613b3f565b600190940193613a96565b8597505b5050505050505092915050565b600a54600090600160a060020a03163314613df757600080fd5b600084815260016020819052604090912001541515613e1557600080fd5b5060008381526001602090815260408083208584526002810190925282205490911015613eb657600083815260028281016020908152604080842080546003845282862080549190910381559054600484529482902080549490950a90930393849055915482518781529182015280820192909252517f01e21700b429ba33287c59ef71ead1370b1049e0f9137ed26b930e45590cf8b39181900360600190a15b6000838152600282810160209081526040808420869055600382528084208054870190556004825292839020805492860a9092019091558151858152908101849052815186927f591abb51ea6c697839be33fbd705609f83fa02d3112a5cc20595ca3b4592d675928290030190a26000838152600360209081526040808320546004835292819020548151878152928301939093528181019290925290517f01e21700b429ba33287c59ef71ead1370b1049e0f9137ed26b930e45590cf8b39181900360600190a150505050565b600854604080517faeb9753b000000000000000000000000000000000000000000000000000000008152600160a060020a03868116600483015260248201869052604482018590529151600093929092169163aeb9753b9160648082019260209290919082900301818787803b15801561378e57600080fd5b6000610bf88383600660009054906101000a9004600160a060020a0316600160a060020a0316637ff8b20e6040518163ffffffff1660e060020a028152600401602060405180830381600087803b15801561405757600080fd5b505af115801561406b573d6000803e3d6000fd5b505050506040513d602081101561408157600080fd5b5051612773565b600054600160a060020a0316331461409f57600080fd5b600160a060020a03811615156140b457600080fd5b600a8054600160a060020a031916600160a060020a0392909216919091179055565b6000818152600160208190526040822001548190156140f457600080fd5b600660009054906101000a9004600160a060020a0316600160a060020a0316637ff8b20e6040518163ffffffff1660e060020a028152600401602060405180830381600087803b15801561414757600080fd5b505af115801561415b573d6000803e3d6000fd5b505050506040513d602081101561417157600080fd5b5051604080518082018252338082526020808301858152600089815260019283905285812094518554600160a060020a031916600160a060020a03918216178655915194830194909455600280549283018082559085527f405787fa12a823e0f2b7631cc41b3ba8828b3321ca811111fa75cd3aa3bb5ace90920189905560075485517fbe44d6f9000000000000000000000000000000000000000000000000000000008152600481018b905260248101949094529451959750909550929092169263be44d6f992604480820193929182900301818387803b15801561425657600080fd5b505af115801561426a573d6000803e3d6000fd5b5050600754604080517f94e6f5b9000000000000000000000000000000000000000000000000000000008152336004820152602481018890529051600160a060020a0390921693506394e6f5b992506044808201926020929091908290030181600087803b1580156142db57600080fd5b505af11580156142ef573d6000803e3d6000fd5b505050506040513d602081101561430557600080fd5b5051151561430f57fe5b60408051838152602081018390528151339286927f6bffea36ac098b5dc12e6277eb4ebcc6aa8baa9c1f4534aa3594ab56844a1acb929081900390910190a3505050565b606060028054806020026020016040519081016040528092919081815260200182805480156143a257602002820191906000526020600020905b8154815260019091019060200180831161438d575b5050505050905090565b60008115156143ba57600080fd5b5060009081526003602052604090205490565b60008181526001602081905260408220015415156143ea57600080fd5b50600090815260016020526040902054600160a060020a031690565b600054600160a060020a0316331461441d57600080fd5b61442681614429565b50565b600160a060020a038116151561443e57600080fd5b60008054604051600160a060020a03808516939216917f8be0079c531659141344cd1fd0a4f28419497f9722a3daafe3b4186f6b6457e091a360008054600160a060020a031916600160a060020a03929092169190911790555600a165627a7a72305820146ed0900dde8fb28cf7d18d501e02f5722b0da7bdc9685bdbe4e67b13acdaea0029",
  "source": "pragma solidity ^0.4.24;\n\nimport \"./Deck.sol\";\nimport \"./Utility.sol\";\nimport \"./AuthorPool.sol\";\nimport \"./CuratorPool.sol\";\nimport \"openzeppelin-solidity/contracts/ownership/Ownable.sol\";\n\ncontract DocumentReg is Ownable {\n\n  event _InitializeDocumentReg(uint timestamp, address token);\n  event _RegisterNewDocument(bytes32 indexed docId, uint timestamp, address indexed applicant, uint count);\n  event _UpdateDocument(bytes32 indexed docId, uint timestamp, address indexed applicant);\n  event _ConfirmPageView(bytes32 indexed docId, uint timestamp, uint pageView);\n  event _ConfirmTotalPageView(uint timestamp, uint pageView, uint pageViewSquare);\n  event _VoteOnDocument(bytes32 indexed docId, uint deposit, address indexed applicant);\n  event _UpdateVoteOnDocument(bytes32 indexed docId, uint deposit, address indexed applicant, uint timestamp);\n  event _ClaimAuthorReward(bytes32 indexed docId, uint reward, address indexed applicant);\n  event _ClaimCuratorReward(bytes32 indexed docId, uint reward, address indexed applicant);\n\n  struct Document {\n    address author;\n    uint createTime;\n    mapping (uint => uint) pageViews; // date => page views\n  }\n\n  // maps document id to associated document data\n  mapping (bytes32 => Document) internal map;\n\n  // key list for iteration\n  bytes32[] private docList;\n\n  // store total page view square for reward calculation\n  //  : timestamp(yyyy-mm-dd) => daily total page view square\n  mapping (uint => uint) private totalPageView;\n  mapping (uint => uint) private totalPageViewSquare;\n\n  // private variables\n  Deck private token;\n  Utility private util;\n  AuthorPool private authorPool;\n  CuratorPool private curatorPool;\n\n  // public variables\n  uint public createTime;\n  address private foundation;\n\n  // --------------------------------------------\n  // Initialize the Document Registry Contract\n  // --------------------------------------------\n\n  function init(address _token, address _author, address _curator, address _utility) public\n    onlyOwner()\n  {\n\n    require(_token != 0 && address(token) == 0);\n    require(_author != 0 && address(authorPool) == 0);\n    require(_curator != 0 && address(curatorPool) == 0);\n    require(_utility != 0 && address(util) == 0);\n\n    token = Deck(_token);\n    util = Utility(_utility);\n\n    // first set foundation as contract owner\n    foundation = msg.sender;\n\n    // init author pool\n    authorPool = AuthorPool(_author);\n    authorPool.init(token, util);\n\n    // init curator pool\n    curatorPool = CuratorPool(_curator);\n    curatorPool.init(token, util);\n\n    createTime = util.getTimeMillis();\n    emit _InitializeDocumentReg(createTime, _token);\n  }\n\n  function setFoundation(address _foundation) public\n    onlyOwner()\n  {\n    require(_foundation != 0);\n    foundation = _foundation;\n  }\n\n  // -------------------------------\n  // Document Registry Functions\n  // -------------------------------\n\n  // register a new document\n  function register(bytes32 _docId) public {\n\n    require(map[_docId].createTime == 0); // register once\n\n    uint tMillis = util.getDateMillis();\n\n    // adding to document registry\n    map[_docId] = Document(msg.sender, tMillis);\n    uint index = docList.push(_docId);\n\n    // creating user document mapping\n    authorPool.registerUserDocument(_docId, msg.sender);\n    assert(authorPool.containsUserDocument(msg.sender, _docId));\n\n    emit _RegisterNewDocument(_docId, tMillis, msg.sender, index);\n  }\n\n  function update(address _addr, bytes32 _docId, uint _timestamp) public\n    onlyOwner()\n  {\n    // updating to document registry\n    if (map[_docId].createTime == 0) {\n      docList.push(_docId);\n    }\n    map[_docId] = Document(_addr, _timestamp);\n\n    // creating user document mapping\n    authorPool.updateUserDocument(_docId, _addr, _timestamp);\n\n    emit _UpdateDocument(_docId, _timestamp, _addr);\n  }\n\n  function contains(bytes32 _docId) public view returns (bool) {\n    return map[_docId].createTime != 0;\n  }\n\n  function getAuthorByKey(bytes32 _docId) public view returns (address) {\n    require(map[_docId].createTime != 0);\n    return map[_docId].author;\n  }\n\n  function getCreateTimeByKey(bytes32 _docId) public view returns (uint) {\n    require(map[_docId].createTime != 0);\n    return map[_docId].createTime;\n  }\n\n  function count() public view returns (uint) {\n    return uint(docList.length);\n  }\n\n  // document list for iteration\n  function getDocuments() public view returns (bytes32[]) {\n    return docList;\n  }\n\n  function getTotalPageView(uint _date) public view returns (uint) {\n    require(_date != 0);\n    return totalPageView[_date];\n  }\n\n  function getTotalPageViewSquare(uint _date) public view returns (uint) {\n    require(_date != 0);\n    return totalPageViewSquare[_date];\n  }\n\n  // -------------------------------\n  // Daily Page View Functions\n  // -------------------------------\n  function confirmPageView(bytes32 _docId, uint _date, uint _pageView) public\n  {\n    require(msg.sender == foundation);\n    require(map[_docId].createTime != 0);\n\n    Document storage doc = map[_docId];\n\n    if (doc.pageViews[_date] > 0) {\n      totalPageView[_date] -= doc.pageViews[_date];\n      totalPageViewSquare[_date] -= (doc.pageViews[_date] ** 2);\n\n      emit _ConfirmTotalPageView(_date, totalPageView[_date], totalPageViewSquare[_date]);\n    }\n\n    doc.pageViews[_date] = _pageView;\n    totalPageView[_date] += _pageView;\n    totalPageViewSquare[_date] += (_pageView ** 2);\n\n    emit _ConfirmPageView(_docId, _date, _pageView);\n    emit _ConfirmTotalPageView(_date, totalPageView[_date], totalPageViewSquare[_date]);\n  }\n\n  function getPageView(bytes32 _docId, uint _date) public view returns (uint) {\n    require(map[_docId].createTime != 0);\n    return map[_docId].pageViews[_date];\n  }\n\n  // -------------------------------\n  // Determine author reward after last claim\n  // -------------------------------\n  function determineAuthorReward(address _addr, bytes32 _docId) public view returns (uint) {\n\n    require(_addr != 0);\n    require(authorPool.createTime() != 0);\n    int idx = authorPool.getUserDocumentIndex(_addr, _docId);\n    if (idx < 0) {\n      return uint(0);\n    }\n\n    uint sumReward = 0;\n    uint claimDate = authorPool.getUserDocumentLastClaimedDate(_addr, uint(idx));\n    while (claimDate < util.getDateMillis()) {\n      if (claimDate == 0) {\n        claimDate = authorPool.getUserDocumentListedDate(_addr, uint(idx));\n      }\n      //assert(claimDate <= util.getDateMillis());\n      uint tpv = getTotalPageView(claimDate);\n      uint pv = getPageView(_docId, claimDate);\n      sumReward += authorPool.determineReward(pv, tpv, claimDate);\n\n      uint nextDate = claimDate + util.getOneDayMillis();\n      assert(claimDate < nextDate);\n      claimDate = nextDate;\n    }\n\n    return sumReward;\n  }\n\n  function calculateAuthorReward(uint _pv, uint _tpv) public view returns (uint) {\n    return authorPool.determineReward(_pv, _tpv, util.getDateMillis());\n  }\n\n  // -------------------------------\n  // Claim author reward\n  // -------------------------------\n  function claimAuthorReward(bytes32 _docId) public {\n    require(msg.sender != 0);\n    require(authorPool.createTime() != 0);\n    int idx = authorPool.getUserDocumentIndex(msg.sender, _docId);\n    if (idx < 0) {\n      return;\n    }\n\n    emit _ClaimAuthorReward(_docId, uint(idx), msg.sender);\n    uint claimDate = authorPool.getUserDocumentLastClaimedDate(msg.sender, uint(idx));\n    emit _ClaimAuthorReward(_docId, claimDate, msg.sender);\n    uint dateMillis = util.getDateMillis();\n\n    uint sumReward = 0;\n    while (claimDate < dateMillis) {\n      if (claimDate == 0) {\n        claimDate = authorPool.getUserDocumentListedDate(msg.sender, uint(idx));\n      }\n      assert(claimDate <= dateMillis);\n\n      uint tpv = getTotalPageView(claimDate);\n      uint pv = getPageView(_docId, claimDate);\n      sumReward += authorPool.determineReward(pv, tpv, claimDate);\n\n      uint nextDate = claimDate + util.getOneDayMillis();\n      assert(nextDate > claimDate);\n      claimDate = nextDate;\n    }\n\n    token.transfer(msg.sender, sumReward);\n    authorPool.withdraw(msg.sender, uint(idx), sumReward, claimDate);\n\n    emit _ClaimAuthorReward(_docId, sumReward, msg.sender);\n  }\n\n  // -------------------------------\n  // Determine curator reward after last claim\n  // -------------------------------\n  function determineCuratorReward(bytes32 _docId) public view returns (uint) {\n\n    // validation check\n    require(curatorPool.createTime() != 0);\n\n    uint numVotes = 0;\n    int idx = curatorPool.indexOfNextVoteForClaim(msg.sender, _docId, uint(0));\n    while(idx >= 0)\n    {\n      numVotes++;\n      idx = curatorPool.indexOfNextVoteForClaim(msg.sender, _docId, uint(idx));\n    }\n\n    uint reward = 0;\n    idx = curatorPool.indexOfNextVoteForClaim(msg.sender, _docId, uint(0));\n    for(uint i=0; i<numVotes; i++)\n    {\n      uint dt = curatorPool.getStartDateByAddr(msg.sender, uint(idx));\n      for (uint j=0; j<util.getVoteDepositDays(); j++) {\n        uint pv = getPageView(_docId, dt);\n        uint tpvs = getTotalPageViewSquare(dt);\n        reward += curatorPool.determineReward(msg.sender, uint(idx), dt, pv, tpvs);\n        dt += util.getOneDayMillis();\n      }\n      idx = curatorPool.indexOfNextVoteForClaim(msg.sender, _docId, uint(idx));\n    }\n\n    return reward;\n  }\n\n  function calculateCuratorReward(address _addr, bytes32 _docId, uint _pv, uint _tpvs) public view returns (uint) {\n\n    uint numVotes = curatorPool.getVoteCountByAddr(_addr);\n    if (numVotes == 0) {\n      return uint(0);\n    }\n\n    uint reward = 0;\n    uint dateMillis = util.getDateMillis();\n    for (uint i=0; i<numVotes; i++) {\n      if ((curatorPool.getDocIdByAddr(_addr, i) == _docId)\n       && (dateMillis - curatorPool.getStartDateByAddr(_addr, i) < util.getVoteDepositMillis())) {\n        reward += curatorPool.determineReward(_addr, i, dateMillis, _pv, _tpvs);\n      }\n    }\n    return reward;\n  }\n\n  // -------------------------------\n  // Claim curator reward\n  // -------------------------------\n  function claimCuratorReward(bytes32 _docId) public {\n\n    // validation check\n    require(curatorPool.createTime() != 0);\n\n    // 1. Going around the full vote list of the curator\n    //  a. Select only the votes for the specified docuemnt\n    //  b. Exclude votes that have already been withdrawn\n    //  c. Check whether voting period expired since start date (can be claimed)\n    uint numVotes = 0;\n    int idx = curatorPool.indexOfNextVoteForClaim(msg.sender, _docId, uint(0));\n    while(idx >= 0)\n    {\n      numVotes++;\n      idx = curatorPool.indexOfNextVoteForClaim(msg.sender, _docId, uint(idx));\n    }\n    if (numVotes == 0) {\n      return;\n    }\n\n    // 2. Calculate total reward based on the list from step #1\n    //  a. The token amount is based on 18 decimals by default\n    //  b. Calculate daily reward by page views from start date for deposit days\n    //  c. Determine the final amount of the sum of the daily compensation and deposit\n    uint reward = 0;\n    uint[] memory voteList = new uint[](numVotes);\n    uint[] memory deltaList = new uint[](numVotes);\n    idx = curatorPool.indexOfNextVoteForClaim(msg.sender, _docId, uint(0));\n    for(uint i=0; i<numVotes; i++)\n    {\n      uint delta = 0;\n      uint dt = curatorPool.getStartDateByAddr(msg.sender, uint(idx));\n      for (uint j=0; j<util.getVoteDepositDays(); j++) {\n        uint pv = getPageView(_docId, dt);\n        uint tpvs = getTotalPageViewSquare(dt);\n        delta += curatorPool.determineReward(msg.sender, uint(idx), dt, pv, tpvs);\n        dt += util.getOneDayMillis();\n      }\n      reward += delta;\n      reward += curatorPool.getDepositByAddr(msg.sender, uint(idx));\n      voteList[i] = uint(idx);\n      deltaList[i] = delta;\n      idx = curatorPool.indexOfNextVoteForClaim(msg.sender, _docId, uint(idx));\n    }\n\n    // 3. Transfer the determined reward from the this contract to the user account\n    token.transfer(msg.sender, reward);\n\n\n    // 4. Record the amount of reward in the withdrawn votes\n    for (i=0; i<voteList.length; i++) {\n      curatorPool.withdraw(msg.sender, voteList[i], deltaList[i]);\n    }\n\n    emit _ClaimCuratorReward(_docId, reward, msg.sender);\n  }\n\n  // -------------------------------\n  // Voting for curators\n  // -------------------------------\n  function voteOnDocument(bytes32 _docId, uint _deposit) public {\n\n    require(_deposit > 0);\n    require(curatorPool.createTime() != 0);\n\n    token.transferFrom(msg.sender, address(this), _deposit);\n    curatorPool.addVote(msg.sender, _docId, _deposit);\n\n    emit _VoteOnDocument(_docId, _deposit, msg.sender);\n  }\n\n  function updateVoteOnDocument(address _addr, bytes32 _docId, uint _deposit, uint _dateMillis) public\n    onlyOwner()\n  {\n    require(_deposit > 0);\n    require(curatorPool.createTime() != 0);\n\n    curatorPool.updateVote(_addr, _docId, _deposit, _dateMillis);\n    emit _UpdateVoteOnDocument(_docId, _deposit, _addr, _dateMillis);\n  }\n\n  // -------------------------------\n  // KPI Query functions\n  // -------------------------------\n\n  // Get total amount of deposited tokens on the document\n  // _docId : target document id\n  // _dateMillis : find the amount of deposited tokens based on this date in milliseconds (eg. YYYY-MM-dd 00:00:00.000)\n  function getCuratorDepositOnDocument(bytes32 _docId, uint _dateMillis) public view returns (uint) {\n    return curatorPool.getSumDepositByDoc(_docId, _dateMillis);\n  }\n\n  // Get a curator's amount of deposited tokens on the document\n  // _addr : the EOA of the curator\n  // _docId : target document id\n  // _dateMillis : find the amount of deposited tokens based on this date in milliseconds (eg. YYYY-MM-dd 00:00:00.000)\n  function getCuratorDepositOnUserDocument(address _addr, bytes32 _docId, uint _dateMillis) public view returns (uint) {\n    return curatorPool.getSumDepositByAddr(_addr, _docId, _dateMillis);\n  }\n\n  // Get total amount of withdrawn curator reward tokens on the document\n  // _docId : target document id\n  // _dateMillis : find the amount of withdrawn tokens based on this date in milliseconds (eg. YYYY-MM-dd 00:00:00.000)\n  function getCuratorWithdrawOnDocument(bytes32 _docId, uint _dateMillis) public view returns (uint) {\n    return curatorPool.getSumWithdrawByDoc(_docId, _dateMillis);\n  }\n\n  // Get a curator's amount of withdrawn tokens on the document\n  // _addr : the EOA of the curator\n  // _docId : target document id\n  // _dateMillis : find the amount of withdrawn tokens based on this date in milliseconds (eg. YYYY-MM-dd 00:00:00.000)\n  function getCuratorWithdrawOnUserDocument(address _addr, bytes32 _docId, uint _dateMillis) public view returns (uint) {\n    return curatorPool.getSumWithdrawByAddr(_addr, _docId, _dateMillis);\n  }\n\n  // Get a curator's amount of estimated reward on the document for last 3 days from a date\n  // _addr : the EOA of the curator\n  // _docId : target document id\n  // _dateMillis : find the amount of estimated reward based on this date in milliseconds (eg. YYYY-MM-dd 00:00:00.000)\n  function getCurator3DayRewardOnUserDocument(address _addr, bytes32 _docId, uint _dateMillis) public view returns (uint) {\n\n    uint numVotes = curatorPool.getVoteCountByAddr(_addr);\n    if (numVotes == 0) {\n      return uint(0);\n    }\n\n    uint reward = 0;\n    for (uint i=0; i<numVotes; i++) {\n      if (curatorPool.getDocIdByAddr(_addr, i) == _docId) {\n        uint dt = curatorPool.getStartDateByAddr(_addr, i);\n        for (uint j=0; j<util.getVoteDepositDays(); j++) {\n          if (_dateMillis == 0 || (_dateMillis >= dt && _dateMillis - dt <= util.getOneDayMillis() * 3)) {\n            uint pv = getPageView(_docId, dt);\n            uint tpvs = getTotalPageViewSquare(dt);\n            reward += curatorPool.determineReward(_addr, i, dt, pv, tpvs);\n          }\n          dt += util.getOneDayMillis();\n        }\n      }\n    }\n    return reward;\n  }\n\n  // Get a curator's amount of estimated reward on the document for last 3 days\n  // _addr : the EOA of the curator\n  // _docId : target document id\n  function getCurator3DayRewardOnUserDocument(address _addr, bytes32 _docId) public view returns (uint) {\n    return getCurator3DayRewardOnUserDocument(_addr, _docId, util.getDateMillis());\n  }\n\n  // Get a curator's total amount of reward on the document\n  // _addr : the EOA of the curator\n  // _docId : target document id\n  function getCuratorRewardOnUserDocument(address _addr, bytes32 _docId) public view returns (uint) {\n    return getCurator3DayRewardOnUserDocument(_addr, _docId, 0);\n  }\n\n  // Get total amount of estimated curator reward on the document\n  // _docId : target document id\n  function getCuratorRewardOnDocument(bytes32 _docId) public view returns (uint) {\n    return getCurator3DayRewardOnDocument(_docId, 0);\n  }\n\n  // Get total amount of estimated curator reward on the document for last 3 days\n  // _docId : target document id\n  function getCurator3DayRewardOnDocument(bytes32 _docId) public view returns (uint) {\n    return getCurator3DayRewardOnDocument(_docId, util.getDateMillis());\n  }\n\n  // Get total amount of estimated curator reward on the document from a date\n  // _docId : target document id\n  // _dateMillis : find the amount of estimated reward based on this date in milliseconds (eg. YYYY-MM-dd 00:00:00.000)\n  function getCurator3DayRewardOnDocument(bytes32 _docId, uint _dateMillis) public view returns (uint) {\n\n    uint numVotes = curatorPool.getVoteCountByDoc(_docId);\n    if (numVotes == 0) {\n      return uint(0);\n    }\n\n    uint reward = 0;\n    for (uint i=0; i<numVotes; i++) {\n      uint dt = curatorPool.getStartDateByDoc(_docId, i);\n      for (uint j=0; j<util.getVoteDepositDays(); j++) {\n        if (_dateMillis == 0 || (_dateMillis >= dt && _dateMillis - dt <= util.getOneDayMillis() * 3)) {\n          uint pv = getPageView(_docId, dt);\n          uint tpvs = getTotalPageViewSquare(dt);\n          reward += curatorPool.getRewardByDoc(_docId, i, dt, pv, tpvs);\n        }\n        dt += util.getOneDayMillis();\n      }\n    }\n    return reward;\n  }\n\n  // Get a author's total amount of reward withdrawn from the document\n  // _addr : the EOA of the curator\n  // _docId : target document id\n  function getAuthorWithdrawOnUserDocument(address _addr, bytes32 _docId) public view returns (uint) {\n    return authorPool.getUserDocumentWithdraw(_addr, _docId);\n  }\n\n  // Get a author's amount of estimated reward on the document\n  // _addr : the EOA of the curator\n  // _docId : target document id\n  function getAuthorRewardOnDocument(address _addr, bytes32 _docId) public view returns (uint) {\n    return getAuthor3DayRewardOnDocument(_addr, _docId, 0);\n  }\n\n  // Get a author's amount of estimated reward on the document for last 3 days\n  // _addr : the EOA of the curator\n  // _docId : target document id\n  function getAuthor3DayRewardOnDocument(address _addr, bytes32 _docId) public view returns (uint) {\n    return getAuthor3DayRewardOnDocument(_addr, _docId, util.getDateMillis());\n  }\n\n  // Get a author's amount of estimated reward on the document for last 3 days from a date\n  // _addr : the EOA of the curator\n  // _docId : target document id\n  // _dateMillis : find the amount of estimated reward based on this date in milliseconds (eg. YYYY-MM-dd 00:00:00.000)\n  function getAuthor3DayRewardOnDocument(address _addr, bytes32 _docId, uint _dateMillis) public view returns (uint) {\n\n    int idx = authorPool.getUserDocumentIndex(_addr, _docId);\n    if (idx < 0) {\n      return uint(0);\n    }\n\n    uint sumReward = 0;\n    uint nextDate = authorPool.getUserDocumentListedDate(_addr, uint(idx));\n    uint endDate = util.getDateMillis();\n\n    // when _dateMillis == 0, from listed date to today\n    if (_dateMillis != 0) {\n      endDate = _dateMillis;\n    }\n\n    while (nextDate <= endDate) {\n      if (endDate - nextDate <= util.getOneDayMillis() * 3) {\n        uint tpv = getTotalPageView(nextDate);\n        uint pv = getPageView(_docId, nextDate);\n        sumReward += authorPool.determineReward(pv, tpv, nextDate);\n      }\n      assert(nextDate < nextDate + util.getOneDayMillis());\n      nextDate += util.getOneDayMillis();\n    }\n    return sumReward;\n  }\n\n\n}\n",
  "sourcePath": "/Users/centroine/Documents/github/bluebottle/contracts/DocumentReg.sol",
  "compiler": {
    "name": "solc",
    "version": "0.4.24+commit.e67f0147.Emscripten.clang"
  },
  "schemaVersion": "2.0.1",
  "updatedAt": "2018-10-30T10:36:17.019Z"
}