{
  "contractName": "DocumentRegistry",
  "abi": [
    {
      "constant": false,
      "inputs": [],
      "name": "renounceOwnership",
      "outputs": [],
      "payable": false,
      "stateMutability": "nonpayable",
      "type": "function",
      "signature": "0x715018a6"
    },
    {
      "constant": true,
      "inputs": [],
      "name": "owner",
      "outputs": [
        {
          "name": "",
          "type": "address"
        }
      ],
      "payable": false,
      "stateMutability": "view",
      "type": "function",
      "signature": "0x8da5cb5b"
    },
    {
      "constant": true,
      "inputs": [],
      "name": "_dateMillis",
      "outputs": [
        {
          "name": "",
          "type": "uint256"
        }
      ],
      "payable": false,
      "stateMutability": "view",
      "type": "function",
      "signature": "0x96d88291"
    },
    {
      "constant": false,
      "inputs": [
        {
          "name": "newOwner",
          "type": "address"
        }
      ],
      "name": "transferOwnership",
      "outputs": [],
      "payable": false,
      "stateMutability": "nonpayable",
      "type": "function",
      "signature": "0xf2fde38b"
    },
    {
      "anonymous": false,
      "inputs": [
        {
          "indexed": false,
          "name": "docId",
          "type": "bytes32"
        },
        {
          "indexed": false,
          "name": "createTime",
          "type": "uint256"
        },
        {
          "indexed": false,
          "name": "owner",
          "type": "address"
        }
      ],
      "name": "RegisterDocument",
      "type": "event",
      "signature": "0x7d53f24d1ff3011dffd29e0a61b0a624767b1efa398463bfe05e7b16de934adb"
    },
    {
      "anonymous": false,
      "inputs": [
        {
          "indexed": false,
          "name": "docId",
          "type": "bytes32"
        },
        {
          "indexed": false,
          "name": "createTime",
          "type": "uint256"
        },
        {
          "indexed": false,
          "name": "lastClaimedDate",
          "type": "uint256"
        },
        {
          "indexed": false,
          "name": "withdraw",
          "type": "uint256"
        }
      ],
      "name": "UpdateDocument",
      "type": "event",
      "signature": "0x21b75f98a962a80fe9c551ce97f0e0c7db0b8fe4598923244f6f4553f13c71ee"
    },
    {
      "anonymous": false,
      "inputs": [
        {
          "indexed": false,
          "name": "docId",
          "type": "bytes32"
        },
        {
          "indexed": false,
          "name": "claimedDate",
          "type": "uint256"
        },
        {
          "indexed": false,
          "name": "amount",
          "type": "uint256"
        }
      ],
      "name": "Withdraw",
      "type": "event",
      "signature": "0xcaa03f03cdee1c04d0a939a3664af76dafeb30903f32620a78e7c7cafa15202b"
    },
    {
      "anonymous": false,
      "inputs": [
        {
          "indexed": false,
          "name": "docId",
          "type": "bytes32"
        },
        {
          "indexed": false,
          "name": "dateMillis",
          "type": "uint256"
        },
        {
          "indexed": false,
          "name": "pv",
          "type": "uint256"
        }
      ],
      "name": "PutPageView",
      "type": "event",
      "signature": "0xbad8ff34169c72945edda01a8894cf1e9d95d670e3d9da4630a39636ea7faeda"
    },
    {
      "anonymous": false,
      "inputs": [
        {
          "indexed": false,
          "name": "docId",
          "type": "bytes32"
        },
        {
          "indexed": false,
          "name": "dateMillis",
          "type": "uint256"
        }
      ],
      "name": "DelPageView",
      "type": "event",
      "signature": "0xc8abecf6b239d58bf64c0dc9cce878f12fb995c31e9f7f468a5fa9cf05690903"
    },
    {
      "anonymous": false,
      "inputs": [
        {
          "indexed": true,
          "name": "previousOwner",
          "type": "address"
        },
        {
          "indexed": true,
          "name": "newOwner",
          "type": "address"
        }
      ],
      "name": "OwnershipTransferred",
      "type": "event",
      "signature": "0x8be0079c531659141344cd1fd0a4f28419497f9722a3daafe3b4186f6b6457e0"
    },
    {
      "constant": false,
      "inputs": [
        {
          "name": "dateMillis",
          "type": "uint256"
        }
      ],
      "name": "setDateMillis",
      "outputs": [],
      "payable": false,
      "stateMutability": "nonpayable",
      "type": "function",
      "signature": "0x8b4c9129"
    },
    {
      "constant": false,
      "inputs": [
        {
          "name": "addr",
          "type": "address"
        }
      ],
      "name": "setRewardPool",
      "outputs": [],
      "payable": false,
      "stateMutability": "nonpayable",
      "type": "function",
      "signature": "0x78238c37"
    },
    {
      "constant": false,
      "inputs": [
        {
          "name": "addr",
          "type": "address"
        }
      ],
      "name": "setCreator",
      "outputs": [],
      "payable": false,
      "stateMutability": "nonpayable",
      "type": "function",
      "signature": "0x3f516018"
    },
    {
      "constant": false,
      "inputs": [
        {
          "name": "addr",
          "type": "address"
        }
      ],
      "name": "setFoundation",
      "outputs": [],
      "payable": false,
      "stateMutability": "nonpayable",
      "type": "function",
      "signature": "0xdb3543f5"
    },
    {
      "constant": false,
      "inputs": [
        {
          "name": "owner",
          "type": "address"
        },
        {
          "name": "docId",
          "type": "bytes32"
        }
      ],
      "name": "register",
      "outputs": [],
      "payable": false,
      "stateMutability": "nonpayable",
      "type": "function",
      "signature": "0x1e7a505f"
    },
    {
      "constant": false,
      "inputs": [
        {
          "name": "docId",
          "type": "bytes32"
        },
        {
          "name": "claimedDate",
          "type": "uint256"
        },
        {
          "name": "withdraw",
          "type": "uint256"
        }
      ],
      "name": "updateWithdraw",
      "outputs": [],
      "payable": false,
      "stateMutability": "nonpayable",
      "type": "function",
      "signature": "0x0f9f6840"
    },
    {
      "constant": true,
      "inputs": [
        {
          "name": "owner",
          "type": "address"
        }
      ],
      "name": "getDocuments",
      "outputs": [
        {
          "name": "",
          "type": "bytes32[]"
        }
      ],
      "payable": false,
      "stateMutability": "view",
      "type": "function",
      "signature": "0x27f50a2d"
    },
    {
      "constant": true,
      "inputs": [
        {
          "name": "owner",
          "type": "address"
        },
        {
          "name": "docId",
          "type": "bytes32"
        }
      ],
      "name": "isOwner",
      "outputs": [
        {
          "name": "",
          "type": "bool"
        }
      ],
      "payable": false,
      "stateMutability": "view",
      "type": "function",
      "signature": "0xe96b462a"
    },
    {
      "constant": true,
      "inputs": [],
      "name": "isOwner",
      "outputs": [
        {
          "name": "",
          "type": "bool"
        }
      ],
      "payable": false,
      "stateMutability": "view",
      "type": "function",
      "signature": "0x8f32d59b"
    },
    {
      "constant": false,
      "inputs": [
        {
          "name": "owner",
          "type": "address"
        },
        {
          "name": "docId",
          "type": "bytes32"
        },
        {
          "name": "dt",
          "type": "uint256"
        },
        {
          "name": "lastClaimedDate",
          "type": "uint256"
        },
        {
          "name": "withdraw",
          "type": "uint256"
        }
      ],
      "name": "update",
      "outputs": [],
      "payable": false,
      "stateMutability": "nonpayable",
      "type": "function",
      "signature": "0xee248193"
    },
    {
      "constant": true,
      "inputs": [],
      "name": "count",
      "outputs": [
        {
          "name": "",
          "type": "uint256"
        }
      ],
      "payable": false,
      "stateMutability": "view",
      "type": "function",
      "signature": "0x06661abd"
    },
    {
      "constant": true,
      "inputs": [],
      "name": "getDateMillis",
      "outputs": [
        {
          "name": "",
          "type": "uint256"
        }
      ],
      "payable": false,
      "stateMutability": "view",
      "type": "function",
      "signature": "0x7ff8b20e"
    },
    {
      "constant": true,
      "inputs": [
        {
          "name": "docId",
          "type": "bytes32"
        }
      ],
      "name": "getDocument",
      "outputs": [
        {
          "name": "",
          "type": "address"
        },
        {
          "name": "",
          "type": "uint256"
        },
        {
          "name": "",
          "type": "uint256"
        },
        {
          "name": "",
          "type": "uint256"
        }
      ],
      "payable": false,
      "stateMutability": "view",
      "type": "function",
      "signature": "0xb10d6b41"
    },
    {
      "constant": true,
      "inputs": [
        {
          "name": "docId",
          "type": "bytes32"
        }
      ],
      "name": "contains",
      "outputs": [
        {
          "name": "",
          "type": "bool"
        }
      ],
      "payable": false,
      "stateMutability": "view",
      "type": "function",
      "signature": "0x1d1a696d"
    },
    {
      "constant": true,
      "inputs": [],
      "name": "getCreators",
      "outputs": [
        {
          "name": "",
          "type": "address[]"
        }
      ],
      "payable": false,
      "stateMutability": "view",
      "type": "function",
      "signature": "0xe6adc1ee"
    },
    {
      "constant": true,
      "inputs": [
        {
          "name": "dateMillis",
          "type": "uint256"
        }
      ],
      "name": "getTotalPageView",
      "outputs": [
        {
          "name": "",
          "type": "uint256"
        }
      ],
      "payable": false,
      "stateMutability": "view",
      "type": "function",
      "signature": "0xf26b4482"
    },
    {
      "constant": true,
      "inputs": [
        {
          "name": "dateMillis",
          "type": "uint256"
        }
      ],
      "name": "getTotalPageViewSquare",
      "outputs": [
        {
          "name": "",
          "type": "uint256"
        }
      ],
      "payable": false,
      "stateMutability": "view",
      "type": "function",
      "signature": "0x7ca36b94"
    },
    {
      "constant": true,
      "inputs": [
        {
          "name": "docId",
          "type": "bytes32"
        },
        {
          "name": "dateMillis",
          "type": "uint256"
        }
      ],
      "name": "getPageView",
      "outputs": [
        {
          "name": "",
          "type": "uint256"
        }
      ],
      "payable": false,
      "stateMutability": "view",
      "type": "function",
      "signature": "0x4c9d31ca"
    },
    {
      "constant": false,
      "inputs": [
        {
          "name": "docId",
          "type": "bytes32"
        },
        {
          "name": "dateMillis",
          "type": "uint256"
        },
        {
          "name": "pv",
          "type": "uint256"
        }
      ],
      "name": "setPageView",
      "outputs": [],
      "payable": false,
      "stateMutability": "nonpayable",
      "type": "function",
      "signature": "0xac627286"
    },
    {
      "constant": false,
      "inputs": [
        {
          "name": "docId",
          "type": "bytes32"
        },
        {
          "name": "dateMillis",
          "type": "uint256"
        },
        {
          "name": "pv",
          "type": "uint256"
        }
      ],
      "name": "updatePageView",
      "outputs": [],
      "payable": false,
      "stateMutability": "nonpayable",
      "type": "function",
      "signature": "0x287ccff0"
    },
    {
      "constant": false,
      "inputs": [
        {
          "name": "docId",
          "type": "bytes32"
        },
        {
          "name": "dateMillis",
          "type": "uint256"
        }
      ],
      "name": "deletePageView",
      "outputs": [],
      "payable": false,
      "stateMutability": "nonpayable",
      "type": "function",
      "signature": "0xa0643376"
    },
    {
      "constant": false,
      "inputs": [
        {
          "name": "dateMillis",
          "type": "uint256"
        },
        {
          "name": "docIds",
          "type": "bytes32[]"
        },
        {
          "name": "pvs",
          "type": "uint256[]"
        }
      ],
      "name": "updatePageViews",
      "outputs": [],
      "payable": false,
      "stateMutability": "nonpayable",
      "type": "function",
      "signature": "0xcb8c3296"
    }
  ],
  "bytecode": "0x6080604081905260008054600160a060020a0319163317808255600160a060020a0316917f8be0079c531659141344cd1fd0a4f28419497f9722a3daafe3b4186f6b6457e0908290a361135b806100576000396000f3fe6080604052600436106101535763ffffffff7c010000000000000000000000000000000000000000000000000000000060003504166306661abd81146101585780630f9f68401461017f5780631d1a696d146101b75780631e7a505f146101f557806327f50a2d1461022e578063287ccff0146102b15780633f516018146102e75780634c9d31ca1461031a578063715018a61461034a57806378238c371461035f5780637ca36b94146103925780637ff8b20e146103bc5780638b4c9129146103d15780638da5cb5b146103fb5780638f32d59b1461042c57806396d8829114610441578063a064337614610456578063ac62728614610486578063b10d6b41146104bc578063cb8c329614610516578063db3543f514610651578063e6adc1ee14610684578063e96b462a14610699578063ee248193146106d2578063f26b44821461071d578063f2fde38b14610747575b600080fd5b34801561016457600080fd5b5061016d61077a565b60408051918252519081900360200190f35b34801561018b57600080fd5b506101b5600480360360608110156101a257600080fd5b5080359060208101359060400135610781565b005b3480156101c357600080fd5b506101e1600480360360208110156101da57600080fd5b503561081a565b604080519115158252519081900360200190f35b34801561020157600080fd5b506101b56004803603604081101561021857600080fd5b50600160a060020a038135169060200135610830565b34801561023a57600080fd5b506102616004803603602081101561025157600080fd5b5035600160a060020a0316610a5e565b60408051602080825283518183015283519192839290830191858101910280838360005b8381101561029d578181015183820152602001610285565b505050509050019250505060405180910390f35b3480156102bd57600080fd5b506101b5600480360360608110156102d457600080fd5b5080359060208101359060400135610aca565b3480156102f357600080fd5b506101b56004803603602081101561030a57600080fd5b5035600160a060020a0316610afb565b34801561032657600080fd5b5061016d6004803603604081101561033d57600080fd5b5080359060200135610b42565b34801561035657600080fd5b506101b5610b81565b34801561036b57600080fd5b506101b56004803603602081101561038257600080fd5b5035600160a060020a0316610bde565b34801561039e57600080fd5b5061016d600480360360208110156103b557600080fd5b5035610c26565b3480156103c857600080fd5b5061016d610c47565b3480156103dd57600080fd5b506101b5600480360360208110156103f457600080fd5b5035610c4d565b34801561040757600080fd5b50610410610c65565b60408051600160a060020a039092168252519081900360200190f35b34801561043857600080fd5b506101e1610c74565b34801561044d57600080fd5b5061016d610c85565b34801561046257600080fd5b506101b56004803603604081101561047957600080fd5b5080359060200135610c8b565b34801561049257600080fd5b506101b5600480360360608110156104a957600080fd5b5080359060208101359060400135610e2a565b3480156104c857600080fd5b506104e6600480360360208110156104df57600080fd5b5035610f4b565b60408051600160a060020a0390951685526020850193909352838301919091526060830152519081900360800190f35b34801561052257600080fd5b506101b56004803603606081101561053957600080fd5b8135919081019060408101602082013564010000000081111561055b57600080fd5b82018360208201111561056d57600080fd5b8035906020019184602083028401116401000000008311171561058f57600080fd5b91908080602002602001604051908101604052809392919081815260200183836020028082843760009201919091525092959493602081019350359150506401000000008111156105df57600080fd5b8201836020820111156105f157600080fd5b8035906020019184602083028401116401000000008311171561061357600080fd5b919080806020026020016040519081016040528093929190818152602001838360200280828437600092019190915250929550610fa5945050505050565b34801561065d57600080fd5b506101b56004803603602081101561067457600080fd5b5035600160a060020a0316611059565b34801561069057600080fd5b506102616110a1565b3480156106a557600080fd5b506101e1600480360360408110156106bc57600080fd5b50600160a060020a038135169060200135611103565b3480156106de57600080fd5b506101b5600480360360a08110156106f557600080fd5b50600160a060020a038135169060208101359060408101359060608101359060800135611135565b34801561072957600080fd5b5061016d6004803603602081101561074057600080fd5b5035611202565b34801561075357600080fd5b506101b56004803603602081101561076a57600080fd5b5035600160a060020a0316611223565b6002545b90565b600854600160a060020a0316331461079857600080fd5b6000838152600160208190526040909120015415156107b657600080fd5b60008381526001602090815260409182902060028101859055600301805484019055815185815290810184905280820183905290517fcaa03f03cdee1c04d0a939a3664af76dafeb30903f32620a78e7c7cafa15202b9181900360600190a1505050565b6000908152600160208190526040822001541190565b600954600160a060020a0316331461084757600080fd5b600a5460001061085657600080fd5b600081815260016020819052604090912001541561087357600080fd5b60a06040519081016040528083600160a060020a03168152602001610896610c47565b8152602001600081526020016000815260200160006040519080825280602002602001820160405280156108d4578160200160208202803883390190505b50905260008281526001602081815260409283902084518154600160a060020a031916600160a060020a0390911617815584820151928101929092559183015160028201556060830151600382015560808301518051919261093e926004850192909101906112aa565b505060028054600181019091557f405787fa12a823e0f2b7631cc41b3ba8828b3321ca811111fa75cd3aa3bb5ace0182905550600160a060020a03821660009081526003602052604090205415156109dc57600480546001810182556000919091527f8a35acfbc15ff81a39ae7d344fd709f28e8600b4aa8c65c6b64bfe7fe36bd19b018054600160a060020a031916600160a060020a0384161790555b600160a060020a03808316600090815260036020908152604080832080546001818101835591855283852001869055858452808352928190209283015492548151868152928301939093529190921682820152517f7d53f24d1ff3011dffd29e0a61b0a624767b1efa398463bfe05e7b16de934adb9181900360600190a15050565b600160a060020a038116600090815260036020908152604091829020805483518184028101840190945280845260609392830182828015610abe57602002820191906000526020600020905b815481526020019060010190808311610aaa575b50505050509050919050565b600754600160a060020a03163314610ae157600080fd5b610aeb8383610c8b565b610af6838383610e2a565b505050565b610b03610c74565b1515610b0e57600080fd5b600954600160a060020a03828116911614610b3f5760098054600160a060020a031916600160a060020a0383161790555b50565b6000828152600160208190526040822001548110610b5f57600080fd5b5060009182526001602090815260408084209284526005909201905290205490565b610b89610c74565b1515610b9457600080fd5b60008054604051600160a060020a03909116907f8be0079c531659141344cd1fd0a4f28419497f9722a3daafe3b4186f6b6457e0908390a360008054600160a060020a0319169055565b610be6610c74565b1515610bf157600080fd5b600854600160a060020a03828116911614610b3f5760088054600160a060020a038316600160a060020a031990911617905550565b6000811515610c3457600080fd5b5060009081526006602052604090205490565b600a5490565b610c55610c74565b1515610c6057600080fd5b600a55565b600054600160a060020a031690565b600054600160a060020a0316331490565b600a5481565b600754600160a060020a03163314610ca257600080fd5b600082815260016020819052604090912001541515610cc057600080fd5b60008281526001602090815260408083208484526005019091528120541115610e265760008281526001602081815260408084208585526005808201845282862080549185528387208054929092039091558054600685529286208054600290940a909303909255908301548685529290915260040180549192916000198101908110610d4957fe5b90600052602060002001549050806001600086815260200190815260200160002060040183815481101515610d7a57fe5b600091825260208083209091019290925585815260018083526040808320858452600581018552908320820186905591879052909152600401805490610dc49060001983016112f5565b506000848152600160208181526040808420878552600501825280842092830184905592909155815186815290810185905281517fc8abecf6b239d58bf64c0dc9cce878f12fb995c31e9f7f468a5fa9cf05690903929181900390910190a150505b5050565b600754600160a060020a03163314610e4157600080fd5b60008111610e4e57600080fd5b600083815260016020819052604090912001541515610e6c57600080fd5b600083815260016020908152604080832085845260050190915290205415610e9357600080fd5b6000838152600160208181526040808420868552600580820184528286208781556004909201805480870182559087528487208101899055888752919094015591815281832080548501905560069052902080546002830a019055600a548210610f06576305265c00808304810201600a555b604080518481526020810184905280820183905290517fbad8ff34169c72945edda01a8894cf1e9d95d670e3d9da4630a39636ea7faeda9181900360600190a1505050565b6000818152600160208190526040822001548190819081908110610f6e57600080fd5b5050506000918252506001602081905260409091208054918101546002820154600390920154600160a060020a0390931693909290565b600754600160a060020a03163314610fbc57600080fd5b60008311610fc957600080fd5b8151600010610fd757600080fd5b8051825114610fe557600080fd5b60005b825181101561105357611012838281518110151561100257fe5b9060200190602002015185610c8b565b61104b838281518110151561102357fe5b9060200190602002015185848481518110151561103c57fe5b90602001906020020151610e2a565b600101610fe8565b50505050565b611061610c74565b151561106c57600080fd5b600754600160a060020a03828116911614610b3f5760078054600160a060020a038316600160a060020a031990911617905550565b606060048054806020026020016040519081016040528092919081815260200182805480156110f957602002820191906000526020600020905b8154600160a060020a031681526001909101906020018083116110db575b5050505050905090565b600081815260016020526040812054600160a060020a0384811691161461112b57600061112e565b60015b9392505050565b600954600160a060020a0316331461114c57600080fd5b82151561115857600080fd5b60008481526001602081905260409091200154151561117657600080fd5b6000848152600160208181526040928390208054600160a060020a031916600160a060020a038a1617815591820186905560028201859055600390910183905581518681529081018590528082018490526060810183905290517f21b75f98a962a80fe9c551ce97f0e0c7db0b8fe4598923244f6f4553f13c71ee916080908290030190a15050505050565b600081151561121057600080fd5b5060009081526005602052604090205490565b61122b610c74565b151561123657600080fd5b610b3f81600160a060020a038116151561124f57600080fd5b60008054604051600160a060020a03808516939216917f8be0079c531659141344cd1fd0a4f28419497f9722a3daafe3b4186f6b6457e091a360008054600160a060020a031916600160a060020a0392909216919091179055565b8280548282559060005260206000209081019282156112e5579160200282015b828111156112e55782518255916020019190600101906112ca565b506112f1929150611315565b5090565b815481835581811115610af657600083815260209020610af69181019083015b61077e91905b808211156112f1576000815560010161131b56fea165627a7a72305820cf6a3b9713b5b754ae4f91e05f417246685e80ced630235c6de07663ee1457b10029",
  "source": "pragma solidity 0.5.0;\n\nimport \"openzeppelin-solidity/contracts/ownership/Ownable.sol\";\n\n\ncontract DocumentRegistry is Ownable {\n\n    event RegisterDocument(bytes32 docId, uint256 createTime, address owner);\n    event UpdateDocument(bytes32 docId, uint256 createTime, uint256 lastClaimedDate, uint256 withdraw);\n    event Withdraw(bytes32 docId, uint256 claimedDate, uint256 amount);\n    event PutPageView(bytes32 docId, uint256 dateMillis, uint256 pv);\n    event DelPageView(bytes32 docId, uint256 dateMillis);\n\n    struct PageView {\n        uint256 pv;\n        uint256 idx;\n    }\n\n    struct Document {\n        // registry\n        address owner;\n        uint createTime;\n        uint lastClaimedDate;\n        uint withdraw;\n        // page view\n        uint256[] pvIdx;\n        mapping (uint256 => PageView) pvMap; // date => { page views, index }\n    }\n\n    // maps doc id to a document\n    mapping (bytes32 => Document) internal _docByDocId;\n\n    // doc id list for iteration\n    bytes32[] internal _docIds;\n\n    // maps an address to the user's documents\n    mapping (address => bytes32[]) internal _docIdsByAddr;\n\n    // address list for iteration\n    address[] private _ownerAddrs;\n\n    // daily total page views\n    mapping (uint256 => uint256) private _tpvByDate;\n    mapping (uint256 => uint256) private _tpvsByDate;\n\n    // accessibility\n    address private _foundation;\n    address private _rewardPool;\n    address private _creator;\n\n    // current datetime in milliseconds\n    uint256 public _dateMillis;\n\n    function setDateMillis(uint256 dateMillis) external onlyOwner() {\n        _dateMillis = dateMillis;\n    }\n\n    function setRewardPool(address addr) external onlyOwner() {\n        if (addr != _rewardPool) {\n            _rewardPool = addr;\n        }\n    }\n\n    function setCreator(address addr) external onlyOwner() {\n        if (addr != _creator) {\n            _creator = addr;\n        }\n    }\n\n    function setFoundation(address addr) external onlyOwner() {\n        if (addr != _foundation) {\n            _foundation = addr;\n        }\n    }\n\n    function register(address owner, bytes32 docId) external {\n        require(msg.sender == _creator);\n        require(_dateMillis > 0);\n        require(_docByDocId[docId].createTime == 0); // register once\n\n        // adding to document registry\n        _docByDocId[docId] = Document({\n            owner: owner,\n            createTime: getDateMillis(), // current date in milliseconds\n            lastClaimedDate: 0,\n            withdraw: 0,\n            pvIdx: new uint256[](0)\n        });\n\n        _docIds.push(docId);\n\n        // add a new owner\n        if (_docIdsByAddr[owner].length == 0) {\n            _ownerAddrs.push(owner);\n        }\n\n        // adding to doc id list by owner\n        _docIdsByAddr[owner].push(docId);\n\n        emit RegisterDocument(docId, _docByDocId[docId].createTime, _docByDocId[docId].owner);\n    }\n\n    function updateWithdraw(bytes32 docId, uint256 claimedDate, uint256 withdraw) external {\n        require(msg.sender == _rewardPool);\n        require(_docByDocId[docId].createTime != 0);\n        _docByDocId[docId].lastClaimedDate = claimedDate;\n        _docByDocId[docId].withdraw += withdraw;\n        emit Withdraw(docId, claimedDate, withdraw);\n    }\n\n    function getDocuments(address owner) external view returns (bytes32[] memory) {\n        return _docIdsByAddr[owner];\n    }\n\n    function isOwner(address owner, bytes32 docId) external view returns (bool) {\n        return address(_docByDocId[docId].owner) == owner ? true : false;\n    }\n\n    function update(address owner, bytes32 docId, uint256 dt, uint256 lastClaimedDate, uint256 withdraw) public {\n        require(msg.sender == _creator);\n        require(dt != 0);\n        require(_docByDocId[docId].createTime != 0);\n\n        // adding to document registry\n        _docByDocId[docId].owner = owner;\n        _docByDocId[docId].createTime = dt;\n        _docByDocId[docId].lastClaimedDate = lastClaimedDate;\n        _docByDocId[docId].withdraw = withdraw;\n\n        emit UpdateDocument(docId, dt, lastClaimedDate, withdraw);\n    }\n\n    function count() public view returns (uint256) {\n        return _docIds.length;\n    }\n\n    function getDateMillis() public view returns (uint256) {\n        return _dateMillis;\n    }\n\n    function getDocument(bytes32 docId) public view returns (address, uint256, uint256, uint256) {\n        require(_docByDocId[docId].createTime > 0);\n        return (\n            _docByDocId[docId].owner,\n            _docByDocId[docId].createTime,\n            _docByDocId[docId].lastClaimedDate,\n            _docByDocId[docId].withdraw\n        );\n    }\n\n    function contains(bytes32 docId) public view returns (bool) {\n        return _docByDocId[docId].createTime > 0;\n    }\n\n    // creator list for iteration\n    function getCreators() public view returns (address[] memory) {\n        return _ownerAddrs;\n    }\n\n    function getTotalPageView(uint dateMillis) public view returns (uint) {\n        require(dateMillis != 0);\n        return _tpvByDate[dateMillis];\n    }\n\n    function getTotalPageViewSquare(uint dateMillis) public view returns (uint) {\n        require(dateMillis != 0);\n        return _tpvsByDate[dateMillis];\n    }\n\n    function getPageView(bytes32 docId, uint dateMillis) public view returns (uint256) {\n        require(_docByDocId[docId].createTime > 0);\n        return (_docByDocId[docId].pvMap)[dateMillis].pv;\n    }\n\n    function setPageView(bytes32 docId, uint dateMillis, uint pv) public {\n        require(msg.sender == _foundation);\n        require(pv > 0);\n        require(_docByDocId[docId].createTime != 0);\n        require((_docByDocId[docId].pvMap)[dateMillis].pv == 0);\n\n        (_docByDocId[docId].pvMap)[dateMillis].pv = pv;\n        (_docByDocId[docId].pvMap)[dateMillis].idx = _docByDocId[docId].pvIdx.push(dateMillis) - 1;\n\n        _tpvByDate[dateMillis] += pv;\n        _tpvsByDate[dateMillis] += (pv ** 2);\n\n        if (_dateMillis <= dateMillis) {\n            _dateMillis = (uint256(dateMillis/86400000) * 86400000) + 86400000;\n        }\n\n        emit PutPageView(docId, dateMillis, pv);\n    }\n\n    function updatePageView(bytes32 docId, uint dateMillis, uint pv) public {\n        require(msg.sender == _foundation);\n        deletePageView(docId, dateMillis);\n        setPageView(docId, dateMillis, pv);\n    }\n\n    function deletePageView(bytes32 docId, uint dateMillis) public {\n        require(msg.sender == _foundation);\n        require(_docByDocId[docId].createTime != 0);\n        // delete only when pv > 0\n        if ((_docByDocId[docId].pvMap)[dateMillis].pv > 0) {\n          // subtract pv to delete from total page views\n            _tpvByDate[dateMillis] -= (_docByDocId[docId].pvMap)[dateMillis].pv;\n            _tpvsByDate[dateMillis] -= ((_docByDocId[docId].pvMap)[dateMillis].pv ** 2);\n            // delete an item from index array\n            uint toDelete = (_docByDocId[docId].pvMap)[dateMillis].idx;\n            uint lastIndex = _docByDocId[docId].pvIdx[_docByDocId[docId].pvIdx.length-1];\n            _docByDocId[docId].pvIdx[toDelete] = lastIndex;\n            (_docByDocId[docId].pvMap)[lastIndex].idx = toDelete;\n            _docByDocId[docId].pvIdx.length--;\n            // set page view as 0\n            (_docByDocId[docId].pvMap)[dateMillis].idx = 0;\n            (_docByDocId[docId].pvMap)[dateMillis].pv = 0;\n            // emit a delete event\n            emit DelPageView(docId, dateMillis);\n        }\n    }\n\n    function updatePageViews(uint dateMillis, bytes32[] memory docIds, uint[] memory pvs) public {\n        require(msg.sender == _foundation);\n        require(dateMillis > 0);\n        require(docIds.length > 0);\n        require(docIds.length == pvs.length);\n\n        for (uint i=0; i < docIds.length; i++) {\n            deletePageView(docIds[i], dateMillis);\n            setPageView(docIds[i], dateMillis, pvs[i]);\n        }\n    }\n\n}\n",
  "sourcePath": "/Users/centroine/Documents/iris/decompanyio/decompanyio/contracts/DocumentRegistry.sol",
  "compiler": {
    "name": "solc",
    "version": "0.5.0+commit.1d4f565a.Emscripten.clang"
  },
  "schemaVersion": "3.0.2",
  "updatedAt": "2019-06-18T04:45:07.814Z",
  "devdoc": {
    "methods": {
      "isOwner()": {
        "return": "true if `msg.sender` is the owner of the contract."
      },
      "owner()": {
        "return": "the address of the owner."
      },
      "renounceOwnership()": {
        "details": "Allows the current owner to relinquish control of the contract."
      },
      "transferOwnership(address)": {
        "details": "Allows the current owner to transfer control of the contract to a newOwner.",
        "params": {
          "newOwner": "The address to transfer ownership to."
        }
      }
    }
  },
  "userdoc": {
    "methods": {
      "renounceOwnership()": {
        "notice": "Renouncing to ownership will leave the contract without an owner. It will not be possible to call the functions with the `onlyOwner` modifier anymore."
      }
    }
  }
}