{
  "contractName": "DocumentRegistry",
  "abi": [
    {
      "constant": false,
      "inputs": [],
      "name": "renounceOwnership",
      "outputs": [],
      "payable": false,
      "stateMutability": "nonpayable",
      "type": "function",
      "signature": "0x715018a6"
    },
    {
      "constant": true,
      "inputs": [],
      "name": "owner",
      "outputs": [
        {
          "name": "",
          "type": "address"
        }
      ],
      "payable": false,
      "stateMutability": "view",
      "type": "function",
      "signature": "0x8da5cb5b"
    },
    {
      "constant": false,
      "inputs": [
        {
          "name": "newOwner",
          "type": "address"
        }
      ],
      "name": "transferOwnership",
      "outputs": [],
      "payable": false,
      "stateMutability": "nonpayable",
      "type": "function",
      "signature": "0xf2fde38b"
    },
    {
      "anonymous": false,
      "inputs": [
        {
          "indexed": false,
          "name": "docId",
          "type": "bytes32"
        },
        {
          "indexed": false,
          "name": "createTime",
          "type": "uint256"
        },
        {
          "indexed": false,
          "name": "owner",
          "type": "address"
        }
      ],
      "name": "Register",
      "type": "event",
      "signature": "0x08062bdde4ad89f93ff6227d1e6eccbfd54652e8dfbcd604b08ec144330d6c47"
    },
    {
      "anonymous": false,
      "inputs": [
        {
          "indexed": false,
          "name": "docId",
          "type": "bytes32"
        },
        {
          "indexed": false,
          "name": "createTime",
          "type": "uint256"
        },
        {
          "indexed": false,
          "name": "lastClaimedDate",
          "type": "uint256"
        },
        {
          "indexed": false,
          "name": "withdraw",
          "type": "uint256"
        }
      ],
      "name": "Update",
      "type": "event",
      "signature": "0x9581381b92c9043f86b6923063a9ed555551d9d145ebd68fa935f3c043daf8e3"
    },
    {
      "anonymous": false,
      "inputs": [
        {
          "indexed": false,
          "name": "docId",
          "type": "bytes32"
        },
        {
          "indexed": false,
          "name": "claimedDate",
          "type": "uint256"
        },
        {
          "indexed": false,
          "name": "amount",
          "type": "uint256"
        }
      ],
      "name": "Withdraw",
      "type": "event",
      "signature": "0xcaa03f03cdee1c04d0a939a3664af76dafeb30903f32620a78e7c7cafa15202b"
    },
    {
      "anonymous": false,
      "inputs": [
        {
          "indexed": false,
          "name": "docId",
          "type": "bytes32"
        },
        {
          "indexed": false,
          "name": "dateMillis",
          "type": "uint256"
        },
        {
          "indexed": false,
          "name": "pv",
          "type": "uint256"
        }
      ],
      "name": "PutPageView",
      "type": "event",
      "signature": "0xbad8ff34169c72945edda01a8894cf1e9d95d670e3d9da4630a39636ea7faeda"
    },
    {
      "anonymous": false,
      "inputs": [
        {
          "indexed": false,
          "name": "docId",
          "type": "bytes32"
        },
        {
          "indexed": false,
          "name": "dateMillis",
          "type": "uint256"
        }
      ],
      "name": "DelPageView",
      "type": "event",
      "signature": "0xc8abecf6b239d58bf64c0dc9cce878f12fb995c31e9f7f468a5fa9cf05690903"
    },
    {
      "anonymous": false,
      "inputs": [
        {
          "indexed": true,
          "name": "previousOwner",
          "type": "address"
        },
        {
          "indexed": true,
          "name": "newOwner",
          "type": "address"
        }
      ],
      "name": "OwnershipTransferred",
      "type": "event",
      "signature": "0x8be0079c531659141344cd1fd0a4f28419497f9722a3daafe3b4186f6b6457e0"
    },
    {
      "constant": true,
      "inputs": [],
      "name": "count",
      "outputs": [
        {
          "name": "",
          "type": "uint256"
        }
      ],
      "payable": false,
      "stateMutability": "view",
      "type": "function",
      "signature": "0x06661abd"
    },
    {
      "constant": false,
      "inputs": [
        {
          "name": "owner",
          "type": "address"
        },
        {
          "name": "docId",
          "type": "bytes32"
        }
      ],
      "name": "register",
      "outputs": [],
      "payable": false,
      "stateMutability": "nonpayable",
      "type": "function",
      "signature": "0x1e7a505f"
    },
    {
      "constant": false,
      "inputs": [
        {
          "name": "owner",
          "type": "address"
        },
        {
          "name": "docId",
          "type": "bytes32"
        },
        {
          "name": "createTime",
          "type": "uint256"
        },
        {
          "name": "lastClaimedDate",
          "type": "uint256"
        },
        {
          "name": "withdraw",
          "type": "uint256"
        }
      ],
      "name": "update",
      "outputs": [],
      "payable": false,
      "stateMutability": "nonpayable",
      "type": "function",
      "signature": "0xee248193"
    },
    {
      "constant": false,
      "inputs": [
        {
          "name": "docId",
          "type": "bytes32"
        },
        {
          "name": "claimedDate",
          "type": "uint256"
        },
        {
          "name": "withdraw",
          "type": "uint256"
        }
      ],
      "name": "updateWithdraw",
      "outputs": [],
      "payable": false,
      "stateMutability": "nonpayable",
      "type": "function",
      "signature": "0x0f9f6840"
    },
    {
      "constant": true,
      "inputs": [
        {
          "name": "owner",
          "type": "address"
        }
      ],
      "name": "getDocuments",
      "outputs": [
        {
          "name": "",
          "type": "bytes32[]"
        }
      ],
      "payable": false,
      "stateMutability": "view",
      "type": "function",
      "signature": "0x27f50a2d"
    },
    {
      "constant": true,
      "inputs": [
        {
          "name": "docId",
          "type": "bytes32"
        }
      ],
      "name": "getDocument",
      "outputs": [
        {
          "name": "",
          "type": "address"
        },
        {
          "name": "",
          "type": "uint256"
        },
        {
          "name": "",
          "type": "uint256"
        },
        {
          "name": "",
          "type": "uint256"
        }
      ],
      "payable": false,
      "stateMutability": "view",
      "type": "function",
      "signature": "0xb10d6b41"
    },
    {
      "constant": true,
      "inputs": [
        {
          "name": "docId",
          "type": "bytes32"
        }
      ],
      "name": "contains",
      "outputs": [
        {
          "name": "",
          "type": "bool"
        }
      ],
      "payable": false,
      "stateMutability": "view",
      "type": "function",
      "signature": "0x1d1a696d"
    },
    {
      "constant": true,
      "inputs": [],
      "name": "isOwner",
      "outputs": [
        {
          "name": "",
          "type": "bool"
        }
      ],
      "payable": false,
      "stateMutability": "view",
      "type": "function",
      "signature": "0x8f32d59b"
    },
    {
      "constant": true,
      "inputs": [
        {
          "name": "owner",
          "type": "address"
        },
        {
          "name": "docId",
          "type": "bytes32"
        }
      ],
      "name": "isOwner",
      "outputs": [
        {
          "name": "",
          "type": "bool"
        }
      ],
      "payable": false,
      "stateMutability": "view",
      "type": "function",
      "signature": "0xe96b462a"
    },
    {
      "constant": true,
      "inputs": [],
      "name": "getCreators",
      "outputs": [
        {
          "name": "",
          "type": "address[]"
        }
      ],
      "payable": false,
      "stateMutability": "view",
      "type": "function",
      "signature": "0xe6adc1ee"
    },
    {
      "constant": true,
      "inputs": [
        {
          "name": "_dateMillis",
          "type": "uint256"
        }
      ],
      "name": "getTotalPageView",
      "outputs": [
        {
          "name": "",
          "type": "uint256"
        }
      ],
      "payable": false,
      "stateMutability": "view",
      "type": "function",
      "signature": "0xf26b4482"
    },
    {
      "constant": true,
      "inputs": [
        {
          "name": "_dateMillis",
          "type": "uint256"
        }
      ],
      "name": "getTotalPageViewSquare",
      "outputs": [
        {
          "name": "",
          "type": "uint256"
        }
      ],
      "payable": false,
      "stateMutability": "view",
      "type": "function",
      "signature": "0x7ca36b94"
    },
    {
      "constant": true,
      "inputs": [
        {
          "name": "docId",
          "type": "bytes32"
        },
        {
          "name": "dateMillis",
          "type": "uint256"
        }
      ],
      "name": "getPageView",
      "outputs": [
        {
          "name": "",
          "type": "uint256"
        }
      ],
      "payable": false,
      "stateMutability": "view",
      "type": "function",
      "signature": "0x4c9d31ca"
    },
    {
      "constant": false,
      "inputs": [
        {
          "name": "docId",
          "type": "bytes32"
        },
        {
          "name": "dateMillis",
          "type": "uint256"
        },
        {
          "name": "pv",
          "type": "uint256"
        }
      ],
      "name": "setPageView",
      "outputs": [],
      "payable": false,
      "stateMutability": "nonpayable",
      "type": "function",
      "signature": "0xac627286"
    },
    {
      "constant": false,
      "inputs": [
        {
          "name": "docId",
          "type": "bytes32"
        },
        {
          "name": "dateMillis",
          "type": "uint256"
        },
        {
          "name": "pv",
          "type": "uint256"
        }
      ],
      "name": "updatePageView",
      "outputs": [],
      "payable": false,
      "stateMutability": "nonpayable",
      "type": "function",
      "signature": "0x287ccff0"
    },
    {
      "constant": false,
      "inputs": [
        {
          "name": "docId",
          "type": "bytes32"
        },
        {
          "name": "dateMillis",
          "type": "uint256"
        }
      ],
      "name": "deletePageView",
      "outputs": [],
      "payable": false,
      "stateMutability": "nonpayable",
      "type": "function",
      "signature": "0xa0643376"
    },
    {
      "constant": false,
      "inputs": [
        {
          "name": "dateMillis",
          "type": "uint256"
        },
        {
          "name": "docIds",
          "type": "bytes32[]"
        },
        {
          "name": "pvs",
          "type": "uint256[]"
        }
      ],
      "name": "updatePageViews",
      "outputs": [],
      "payable": false,
      "stateMutability": "nonpayable",
      "type": "function",
      "signature": "0xcb8c3296"
    },
    {
      "constant": false,
      "inputs": [
        {
          "name": "addr",
          "type": "address"
        }
      ],
      "name": "setRewardPool",
      "outputs": [],
      "payable": false,
      "stateMutability": "nonpayable",
      "type": "function",
      "signature": "0x78238c37"
    },
    {
      "constant": false,
      "inputs": [
        {
          "name": "addr",
          "type": "address"
        }
      ],
      "name": "setCreator",
      "outputs": [],
      "payable": false,
      "stateMutability": "nonpayable",
      "type": "function",
      "signature": "0x3f516018"
    },
    {
      "constant": false,
      "inputs": [
        {
          "name": "addr",
          "type": "address"
        }
      ],
      "name": "setFoundation",
      "outputs": [],
      "payable": false,
      "stateMutability": "nonpayable",
      "type": "function",
      "signature": "0xdb3543f5"
    }
  ],
  "bytecode": "0x6080604081905260008054600160a060020a0319163317808255600160a060020a0316917f8be0079c531659141344cd1fd0a4f28419497f9722a3daafe3b4186f6b6457e0908290a361129d806100576000396000f3fe6080604052600436106101325763ffffffff7c010000000000000000000000000000000000000000000000000000000060003504166306661abd81146101375780630f9f68401461015e5780631d1a696d146101965780631e7a505f146101d457806327f50a2d1461020d578063287ccff0146102905780633f516018146102c65780634c9d31ca146102f9578063715018a61461032957806378238c371461033e5780637ca36b94146103715780638da5cb5b1461039b5780638f32d59b146103cc578063a0643376146103e1578063ac62728614610411578063b10d6b4114610447578063cb8c3296146104a1578063db3543f5146105dc578063e6adc1ee1461060f578063e96b462a14610624578063ee2481931461065d578063f26b4482146106a8578063f2fde38b146106d2575b600080fd5b34801561014357600080fd5b5061014c610705565b60408051918252519081900360200190f35b34801561016a57600080fd5b506101946004803603606081101561018157600080fd5b508035906020810135906040013561070c565b005b3480156101a257600080fd5b506101c0600480360360208110156101b957600080fd5b50356107a5565b604080519115158252519081900360200190f35b3480156101e057600080fd5b50610194600480360360408110156101f757600080fd5b50600160a060020a0381351690602001356107bb565b34801561021957600080fd5b506102406004803603602081101561023057600080fd5b5035600160a060020a03166109de565b60408051602080825283518183015283519192839290830191858101910280838360005b8381101561027c578181015183820152602001610264565b505050509050019250505060405180910390f35b34801561029c57600080fd5b50610194600480360360608110156102b357600080fd5b5080359060208101359060400135610a4a565b3480156102d257600080fd5b50610194600480360360208110156102e957600080fd5b5035600160a060020a0316610a7b565b34801561030557600080fd5b5061014c6004803603604081101561031c57600080fd5b5080359060200135610ac2565b34801561033557600080fd5b50610194610b01565b34801561034a57600080fd5b506101946004803603602081101561036157600080fd5b5035600160a060020a0316610b5e565b34801561037d57600080fd5b5061014c6004803603602081101561039457600080fd5b5035610ba6565b3480156103a757600080fd5b506103b0610bc7565b60408051600160a060020a039092168252519081900360200190f35b3480156103d857600080fd5b506101c0610bd6565b3480156103ed57600080fd5b506101946004803603604081101561040457600080fd5b5080359060200135610be7565b34801561041d57600080fd5b506101946004803603606081101561043457600080fd5b5080359060208101359060400135610d86565b34801561045357600080fd5b506104716004803603602081101561046a57600080fd5b5035610e8d565b60408051600160a060020a0390951685526020850193909352838301919091526060830152519081900360800190f35b3480156104ad57600080fd5b50610194600480360360608110156104c457600080fd5b813591908101906040810160208201356401000000008111156104e657600080fd5b8201836020820111156104f857600080fd5b8035906020019184602083028401116401000000008311171561051a57600080fd5b919080806020026020016040519081016040528093929190818152602001838360200280828437600092019190915250929594936020810193503591505064010000000081111561056a57600080fd5b82018360208201111561057c57600080fd5b8035906020019184602083028401116401000000008311171561059e57600080fd5b919080806020026020016040519081016040528093929190818152602001838360200280828437600092019190915250929550610ee7945050505050565b3480156105e857600080fd5b50610194600480360360208110156105ff57600080fd5b5035600160a060020a0316610f9b565b34801561061b57600080fd5b50610240610fe3565b34801561063057600080fd5b506101c06004803603604081101561064757600080fd5b50600160a060020a038135169060200135611045565b34801561066957600080fd5b50610194600480360360a081101561068057600080fd5b50600160a060020a038135169060208101359060408101359060608101359060800135611077565b3480156106b457600080fd5b5061014c600480360360208110156106cb57600080fd5b5035611144565b3480156106de57600080fd5b50610194600480360360208110156106f557600080fd5b5035600160a060020a0316611165565b6002545b90565b600854600160a060020a0316331461072357600080fd5b60008381526001602081905260409091200154151561074157600080fd5b60008381526001602090815260409182902060028101859055600301805484019055815185815290810184905280820183905290517fcaa03f03cdee1c04d0a939a3664af76dafeb30903f32620a78e7c7cafa15202b9181900360600190a1505050565b6000908152600160208190526040822001541190565b600954600160a060020a031633146107d257600080fd5b60008181526001602081905260409091200154156107ef57600080fd5b6040805160a08101909152600160a060020a0383168152602081016201518042046305265c0002815260200160008152602001600081526020016000604051908082528060200260200182016040528015610854578160200160208202803883390190505b50905260008281526001602081815260409283902084518154600160a060020a031916600160a060020a039091161781558482015192810192909255918301516002820155606083015160038201556080830151805191926108be926004850192909101906111ec565b505060028054600181019091557f405787fa12a823e0f2b7631cc41b3ba8828b3321ca811111fa75cd3aa3bb5ace0182905550600160a060020a038216600090815260036020526040902054151561095c57600480546001810182556000919091527f8a35acfbc15ff81a39ae7d344fd709f28e8600b4aa8c65c6b64bfe7fe36bd19b018054600160a060020a031916600160a060020a0384161790555b600160a060020a03808316600090815260036020908152604080832080546001818101835591855283852001869055858452808352928190209283015492548151868152928301939093529190921682820152517f08062bdde4ad89f93ff6227d1e6eccbfd54652e8dfbcd604b08ec144330d6c479181900360600190a15050565b600160a060020a038116600090815260036020908152604091829020805483518184028101840190945280845260609392830182828015610a3e57602002820191906000526020600020905b815481526020019060010190808311610a2a575b50505050509050919050565b600754600160a060020a03163314610a6157600080fd5b610a6b8383610be7565b610a76838383610d86565b505050565b610a83610bd6565b1515610a8e57600080fd5b600954600160a060020a03828116911614610abf5760098054600160a060020a031916600160a060020a0383161790555b50565b6000828152600160208190526040822001548110610adf57600080fd5b5060009182526001602090815260408084209284526005909201905290205490565b610b09610bd6565b1515610b1457600080fd5b60008054604051600160a060020a03909116907f8be0079c531659141344cd1fd0a4f28419497f9722a3daafe3b4186f6b6457e0908390a360008054600160a060020a0319169055565b610b66610bd6565b1515610b7157600080fd5b600854600160a060020a03828116911614610abf5760088054600160a060020a038316600160a060020a031990911617905550565b6000811515610bb457600080fd5b5060009081526006602052604090205490565b600054600160a060020a031690565b600054600160a060020a0316331490565b600754600160a060020a03163314610bfe57600080fd5b600082815260016020819052604090912001541515610c1c57600080fd5b60008281526001602090815260408083208484526005019091528120541115610d825760008281526001602081815260408084208585526005808201845282862080549185528387208054929092039091558054600685529286208054600290940a909303909255908301548685529290915260040180549192916000198101908110610ca557fe5b90600052602060002001549050806001600086815260200190815260200160002060040183815481101515610cd657fe5b600091825260208083209091019290925585815260018083526040808320858452600581018552908320820186905591879052909152600401805490610d20906000198301611237565b506000848152600160208181526040808420878552600501825280842092830184905592909155815186815290810185905281517fc8abecf6b239d58bf64c0dc9cce878f12fb995c31e9f7f468a5fa9cf05690903929181900390910190a150505b5050565b600754600160a060020a03163314610d9d57600080fd5b60008111610daa57600080fd5b600083815260016020819052604090912001541515610dc857600080fd5b600083815260016020908152604080832085845260050190915290205415610def57600080fd5b60008381526001602081815260408084208685526005808201845282862087815560049092018054808701825590875284872081018990558887529190940155918152818320805485019055600681529181902080546002850a0190558051858152918201849052818101839052517fbad8ff34169c72945edda01a8894cf1e9d95d670e3d9da4630a39636ea7faeda9181900360600190a1505050565b6000818152600160208190526040822001548190819081908110610eb057600080fd5b5050506000918252506001602081905260409091208054918101546002820154600390920154600160a060020a0390931693909290565b600754600160a060020a03163314610efe57600080fd5b60008311610f0b57600080fd5b8151600010610f1957600080fd5b8051825114610f2757600080fd5b60005b8251811015610f9557610f548382815181101515610f4457fe5b9060200190602002015185610be7565b610f8d8382815181101515610f6557fe5b90602001906020020151858484815181101515610f7e57fe5b90602001906020020151610d86565b600101610f2a565b50505050565b610fa3610bd6565b1515610fae57600080fd5b600754600160a060020a03828116911614610abf5760078054600160a060020a038316600160a060020a031990911617905550565b6060600480548060200260200160405190810160405280929190818152602001828054801561103b57602002820191906000526020600020905b8154600160a060020a0316815260019091019060200180831161101d575b5050505050905090565b600081815260016020526040812054600160a060020a0384811691161461106d576000611070565b60015b9392505050565b600954600160a060020a0316331461108e57600080fd5b82151561109a57600080fd5b6000848152600160208190526040909120015415156110b857600080fd5b6000848152600160208181526040928390208054600160a060020a031916600160a060020a038a1617815591820186905560028201859055600390910183905581518681529081018590528082018490526060810183905290517f9581381b92c9043f86b6923063a9ed555551d9d145ebd68fa935f3c043daf8e3916080908290030190a15050505050565b600081151561115257600080fd5b5060009081526005602052604090205490565b61116d610bd6565b151561117857600080fd5b610abf81600160a060020a038116151561119157600080fd5b60008054604051600160a060020a03808516939216917f8be0079c531659141344cd1fd0a4f28419497f9722a3daafe3b4186f6b6457e091a360008054600160a060020a031916600160a060020a0392909216919091179055565b828054828255906000526020600020908101928215611227579160200282015b8281111561122757825182559160200191906001019061120c565b50611233929150611257565b5090565b815481835581811115610a7657600083815260209020610a769181019083015b61070991905b80821115611233576000815560010161125d56fea165627a7a72305820ea5bb62fbec73bf1b33fe33788178a93b668c70d7a4ccf78a7a34e085dff64540029",
  "source": "pragma solidity ^0.5.0;\n\nimport \"openzeppelin-solidity/contracts/ownership/Ownable.sol\";\n\ncontract DocumentRegistry is Ownable {\n\n  event Register(bytes32 docId, uint256 createTime, address owner);\n  event Update(bytes32 docId, uint256 createTime, uint256 lastClaimedDate, uint256 withdraw);\n  event Withdraw(bytes32 docId, uint256 claimedDate, uint256 amount);\n  event PutPageView(bytes32 docId, uint256 dateMillis, uint256 pv);\n  event DelPageView(bytes32 docId, uint256 dateMillis);\n\n  struct PageView {\n    uint256 pv;\n    uint256 idx;\n  }\n\n  struct Document {\n    // registry\n    address owner;\n    uint createTime;\n    uint lastClaimedDate;\n    uint withdraw;\n    // page view\n    uint256[] pvIdx;\n    mapping (uint256 => PageView) pvMap; // date => { page views, index }\n  }\n\n  // maps doc id to a document\n  mapping (bytes32 => Document) internal _docByDocId;\n\n  // doc id list for iteration\n  bytes32[] internal _docIds;\n\n  // maps an address to the user's documents\n  mapping (address => bytes32[]) internal _docIdsByAddr;\n\n  // address list for iteration\n  address[] private _ownerAddrs;\n\n  // daily total page views\n  mapping (uint256 => uint256) private _tpvByDate;\n  mapping (uint256 => uint256) private _tpvsByDate;\n\n  // accessibility\n  address private _foundation;\n  address private _rewardPool;\n  address private _creator;\n\n  function count() public view returns (uint256) {\n    return _docIds.length;\n  }\n/*\n  function register(bytes32 docId) external {\n    registerDocument(msg.sender, docId);\n  }\n\n  function register(address owner, bytes32 docId) external {\n    require(msg.sender == _creator);\n    registerDocument(owner, docId);\n  }\n*/\n  function register(address owner, bytes32 docId) external {\n    require(msg.sender == _creator);\n    require(_docByDocId[docId].createTime == 0); // register once\n\n    // adding to document registry\n    _docByDocId[docId] = Document({\n        owner: owner,\n        createTime: uint(block.timestamp/86400) * 86400000, // current date in milliseconds\n        lastClaimedDate: 0,\n        withdraw: 0,\n        pvIdx: new uint256[](0)\n      });\n\n    _docIds.push(docId);\n\n    // add a new owner\n    if (_docIdsByAddr[owner].length == 0){\n      _ownerAddrs.push(owner);\n    }\n\n    // adding to doc id list by owner\n    _docIdsByAddr[owner].push(docId);\n\n    emit Register(docId, _docByDocId[docId].createTime, _docByDocId[docId].owner);\n  }\n\n  function update(address owner, bytes32 docId, uint256 createTime, uint256 lastClaimedDate, uint256 withdraw) public {\n    require(msg.sender == _creator);\n    require(createTime != 0);\n    require(_docByDocId[docId].createTime != 0);\n\n    // adding to document registry\n    _docByDocId[docId].owner = owner;\n    _docByDocId[docId].createTime = createTime;\n    _docByDocId[docId].lastClaimedDate = lastClaimedDate;\n    _docByDocId[docId].withdraw = withdraw;\n\n    emit Update(docId, createTime, lastClaimedDate, withdraw);\n  }\n\n  function updateWithdraw(bytes32 docId, uint256 claimedDate, uint256 withdraw) external {\n    require(msg.sender == _rewardPool);\n    require(_docByDocId[docId].createTime != 0);\n    _docByDocId[docId].lastClaimedDate = claimedDate;\n    _docByDocId[docId].withdraw += withdraw;\n    emit Withdraw(docId, claimedDate, withdraw);\n  }\n\n  function getDocuments(address owner) external view returns (bytes32[] memory) {\n    return _docIdsByAddr[owner];\n  }\n\n  function getDocument(bytes32 docId) public view returns (address, uint256, uint256, uint256) {\n    require(_docByDocId[docId].createTime > 0);\n    return (\n      _docByDocId[docId].owner,\n      _docByDocId[docId].createTime,\n      _docByDocId[docId].lastClaimedDate,\n      _docByDocId[docId].withdraw\n    );\n  }\n\n  function contains(bytes32 docId) public view returns (bool) {\n    return _docByDocId[docId].createTime > 0;\n  }\n\n  function isOwner(address owner, bytes32 docId) external view returns (bool) {\n    return address(_docByDocId[docId].owner) == owner ? true : false;\n  }\n\n  // creator list for iteration\n  function getCreators() public view returns (address[] memory) {\n    return _ownerAddrs;\n  }\n\n  function getTotalPageView(uint _dateMillis) public view returns (uint) {\n    require(_dateMillis != 0);\n    return _tpvByDate[_dateMillis];\n  }\n\n  function getTotalPageViewSquare(uint _dateMillis) public view returns (uint) {\n    require(_dateMillis != 0);\n    return _tpvsByDate[_dateMillis];\n  }\n\n  function getPageView(bytes32 docId, uint dateMillis) public view returns (uint256) {\n    require(_docByDocId[docId].createTime > 0);\n    return (_docByDocId[docId].pvMap)[dateMillis].pv;\n  }\n\n  function setPageView(bytes32 docId, uint dateMillis, uint pv) public {\n    require(msg.sender == _foundation);\n    require(pv > 0);\n    require(_docByDocId[docId].createTime != 0);\n    require((_docByDocId[docId].pvMap)[dateMillis].pv == 0);\n\n    (_docByDocId[docId].pvMap)[dateMillis].pv = pv;\n    (_docByDocId[docId].pvMap)[dateMillis].idx = _docByDocId[docId].pvIdx.push(dateMillis) - 1;\n\n    _tpvByDate[dateMillis] += pv;\n    _tpvsByDate[dateMillis] += (pv ** 2);\n\n    emit PutPageView(docId, dateMillis, pv);\n  }\n\n  function updatePageView(bytes32 docId, uint dateMillis, uint pv) public {\n    require(msg.sender == _foundation);\n    deletePageView(docId, dateMillis);\n    setPageView(docId, dateMillis, pv);\n  }\n\n  function deletePageView(bytes32 docId, uint dateMillis) public {\n    require(msg.sender == _foundation);\n    require(_docByDocId[docId].createTime != 0);\n    // delete only when pv > 0\n    if ((_docByDocId[docId].pvMap)[dateMillis].pv > 0) {\n      // subtract pv to delete from total page views\n      _tpvByDate[dateMillis] -= (_docByDocId[docId].pvMap)[dateMillis].pv;\n      _tpvsByDate[dateMillis] -= ((_docByDocId[docId].pvMap)[dateMillis].pv ** 2);\n      // delete an item from index array\n      uint toDelete = (_docByDocId[docId].pvMap)[dateMillis].idx;\n      uint lastIndex = _docByDocId[docId].pvIdx[_docByDocId[docId].pvIdx.length-1];\n      _docByDocId[docId].pvIdx[toDelete] = lastIndex;\n      (_docByDocId[docId].pvMap)[lastIndex].idx = toDelete;\n      _docByDocId[docId].pvIdx.length--;\n      // set page view as 0\n      (_docByDocId[docId].pvMap)[dateMillis].idx = 0;\n      (_docByDocId[docId].pvMap)[dateMillis].pv = 0;\n      // emit a delete event\n      emit DelPageView(docId, dateMillis);\n    }\n  }\n\n  function updatePageViews(uint dateMillis, bytes32[] memory docIds, uint[] memory pvs) public {\n    require(msg.sender == _foundation);\n    require(dateMillis > 0);\n    require(docIds.length > 0);\n    require(docIds.length == pvs.length);\n\n    for(uint i=0; i<docIds.length; i++) {\n      deletePageView(docIds[i], dateMillis);\n      setPageView(docIds[i], dateMillis, pvs[i]);\n    }\n  }\n\n  function setRewardPool(address addr) external onlyOwner() {\n    if (addr != _rewardPool) {\n      _rewardPool = addr;\n    }\n  }\n\n  function setCreator(address addr) external onlyOwner() {\n    if (addr != _creator) {\n      _creator = addr;\n    }\n  }\n\n  function setFoundation(address addr) external onlyOwner() {\n    if (addr != _foundation) {\n      _foundation = addr;\n    }\n  }\n}\n",
  "sourcePath": "/Users/centroine/Documents/iris/decompanyio/decompanyio/contracts/DocumentRegistry.sol",
  "compiler": {
    "name": "solc",
    "version": "0.5.0+commit.1d4f565a.Emscripten.clang"
  },
  "schemaVersion": "3.0.2",
  "updatedAt": "2019-02-27T01:41:34.147Z",
  "devdoc": {
    "methods": {
      "isOwner()": {
        "return": "true if `msg.sender` is the owner of the contract."
      },
      "owner()": {
        "return": "the address of the owner."
      },
      "renounceOwnership()": {
        "details": "Allows the current owner to relinquish control of the contract."
      },
      "transferOwnership(address)": {
        "details": "Allows the current owner to transfer control of the contract to a newOwner.",
        "params": {
          "newOwner": "The address to transfer ownership to."
        }
      }
    }
  },
  "userdoc": {
    "methods": {
      "renounceOwnership()": {
        "notice": "Renouncing to ownership will leave the contract without an owner. It will not be possible to call the functions with the `onlyOwner` modifier anymore."
      }
    }
  }
}