{
  "contractName": "ERC20",
  "abi": [
    {
      "anonymous": false,
      "inputs": [
        {
          "indexed": true,
          "internalType": "address",
          "name": "owner",
          "type": "address"
        },
        {
          "indexed": true,
          "internalType": "address",
          "name": "spender",
          "type": "address"
        },
        {
          "indexed": false,
          "internalType": "uint256",
          "name": "value",
          "type": "uint256"
        }
      ],
      "name": "Approval",
      "type": "event"
    },
    {
      "anonymous": false,
      "inputs": [
        {
          "indexed": true,
          "internalType": "address",
          "name": "from",
          "type": "address"
        },
        {
          "indexed": true,
          "internalType": "address",
          "name": "to",
          "type": "address"
        },
        {
          "indexed": false,
          "internalType": "uint256",
          "name": "value",
          "type": "uint256"
        }
      ],
      "name": "Transfer",
      "type": "event"
    },
    {
      "constant": true,
      "inputs": [],
      "name": "totalSupply",
      "outputs": [
        {
          "internalType": "uint256",
          "name": "",
          "type": "uint256"
        }
      ],
      "payable": false,
      "stateMutability": "view",
      "type": "function"
    },
    {
      "constant": true,
      "inputs": [
        {
          "internalType": "address",
          "name": "account",
          "type": "address"
        }
      ],
      "name": "balanceOf",
      "outputs": [
        {
          "internalType": "uint256",
          "name": "",
          "type": "uint256"
        }
      ],
      "payable": false,
      "stateMutability": "view",
      "type": "function"
    },
    {
      "constant": false,
      "inputs": [
        {
          "internalType": "address",
          "name": "recipient",
          "type": "address"
        },
        {
          "internalType": "uint256",
          "name": "amount",
          "type": "uint256"
        }
      ],
      "name": "transfer",
      "outputs": [
        {
          "internalType": "bool",
          "name": "",
          "type": "bool"
        }
      ],
      "payable": false,
      "stateMutability": "nonpayable",
      "type": "function"
    },
    {
      "constant": true,
      "inputs": [
        {
          "internalType": "address",
          "name": "owner",
          "type": "address"
        },
        {
          "internalType": "address",
          "name": "spender",
          "type": "address"
        }
      ],
      "name": "allowance",
      "outputs": [
        {
          "internalType": "uint256",
          "name": "",
          "type": "uint256"
        }
      ],
      "payable": false,
      "stateMutability": "view",
      "type": "function"
    },
    {
      "constant": false,
      "inputs": [
        {
          "internalType": "address",
          "name": "spender",
          "type": "address"
        },
        {
          "internalType": "uint256",
          "name": "amount",
          "type": "uint256"
        }
      ],
      "name": "approve",
      "outputs": [
        {
          "internalType": "bool",
          "name": "",
          "type": "bool"
        }
      ],
      "payable": false,
      "stateMutability": "nonpayable",
      "type": "function"
    },
    {
      "constant": false,
      "inputs": [
        {
          "internalType": "address",
          "name": "sender",
          "type": "address"
        },
        {
          "internalType": "address",
          "name": "recipient",
          "type": "address"
        },
        {
          "internalType": "uint256",
          "name": "amount",
          "type": "uint256"
        }
      ],
      "name": "transferFrom",
      "outputs": [
        {
          "internalType": "bool",
          "name": "",
          "type": "bool"
        }
      ],
      "payable": false,
      "stateMutability": "nonpayable",
      "type": "function"
    },
    {
      "constant": false,
      "inputs": [
        {
          "internalType": "address",
          "name": "spender",
          "type": "address"
        },
        {
          "internalType": "uint256",
          "name": "addedValue",
          "type": "uint256"
        }
      ],
      "name": "increaseAllowance",
      "outputs": [
        {
          "internalType": "bool",
          "name": "",
          "type": "bool"
        }
      ],
      "payable": false,
      "stateMutability": "nonpayable",
      "type": "function"
    },
    {
      "constant": false,
      "inputs": [
        {
          "internalType": "address",
          "name": "spender",
          "type": "address"
        },
        {
          "internalType": "uint256",
          "name": "subtractedValue",
          "type": "uint256"
        }
      ],
      "name": "decreaseAllowance",
      "outputs": [
        {
          "internalType": "bool",
          "name": "",
          "type": "bool"
        }
      ],
      "payable": false,
      "stateMutability": "nonpayable",
      "type": "function"
    },
    {
      "constant": false,
      "inputs": [
        {
          "internalType": "address",
          "name": "account",
          "type": "address"
        },
        {
          "internalType": "uint256",
          "name": "amount",
          "type": "uint256"
        }
      ],
      "name": "mint",
      "outputs": [],
      "payable": false,
      "stateMutability": "nonpayable",
      "type": "function"
    }
  ],
  "bytecode": "0x608060405234801561001057600080fd5b506109b7806100206000396000f3fe608060405234801561001057600080fd5b50600436106100935760003560e01c806340c10f191161006657806340c10f191461015457806370a0823114610182578063a457c2d7146101a8578063a9059cbb146101d4578063dd62ed3e1461020057610093565b8063095ea7b31461009857806318160ddd146100d857806323b872dd146100f25780633950935114610128575b600080fd5b6100c4600480360360408110156100ae57600080fd5b506001600160a01b03813516906020013561022e565b604080519115158252519081900360200190f35b6100e0610244565b60408051918252519081900360200190f35b6100c46004803603606081101561010857600080fd5b506001600160a01b0381358116916020810135909116906040013561024a565b6100c46004803603604081101561013e57600080fd5b506001600160a01b0381351690602001356102f4565b6101806004803603604081101561016a57600080fd5b506001600160a01b03813516906020013561038d565b005b6100e06004803603602081101561019857600080fd5b50356001600160a01b03166104e7565b6100c4600480360360408110156101be57600080fd5b506001600160a01b038135169060200135610502565b6100c4600480360360408110156101ea57600080fd5b506001600160a01b038135169060200135610596565b6100e06004803603604081101561021657600080fd5b506001600160a01b03813581169160200135166105a3565b600061023b3384846105ce565b50600192915050565b60025490565b6001600160a01b03831660009081526001602090815260408083203384529091528120548211156102ac5760405162461bcd60e51b81526004018080602001828103825260288152602001806108cd6028913960400191505060405180910390fd5b6102b78484846106ba565b6001600160a01b0384166000908152600160209081526040808320338085529252909120546102ea9186918590036105ce565b5060019392505050565b3360009081526001602090815260408083206001600160a01b03861684529091528120548281011161035b576040805162461bcd60e51b815260206004820152601f602482015260008051602061093e833981519152604482015290519081900360640190fd5b3360008181526001602090815260408083206001600160a01b038816845290915290205461023b9190859085016105ce565b6001600160a01b0382166103e8576040805162461bcd60e51b815260206004820152601f60248201527f45524332303a206d696e7420746f20746865207a65726f206164647265737300604482015290519081900360640190fd5b6002548181011161042e576040805162461bcd60e51b815260206004820152601f602482015260008051602061093e833981519152604482015290519081900360640190fd5b6001600160a01b0382166000908152602081905260409020548181011161048a576040805162461bcd60e51b815260206004820152601f602482015260008051602061093e833981519152604482015290519081900360640190fd5b60028054820190556001600160a01b038216600081815260208181526040808320805486019055805185815290517fddf252ad1be2c89b69c2b068fc378daa952ba7f163c4a11628f55a4df523b3ef929181900390910190a35050565b6001600160a01b031660009081526020819052604090205490565b3360009081526001602090815260408083206001600160a01b038616845290915281205482106105635760405162461bcd60e51b815260040180806020018281038252602581526020018061095e6025913960400191505060405180910390fd5b3360008181526001602090815260408083206001600160a01b038816845290915290205461023b919085908590036105ce565b600061023b3384846106ba565b6001600160a01b03918216600090815260016020908152604080832093909416825291909152205490565b6001600160a01b0383166106135760405162461bcd60e51b815260040180806020018281038252602481526020018061091a6024913960400191505060405180910390fd5b6001600160a01b0382166106585760405162461bcd60e51b81526004018080602001828103825260228152602001806108856022913960400191505060405180910390fd5b6001600160a01b03808416600081815260016020908152604080832094871680845294825291829020859055815185815291517f8c5be1e5ebec7d5bd14f71427d1e84f3dd0314c0f7b2291e5b200ac8c7c3b9259281900390910190a3505050565b6001600160a01b0383166106ff5760405162461bcd60e51b81526004018080602001828103825260258152602001806108f56025913960400191505060405180910390fd5b6001600160a01b0382166107445760405162461bcd60e51b81526004018080602001828103825260238152602001806108626023913960400191505060405180910390fd5b6001600160a01b03831660009081526020819052604090205481111561079b5760405162461bcd60e51b81526004018080602001828103825260268152602001806108a76026913960400191505060405180910390fd5b6001600160a01b038216600090815260208190526040902054818101116107f7576040805162461bcd60e51b815260206004820152601f602482015260008051602061093e833981519152604482015290519081900360640190fd5b6001600160a01b0380841660008181526020818152604080832080548790039055938616808352918490208054860190558351858152935191937fddf252ad1be2c89b69c2b068fc378daa952ba7f163c4a11628f55a4df523b3ef929081900390910190a350505056fe45524332303a207472616e7366657220746f20746865207a65726f206164647265737345524332303a20617070726f766520746f20746865207a65726f206164647265737345524332303a207472616e7366657220616d6f756e7420657863656564732062616c616e636545524332303a207472616e7366657220616d6f756e74206578636565647320616c6c6f77616e636545524332303a207472616e736665722066726f6d20746865207a65726f206164647265737345524332303a20617070726f76652066726f6d20746865207a65726f2061646472657373616464696e672076616c75652063616e206f63637572206f766572666c6f770045524332303a2064656372656173656420616c6c6f77616e63652062656c6f77207a65726fa265627a7a72315820dd164f5c6e50753b7ca8e60ef7e23bbeb49d870b6475ee6895050f639a418d0064736f6c634300050c0032",
  "source": "pragma solidity ^0.5.0;\n\nimport \"./IERC20.sol\";\n\ncontract ERC20 is IERC20 {\n\n    mapping (address => uint256) private _balances;\n    mapping (address => mapping (address => uint256)) private _allowances;\n\n    uint256 private _totalSupply;\n\n    function totalSupply() public view returns (uint256) {\n        return _totalSupply;\n    }\n\n    function balanceOf(address account) public view returns (uint256) {\n        return _balances[account];\n    }\n\n    function transfer(address recipient, uint256 amount) public returns (bool) {\n        _transfer(msg.sender, recipient, amount);\n        return true;\n    }\n\n    function allowance(address owner, address spender) public view returns (uint256) {\n        return _allowances[owner][spender];\n    }\n\n    function approve(address spender, uint256 amount) public returns (bool) {\n        _approve(msg.sender, spender, amount);\n        return true;\n    }\n\n    function transferFrom(address sender, address recipient, uint256 amount) public returns (bool) {\n        require(_allowances[sender][msg.sender] >= amount, \"ERC20: transfer amount exceeds allowance\");\n        _transfer(sender, recipient, amount);\n        _approve(sender, msg.sender, _allowances[sender][msg.sender] - amount);\n        return true;\n    }\n\n    function increaseAllowance(address spender, uint256 addedValue) public returns (bool) {\n        require(_allowances[msg.sender][spender] + addedValue > _allowances[msg.sender][spender], \"adding value can occur overflow\");\n        _approve(msg.sender, spender, _allowances[msg.sender][spender] + addedValue);\n        return true;\n    }\n\n    function decreaseAllowance(address spender, uint256 subtractedValue) public returns (bool) {\n        require(_allowances[msg.sender][spender] > subtractedValue, \"ERC20: decreased allowance below zero\");\n        _approve(msg.sender, spender, _allowances[msg.sender][spender] - subtractedValue);\n        return true;\n    }\n\n    function _transfer(address sender, address recipient, uint256 amount) internal {\n        require(sender != address(0), \"ERC20: transfer from the zero address\");\n        require(recipient != address(0), \"ERC20: transfer to the zero address\");\n        require(_balances[sender] >= amount, \"ERC20: transfer amount exceeds balance\");\n        require(_balances[recipient] + amount > _balances[recipient], \"adding value can occur overflow\");\n\n        _balances[sender] = _balances[sender] - amount;\n        _balances[recipient] = _balances[recipient] + amount;\n        emit Transfer(sender, recipient, amount);\n    }\n\n    function mint(address account, uint256 amount) public {\n        require(account != address(0), \"ERC20: mint to the zero address\");\n        require(_totalSupply + amount > _totalSupply, \"adding value can occur overflow\");\n        require(_balances[account] + amount > _balances[account], \"adding value can occur overflow\");\n\n        _totalSupply = _totalSupply + amount;\n        _balances[account] = _balances[account] + amount;\n        emit Transfer(address(0), account, amount);\n    }\n\n    function _burn(address account, uint256 amount) internal {\n        require(account != address(0), \"ERC20: burn from the zero address\");\n        require(_balances[account] > amount, \"ERC20: burn amount exceeds balance\");\n        require(_totalSupply > amount, \"ERC20: burn amount exceeds total supply\");\n\n        _balances[account] = _balances[account] - amount;\n        _totalSupply = _totalSupply - amount;\n        emit Transfer(account, address(0), amount);\n    }\n\n    function _approve(address owner, address spender, uint256 amount) internal {\n        require(owner != address(0), \"ERC20: approve from the zero address\");\n        require(spender != address(0), \"ERC20: approve to the zero address\");\n\n        _allowances[owner][spender] = amount;\n        emit Approval(owner, spender, amount);\n    }\n\n    function _burnFrom(address account, uint256 amount) internal {\n        require(_allowances[account][msg.sender] > amount, \"ERC20: burn amount exceeds allowance\");\n        _burn(account, amount);\n        _approve(account, msg.sender, _allowances[account][msg.sender] - amount);\n    }\n}",
  "sourcePath": "/Users/jay/Documents/infraware/work/workspace-git/decompanyio/contracts/ERC20.sol",
  "compiler": {
    "name": "solc",
    "version": "0.5.12+commit.7709ece9.Emscripten.clang"
  },
  "schemaVersion": "3.0.19",
  "updatedAt": "2019-11-18T06:46:46.969Z",
  "networkType": "ethereum",
  "devdoc": {
    "methods": {}
  },
  "userdoc": {
    "methods": {}
  }
}