{
  "contractName": "Registry",
  "abi": [
    {
      "inputs": [],
      "payable": false,
      "stateMutability": "nonpayable",
      "type": "constructor"
    },
    {
      "anonymous": false,
      "inputs": [
        {
          "indexed": false,
          "internalType": "bytes32",
          "name": "did",
          "type": "bytes32"
        },
        {
          "indexed": false,
          "internalType": "uint256",
          "name": "timestamp",
          "type": "uint256"
        },
        {
          "indexed": false,
          "internalType": "address",
          "name": "owner",
          "type": "address"
        },
        {
          "indexed": false,
          "internalType": "bytes32",
          "name": "hashed",
          "type": "bytes32"
        }
      ],
      "name": "AddDocument",
      "type": "event"
    },
    {
      "anonymous": false,
      "inputs": [
        {
          "indexed": false,
          "internalType": "address",
          "name": "old",
          "type": "address"
        },
        {
          "indexed": false,
          "internalType": "address",
          "name": "to",
          "type": "address"
        }
      ],
      "name": "OwnershipTransferred",
      "type": "event"
    },
    {
      "anonymous": false,
      "inputs": [
        {
          "indexed": false,
          "internalType": "uint256",
          "name": "dateMillis",
          "type": "uint256"
        }
      ],
      "name": "SetDate",
      "type": "event"
    },
    {
      "anonymous": false,
      "inputs": [
        {
          "indexed": false,
          "internalType": "bytes32",
          "name": "did",
          "type": "bytes32"
        },
        {
          "indexed": false,
          "internalType": "uint256",
          "name": "timestamp",
          "type": "uint256"
        },
        {
          "indexed": false,
          "internalType": "address",
          "name": "owner",
          "type": "address"
        },
        {
          "indexed": false,
          "internalType": "bytes32",
          "name": "hashed",
          "type": "bytes32"
        }
      ],
      "name": "UpdateDocument",
      "type": "event"
    },
    {
      "constant": true,
      "inputs": [],
      "name": "_dateMillis",
      "outputs": [
        {
          "internalType": "uint256",
          "name": "",
          "type": "uint256"
        }
      ],
      "payable": false,
      "stateMutability": "view",
      "type": "function"
    },
    {
      "constant": true,
      "inputs": [],
      "name": "_startDateMillis",
      "outputs": [
        {
          "internalType": "uint256",
          "name": "",
          "type": "uint256"
        }
      ],
      "payable": false,
      "stateMutability": "view",
      "type": "function"
    },
    {
      "constant": false,
      "inputs": [
        {
          "internalType": "address",
          "name": "foundation",
          "type": "address"
        }
      ],
      "name": "setFoundation",
      "outputs": [],
      "payable": false,
      "stateMutability": "nonpayable",
      "type": "function"
    },
    {
      "constant": false,
      "inputs": [
        {
          "internalType": "address",
          "name": "addr",
          "type": "address"
        }
      ],
      "name": "transferOwnership",
      "outputs": [],
      "payable": false,
      "stateMutability": "nonpayable",
      "type": "function"
    },
    {
      "constant": false,
      "inputs": [
        {
          "internalType": "uint256",
          "name": "dateMillis",
          "type": "uint256"
        }
      ],
      "name": "setDateMillis",
      "outputs": [],
      "payable": false,
      "stateMutability": "nonpayable",
      "type": "function"
    },
    {
      "constant": false,
      "inputs": [
        {
          "internalType": "bytes32",
          "name": "key",
          "type": "bytes32"
        },
        {
          "internalType": "bytes32",
          "name": "hashed",
          "type": "bytes32"
        }
      ],
      "name": "addDocument",
      "outputs": [],
      "payable": false,
      "stateMutability": "nonpayable",
      "type": "function"
    },
    {
      "constant": false,
      "inputs": [
        {
          "internalType": "bytes32",
          "name": "key",
          "type": "bytes32"
        },
        {
          "internalType": "bytes32",
          "name": "hashed",
          "type": "bytes32"
        }
      ],
      "name": "updateDocument",
      "outputs": [],
      "payable": false,
      "stateMutability": "nonpayable",
      "type": "function"
    },
    {
      "constant": true,
      "inputs": [],
      "name": "owner",
      "outputs": [
        {
          "internalType": "address",
          "name": "",
          "type": "address"
        }
      ],
      "payable": false,
      "stateMutability": "view",
      "type": "function"
    },
    {
      "constant": true,
      "inputs": [
        {
          "internalType": "bytes32",
          "name": "key",
          "type": "bytes32"
        }
      ],
      "name": "getDocument",
      "outputs": [
        {
          "internalType": "uint256",
          "name": "",
          "type": "uint256"
        },
        {
          "internalType": "address",
          "name": "",
          "type": "address"
        },
        {
          "internalType": "bytes32",
          "name": "",
          "type": "bytes32"
        },
        {
          "internalType": "uint256",
          "name": "",
          "type": "uint256"
        }
      ],
      "payable": false,
      "stateMutability": "view",
      "type": "function"
    },
    {
      "constant": true,
      "inputs": [
        {
          "internalType": "bytes32",
          "name": "hashed",
          "type": "bytes32"
        }
      ],
      "name": "getDocumentByHash",
      "outputs": [
        {
          "internalType": "bytes32",
          "name": "",
          "type": "bytes32"
        }
      ],
      "payable": false,
      "stateMutability": "view",
      "type": "function"
    },
    {
      "constant": true,
      "inputs": [],
      "name": "count",
      "outputs": [
        {
          "internalType": "uint256",
          "name": "",
          "type": "uint256"
        }
      ],
      "payable": false,
      "stateMutability": "view",
      "type": "function"
    },
    {
      "constant": true,
      "inputs": [],
      "name": "getLastDateMillis",
      "outputs": [
        {
          "internalType": "uint256",
          "name": "",
          "type": "uint256"
        }
      ],
      "payable": false,
      "stateMutability": "view",
      "type": "function"
    },
    {
      "constant": true,
      "inputs": [],
      "name": "getBlockDateMillis",
      "outputs": [
        {
          "internalType": "uint256",
          "name": "",
          "type": "uint256"
        }
      ],
      "payable": false,
      "stateMutability": "view",
      "type": "function"
    },
    {
      "constant": true,
      "inputs": [],
      "name": "getBlockTimeMillis",
      "outputs": [
        {
          "internalType": "uint256",
          "name": "",
          "type": "uint256"
        }
      ],
      "payable": false,
      "stateMutability": "view",
      "type": "function"
    }
  ],
  "bytecode": "0x608060405234801561001057600080fd5b50600380546001600160a01b03191633179055610c34806100326000396000f3fe608060405234801561001057600080fd5b50600436106100ea5760003560e01c806393cec8c51161008c578063b38d7bda11610066578063b38d7bda14610212578063d1eb68cb1461021a578063db3543f514610222578063f2fde38b14610248576100ea565b806393cec8c51461019c57806396d88291146101bf578063b10d6b41146101c7576100ea565b806366070eb0116100c857806366070eb01461014b5780637b123021146101535780638b4c91291461015b5780638da5cb5b14610178576100ea565b806306661abd146100ef57806307fb5bc21461010957806309173f9e14610126575b600080fd5b6100f761026e565b60408051918252519081900360200190f35b6100f76004803603602081101561011f57600080fd5b5035610274565b6101496004803603604081101561013c57600080fd5b5080359060200135610286565b005b6100f7610572565b6100f761057a565b6101496004803603602081101561017157600080fd5b5035610580565b610180610654565b604080516001600160a01b039092168252519081900360200190f35b610149600480360360408110156101b257600080fd5b5080359060200135610663565b6100f76108b2565b6101e4600480360360208110156101dd57600080fd5b50356108b8565b604080519485526001600160a01b039093166020850152838301919091526060830152519081900360800190f35b6100f76108eb565b6100f761090d565b6101496004803603602081101561023857600080fd5b50356001600160a01b03166109ac565b6101496004803603602081101561025e57600080fd5b50356001600160a01b0316610a72565b60005490565b60009081526002602052604090205490565b816102ce576040805162461bcd60e51b81526020600482015260136024820152721a5b9d985b1a5908191bd8dd5b595b9d081a59606a1b604482015290519081900360640190fd5b80610315576040805162461bcd60e51b8152602060048201526012602482015271696e76616c696420686173682076616c756560701b604482015290519081900360640190fd5b6004546001600160a01b0316610364576040805162461bcd60e51b815260206004820152600f60248201526e1b9bdd081a5b9a5d1a585b1a5e9959608a1b604482015290519081900360640190fd5b6000600654116103ad576040805162461bcd60e51b815260206004820152600f60248201526e1b9bdd081a5b9a5d1a585b1a5e9959608a1b604482015290519081900360640190fd5b60008181526002602052604090205415610409576040805162461bcd60e51b815260206004820152601860248201527773616d65206861736820616c72656164792065786973747360401b604482015290519081900360640190fd5b6000828152600160205260409020541561045b576040805162461bcd60e51b815260206004820152600e60248201526d616c72656164792065786973747360901b604482015290519081900360640190fd5b6104636108eb565b6006541015610478576104746108eb565b6006555b600654604080518481526020810192909252338282015260608201839052517f59d3bef84781655c59afac22f0a7d89b7bd6e2c0f9bba1e7ae4fcc6c0e97e9ad9181900360800190a16104c9610b80565b5060408051608081018252600654808252336020808401918252838501868152606085019384526000888152600180845287822096518755935186850180546001600160a01b0319166001600160a01b0390921691909117905590516002808701919091559351600390950194909455835491820184557f290decd9548b62a8d60345a988386fc84ba6bc95484008f6362f93160ef3e563909101869055938252909252902055565b6103e8420290565b60055481565b600081116105c4576040805162461bcd60e51b815260206004820152600c60248201526b696e76616c6964206461746560a01b604482015290519081900360640190fd5b6004546001600160a01b0316331461060d5760405162461bcd60e51b8152600401808060200182810382526022815260200180610bde6022913960400191505060405180910390fd5b60055461061a5760058190555b60065460408051918252517f5b2304052c37a342dcffa74217379cece57c093297243cbccd571c2f54f6b7109181900360200190a1600655565b6003546001600160a01b031690565b816106ab576040805162461bcd60e51b81526020600482015260136024820152721a5b9d985b1a5908191bd8dd5b595b9d081a59606a1b604482015290519081900360640190fd5b806106f2576040805162461bcd60e51b8152602060048201526012602482015271696e76616c696420686173682076616c756560701b604482015290519081900360640190fd5b6000818152600260205260409020541561074e576040805162461bcd60e51b815260206004820152601860248201527773616d65206861736820616c72656164792065786973747360401b604482015290519081900360640190fd5b6000828152600160205260409020546107ae576040805162461bcd60e51b815260206004820152601760248201527f646f63756d656e7420646f6573206e6f74206578697374000000000000000000604482015290519081900360640190fd5b600082815260016020819052604090912001546001600160a01b0316331461081d576040805162461bcd60e51b815260206004820152601e60248201527f6f6e6c7920646f63756d656e74206f776e65722063616e207570646174650000604482015290519081900360640190fd5b6108256108eb565b600654101561083a576108366108eb565b6006555b600654604080518481526020810192909252338282015260608201839052517fee8977e8c69f7f62251a8a9f8ae87987725b14fc903eaa8b369ec2a233bddcfc9181900360800190a1600082815260016020908152604080832060028082018690556006546003909201919091559383529290522055565b60065481565b6000908152600160208190526040909120805491810154600282015460039092015492936001600160a01b039091169290565b60006305265c006108fa610572565b8161090157fe5b046305265c0002905090565b6000806006541161095d576040805162461bcd60e51b81526020600482015260156024820152741cda1bdd5b19081899481a5b9a5d1a585b1a5e9959605a1b604482015290519081900360640190fd5b6109656108eb565b60065410156109a55760405162461bcd60e51b8152600401808060200182810382526036815260200180610ba86036913960400191505060405180910390fd5b5060065490565b6003546001600160a01b03163314610a03576040805162461bcd60e51b81526020600482015260156024820152741bdb9b1e481bdddb995c881a5cc8185b1b1bddd959605a1b604482015290519081900360640190fd5b6001600160a01b038116610a50576040805162461bcd60e51b815260206004820152600f60248201526e696e76616c6964206164647265737360881b604482015290519081900360640190fd5b600480546001600160a01b0319166001600160a01b0392909216919091179055565b6003546001600160a01b03163314610ac9576040805162461bcd60e51b81526020600482015260156024820152741bdb9b1e481bdddb995c881a5cc8185b1b1bddd959605a1b604482015290519081900360640190fd5b6001600160a01b038116610b16576040805162461bcd60e51b815260206004820152600f60248201526e696e76616c6964206164647265737360881b604482015290519081900360640190fd5b600354604080516001600160a01b039283168152918316602083015280517f8be0079c531659141344cd1fd0a4f28419497f9722a3daafe3b4186f6b6457e09281900390910190a1600380546001600160a01b0319166001600160a01b0392909216919091179055565b6040805160808101825260008082526020820181905291810182905260608101919091529056fe61206e6577207472616e73616374696f6e20697320726571756972656420746f2064657465726d696e6520657861637420646174652e6f6e6c7920666f756e646174696f6e2063616e2073657420646174654d696c6c6973a265627a7a72315820fb69e2aa9985de18837362cedc7c15246af77652400516538944aa00e4a7657b64736f6c634300050c0032",
  "source": "pragma solidity ^0.5.0;\n\ncontract Registry {\n\n    event AddDocument(bytes32 did, uint256 timestamp, address owner, bytes32 hashed);\n    event UpdateDocument(bytes32 did, uint256 timestamp, address owner, bytes32 hashed);\n    event SetDate(uint256 dateMillis);\n    event OwnershipTransferred(address old, address to);\n\n    struct Document {\n        uint256 dateMillis;\n        address owner;\n        bytes32 hashed;\n        uint256 modified;\n    }\n\n    bytes32[] private _list;\n    mapping(bytes32 => Document) private _map;\n    mapping(bytes32 => bytes32) private _exists;\n\n    address private _owner;\n    address private _foundation;\n    uint256 public _startDateMillis;\n    uint256 public _dateMillis;\n\n    constructor() public {\n        _owner = msg.sender;\n    }\n\n    modifier onlyOwner() {\n        require(msg.sender == _owner, \"only owner is allowed\");\n        _;\n    }\n\n    function setFoundation(address foundation) external onlyOwner() {\n        require(foundation != address(0), \"invalid address\");\n        _foundation = foundation;\n    }\n\n    function transferOwnership(address addr) external onlyOwner() {\n        require(addr != address(0), \"invalid address\");\n        emit OwnershipTransferred(_owner, addr);\n        _owner = addr;\n    }\n\n    function setDateMillis(uint256 dateMillis) external {\n        require(dateMillis > 0, \"invalid date\");\n        require(msg.sender == _foundation, \"only foundation can set dateMillis\");\n        if (_startDateMillis == 0) {\n            _startDateMillis = dateMillis;\n        }\n        emit SetDate(_dateMillis);\n        _dateMillis = dateMillis;\n    }\n\n    function addDocument(bytes32 key, bytes32 hashed) external {\n        require(key != bytes32(0), \"invalid document id\");\n        require(hashed != bytes32(0), \"invalid hash value\");\n        require(_foundation != address(0), \"not initialized\");\n        require(_dateMillis > 0, \"not initialized\");\n        require(_exists[hashed] == bytes32(0), \"same hash already exists\");\n        require(_map[key].dateMillis == 0, \"already exists\");\n\n        if (_dateMillis < getBlockDateMillis()) {\n            _dateMillis = getBlockDateMillis();\n        }\n\n        emit AddDocument(key, _dateMillis, msg.sender, hashed);\n\n        Document memory doc = Document(_dateMillis, msg.sender, hashed, _dateMillis);\n        _map[key] = doc;\n        _list.push(key);\n        _exists[hashed] = key;\n    }\n\n    function updateDocument(bytes32 key, bytes32 hashed) external {\n        require(key != bytes32(0), \"invalid document id\");\n        require(hashed != bytes32(0), \"invalid hash value\");\n        require(_exists[hashed] == bytes32(0), \"same hash already exists\");\n        require(_map[key].dateMillis > 0, \"document does not exist\");\n        require(_map[key].owner == msg.sender, \"only document owner can update\");\n\n        if (_dateMillis < getBlockDateMillis()) {\n            _dateMillis = getBlockDateMillis();\n        }\n\n        emit UpdateDocument(key, _dateMillis, msg.sender, hashed);\n\n        _map[key].hashed = hashed;\n        _map[key].modified = _dateMillis;\n        _exists[hashed] = key;\n    }\n\n    function owner() public view returns (address) {\n        return _owner;\n    }\n\n    function getDocument(bytes32 key) external view returns (uint256, address, bytes32, uint256) {\n        return (_map[key].dateMillis, _map[key].owner, _map[key].hashed, _map[key].modified);\n    }\n\n    function getDocumentByHash(bytes32 hashed) external view returns (bytes32) {\n        return _exists[hashed];\n    }\n\n    function count() external view returns (uint256) {\n        return _list.length;\n    }\n\n    function getLastDateMillis() public view returns (uint) {\n        require(_dateMillis > 0, \"should be initialized\");\n        require(_dateMillis >= getBlockDateMillis(), \"a new transaction is required to determine exact date.\");\n        return _dateMillis;\n    }\n\n    function getBlockDateMillis() public view returns (uint) {\n        return uint(getBlockTimeMillis() / 86400000) * 86400000;\n    }\n\n    function getBlockTimeMillis() public view returns (uint) {\n        return uint(block.timestamp * 1000);\n    }\n}\n",
  "sourcePath": "/Users/jay/Documents/infraware/work/workspace-git/decompanyio/contracts/Registry.sol",
  "compiler": {
    "name": "solc",
    "version": "0.5.12+commit.7709ece9.Emscripten.clang"
  },
  "schemaVersion": "3.0.19",
  "updatedAt": "2019-11-18T06:46:46.911Z",
  "networkType": "ethereum",
  "devdoc": {
    "methods": {}
  },
  "userdoc": {
    "methods": {}
  }
}