{
  "contractName": "Registry",
  "abi": [
    {
      "constant": true,
      "inputs": [],
      "name": "_startDateMillis",
      "outputs": [
        {
          "name": "",
          "type": "uint256"
        }
      ],
      "payable": false,
      "stateMutability": "view",
      "type": "function"
    },
    {
      "constant": true,
      "inputs": [],
      "name": "_dateMillis",
      "outputs": [
        {
          "name": "",
          "type": "uint256"
        }
      ],
      "payable": false,
      "stateMutability": "view",
      "type": "function"
    },
    {
      "inputs": [],
      "payable": false,
      "stateMutability": "nonpayable",
      "type": "constructor"
    },
    {
      "anonymous": false,
      "inputs": [
        {
          "indexed": false,
          "name": "did",
          "type": "bytes32"
        },
        {
          "indexed": false,
          "name": "timestamp",
          "type": "uint256"
        },
        {
          "indexed": false,
          "name": "owner",
          "type": "address"
        },
        {
          "indexed": false,
          "name": "hashed",
          "type": "bytes32"
        }
      ],
      "name": "AddDocument",
      "type": "event"
    },
    {
      "anonymous": false,
      "inputs": [
        {
          "indexed": false,
          "name": "did",
          "type": "bytes32"
        },
        {
          "indexed": false,
          "name": "timestamp",
          "type": "uint256"
        },
        {
          "indexed": false,
          "name": "owner",
          "type": "address"
        },
        {
          "indexed": false,
          "name": "hashed",
          "type": "bytes32"
        }
      ],
      "name": "UpdateDocument",
      "type": "event"
    },
    {
      "anonymous": false,
      "inputs": [
        {
          "indexed": false,
          "name": "dateMillis",
          "type": "uint256"
        }
      ],
      "name": "SetDate",
      "type": "event"
    },
    {
      "anonymous": false,
      "inputs": [
        {
          "indexed": false,
          "name": "old",
          "type": "address"
        },
        {
          "indexed": false,
          "name": "to",
          "type": "address"
        }
      ],
      "name": "OwnershipTransferred",
      "type": "event"
    },
    {
      "constant": false,
      "inputs": [
        {
          "name": "foundation",
          "type": "address"
        }
      ],
      "name": "setFoundation",
      "outputs": [],
      "payable": false,
      "stateMutability": "nonpayable",
      "type": "function"
    },
    {
      "constant": false,
      "inputs": [
        {
          "name": "addr",
          "type": "address"
        }
      ],
      "name": "transferOwnership",
      "outputs": [],
      "payable": false,
      "stateMutability": "nonpayable",
      "type": "function"
    },
    {
      "constant": false,
      "inputs": [
        {
          "name": "dateMillis",
          "type": "uint256"
        }
      ],
      "name": "setDateMillis",
      "outputs": [],
      "payable": false,
      "stateMutability": "nonpayable",
      "type": "function"
    },
    {
      "constant": false,
      "inputs": [
        {
          "name": "key",
          "type": "bytes32"
        },
        {
          "name": "hashed",
          "type": "bytes32"
        }
      ],
      "name": "addDocument",
      "outputs": [],
      "payable": false,
      "stateMutability": "nonpayable",
      "type": "function"
    },
    {
      "constant": false,
      "inputs": [
        {
          "name": "key",
          "type": "bytes32"
        },
        {
          "name": "hashed",
          "type": "bytes32"
        }
      ],
      "name": "updateDocument",
      "outputs": [],
      "payable": false,
      "stateMutability": "nonpayable",
      "type": "function"
    },
    {
      "constant": true,
      "inputs": [],
      "name": "owner",
      "outputs": [
        {
          "name": "",
          "type": "address"
        }
      ],
      "payable": false,
      "stateMutability": "view",
      "type": "function"
    },
    {
      "constant": true,
      "inputs": [
        {
          "name": "key",
          "type": "bytes32"
        }
      ],
      "name": "getDocument",
      "outputs": [
        {
          "name": "",
          "type": "uint256"
        },
        {
          "name": "",
          "type": "address"
        },
        {
          "name": "",
          "type": "bytes32"
        },
        {
          "name": "",
          "type": "uint256"
        }
      ],
      "payable": false,
      "stateMutability": "view",
      "type": "function"
    },
    {
      "constant": true,
      "inputs": [
        {
          "name": "hashed",
          "type": "bytes32"
        }
      ],
      "name": "getDocumentByHash",
      "outputs": [
        {
          "name": "",
          "type": "bytes32"
        }
      ],
      "payable": false,
      "stateMutability": "view",
      "type": "function"
    },
    {
      "constant": true,
      "inputs": [],
      "name": "count",
      "outputs": [
        {
          "name": "",
          "type": "uint256"
        }
      ],
      "payable": false,
      "stateMutability": "view",
      "type": "function"
    },
    {
      "constant": true,
      "inputs": [],
      "name": "getLastDateMillis",
      "outputs": [
        {
          "name": "",
          "type": "uint256"
        }
      ],
      "payable": false,
      "stateMutability": "view",
      "type": "function"
    },
    {
      "constant": true,
      "inputs": [],
      "name": "getBlockDateMillis",
      "outputs": [
        {
          "name": "",
          "type": "uint256"
        }
      ],
      "payable": false,
      "stateMutability": "view",
      "type": "function"
    },
    {
      "constant": true,
      "inputs": [],
      "name": "getBlockTimeMillis",
      "outputs": [
        {
          "name": "",
          "type": "uint256"
        }
      ],
      "payable": false,
      "stateMutability": "view",
      "type": "function"
    }
  ],
  "bytecode": "0x608060405234801561001057600080fd5b5033600360006101000a81548173ffffffffffffffffffffffffffffffffffffffff021916908373ffffffffffffffffffffffffffffffffffffffff1602179055506115cb806100616000396000f3fe6080604052600436106100ca576000357c01000000000000000000000000000000000000000000000000000000009004806306661abd146100cf57806307fb5bc2146100fa57806309173f9e1461014957806366070eb01461018e5780637b123021146101b95780638b4c9129146101e45780638da5cb5b1461021f57806393cec8c51461027657806396d88291146102bb578063b10d6b41146102e6578063b38d7bda14610376578063d1eb68cb146103a1578063db3543f5146103cc578063f2fde38b1461041d575b600080fd5b3480156100db57600080fd5b506100e461046e565b6040518082815260200191505060405180910390f35b34801561010657600080fd5b506101336004803603602081101561011d57600080fd5b810190808035906020019092919050505061047a565b6040518082815260200191505060405180910390f35b34801561015557600080fd5b5061018c6004803603604081101561016c57600080fd5b810190808035906020019092919080359060200190929190505050610497565b005b34801561019a57600080fd5b506101a3610994565b6040518082815260200191505060405180910390f35b3480156101c557600080fd5b506101ce6109a0565b6040518082815260200191505060405180910390f35b3480156101f057600080fd5b5061021d6004803603602081101561020757600080fd5b81019080803590602001909291905050506109a6565b005b34801561022b57600080fd5b50610234610b5f565b604051808273ffffffffffffffffffffffffffffffffffffffff1673ffffffffffffffffffffffffffffffffffffffff16815260200191505060405180910390f35b34801561028257600080fd5b506102b96004803603604081101561029957600080fd5b810190808035906020019092919080359060200190929190505050610b89565b005b3480156102c757600080fd5b506102d0610f67565b6040518082815260200191505060405180910390f35b3480156102f257600080fd5b5061031f6004803603602081101561030957600080fd5b8101908080359060200190929190505050610f6d565b604051808581526020018473ffffffffffffffffffffffffffffffffffffffff1673ffffffffffffffffffffffffffffffffffffffff16815260200183815260200182815260200194505050505060405180910390f35b34801561038257600080fd5b5061038b610ffe565b6040518082815260200191505060405180910390f35b3480156103ad57600080fd5b506103b661101e565b6040518082815260200191505060405180910390f35b3480156103d857600080fd5b5061041b600480360360208110156103ef57600080fd5b81019080803573ffffffffffffffffffffffffffffffffffffffff169060200190929190505050611148565b005b34801561042957600080fd5b5061046c6004803603602081101561044057600080fd5b81019080803573ffffffffffffffffffffffffffffffffffffffff1690602001909291905050506112f6565b005b60008080549050905090565b600060026000838152602001908152602001600020549050919050565b60006001028214151515610513576040517f08c379a00000000000000000000000000000000000000000000000000000000081526004018080602001828103825260138152602001807f696e76616c696420646f63756d656e742069640000000000000000000000000081525060200191505060405180910390fd5b6000600102811415151561058f576040517f08c379a00000000000000000000000000000000000000000000000000000000081526004018080602001828103825260128152602001807f696e76616c696420686173682076616c7565000000000000000000000000000081525060200191505060405180910390fd5b600073ffffffffffffffffffffffffffffffffffffffff16600460009054906101000a900473ffffffffffffffffffffffffffffffffffffffff1673ffffffffffffffffffffffffffffffffffffffff1614151515610656576040517f08c379a000000000000000000000000000000000000000000000000000000000815260040180806020018281038252600f8152602001807f6e6f7420696e697469616c697a6564000000000000000000000000000000000081525060200191505060405180910390fd5b60006006541115156106d0576040517f08c379a000000000000000000000000000000000000000000000000000000000815260040180806020018281038252600f8152602001807f6e6f7420696e697469616c697a6564000000000000000000000000000000000081525060200191505060405180910390fd5b6000600102600260008381526020019081526020016000205414151561075e576040517f08c379a00000000000000000000000000000000000000000000000000000000081526004018080602001828103825260188152602001807f73616d65206861736820616c726561647920657869737473000000000000000081525060200191505060405180910390fd5b600060016000848152602001908152602001600020600001541415156107ec576040517f08c379a000000000000000000000000000000000000000000000000000000000815260040180806020018281038252600e8152602001807f616c72656164792065786973747300000000000000000000000000000000000081525060200191505060405180910390fd5b6107f4610ffe565b600654101561080c57610805610ffe565b6006819055505b7f59d3bef84781655c59afac22f0a7d89b7bd6e2c0f9bba1e7ae4fcc6c0e97e9ad826006543384604051808581526020018481526020018373ffffffffffffffffffffffffffffffffffffffff1673ffffffffffffffffffffffffffffffffffffffff16815260200182815260200194505050505060405180910390a161089161155d565b60806040519081016040528060065481526020013373ffffffffffffffffffffffffffffffffffffffff168152602001838152602001600654815250905080600160008581526020019081526020016000206000820151816000015560208201518160010160006101000a81548173ffffffffffffffffffffffffffffffffffffffff021916908373ffffffffffffffffffffffffffffffffffffffff16021790555060408201518160020155606082015181600301559050506000839080600181540180825580915050906001820390600052602060002001600090919290919091505550826002600084815260200190815260200160002081905550505050565b60006103e84202905090565b60055481565b600081111515610a1e576040517f08c379a000000000000000000000000000000000000000000000000000000000815260040180806020018281038252600c8152602001807f696e76616c69642064617465000000000000000000000000000000000000000081525060200191505060405180910390fd5b600460009054906101000a900473ffffffffffffffffffffffffffffffffffffffff1673ffffffffffffffffffffffffffffffffffffffff163373ffffffffffffffffffffffffffffffffffffffff16141515610b09576040517f08c379a00000000000000000000000000000000000000000000000000000000081526004018080602001828103825260228152602001807f6f6e6c7920666f756e646174696f6e2063616e2073657420646174654d696c6c81526020017f697300000000000000000000000000000000000000000000000000000000000081525060400191505060405180910390fd5b60006005541415610b1c57806005819055505b7f5b2304052c37a342dcffa74217379cece57c093297243cbccd571c2f54f6b7106006546040518082815260200191505060405180910390a18060068190555050565b6000600360009054906101000a900473ffffffffffffffffffffffffffffffffffffffff16905090565b60006001028214151515610c05576040517f08c379a00000000000000000000000000000000000000000000000000000000081526004018080602001828103825260138152602001807f696e76616c696420646f63756d656e742069640000000000000000000000000081525060200191505060405180910390fd5b60006001028114151515610c81576040517f08c379a00000000000000000000000000000000000000000000000000000000081526004018080602001828103825260128152602001807f696e76616c696420686173682076616c7565000000000000000000000000000081525060200191505060405180910390fd5b60006001026002600083815260200190815260200160002054141515610d0f576040517f08c379a00000000000000000000000000000000000000000000000000000000081526004018080602001828103825260188152602001807f73616d65206861736820616c726561647920657869737473000000000000000081525060200191505060405180910390fd5b60006001600084815260200190815260200160002060000154111515610d9d576040517f08c379a00000000000000000000000000000000000000000000000000000000081526004018080602001828103825260178152602001807f646f63756d656e7420646f6573206e6f7420657869737400000000000000000081525060200191505060405180910390fd5b3373ffffffffffffffffffffffffffffffffffffffff166001600084815260200190815260200160002060010160009054906101000a900473ffffffffffffffffffffffffffffffffffffffff1673ffffffffffffffffffffffffffffffffffffffff16141515610e76576040517f08c379a000000000000000000000000000000000000000000000000000000000815260040180806020018281038252601e8152602001807f6f6e6c7920646f63756d656e74206f776e65722063616e20757064617465000081525060200191505060405180910390fd5b610e7e610ffe565b6006541015610e9657610e8f610ffe565b6006819055505b7fee8977e8c69f7f62251a8a9f8ae87987725b14fc903eaa8b369ec2a233bddcfc826006543384604051808581526020018481526020018373ffffffffffffffffffffffffffffffffffffffff1673ffffffffffffffffffffffffffffffffffffffff16815260200182815260200194505050505060405180910390a180600160008481526020019081526020016000206002018190555060065460016000848152602001908152602001600020600301819055508160026000838152602001908152602001600020819055505050565b60065481565b60008060008060016000868152602001908152602001600020600001546001600087815260200190815260200160002060010160009054906101000a900473ffffffffffffffffffffffffffffffffffffffff166001600088815260200190815260200160002060020154600160008981526020019081526020016000206003015493509350935093509193509193565b60006305265c008061100e610994565b81151561101757fe5b0402905090565b600080600654111515611099576040517f08c379a00000000000000000000000000000000000000000000000000000000081526004018080602001828103825260158152602001807f73686f756c6420626520696e697469616c697a6564000000000000000000000081525060200191505060405180910390fd5b6110a1610ffe565b60065410151515611140576040517f08c379a00000000000000000000000000000000000000000000000000000000081526004018080602001828103825260368152602001807f61206e6577207472616e73616374696f6e20697320726571756972656420746f81526020017f2064657465726d696e6520657861637420646174652e0000000000000000000081525060400191505060405180910390fd5b600654905090565b600360009054906101000a900473ffffffffffffffffffffffffffffffffffffffff1673ffffffffffffffffffffffffffffffffffffffff163373ffffffffffffffffffffffffffffffffffffffff1614151561120d576040517f08c379a00000000000000000000000000000000000000000000000000000000081526004018080602001828103825260158152602001807f6f6e6c79206f776e657220697320616c6c6f776564000000000000000000000081525060200191505060405180910390fd5b600073ffffffffffffffffffffffffffffffffffffffff168173ffffffffffffffffffffffffffffffffffffffff16141515156112b2576040517f08c379a000000000000000000000000000000000000000000000000000000000815260040180806020018281038252600f8152602001807f696e76616c69642061646472657373000000000000000000000000000000000081525060200191505060405180910390fd5b80600460006101000a81548173ffffffffffffffffffffffffffffffffffffffff021916908373ffffffffffffffffffffffffffffffffffffffff16021790555050565b600360009054906101000a900473ffffffffffffffffffffffffffffffffffffffff1673ffffffffffffffffffffffffffffffffffffffff163373ffffffffffffffffffffffffffffffffffffffff161415156113bb576040517f08c379a00000000000000000000000000000000000000000000000000000000081526004018080602001828103825260158152602001807f6f6e6c79206f776e657220697320616c6c6f776564000000000000000000000081525060200191505060405180910390fd5b600073ffffffffffffffffffffffffffffffffffffffff168173ffffffffffffffffffffffffffffffffffffffff1614151515611460576040517f08c379a000000000000000000000000000000000000000000000000000000000815260040180806020018281038252600f8152602001807f696e76616c69642061646472657373000000000000000000000000000000000081525060200191505060405180910390fd5b7f8be0079c531659141344cd1fd0a4f28419497f9722a3daafe3b4186f6b6457e0600360009054906101000a900473ffffffffffffffffffffffffffffffffffffffff1682604051808373ffffffffffffffffffffffffffffffffffffffff1673ffffffffffffffffffffffffffffffffffffffff1681526020018273ffffffffffffffffffffffffffffffffffffffff1673ffffffffffffffffffffffffffffffffffffffff1681526020019250505060405180910390a180600360006101000a81548173ffffffffffffffffffffffffffffffffffffffff021916908373ffffffffffffffffffffffffffffffffffffffff16021790555050565b60806040519081016040528060008152602001600073ffffffffffffffffffffffffffffffffffffffff1681526020016000801916815260200160008152509056fea165627a7a7230582024cc4c800948058b4b0d85a692cf887bf151226ba6a996913c09e31446011f8a0029",
  "source": "pragma solidity ^0.5.0;\n\ncontract Registry {\n\n    event AddDocument(bytes32 did, uint256 timestamp, address owner, bytes32 hashed);\n    event UpdateDocument(bytes32 did, uint256 timestamp, address owner, bytes32 hashed);\n    event SetDate(uint256 dateMillis);\n    event OwnershipTransferred(address old, address to);\n\n    struct Document {\n        uint256 dateMillis;\n        address owner;\n        bytes32 hashed;\n        uint256 modified;\n    }\n\n    bytes32[] private _list;\n    mapping(bytes32 => Document) private _map;\n    mapping(bytes32 => bytes32) private _exists;\n\n    address private _owner;\n    address private _foundation;\n    uint256 public _startDateMillis;\n    uint256 public _dateMillis;\n\n    constructor() public {\n        _owner = msg.sender;\n    }\n\n    modifier onlyOwner() {\n        require(msg.sender == _owner, \"only owner is allowed\");\n        _;\n    }\n\n    function setFoundation(address foundation) external onlyOwner() {\n        require(foundation != address(0), \"invalid address\");\n        _foundation = foundation;\n    }\n\n    function transferOwnership(address addr) external onlyOwner() {\n        require(addr != address(0), \"invalid address\");\n        emit OwnershipTransferred(_owner, addr);\n        _owner = addr;\n    }\n\n    function setDateMillis(uint256 dateMillis) external {\n        require(dateMillis > 0, \"invalid date\");\n        require(msg.sender == _foundation, \"only foundation can set dateMillis\");\n        if (_startDateMillis == 0) {\n            _startDateMillis = dateMillis;\n        }\n        emit SetDate(_dateMillis);\n        _dateMillis = dateMillis;\n    }\n\n    function addDocument(bytes32 key, bytes32 hashed) external {\n        require(key != bytes32(0), \"invalid document id\");\n        require(hashed != bytes32(0), \"invalid hash value\");\n        require(_foundation != address(0), \"not initialized\");\n        require(_dateMillis > 0, \"not initialized\");\n        require(_exists[hashed] == bytes32(0), \"same hash already exists\");\n        require(_map[key].dateMillis == 0, \"already exists\");\n\n        if (_dateMillis < getBlockDateMillis()) {\n            _dateMillis = getBlockDateMillis();\n        }\n\n        emit AddDocument(key, _dateMillis, msg.sender, hashed);\n\n        Document memory doc = Document(_dateMillis, msg.sender, hashed, _dateMillis);\n        _map[key] = doc;\n        _list.push(key);\n        _exists[hashed] = key;\n    }\n\n    function updateDocument(bytes32 key, bytes32 hashed) external {\n        require(key != bytes32(0), \"invalid document id\");\n        require(hashed != bytes32(0), \"invalid hash value\");\n        require(_exists[hashed] == bytes32(0), \"same hash already exists\");\n        require(_map[key].dateMillis > 0, \"document does not exist\");\n        require(_map[key].owner == msg.sender, \"only document owner can update\");\n\n        if (_dateMillis < getBlockDateMillis()) {\n            _dateMillis = getBlockDateMillis();\n        }\n\n        emit UpdateDocument(key, _dateMillis, msg.sender, hashed);\n\n        _map[key].hashed = hashed;\n        _map[key].modified = _dateMillis;\n        _exists[hashed] = key;\n    }\n\n    function owner() public view returns (address) {\n        return _owner;\n    }\n\n    function getDocument(bytes32 key) external view returns (uint256, address, bytes32, uint256) {\n        return (_map[key].dateMillis, _map[key].owner, _map[key].hashed, _map[key].modified);\n    }\n\n    function getDocumentByHash(bytes32 hashed) external view returns (bytes32) {\n        return _exists[hashed];\n    }\n\n    function count() external view returns (uint256) {\n        return _list.length;\n    }\n\n    function getLastDateMillis() public view returns (uint) {\n        require(_dateMillis > 0, \"should be initialized\");\n        require(_dateMillis >= getBlockDateMillis(), \"a new transaction is required to determine exact date.\");\n        return _dateMillis;\n    }\n\n    function getBlockDateMillis() public view returns (uint) {\n        return uint(getBlockTimeMillis() / 86400000) * 86400000;\n    }\n\n    function getBlockTimeMillis() public view returns (uint) {\n        return uint(block.timestamp * 1000);\n    }\n}\n",
  "sourcePath": "/Users/centroine/Documents/iris/decompanyio/decompanyio/contracts/Registry.sol",
  "compiler": {
    "name": "solc",
    "version": "0.5.1+commit.c8a2cb62.Linux.g++"
  },
  "schemaVersion": "3.0.16",
  "updatedAt": "2019-10-02T07:21:57.895Z",
  "devdoc": {
    "methods": {}
  },
  "userdoc": {
    "methods": {}
  }
}