{
  "contractName": "RewardPool",
  "abi": [
    {
      "constant": true,
      "inputs": [],
      "name": "_ballot",
      "outputs": [
        {
          "name": "",
          "type": "address"
        }
      ],
      "payable": false,
      "stateMutability": "view",
      "type": "function",
      "signature": "0x4939cf37"
    },
    {
      "constant": false,
      "inputs": [],
      "name": "renounceOwnership",
      "outputs": [],
      "payable": false,
      "stateMutability": "nonpayable",
      "type": "function",
      "signature": "0x715018a6"
    },
    {
      "constant": true,
      "inputs": [],
      "name": "_registry",
      "outputs": [
        {
          "name": "",
          "type": "address"
        }
      ],
      "payable": false,
      "stateMutability": "view",
      "type": "function",
      "signature": "0x79cbc5fa"
    },
    {
      "constant": true,
      "inputs": [],
      "name": "owner",
      "outputs": [
        {
          "name": "",
          "type": "address"
        }
      ],
      "payable": false,
      "stateMutability": "view",
      "type": "function",
      "signature": "0x8da5cb5b"
    },
    {
      "constant": true,
      "inputs": [],
      "name": "isOwner",
      "outputs": [
        {
          "name": "",
          "type": "bool"
        }
      ],
      "payable": false,
      "stateMutability": "view",
      "type": "function",
      "signature": "0x8f32d59b"
    },
    {
      "constant": true,
      "inputs": [],
      "name": "_token",
      "outputs": [
        {
          "name": "",
          "type": "address"
        }
      ],
      "payable": false,
      "stateMutability": "view",
      "type": "function",
      "signature": "0xecd0c0c3"
    },
    {
      "constant": false,
      "inputs": [
        {
          "name": "newOwner",
          "type": "address"
        }
      ],
      "name": "transferOwnership",
      "outputs": [],
      "payable": false,
      "stateMutability": "nonpayable",
      "type": "function",
      "signature": "0xf2fde38b"
    },
    {
      "anonymous": false,
      "inputs": [
        {
          "indexed": true,
          "name": "previousOwner",
          "type": "address"
        },
        {
          "indexed": true,
          "name": "newOwner",
          "type": "address"
        }
      ],
      "name": "OwnershipTransferred",
      "type": "event",
      "signature": "0x8be0079c531659141344cd1fd0a4f28419497f9722a3daafe3b4186f6b6457e0"
    },
    {
      "constant": false,
      "inputs": [
        {
          "name": "token",
          "type": "address"
        },
        {
          "name": "registry",
          "type": "address"
        },
        {
          "name": "ballot",
          "type": "address"
        }
      ],
      "name": "init",
      "outputs": [],
      "payable": false,
      "stateMutability": "nonpayable",
      "type": "function",
      "signature": "0x184b9559"
    },
    {
      "constant": false,
      "inputs": [
        {
          "name": "docId",
          "type": "bytes32"
        },
        {
          "name": "source",
          "type": "address"
        }
      ],
      "name": "claim",
      "outputs": [],
      "payable": false,
      "stateMutability": "nonpayable",
      "type": "function",
      "signature": "0x96c144f0"
    },
    {
      "constant": false,
      "inputs": [
        {
          "name": "docId",
          "type": "bytes32"
        },
        {
          "name": "owner",
          "type": "address"
        },
        {
          "name": "amount",
          "type": "uint256"
        },
        {
          "name": "refund",
          "type": "uint256"
        },
        {
          "name": "dateMillis",
          "type": "uint256"
        }
      ],
      "name": "pay",
      "outputs": [],
      "payable": false,
      "stateMutability": "nonpayable",
      "type": "function",
      "signature": "0x2ce8146f"
    },
    {
      "constant": false,
      "inputs": [],
      "name": "revoke",
      "outputs": [],
      "payable": false,
      "stateMutability": "nonpayable",
      "type": "function",
      "signature": "0xb6549f75"
    },
    {
      "constant": false,
      "inputs": [
        {
          "name": "addr",
          "type": "address"
        }
      ],
      "name": "setFoundation",
      "outputs": [],
      "payable": false,
      "stateMutability": "nonpayable",
      "type": "function",
      "signature": "0xdb3543f5"
    },
    {
      "constant": false,
      "inputs": [
        {
          "name": "addr",
          "type": "address"
        }
      ],
      "name": "setCreator",
      "outputs": [],
      "payable": false,
      "stateMutability": "nonpayable",
      "type": "function",
      "signature": "0x3f516018"
    },
    {
      "constant": false,
      "inputs": [
        {
          "name": "addr",
          "type": "address"
        }
      ],
      "name": "setCurator",
      "outputs": [],
      "payable": false,
      "stateMutability": "nonpayable",
      "type": "function",
      "signature": "0xe90956cf"
    },
    {
      "constant": true,
      "inputs": [
        {
          "name": "_percent",
          "type": "uint256"
        },
        {
          "name": "_createTime",
          "type": "uint256"
        }
      ],
      "name": "getDailyRewardPool",
      "outputs": [
        {
          "name": "",
          "type": "uint256"
        }
      ],
      "payable": false,
      "stateMutability": "view",
      "type": "function",
      "signature": "0xdcb8e506"
    },
    {
      "constant": true,
      "inputs": [],
      "name": "getVestingMillis",
      "outputs": [
        {
          "name": "",
          "type": "uint256"
        }
      ],
      "payable": false,
      "stateMutability": "pure",
      "type": "function",
      "signature": "0x0f01b0ce"
    },
    {
      "constant": true,
      "inputs": [],
      "name": "getDateMillis",
      "outputs": [
        {
          "name": "",
          "type": "uint256"
        }
      ],
      "payable": false,
      "stateMutability": "view",
      "type": "function",
      "signature": "0x7ff8b20e"
    },
    {
      "constant": false,
      "inputs": [
        {
          "name": "from",
          "type": "address"
        },
        {
          "name": "amount",
          "type": "uint256"
        }
      ],
      "name": "deposit",
      "outputs": [],
      "payable": false,
      "stateMutability": "nonpayable",
      "type": "function",
      "signature": "0x47e7ef24"
    },
    {
      "constant": true,
      "inputs": [],
      "name": "getOneDayMillis",
      "outputs": [
        {
          "name": "",
          "type": "uint256"
        }
      ],
      "payable": false,
      "stateMutability": "pure",
      "type": "function",
      "signature": "0xf733ad95"
    }
  ],
  "bytecode": "0x6080604081905260008054600160a060020a0319163317808255600160a060020a0316917f8be0079c531659141344cd1fd0a4f28419497f9722a3daafe3b4186f6b6457e0908290a3610fb6806100576000396000f3fe6080604052600436106101065763ffffffff7c01000000000000000000000000000000000000000000000000000000006000350416630f01b0ce811461010b578063184b9559146101325780632ce8146f146101795780633f516018146101c457806347e7ef24146101f75780634939cf3714610230578063715018a61461026157806379cbc5fa146102765780637ff8b20e1461028b5780638da5cb5b146102a05780638f32d59b146102b557806396c144f0146102de578063b6549f7514610317578063db3543f51461032c578063dcb8e5061461035f578063e90956cf1461038f578063ecd0c0c3146103c2578063f2fde38b146103d7578063f733ad951461040a575b600080fd5b34801561011757600080fd5b5061012061041f565b60408051918252519081900360200190f35b34801561013e57600080fd5b506101776004803603606081101561015557600080fd5b50600160a060020a038135811691602081013582169160409091013516610427565b005b34801561018557600080fd5b50610177600480360360a081101561019c57600080fd5b50803590600160a060020a036020820135169060408101359060608101359060800135610507565b3480156101d057600080fd5b50610177600480360360208110156101e757600080fd5b5035600160a060020a03166107b7565b34801561020357600080fd5b506101776004803603604081101561021a57600080fd5b50600160a060020a03813516906020013561080b565b34801561023c57600080fd5b506102456108b4565b60408051600160a060020a039092168252519081900360200190f35b34801561026d57600080fd5b506101776108c3565b34801561028257600080fd5b5061024561092d565b34801561029757600080fd5b5061012061093c565b3480156102ac57600080fd5b5061024561094b565b3480156102c157600080fd5b506102ca61095a565b604080519115158252519081900360200190f35b3480156102ea57600080fd5b506101776004803603604081101561030157600080fd5b5080359060200135600160a060020a031661096b565b34801561032357600080fd5b50610177610ca3565b34801561033857600080fd5b506101776004803603602081101561034f57600080fd5b5035600160a060020a0316610de6565b34801561036b57600080fd5b506101206004803603604081101561038257600080fd5b5080359060200135610e3b565b34801561039b57600080fd5b50610177600480360360208110156103b257600080fd5b5035600160a060020a0316610e6e565b3480156103ce57600080fd5b50610245610ec3565b3480156103e357600080fd5b50610177600480360360208110156103fa57600080fd5b5035600160a060020a0316610ed2565b34801561041657600080fd5b50610120610eee565b630f73140090565b61042f61095a565b151561043a57600080fd5b600160a060020a038316151561044f57600080fd5b600454600160a060020a03161561046557600080fd5b600160a060020a038116151561047a57600080fd5b600554600160a060020a03161561049057600080fd5b600160a060020a03821615156104a557600080fd5b600654600160a060020a0316156104bb57600080fd5b60048054600160a060020a0394851673ffffffffffffffffffffffffffffffffffffffff1991821617909155600580549285169282169290921790915560068054929093169116179055565b600354600160a060020a0316331461051e57600080fd5b600654600160a060020a0316151561053557600080fd5b60008383011161054457600080fd5b60048054604080517f70a0823100000000000000000000000000000000000000000000000000000000815230938101939093525185850192600160a060020a03909216916370a08231916024808301926020929190829003018186803b1580156105ad57600080fd5b505afa1580156105c1573d6000803e3d6000fd5b505050506040513d60208110156105d757600080fd5b5051116105e357600080fd5b60048054604080517fa9059cbb000000000000000000000000000000000000000000000000000000008152600160a060020a038881169482019490945286860160248201529051929091169163a9059cbb916044808201926020929091908290030181600087803b15801561065757600080fd5b505af115801561066b573d6000803e3d6000fd5b505050506040513d602081101561068157600080fd5b505081151561071b57600654604080517f0f9f68400000000000000000000000000000000000000000000000000000000081526004810188905260248101849052604481018690529051600160a060020a0390921691630f9f68409160648082019260009290919082900301818387803b1580156106fe57600080fd5b505af1158015610712573d6000803e3d6000fd5b505050506107b0565b600554604080517fc0de2c18000000000000000000000000000000000000000000000000000000008152600160a060020a0387811660048301526024820189905260448201859052606482018790529151919092169163c0de2c1891608480830192600092919082900301818387803b15801561079757600080fd5b505af11580156107ab573d6000803e3d6000fd5b505050505b5050505050565b6107bf61095a565b15156107ca57600080fd5b600154600160a060020a03828116911614610808576001805473ffffffffffffffffffffffffffffffffffffffff1916600160a060020a0383161790555b50565b60048054604080517f23b872dd000000000000000000000000000000000000000000000000000000008152600160a060020a038681169482019490945230602482015260448101859052905192909116916323b872dd916064808201926020929091908290030181600087803b15801561088457600080fd5b505af1158015610898573d6000803e3d6000fd5b505050506040513d60208110156108ae57600080fd5b50505050565b600554600160a060020a031681565b6108cb61095a565b15156108d657600080fd5b60008054604051600160a060020a03909116907f8be0079c531659141344cd1fd0a4f28419497f9722a3daafe3b4186f6b6457e0908390a36000805473ffffffffffffffffffffffffffffffffffffffff19169055565b600654600160a060020a031681565b6305265c006201518042040290565b600054600160a060020a031690565b600054600160a060020a0316331490565b600654600160a060020a0316151561098257600080fd5b600154600160a060020a03828116911614806109ab5750600254600160a060020a038281169116145b15156109b657600080fd5b604080517f904e5e57000000000000000000000000000000000000000000000000000000008152336004820152602481018490526305265c006201518042040260448201819052825190926000928392600160a060020a0387169263904e5e579260648082019391829003018186803b158015610a3257600080fd5b505afa158015610a46573d6000803e3d6000fd5b505050506040513d6040811015610a5c57600080fd5b50805160209091015190925090506000818301118015610b0e575060048054604080517f70a0823100000000000000000000000000000000000000000000000000000000815230938101939093525184840192600160a060020a03909216916370a08231916024808301926020929190829003018186803b158015610ae057600080fd5b505afa158015610af4573d6000803e3d6000fd5b505050506040513d6020811015610b0a57600080fd5b5051115b156107b05760048054604080517fa9059cbb0000000000000000000000000000000000000000000000000000000081523393810193909352848401602484015251600160a060020a039091169163a9059cbb9160448083019260209291908290030181600087803b158015610b8257600080fd5b505af1158015610b96573d6000803e3d6000fd5b505050506040513d6020811015610bac57600080fd5b5050801515610c2957600654604080517f0f9f68400000000000000000000000000000000000000000000000000000000081526004810188905260248101869052604481018590529051600160a060020a0390921691630f9f68409160648082019260009290919082900301818387803b1580156106fe57600080fd5b600554604080517fc0de2c180000000000000000000000000000000000000000000000000000000081523360048201526024810188905260448101869052606481018590529051600160a060020a039092169163c0de2c189160848082019260009290919082900301818387803b15801561079757600080fd5b610cab61095a565b1515610cb657600080fd5b60048054604080517f70a08231000000000000000000000000000000000000000000000000000000008152309381019390935251600160a060020a039091169163a9059cbb91339184916370a0823191602480820192602092909190829003018186803b158015610d2657600080fd5b505afa158015610d3a573d6000803e3d6000fd5b505050506040513d6020811015610d5057600080fd5b5051604080517c010000000000000000000000000000000000000000000000000000000063ffffffff8616028152600160a060020a03909316600484015260248301919091525160448083019260209291908290030181600087803b158015610db857600080fd5b505af1158015610dcc573d6000803e3d6000fd5b505050506040513d6020811015610de257600080fd5b5050565b610dee61095a565b1515610df957600080fd5b600354600160a060020a038281169116146108085760038054600160a060020a03831673ffffffffffffffffffffffffffffffffffffffff1990911617905550565b600080610e4783610ef6565b905068591ccd47b39149a000600282900a858202811515610e6457fe5b0495945050505050565b610e7661095a565b1515610e8157600080fd5b600254600160a060020a038281169116146108085760028054600160a060020a03831673ffffffffffffffffffffffffffffffffffffffff1990911617905550565b600454600160a060020a031681565b610eda61095a565b1515610ee557600080fd5b61080881610f0d565b6305265c0090565b61016d620151806103e89092044203919091040490565b600160a060020a0381161515610f2257600080fd5b60008054604051600160a060020a03808516939216917f8be0079c531659141344cd1fd0a4f28419497f9722a3daafe3b4186f6b6457e091a36000805473ffffffffffffffffffffffffffffffffffffffff1916600160a060020a039290921691909117905556fea165627a7a72305820da0023eca6cc716501e859631bbf577d7fc303ed02155df1bf81afcdec6c26970029",
  "source": "pragma solidity 0.5.0;\n\nimport \"openzeppelin-solidity/contracts/ownership/Ownable.sol\";\nimport \"./Deck.sol\";\nimport \"./Ballot.sol\";\nimport \"./DocumentRegistry.sol\";\nimport \"./IAsset.sol\";\n\n\ncontract RewardPool is Ownable {\n\n    address private _creator;\n    address private _curator;\n    address private _foundation;\n\n    Deck public _token;\n    Ballot public _ballot;\n    DocumentRegistry public _registry;\n\n    function init(address token, address registry, address ballot) external onlyOwner() {\n        require(address(token) != address(0));\n        require(address(_token) == address(0));\n        require(address(ballot) != address(0));\n        require(address(_ballot) == address(0));\n        require(address(registry) != address(0));\n        require(address(_registry) == address(0));\n        _token = Deck(token);\n        _ballot = Ballot(ballot);\n        _registry = DocumentRegistry(registry);\n    }\n\n    function claim(bytes32 docId, IAsset source) external {\n        require(address(_registry) != address(0));\n        require(address(source) == _creator || address(source) == _curator);\n        uint256 dateMillis = uint(block.timestamp/86400) * 86400000;\n        (uint256 amount, uint256 refund) = source.determineAt(msg.sender, docId, dateMillis);\n        if ((amount + refund) > 0 && _token.balanceOf(address(this)) > (amount + refund)) {\n            _token.transfer(msg.sender, (amount + refund));\n            if (refund == 0) {\n                _registry.updateWithdraw(docId, dateMillis, amount);\n            } else {\n                _ballot.updateWithdraw(msg.sender, docId, dateMillis, amount);\n            }\n        }\n    }\n\n    function pay(bytes32 docId, address owner, uint256 amount, uint256 refund, uint256 dateMillis) external {\n        require(msg.sender == _foundation);\n        require(address(_registry) != address(0));\n        require(amount + refund > 0);\n        require(_token.balanceOf(address(this)) > amount + refund);\n        _token.transfer(owner, amount + refund);\n        if (refund == 0) {\n            _registry.updateWithdraw(docId, dateMillis, amount);\n        } else {\n            _ballot.updateWithdraw(owner, docId, dateMillis, amount);\n        }\n    }\n\n    function revoke() external onlyOwner() {\n        _token.transfer(msg.sender, _token.balanceOf(address(this)));\n    }\n\n    function setFoundation(address addr) external onlyOwner() {\n        if (_foundation != addr) _foundation = addr;\n    }\n\n    function setCreator(address addr) external onlyOwner() {\n        if (_creator != addr) _creator = addr;\n    }\n\n    function setCurator(address addr) external onlyOwner() {\n        if (_curator != addr) _curator = addr;\n    }\n\n    function getDailyRewardPool(uint _percent, uint _createTime) external view returns (uint) {\n        uint offsetYears = getOffsetYears(_createTime);\n        // initial daily reward pool tokens : (60000000 / 365) * decimals(10 ** 18) / percent(100)\n        uint initialTokens = 16438356164 * (10 ** 11);\n        return uint((initialTokens * _percent) / (2 ** offsetYears));\n    }\n\n    function getVestingMillis() external pure returns (uint) {\n        return 3 * 86400000;\n    }\n\n    function getDateMillis() public view returns (uint) {\n        uint tDay = uint(block.timestamp / uint(86400000 / 1000));\n        uint tMillis = tDay * 86400000;\n        return tMillis;\n    }\n\n    function deposit(address from, uint256 amount) public {\n        _token.transferFrom(from, address(this), amount);\n    }\n\n    function getOneDayMillis() public pure returns (uint) {\n        return 86400000;\n    }\n\n    function getOffsetYears(uint _from) private view returns (uint) {\n        uint curTimeSec = block.timestamp;\n        uint createTimeSec = uint(_from / 1000);\n        uint offsetSec = curTimeSec - createTimeSec;\n        uint offsetDays = uint(offsetSec / uint(86400));\n        return uint(offsetDays / 365);\n    }\n}\n",
  "sourcePath": "/Users/centroine/Documents/iris/decompanyio/decompanyio/contracts/RewardPool.sol",
  "compiler": {
    "name": "solc",
    "version": "0.5.0+commit.1d4f565a.Emscripten.clang"
  },
  "schemaVersion": "3.0.2",
  "updatedAt": "2019-04-22T08:34:14.967Z",
  "devdoc": {
    "methods": {
      "isOwner()": {
        "return": "true if `msg.sender` is the owner of the contract."
      },
      "owner()": {
        "return": "the address of the owner."
      },
      "renounceOwnership()": {
        "details": "Allows the current owner to relinquish control of the contract."
      },
      "transferOwnership(address)": {
        "details": "Allows the current owner to transfer control of the contract to a newOwner.",
        "params": {
          "newOwner": "The address to transfer ownership to."
        }
      }
    }
  },
  "userdoc": {
    "methods": {
      "renounceOwnership()": {
        "notice": "Renouncing to ownership will leave the contract without an owner. It will not be possible to call the functions with the `onlyOwner` modifier anymore."
      }
    }
  }
}