{
  "contractName": "RewardPool",
  "abi": [
    {
      "constant": true,
      "inputs": [],
      "name": "_ballot",
      "outputs": [
        {
          "name": "",
          "type": "address"
        }
      ],
      "payable": false,
      "stateMutability": "view",
      "type": "function",
      "signature": "0x4939cf37"
    },
    {
      "constant": false,
      "inputs": [],
      "name": "renounceOwnership",
      "outputs": [],
      "payable": false,
      "stateMutability": "nonpayable",
      "type": "function",
      "signature": "0x715018a6"
    },
    {
      "constant": true,
      "inputs": [],
      "name": "_registry",
      "outputs": [
        {
          "name": "",
          "type": "address"
        }
      ],
      "payable": false,
      "stateMutability": "view",
      "type": "function",
      "signature": "0x79cbc5fa"
    },
    {
      "constant": true,
      "inputs": [],
      "name": "owner",
      "outputs": [
        {
          "name": "",
          "type": "address"
        }
      ],
      "payable": false,
      "stateMutability": "view",
      "type": "function",
      "signature": "0x8da5cb5b"
    },
    {
      "constant": true,
      "inputs": [],
      "name": "isOwner",
      "outputs": [
        {
          "name": "",
          "type": "bool"
        }
      ],
      "payable": false,
      "stateMutability": "view",
      "type": "function",
      "signature": "0x8f32d59b"
    },
    {
      "constant": true,
      "inputs": [],
      "name": "_token",
      "outputs": [
        {
          "name": "",
          "type": "address"
        }
      ],
      "payable": false,
      "stateMutability": "view",
      "type": "function",
      "signature": "0xecd0c0c3"
    },
    {
      "constant": false,
      "inputs": [
        {
          "name": "newOwner",
          "type": "address"
        }
      ],
      "name": "transferOwnership",
      "outputs": [],
      "payable": false,
      "stateMutability": "nonpayable",
      "type": "function",
      "signature": "0xf2fde38b"
    },
    {
      "anonymous": false,
      "inputs": [
        {
          "indexed": true,
          "name": "previousOwner",
          "type": "address"
        },
        {
          "indexed": true,
          "name": "newOwner",
          "type": "address"
        }
      ],
      "name": "OwnershipTransferred",
      "type": "event",
      "signature": "0x8be0079c531659141344cd1fd0a4f28419497f9722a3daafe3b4186f6b6457e0"
    },
    {
      "constant": false,
      "inputs": [
        {
          "name": "token",
          "type": "address"
        },
        {
          "name": "registry",
          "type": "address"
        },
        {
          "name": "ballot",
          "type": "address"
        }
      ],
      "name": "init",
      "outputs": [],
      "payable": false,
      "stateMutability": "nonpayable",
      "type": "function",
      "signature": "0x184b9559"
    },
    {
      "constant": false,
      "inputs": [
        {
          "name": "docId",
          "type": "bytes32"
        },
        {
          "name": "source",
          "type": "address"
        }
      ],
      "name": "claim",
      "outputs": [],
      "payable": false,
      "stateMutability": "nonpayable",
      "type": "function",
      "signature": "0x96c144f0"
    },
    {
      "constant": false,
      "inputs": [
        {
          "name": "docId",
          "type": "bytes32"
        },
        {
          "name": "owner",
          "type": "address"
        },
        {
          "name": "amount",
          "type": "uint256"
        },
        {
          "name": "refund",
          "type": "uint256"
        },
        {
          "name": "dateMillis",
          "type": "uint256"
        }
      ],
      "name": "pay",
      "outputs": [],
      "payable": false,
      "stateMutability": "nonpayable",
      "type": "function",
      "signature": "0x2ce8146f"
    },
    {
      "constant": false,
      "inputs": [],
      "name": "revoke",
      "outputs": [],
      "payable": false,
      "stateMutability": "nonpayable",
      "type": "function",
      "signature": "0xb6549f75"
    },
    {
      "constant": false,
      "inputs": [
        {
          "name": "addr",
          "type": "address"
        }
      ],
      "name": "setFoundation",
      "outputs": [],
      "payable": false,
      "stateMutability": "nonpayable",
      "type": "function",
      "signature": "0xdb3543f5"
    },
    {
      "constant": false,
      "inputs": [
        {
          "name": "addr",
          "type": "address"
        }
      ],
      "name": "setCreator",
      "outputs": [],
      "payable": false,
      "stateMutability": "nonpayable",
      "type": "function",
      "signature": "0x3f516018"
    },
    {
      "constant": false,
      "inputs": [
        {
          "name": "addr",
          "type": "address"
        }
      ],
      "name": "setCurator",
      "outputs": [],
      "payable": false,
      "stateMutability": "nonpayable",
      "type": "function",
      "signature": "0xe90956cf"
    },
    {
      "constant": true,
      "inputs": [
        {
          "name": "percent",
          "type": "uint256"
        },
        {
          "name": "dt",
          "type": "uint256"
        }
      ],
      "name": "getDailyRewardPool",
      "outputs": [
        {
          "name": "",
          "type": "uint256"
        }
      ],
      "payable": false,
      "stateMutability": "view",
      "type": "function",
      "signature": "0xdcb8e506"
    },
    {
      "constant": true,
      "inputs": [],
      "name": "getVestingMillis",
      "outputs": [
        {
          "name": "",
          "type": "uint256"
        }
      ],
      "payable": false,
      "stateMutability": "pure",
      "type": "function",
      "signature": "0x0f01b0ce"
    },
    {
      "constant": true,
      "inputs": [],
      "name": "getDateMillis",
      "outputs": [
        {
          "name": "",
          "type": "uint256"
        }
      ],
      "payable": false,
      "stateMutability": "view",
      "type": "function",
      "signature": "0x7ff8b20e"
    },
    {
      "constant": false,
      "inputs": [
        {
          "name": "from",
          "type": "address"
        },
        {
          "name": "amount",
          "type": "uint256"
        }
      ],
      "name": "deposit",
      "outputs": [],
      "payable": false,
      "stateMutability": "nonpayable",
      "type": "function",
      "signature": "0x47e7ef24"
    },
    {
      "constant": true,
      "inputs": [],
      "name": "getOneDayMillis",
      "outputs": [
        {
          "name": "",
          "type": "uint256"
        }
      ],
      "payable": false,
      "stateMutability": "pure",
      "type": "function",
      "signature": "0xf733ad95"
    }
  ],
  "bytecode": "0x6080604081905260008054600160a060020a0319163317808255600160a060020a0316917f8be0079c531659141344cd1fd0a4f28419497f9722a3daafe3b4186f6b6457e0908290a36110ea806100576000396000f3fe6080604052600436106100ed5763ffffffff60e060020a6000350416630f01b0ce81146100f2578063184b9559146101195780632ce8146f146101605780633f516018146101ab57806347e7ef24146101de5780634939cf3714610217578063715018a61461024857806379cbc5fa1461025d5780637ff8b20e146102725780638da5cb5b146102875780638f32d59b1461029c57806396c144f0146102c5578063b6549f75146102fe578063db3543f514610313578063dcb8e50614610346578063e90956cf14610376578063ecd0c0c3146103a9578063f2fde38b146103be578063f733ad95146103f1575b600080fd5b3480156100fe57600080fd5b50610107610406565b60408051918252519081900360200190f35b34801561012557600080fd5b5061015e6004803603606081101561013c57600080fd5b50600160a060020a038135811691602081013582169160409091013516610418565b005b34801561016c57600080fd5b5061015e600480360360a081101561018357600080fd5b50803590600160a060020a0360208201351690604081013590606081013590608001356104f8565b3480156101b757600080fd5b5061015e600480360360208110156101ce57600080fd5b5035600160a060020a03166107a8565b3480156101ea57600080fd5b5061015e6004803603604081101561020157600080fd5b50600160a060020a0381351690602001356107fc565b34801561022357600080fd5b5061022c6108a5565b60408051600160a060020a039092168252519081900360200190f35b34801561025457600080fd5b5061015e6108b4565b34801561026957600080fd5b5061022c61091e565b34801561027e57600080fd5b5061010761092d565b34801561029357600080fd5b5061022c6109bc565b3480156102a857600080fd5b506102b16109cb565b604080519115158252519081900360200190f35b3480156102d157600080fd5b5061015e600480360360408110156102e857600080fd5b5080359060200135600160a060020a03166109dc565b34801561030a57600080fd5b5061015e610d2b565b34801561031f57600080fd5b5061015e6004803603602081101561033657600080fd5b5035600160a060020a0316610e57565b34801561035257600080fd5b506101076004803603604081101561036957600080fd5b5080359060200135610eac565b34801561038257600080fd5b5061015e6004803603602081101561039957600080fd5b5035600160a060020a0316610f88565b3480156103b557600080fd5b5061022c610fdd565b3480156103ca57600080fd5b5061015e600480360360208110156103e157600080fd5b5035600160a060020a0316610fec565b3480156103fd57600080fd5b50610107611008565b6000610410611008565b600702905090565b6104206109cb565b151561042b57600080fd5b600160a060020a038316151561044057600080fd5b600454600160a060020a03161561045657600080fd5b600160a060020a038116151561046b57600080fd5b600554600160a060020a03161561048157600080fd5b600160a060020a038216151561049657600080fd5b600654600160a060020a0316156104ac57600080fd5b60048054600160a060020a0394851673ffffffffffffffffffffffffffffffffffffffff1991821617909155600580549285169282169290921790915560068054929093169116179055565b600354600160a060020a0316331461050f57600080fd5b600654600160a060020a0316151561052657600080fd5b60008383011161053557600080fd5b60048054604080517f70a0823100000000000000000000000000000000000000000000000000000000815230938101939093525185850192600160a060020a03909216916370a08231916024808301926020929190829003018186803b15801561059e57600080fd5b505afa1580156105b2573d6000803e3d6000fd5b505050506040513d60208110156105c857600080fd5b5051116105d457600080fd5b60048054604080517fa9059cbb000000000000000000000000000000000000000000000000000000008152600160a060020a038881169482019490945286860160248201529051929091169163a9059cbb916044808201926020929091908290030181600087803b15801561064857600080fd5b505af115801561065c573d6000803e3d6000fd5b505050506040513d602081101561067257600080fd5b505081151561070c57600654604080517f0f9f68400000000000000000000000000000000000000000000000000000000081526004810188905260248101849052604481018690529051600160a060020a0390921691630f9f68409160648082019260009290919082900301818387803b1580156106ef57600080fd5b505af1158015610703573d6000803e3d6000fd5b505050506107a1565b600554604080517fc0de2c18000000000000000000000000000000000000000000000000000000008152600160a060020a0387811660048301526024820189905260448201859052606482018790529151919092169163c0de2c1891608480830192600092919082900301818387803b15801561078857600080fd5b505af115801561079c573d6000803e3d6000fd5b505050505b5050505050565b6107b06109cb565b15156107bb57600080fd5b600154600160a060020a038281169116146107f9576001805473ffffffffffffffffffffffffffffffffffffffff1916600160a060020a0383161790555b50565b60048054604080517f23b872dd000000000000000000000000000000000000000000000000000000008152600160a060020a038681169482019490945230602482015260448101859052905192909116916323b872dd916064808201926020929091908290030181600087803b15801561087557600080fd5b505af1158015610889573d6000803e3d6000fd5b505050506040513d602081101561089f57600080fd5b50505050565b600554600160a060020a031681565b6108bc6109cb565b15156108c757600080fd5b60008054604051600160a060020a03909116907f8be0079c531659141344cd1fd0a4f28419497f9722a3daafe3b4186f6b6457e0908390a36000805473ffffffffffffffffffffffffffffffffffffffff19169055565b600654600160a060020a031681565b600654604080517f7ff8b20e0000000000000000000000000000000000000000000000000000000081529051600092600160a060020a031691637ff8b20e916004808301926020929190829003018186803b15801561098b57600080fd5b505afa15801561099f573d6000803e3d6000fd5b505050506040513d60208110156109b557600080fd5b5051905090565b600054600160a060020a031690565b600054600160a060020a0316331490565b600654600160a060020a031615156109f357600080fd5b600154600160a060020a0382811691161480610a1c5750600254600160a060020a038281169116145b1515610a2757600080fd5b60008082600160a060020a031663904e5e573386610a4361092d565b6040805160e060020a63ffffffff8716028152600160a060020a039094166004850152602484019290925260448301528051606480840193829003018186803b158015610a8f57600080fd5b505afa158015610aa3573d6000803e3d6000fd5b505050506040513d6040811015610ab957600080fd5b50805160209091015190925090506000818301118015610b6b575060048054604080517f70a0823100000000000000000000000000000000000000000000000000000000815230938101939093525184840192600160a060020a03909216916370a08231916024808301926020929190829003018186803b158015610b3d57600080fd5b505afa158015610b51573d6000803e3d6000fd5b505050506040513d6020811015610b6757600080fd5b5051115b1561089f5760048054604080517fa9059cbb0000000000000000000000000000000000000000000000000000000081523393810193909352848401602484015251600160a060020a039091169163a9059cbb9160448083019260209291908290030181600087803b158015610bdf57600080fd5b505af1158015610bf3573d6000803e3d6000fd5b505050506040513d6020811015610c0957600080fd5b5050801515610c9157600654600160a060020a0316630f9f684085610c2c61092d565b856040518463ffffffff1660e060020a028152600401808481526020018381526020018281526020019350505050600060405180830381600087803b158015610c7457600080fd5b505af1158015610c88573d6000803e3d6000fd5b5050505061089f565b600554600160a060020a031663c0de2c183386610cac61092d565b866040518563ffffffff1660e060020a0281526004018085600160a060020a0316600160a060020a03168152602001848152602001838152602001828152602001945050505050600060405180830381600087803b158015610d0d57600080fd5b505af1158015610d21573d6000803e3d6000fd5b5050505050505050565b610d336109cb565b1515610d3e57600080fd5b60048054604080517f70a08231000000000000000000000000000000000000000000000000000000008152309381019390935251600160a060020a039091169163a9059cbb91339184916370a0823191602480820192602092909190829003018186803b158015610dae57600080fd5b505afa158015610dc2573d6000803e3d6000fd5b505050506040513d6020811015610dd857600080fd5b50516040805160e060020a63ffffffff8616028152600160a060020a03909316600484015260248301919091525160448083019260209291908290030181600087803b158015610e2757600080fd5b505af1158015610e3b573d6000803e3d6000fd5b505050506040513d6020811015610e5157600080fd5b50339050ff5b610e5f6109cb565b1515610e6a57600080fd5b600354600160a060020a038281169116146107f95760038054600160a060020a03831673ffffffffffffffffffffffffffffffffffffffff1990911617905550565b600060648361016d610ebd85611010565b60048054604080517f18160ddd0000000000000000000000000000000000000000000000000000000081529051600294850a9493606493600160a060020a0316926318160ddd9281830192602092829003018186803b158015610f1f57600080fd5b505afa158015610f33573d6000803e3d6000fd5b505050506040513d6020811015610f4957600080fd5b5051600c02811515610f5757fe5b04811515610f6157fe5b04811515610f6b57fe5b04811515610f7557fe5b0402811515610f8057fe5b049392505050565b610f906109cb565b1515610f9b57600080fd5b600254600160a060020a038281169116146107f95760028054600160a060020a03831673ffffffffffffffffffffffffffffffffffffffff1990911617905550565b600454600160a060020a031681565b610ff46109cb565b1515610fff57600080fd5b6107f981611041565b6305265c0090565b600061016d61101d611008565b8361102661092d565b0381151561103057fe5b0481151561103a57fe5b0492915050565b600160a060020a038116151561105657600080fd5b60008054604051600160a060020a03808516939216917f8be0079c531659141344cd1fd0a4f28419497f9722a3daafe3b4186f6b6457e091a36000805473ffffffffffffffffffffffffffffffffffffffff1916600160a060020a039290921691909117905556fea165627a7a723058201a5f9400f8e62d566a12fd64727cb396c73ef879d2e3b4360100a73302a74bf60029",
  "source": "pragma solidity 0.5.0;\n\nimport \"openzeppelin-solidity/contracts/ownership/Ownable.sol\";\nimport \"./Deck.sol\";\nimport \"./Ballot.sol\";\nimport \"./DocumentRegistry.sol\";\nimport \"./IAsset.sol\";\n\n\ncontract RewardPool is Ownable {\n\n    address private _creator;\n    address private _curator;\n    address private _foundation;\n\n    Deck public _token;\n    Ballot public _ballot;\n    DocumentRegistry public _registry;\n\n    function init(address token, address registry, address ballot) external onlyOwner() {\n        require(address(token) != address(0));\n        require(address(_token) == address(0));\n        require(address(ballot) != address(0));\n        require(address(_ballot) == address(0));\n        require(address(registry) != address(0));\n        require(address(_registry) == address(0));\n        _token = Deck(token);\n        _ballot = Ballot(ballot);\n        _registry = DocumentRegistry(registry);\n    }\n\n    function claim(bytes32 docId, IAsset source) external {\n        require(address(_registry) != address(0));\n        require(address(source) == _creator || address(source) == _curator);\n        (uint256 amount, uint256 refund) = source.determineAt(msg.sender, docId, getDateMillis());\n        if ((amount + refund) > 0 && _token.balanceOf(address(this)) > (amount + refund)) {\n            _token.transfer(msg.sender, (amount + refund));\n            if (refund == 0) {\n                _registry.updateWithdraw(docId, getDateMillis(), amount);\n            } else {\n                _ballot.updateWithdraw(msg.sender, docId, getDateMillis(), amount);\n            }\n        }\n    }\n\n    function pay(bytes32 docId, address owner, uint256 amount, uint256 refund, uint256 dateMillis) external {\n        require(msg.sender == _foundation);\n        require(address(_registry) != address(0));\n        require(amount + refund > 0);\n        require(_token.balanceOf(address(this)) > amount + refund);\n        _token.transfer(owner, amount + refund);\n        if (refund == 0) {\n            _registry.updateWithdraw(docId, dateMillis, amount);\n        } else {\n            _ballot.updateWithdraw(owner, docId, dateMillis, amount);\n        }\n    }\n\n    function revoke() external onlyOwner() {\n        _token.transfer(msg.sender, _token.balanceOf(address(this)));\n        selfdestruct(msg.sender);\n    }\n\n    function setFoundation(address addr) external onlyOwner() {\n        if (_foundation != addr) _foundation = addr;\n    }\n\n    function setCreator(address addr) external onlyOwner() {\n        if (_creator != addr) _creator = addr;\n    }\n\n    function setCurator(address addr) external onlyOwner() {\n        if (_curator != addr) _curator = addr;\n    }\n\n    function getDailyRewardPool(uint256 percent, uint256 dt) external view returns (uint256) {\n        return uint256(((((_token.totalSupply() * 12 / 100) / 2) / (2 ** getOffsetYears(dt))) / 365) * percent / 100);\n    }\n\n    function getVestingMillis() external pure returns (uint256) {\n        // vesting days for voting in milliseconds\n        return uint256(7 * getOneDayMillis());\n    }\n\n    function getDateMillis() public view returns (uint256) {\n        return _registry.getDateMillis();\n    }\n\n    function deposit(address from, uint256 amount) public {\n        _token.transferFrom(from, address(this), amount);\n    }\n\n    function getOneDayMillis() public pure returns (uint256) {\n        return uint256(86400000);\n    }\n\n    function getOffsetYears(uint256 dt) private view returns (uint256) {\n        return uint256(uint256((getDateMillis() - dt) / getOneDayMillis()) / 365);\n    }\n}\n",
  "sourcePath": "/Users/centroine/Documents/iris/decompanyio/decompanyio/contracts/RewardPool.sol",
  "compiler": {
    "name": "solc",
    "version": "0.5.0+commit.1d4f565a.Emscripten.clang"
  },
  "schemaVersion": "3.0.2",
  "updatedAt": "2019-05-27T06:24:17.003Z",
  "devdoc": {
    "methods": {
      "isOwner()": {
        "return": "true if `msg.sender` is the owner of the contract."
      },
      "owner()": {
        "return": "the address of the owner."
      },
      "renounceOwnership()": {
        "details": "Allows the current owner to relinquish control of the contract."
      },
      "transferOwnership(address)": {
        "details": "Allows the current owner to transfer control of the contract to a newOwner.",
        "params": {
          "newOwner": "The address to transfer ownership to."
        }
      }
    }
  },
  "userdoc": {
    "methods": {
      "renounceOwnership()": {
        "notice": "Renouncing to ownership will leave the contract without an owner. It will not be possible to call the functions with the `onlyOwner` modifier anymore."
      }
    }
  }
}