{
  "contractName": "RewardPool",
  "abi": [
    {
      "constant": true,
      "inputs": [],
      "name": "_ballot",
      "outputs": [
        {
          "name": "",
          "type": "address"
        }
      ],
      "payable": false,
      "stateMutability": "view",
      "type": "function",
      "signature": "0x4939cf37"
    },
    {
      "constant": false,
      "inputs": [],
      "name": "renounceOwnership",
      "outputs": [],
      "payable": false,
      "stateMutability": "nonpayable",
      "type": "function",
      "signature": "0x715018a6"
    },
    {
      "constant": true,
      "inputs": [],
      "name": "_registry",
      "outputs": [
        {
          "name": "",
          "type": "address"
        }
      ],
      "payable": false,
      "stateMutability": "view",
      "type": "function",
      "signature": "0x79cbc5fa"
    },
    {
      "constant": true,
      "inputs": [],
      "name": "owner",
      "outputs": [
        {
          "name": "",
          "type": "address"
        }
      ],
      "payable": false,
      "stateMutability": "view",
      "type": "function",
      "signature": "0x8da5cb5b"
    },
    {
      "constant": true,
      "inputs": [],
      "name": "isOwner",
      "outputs": [
        {
          "name": "",
          "type": "bool"
        }
      ],
      "payable": false,
      "stateMutability": "view",
      "type": "function",
      "signature": "0x8f32d59b"
    },
    {
      "constant": true,
      "inputs": [],
      "name": "_token",
      "outputs": [
        {
          "name": "",
          "type": "address"
        }
      ],
      "payable": false,
      "stateMutability": "view",
      "type": "function",
      "signature": "0xecd0c0c3"
    },
    {
      "constant": false,
      "inputs": [
        {
          "name": "newOwner",
          "type": "address"
        }
      ],
      "name": "transferOwnership",
      "outputs": [],
      "payable": false,
      "stateMutability": "nonpayable",
      "type": "function",
      "signature": "0xf2fde38b"
    },
    {
      "anonymous": false,
      "inputs": [
        {
          "indexed": true,
          "name": "previousOwner",
          "type": "address"
        },
        {
          "indexed": true,
          "name": "newOwner",
          "type": "address"
        }
      ],
      "name": "OwnershipTransferred",
      "type": "event",
      "signature": "0x8be0079c531659141344cd1fd0a4f28419497f9722a3daafe3b4186f6b6457e0"
    },
    {
      "constant": false,
      "inputs": [
        {
          "name": "token",
          "type": "address"
        },
        {
          "name": "registry",
          "type": "address"
        },
        {
          "name": "ballot",
          "type": "address"
        }
      ],
      "name": "init",
      "outputs": [],
      "payable": false,
      "stateMutability": "nonpayable",
      "type": "function",
      "signature": "0x184b9559"
    },
    {
      "constant": false,
      "inputs": [
        {
          "name": "docId",
          "type": "bytes32"
        },
        {
          "name": "source",
          "type": "address"
        }
      ],
      "name": "claim",
      "outputs": [],
      "payable": false,
      "stateMutability": "nonpayable",
      "type": "function",
      "signature": "0x96c144f0"
    },
    {
      "constant": false,
      "inputs": [
        {
          "name": "docId",
          "type": "bytes32"
        },
        {
          "name": "owner",
          "type": "address"
        },
        {
          "name": "amount",
          "type": "uint256"
        },
        {
          "name": "refund",
          "type": "uint256"
        },
        {
          "name": "dateMillis",
          "type": "uint256"
        }
      ],
      "name": "pay",
      "outputs": [],
      "payable": false,
      "stateMutability": "nonpayable",
      "type": "function",
      "signature": "0x2ce8146f"
    },
    {
      "constant": false,
      "inputs": [],
      "name": "revoke",
      "outputs": [],
      "payable": false,
      "stateMutability": "nonpayable",
      "type": "function",
      "signature": "0xb6549f75"
    },
    {
      "constant": true,
      "inputs": [
        {
          "name": "_percent",
          "type": "uint256"
        },
        {
          "name": "_createTime",
          "type": "uint256"
        }
      ],
      "name": "getDailyRewardPool",
      "outputs": [
        {
          "name": "",
          "type": "uint256"
        }
      ],
      "payable": false,
      "stateMutability": "view",
      "type": "function",
      "signature": "0xdcb8e506"
    },
    {
      "constant": true,
      "inputs": [],
      "name": "getVestingMillis",
      "outputs": [
        {
          "name": "",
          "type": "uint256"
        }
      ],
      "payable": false,
      "stateMutability": "pure",
      "type": "function",
      "signature": "0x0f01b0ce"
    },
    {
      "constant": false,
      "inputs": [
        {
          "name": "addr",
          "type": "address"
        }
      ],
      "name": "setFoundation",
      "outputs": [],
      "payable": false,
      "stateMutability": "nonpayable",
      "type": "function",
      "signature": "0xdb3543f5"
    },
    {
      "constant": false,
      "inputs": [
        {
          "name": "addr",
          "type": "address"
        }
      ],
      "name": "setCreator",
      "outputs": [],
      "payable": false,
      "stateMutability": "nonpayable",
      "type": "function",
      "signature": "0x3f516018"
    },
    {
      "constant": false,
      "inputs": [
        {
          "name": "addr",
          "type": "address"
        }
      ],
      "name": "setCurator",
      "outputs": [],
      "payable": false,
      "stateMutability": "nonpayable",
      "type": "function",
      "signature": "0xe90956cf"
    },
    {
      "constant": true,
      "inputs": [],
      "name": "getDateMillis",
      "outputs": [
        {
          "name": "",
          "type": "uint256"
        }
      ],
      "payable": false,
      "stateMutability": "view",
      "type": "function",
      "signature": "0x7ff8b20e"
    },
    {
      "constant": true,
      "inputs": [],
      "name": "getOneDayMillis",
      "outputs": [
        {
          "name": "",
          "type": "uint256"
        }
      ],
      "payable": false,
      "stateMutability": "pure",
      "type": "function",
      "signature": "0xf733ad95"
    }
  ],
  "bytecode": "0x608060408190526305265c00600755600360085560008054600160a060020a0319163317808255600160a060020a0316917f8be0079c531659141344cd1fd0a4f28419497f9722a3daafe3b4186f6b6457e0908290a3610e9f806100646000396000f3fe6080604052600436106100fb5763ffffffff7c01000000000000000000000000000000000000000000000000000000006000350416630f01b0ce8114610100578063184b9559146101275780632ce8146f1461016e5780633f516018146101b95780634939cf37146101ec578063715018a61461021d57806379cbc5fa146102325780637ff8b20e146102475780638da5cb5b1461025c5780638f32d59b1461027157806396c144f01461029a578063b6549f75146102d3578063db3543f5146102e8578063dcb8e5061461031b578063e90956cf1461034b578063ecd0c0c31461037e578063f2fde38b14610393578063f733ad95146103c6575b600080fd5b34801561010c57600080fd5b506101156103db565b60408051918252519081900360200190f35b34801561013357600080fd5b5061016c6004803603606081101561014a57600080fd5b50600160a060020a0381358116916020810135821691604090910135166103e3565b005b34801561017a57600080fd5b5061016c600480360360a081101561019157600080fd5b50803590600160a060020a0360208201351690604081013590606081013590608001356104b6565b3480156101c557600080fd5b5061016c600480360360208110156101dc57600080fd5b5035600160a060020a0316610766565b3480156101f857600080fd5b506102016107ad565b60408051600160a060020a039092168252519081900360200190f35b34801561022957600080fd5b5061016c6107bc565b34801561023e57600080fd5b50610201610819565b34801561025357600080fd5b50610115610828565b34801561026857600080fd5b50610201610837565b34801561027d57600080fd5b50610286610846565b604080519115158252519081900360200190f35b3480156102a657600080fd5b5061016c600480360360408110156102bd57600080fd5b5080359060200135600160a060020a0316610857565b3480156102df57600080fd5b5061016c610b8f565b3480156102f457600080fd5b5061016c6004803603602081101561030b57600080fd5b5035600160a060020a0316610cf6565b34801561032757600080fd5b506101156004803603604081101561033e57600080fd5b5080359060200135610d3e565b34801561035757600080fd5b5061016c6004803603602081101561036e57600080fd5b5035600160a060020a0316610d71565b34801561038a57600080fd5b50610201610db9565b34801561039f57600080fd5b5061016c600480360360208110156103b657600080fd5b5035600160a060020a0316610dc8565b3480156103d257600080fd5b50610115610de4565b630f73140090565b6103eb610846565b15156103f657600080fd5b600160a060020a038316151561040b57600080fd5b600454600160a060020a03161561042157600080fd5b600160a060020a038116151561043657600080fd5b600554600160a060020a03161561044c57600080fd5b600160a060020a038216151561046157600080fd5b600654600160a060020a03161561047757600080fd5b60048054600160a060020a03948516600160a060020a031991821617909155600580549285169282169290921790915560068054929093169116179055565b600354600160a060020a031633146104cd57600080fd5b600654600160a060020a031615156104e457600080fd5b6000838301116104f357600080fd5b60048054604080517f70a0823100000000000000000000000000000000000000000000000000000000815230938101939093525185850192600160a060020a03909216916370a08231916024808301926020929190829003018186803b15801561055c57600080fd5b505afa158015610570573d6000803e3d6000fd5b505050506040513d602081101561058657600080fd5b50511161059257600080fd5b60048054604080517fa9059cbb000000000000000000000000000000000000000000000000000000008152600160a060020a038881169482019490945286860160248201529051929091169163a9059cbb916044808201926020929091908290030181600087803b15801561060657600080fd5b505af115801561061a573d6000803e3d6000fd5b505050506040513d602081101561063057600080fd5b50508115156106ca57600654604080517f0f9f68400000000000000000000000000000000000000000000000000000000081526004810188905260248101849052604481018690529051600160a060020a0390921691630f9f68409160648082019260009290919082900301818387803b1580156106ad57600080fd5b505af11580156106c1573d6000803e3d6000fd5b5050505061075f565b600554604080517fc0de2c18000000000000000000000000000000000000000000000000000000008152600160a060020a0387811660048301526024820189905260448201859052606482018790529151919092169163c0de2c1891608480830192600092919082900301818387803b15801561074657600080fd5b505af115801561075a573d6000803e3d6000fd5b505050505b5050505050565b61076e610846565b151561077957600080fd5b600154600160a060020a038281169116146107aa5760018054600160a060020a031916600160a060020a0383161790555b50565b600554600160a060020a031681565b6107c4610846565b15156107cf57600080fd5b60008054604051600160a060020a03909116907f8be0079c531659141344cd1fd0a4f28419497f9722a3daafe3b4186f6b6457e0908390a360008054600160a060020a0319169055565b600654600160a060020a031681565b6305265c006201518042040290565b600054600160a060020a031690565b600054600160a060020a0316331490565b600654600160a060020a0316151561086e57600080fd5b600154600160a060020a03828116911614806108975750600254600160a060020a038281169116145b15156108a257600080fd5b604080517f904e5e57000000000000000000000000000000000000000000000000000000008152336004820152602481018490526305265c006201518042040260448201819052825190926000928392600160a060020a0387169263904e5e579260648082019391829003018186803b15801561091e57600080fd5b505afa158015610932573d6000803e3d6000fd5b505050506040513d604081101561094857600080fd5b508051602090910151909250905060008183011180156109fa575060048054604080517f70a0823100000000000000000000000000000000000000000000000000000000815230938101939093525184840192600160a060020a03909216916370a08231916024808301926020929190829003018186803b1580156109cc57600080fd5b505afa1580156109e0573d6000803e3d6000fd5b505050506040513d60208110156109f657600080fd5b5051115b1561075f5760048054604080517fa9059cbb0000000000000000000000000000000000000000000000000000000081523393810193909352848401602484015251600160a060020a039091169163a9059cbb9160448083019260209291908290030181600087803b158015610a6e57600080fd5b505af1158015610a82573d6000803e3d6000fd5b505050506040513d6020811015610a9857600080fd5b5050801515610b1557600654604080517f0f9f68400000000000000000000000000000000000000000000000000000000081526004810188905260248101869052604481018590529051600160a060020a0390921691630f9f68409160648082019260009290919082900301818387803b1580156106ad57600080fd5b600554604080517fc0de2c180000000000000000000000000000000000000000000000000000000081523360048201526024810188905260448101869052606481018590529051600160a060020a039092169163c0de2c189160848082019260009290919082900301818387803b15801561074657600080fd5b610b97610846565b1515610ba257600080fd5b60048054604080517f70a08231000000000000000000000000000000000000000000000000000000008152309381019390935251600160a060020a039091169163a9059cbb91339184916370a0823191602480820192602092909190829003018186803b158015610c1257600080fd5b505afa158015610c26573d6000803e3d6000fd5b505050506040513d6020811015610c3c57600080fd5b5051604080517c010000000000000000000000000000000000000000000000000000000063ffffffff8616028152600160a060020a03909316600484015260248301919091525160448083019260209291908290030181600087803b158015610ca457600080fd5b505af1158015610cb8573d6000803e3d6000fd5b505050506040513d6020811015610cce57600080fd5b505060018054600160a060020a03199081169091556002805482169055600380549091169055565b610cfe610846565b1515610d0957600080fd5b600354600160a060020a038281169116146107aa5760038054600160a060020a038316600160a060020a031990911617905550565b600080610d4a83610dec565b905068591ccd47b39149a000600282900a858202811515610d6757fe5b0495945050505050565b610d79610846565b1515610d8457600080fd5b600254600160a060020a038281169116146107aa5760028054600160a060020a038316600160a060020a031990911617905550565b600454600160a060020a031681565b610dd0610846565b1515610ddb57600080fd5b6107aa81610e03565b6305265c0090565b61016d620151806103e89092044203919091040490565b600160a060020a0381161515610e1857600080fd5b60008054604051600160a060020a03808516939216917f8be0079c531659141344cd1fd0a4f28419497f9722a3daafe3b4186f6b6457e091a360008054600160a060020a031916600160a060020a039290921691909117905556fea165627a7a72305820ee199e0d91f63c66347f9ee54d96ec947542c30f44735fd1e243ae5a382ef0050029",
  "source": "pragma solidity ^0.5.0;\n\nimport \"openzeppelin-solidity/contracts/ownership/Ownable.sol\";\nimport \"./Deck.sol\";\nimport \"./Ballot.sol\";\nimport \"./DocumentRegistry.sol\";\nimport \"./IAsset.sol\";\n\ncontract RewardPool is Ownable {\n\n  address private _creator;\n  address private _curator;\n  address private _foundation;\n\n  Deck public _token;\n  Ballot public _ballot;\n  DocumentRegistry public _registry;\n\n  uint256 private ONE_DAY_MILLIS = 86400000;\n  uint256 private DEPOSIT_DAYS = 3;\n\n  function init(address token, address registry, address ballot) external onlyOwner() {\n    require(address(token) != address(0));\n    require(address(_token) == address(0));\n    require(address(ballot) != address(0));\n    require(address(_ballot) == address(0));\n    require(address(registry) != address(0));\n    require(address(_registry) == address(0));\n    _token = Deck(token);\n    _ballot = Ballot(ballot);\n    _registry = DocumentRegistry(registry);\n  }\n\n  function claim(bytes32 docId, IAsset source) external {\n    require(address(_registry) != address(0));\n    require(address(source) == _creator || address(source) == _curator);\n    uint256 dateMillis = uint(block.timestamp/86400) * 86400000;\n    (uint256 amount, uint256 refund) = source.determineAt(msg.sender, docId, dateMillis);\n    if ((amount + refund) > 0 && _token.balanceOf(address(this)) > (amount + refund)) {\n      _token.transfer(msg.sender, (amount + refund));\n      if (refund == 0) {\n        _registry.updateWithdraw(docId, dateMillis, amount);\n      } else {\n        _ballot.updateWithdraw(msg.sender, docId, dateMillis, amount);\n      }\n    }\n  }\n\n  function pay(bytes32 docId, address owner, uint256 amount, uint256 refund, uint256 dateMillis) external {\n    require(msg.sender == _foundation);\n    require(address(_registry) != address(0));\n    require(amount + refund > 0);\n    require(_token.balanceOf(address(this)) > amount + refund);\n    _token.transfer(owner, amount + refund);\n    if (refund == 0) {\n      _registry.updateWithdraw(docId, dateMillis, amount);\n    } else {\n      _ballot.updateWithdraw(owner, docId, dateMillis, amount);\n    }\n  }\n\n  function revoke() external onlyOwner() {\n    _token.transfer(msg.sender, _token.balanceOf(address(this)));\n    _creator = address(0);\n    _curator = address(0);\n    _foundation = address(0);\n  }\n\n  function getDailyRewardPool(uint _percent, uint _createTime) external view returns (uint) {\n    uint offsetYears = getOffsetYears(_createTime);\n    // initial daily reward pool tokens : (60000000 / 365) * decimals(10 ** 18) / percent(100)\n    uint initialTokens = 16438356164 * (10 ** 11);\n    return uint((initialTokens * _percent) / (2 ** offsetYears));\n  }\n\n  function getOffsetYears(uint _from) private view returns (uint) {\n    uint curTimeSec = block.timestamp;\n    uint createTimeSec = uint(_from / 1000);\n    uint offsetSec = curTimeSec - createTimeSec;\n    uint offsetDays = uint(offsetSec / uint(86400));\n    return uint(offsetDays / 365);\n  }\n\n  function getVestingMillis() external pure returns (uint) {\n    return 3 * 86400000;\n  }\n\n  function setFoundation(address addr) external onlyOwner() {\n    if (_foundation != addr) _foundation = addr;\n  }\n\n  function setCreator(address addr) external onlyOwner() {\n    if (_creator != addr) _creator = addr;\n  }\n\n  function setCurator(address addr) external onlyOwner() {\n    if (_curator != addr) _curator = addr;\n  }\n\n  function getDateMillis() public view returns (uint) {\n    uint tDay = uint(block.timestamp / uint(86400000 / 1000));\n    uint tMillis = tDay * 86400000;\n    return tMillis;\n  }\n\n  function getOneDayMillis() public pure returns (uint) {\n    return 86400000;\n  }\n}\n",
  "sourcePath": "/Users/centroine/Documents/iris/decompanyio/decompanyio/contracts/RewardPool.sol",
  "compiler": {
    "name": "solc",
    "version": "0.5.0+commit.1d4f565a.Emscripten.clang"
  },
  "schemaVersion": "3.0.2",
  "updatedAt": "2019-02-27T01:41:34.099Z",
  "devdoc": {
    "methods": {
      "isOwner()": {
        "return": "true if `msg.sender` is the owner of the contract."
      },
      "owner()": {
        "return": "the address of the owner."
      },
      "renounceOwnership()": {
        "details": "Allows the current owner to relinquish control of the contract."
      },
      "transferOwnership(address)": {
        "details": "Allows the current owner to transfer control of the contract to a newOwner.",
        "params": {
          "newOwner": "The address to transfer ownership to."
        }
      }
    }
  },
  "userdoc": {
    "methods": {
      "renounceOwnership()": {
        "notice": "Renouncing to ownership will leave the contract without an owner. It will not be possible to call the functions with the `onlyOwner` modifier anymore."
      }
    }
  }
}