{
  "contractName": "RewardPool",
  "abi": [
    {
      "inputs": [],
      "payable": false,
      "stateMutability": "nonpayable",
      "type": "constructor"
    },
    {
      "anonymous": false,
      "inputs": [
        {
          "indexed": false,
          "internalType": "uint256",
          "name": "dateMillis",
          "type": "uint256"
        },
        {
          "indexed": false,
          "internalType": "address",
          "name": "target",
          "type": "address"
        },
        {
          "indexed": false,
          "internalType": "uint256",
          "name": "amount",
          "type": "uint256"
        }
      ],
      "name": "AddRefund",
      "type": "event"
    },
    {
      "anonymous": false,
      "inputs": [
        {
          "indexed": false,
          "internalType": "uint256",
          "name": "dateMillis",
          "type": "uint256"
        },
        {
          "indexed": false,
          "internalType": "address",
          "name": "target",
          "type": "address"
        },
        {
          "indexed": false,
          "internalType": "uint256",
          "name": "amount",
          "type": "uint256"
        }
      ],
      "name": "AddReward",
      "type": "event"
    },
    {
      "anonymous": false,
      "inputs": [
        {
          "indexed": false,
          "internalType": "uint256",
          "name": "dateMillis",
          "type": "uint256"
        },
        {
          "indexed": false,
          "internalType": "address",
          "name": "target",
          "type": "address"
        },
        {
          "indexed": false,
          "internalType": "uint256",
          "name": "amount",
          "type": "uint256"
        }
      ],
      "name": "AddRoyalty",
      "type": "event"
    },
    {
      "anonymous": false,
      "inputs": [
        {
          "indexed": false,
          "internalType": "uint256",
          "name": "dateMillis",
          "type": "uint256"
        },
        {
          "indexed": false,
          "internalType": "address",
          "name": "target",
          "type": "address"
        },
        {
          "indexed": false,
          "internalType": "uint256",
          "name": "amount",
          "type": "uint256"
        },
        {
          "indexed": false,
          "internalType": "uint256",
          "name": "refund",
          "type": "uint256"
        }
      ],
      "name": "ClaimReward",
      "type": "event"
    },
    {
      "anonymous": false,
      "inputs": [
        {
          "indexed": false,
          "internalType": "uint256",
          "name": "dateMillis",
          "type": "uint256"
        },
        {
          "indexed": false,
          "internalType": "address",
          "name": "target",
          "type": "address"
        },
        {
          "indexed": false,
          "internalType": "uint256",
          "name": "amount",
          "type": "uint256"
        }
      ],
      "name": "ClaimRoyalty",
      "type": "event"
    },
    {
      "anonymous": false,
      "inputs": [
        {
          "indexed": false,
          "internalType": "address",
          "name": "old",
          "type": "address"
        },
        {
          "indexed": false,
          "internalType": "address",
          "name": "to",
          "type": "address"
        }
      ],
      "name": "OwnershipTransferred",
      "type": "event"
    },
    {
      "anonymous": false,
      "inputs": [
        {
          "indexed": false,
          "internalType": "uint256",
          "name": "dateMillis",
          "type": "uint256"
        },
        {
          "indexed": false,
          "internalType": "address",
          "name": "target",
          "type": "address"
        },
        {
          "indexed": false,
          "internalType": "uint256",
          "name": "startDateMillis",
          "type": "uint256"
        },
        {
          "indexed": false,
          "internalType": "uint256",
          "name": "amount",
          "type": "uint256"
        },
        {
          "indexed": false,
          "internalType": "uint256",
          "name": "refund",
          "type": "uint256"
        }
      ],
      "name": "PayReward",
      "type": "event"
    },
    {
      "anonymous": false,
      "inputs": [
        {
          "indexed": false,
          "internalType": "uint256",
          "name": "dateMillis",
          "type": "uint256"
        },
        {
          "indexed": false,
          "internalType": "address",
          "name": "target",
          "type": "address"
        },
        {
          "indexed": false,
          "internalType": "uint256",
          "name": "startDateMillis",
          "type": "uint256"
        },
        {
          "indexed": false,
          "internalType": "uint256",
          "name": "amount",
          "type": "uint256"
        }
      ],
      "name": "PayRoyalty",
      "type": "event"
    },
    {
      "constant": true,
      "inputs": [],
      "name": "_token",
      "outputs": [
        {
          "internalType": "contract IERC20",
          "name": "",
          "type": "address"
        }
      ],
      "payable": false,
      "stateMutability": "view",
      "type": "function"
    },
    {
      "constant": false,
      "inputs": [
        {
          "internalType": "address",
          "name": "addr",
          "type": "address"
        }
      ],
      "name": "transferOwnership",
      "outputs": [],
      "payable": false,
      "stateMutability": "nonpayable",
      "type": "function"
    },
    {
      "constant": false,
      "inputs": [
        {
          "internalType": "address",
          "name": "addr",
          "type": "address"
        }
      ],
      "name": "setRegistry",
      "outputs": [],
      "payable": false,
      "stateMutability": "nonpayable",
      "type": "function"
    },
    {
      "constant": false,
      "inputs": [
        {
          "internalType": "address",
          "name": "addr",
          "type": "address"
        }
      ],
      "name": "setBallot",
      "outputs": [],
      "payable": false,
      "stateMutability": "nonpayable",
      "type": "function"
    },
    {
      "constant": false,
      "inputs": [
        {
          "internalType": "address",
          "name": "addr",
          "type": "address"
        }
      ],
      "name": "setToken",
      "outputs": [],
      "payable": false,
      "stateMutability": "nonpayable",
      "type": "function"
    },
    {
      "constant": false,
      "inputs": [
        {
          "internalType": "address",
          "name": "foundation",
          "type": "address"
        }
      ],
      "name": "setFoundation",
      "outputs": [],
      "payable": false,
      "stateMutability": "nonpayable",
      "type": "function"
    },
    {
      "constant": false,
      "inputs": [
        {
          "internalType": "uint256",
          "name": "dateMillis",
          "type": "uint256"
        },
        {
          "internalType": "address",
          "name": "target",
          "type": "address"
        },
        {
          "internalType": "uint256",
          "name": "amount",
          "type": "uint256"
        }
      ],
      "name": "addRoyalty",
      "outputs": [],
      "payable": false,
      "stateMutability": "nonpayable",
      "type": "function"
    },
    {
      "constant": false,
      "inputs": [
        {
          "internalType": "uint256",
          "name": "dateMillis",
          "type": "uint256"
        },
        {
          "internalType": "address",
          "name": "target",
          "type": "address"
        },
        {
          "internalType": "uint256",
          "name": "amount",
          "type": "uint256"
        }
      ],
      "name": "addReward",
      "outputs": [],
      "payable": false,
      "stateMutability": "nonpayable",
      "type": "function"
    },
    {
      "constant": false,
      "inputs": [
        {
          "internalType": "uint256",
          "name": "dateMillis",
          "type": "uint256"
        },
        {
          "internalType": "address",
          "name": "target",
          "type": "address"
        },
        {
          "internalType": "uint256",
          "name": "amount",
          "type": "uint256"
        },
        {
          "internalType": "uint256",
          "name": "refund",
          "type": "uint256"
        }
      ],
      "name": "addRewards",
      "outputs": [],
      "payable": false,
      "stateMutability": "nonpayable",
      "type": "function"
    },
    {
      "constant": false,
      "inputs": [
        {
          "internalType": "uint256",
          "name": "dateMillis",
          "type": "uint256"
        },
        {
          "internalType": "address",
          "name": "target",
          "type": "address"
        },
        {
          "internalType": "uint256",
          "name": "amount",
          "type": "uint256"
        }
      ],
      "name": "addRefund",
      "outputs": [],
      "payable": false,
      "stateMutability": "nonpayable",
      "type": "function"
    },
    {
      "constant": false,
      "inputs": [
        {
          "internalType": "uint256",
          "name": "dateMillis",
          "type": "uint256"
        },
        {
          "internalType": "address",
          "name": "target",
          "type": "address"
        },
        {
          "internalType": "uint256",
          "name": "startDateMillis",
          "type": "uint256"
        },
        {
          "internalType": "uint256",
          "name": "amount",
          "type": "uint256"
        }
      ],
      "name": "payRoyalty",
      "outputs": [],
      "payable": false,
      "stateMutability": "nonpayable",
      "type": "function"
    },
    {
      "constant": false,
      "inputs": [
        {
          "internalType": "uint256",
          "name": "dateMillis",
          "type": "uint256"
        },
        {
          "internalType": "address",
          "name": "target",
          "type": "address"
        },
        {
          "internalType": "uint256",
          "name": "startDateMillis",
          "type": "uint256"
        },
        {
          "internalType": "uint256",
          "name": "amount",
          "type": "uint256"
        },
        {
          "internalType": "uint256",
          "name": "refund",
          "type": "uint256"
        }
      ],
      "name": "payReward",
      "outputs": [],
      "payable": false,
      "stateMutability": "nonpayable",
      "type": "function"
    },
    {
      "constant": false,
      "inputs": [],
      "name": "claimRoyalty",
      "outputs": [],
      "payable": false,
      "stateMutability": "nonpayable",
      "type": "function"
    },
    {
      "constant": false,
      "inputs": [],
      "name": "claimReward",
      "outputs": [],
      "payable": false,
      "stateMutability": "nonpayable",
      "type": "function"
    }
  ],
  "bytecode": "0x608060405234801561001057600080fd5b50600380546001600160a01b0319163317905561181c806100326000396000f3fe608060405234801561001057600080fd5b50600436106100ea5760003560e01c8063b88a802f1161008c578063d051bfa311610066578063d051bfa314610291578063db3543f5146102b7578063ecd0c0c3146102dd578063f2fde38b14610301576100ea565b8063b88a802f1461021f578063bfc5ed5914610227578063c4397f4414610259576100ea565b806391b87f23116100c857806391b87f23146101575780639847ee95146101895780639bdca680146101c7578063a91ee0dc146101f9576100ea565b8063144fa6d7146100ef5780638ed49fcc14610117578063900e92c41461014f575b600080fd5b6101156004803603602081101561010557600080fd5b50356001600160a01b0316610327565b005b6101156004803603608081101561012d57600080fd5b508035906001600160a01b0360208201351690604081013590606001356103ed565b61011561044c565b6101156004803603606081101561016d57600080fd5b508035906001600160a01b0360208201351690604001356106a5565b610115600480360360a081101561019f57600080fd5b508035906001600160a01b036020820135169060408101359060608101359060800135610801565b610115600480360360608110156101dd57600080fd5b508035906001600160a01b0360208201351690604001356108dc565b6101156004803603602081101561020f57600080fd5b50356001600160a01b0316610a4e565b610115610b14565b6101156004803603606081101561023d57600080fd5b508035906001600160a01b036020820135169060400135610e50565b6101156004803603608081101561026f57600080fd5b508035906001600160a01b036020820135169060408101359060600135610fc2565b610115600480360360208110156102a757600080fd5b50356001600160a01b03166111ef565b610115600480360360208110156102cd57600080fd5b50356001600160a01b03166112b5565b6102e561137b565b604080516001600160a01b039092168252519081900360200190f35b6101156004803603602081101561031757600080fd5b50356001600160a01b031661138a565b6003546001600160a01b0316331461037e576040805162461bcd60e51b81526020600482015260156024820152741bdb9b1e481bdddb995c881a5cc8185b1b1bddd959605a1b604482015290519081900360640190fd5b6001600160a01b0381166103cb576040805162461bcd60e51b815260206004820152600f60248201526e696e76616c6964206164647265737360881b604482015290519081900360640190fd5b600080546001600160a01b0319166001600160a01b0392909216919091179055565b604080518581526001600160a01b03851660208201528082018490526060810183905290517f2c2caf77aad4416d0cf4b2b0cf81e75dc813984cf138b1d712e3c5abe51b1a759181900360800190a16104468382611498565b50505050565b6002546001600160a01b03166104a6576040805162461bcd60e51b815260206004820152601a6024820152791d1a19481c9959da5cdd1c9e481cda1bdd5b19081899481cd95d60321b604482015290519081900360640190fd5b6000546001600160a01b03166104fd576040805162461bcd60e51b81526020600482015260176024820152761d1a19481d1bdad95b881cda1bdd5b19081899481cd95d604a1b604482015290519081900360640190fd5b33600090815260056020526040902054610551576040805162461bcd60e51b815260206004820152601060248201526f6e6f7468696e6720746f20636c61696d60801b604482015290519081900360640190fd5b3360009081526005602090815260409182902054600254835163d1eb68cb60e01b8152935191937f0cdd87f1fa4fefd432b117527963560de68cedf2659e1899059ab942682cd893936001600160a01b039092169263d1eb68cb92600480840193919291829003018186803b1580156105c957600080fd5b505afa1580156105dd573d6000803e3d6000fd5b505050506040513d60208110156105f357600080fd5b505160408051918252336020830152818101849052519081900360600190a13360008181526005602090815260408083208390558254815163a9059cbb60e01b815260048101959095526024850186905290516001600160a01b039091169363a9059cbb9360448083019493928390030190829087803b15801561067657600080fd5b505af115801561068a573d6000803e3d6000fd5b505050506040513d60208110156106a057600080fd5b505050565b6004546001600160a01b031633146106ee5760405162461bcd60e51b81526004018080602001828103825260218152602001806117c76021913960400191505060405180910390fd5b6001600160a01b03821661073b576040805162461bcd60e51b815260206004820152600f60248201526e696e76616c6964206164647265737360881b604482015290519081900360640190fd5b6000811161077a5760405162461bcd60e51b81526004018080602001828103825260228152602001806117a56022913960400191505060405180910390fd5b6001600160a01b0382166000908152600560205260409020548181011161079d57fe5b6001600160a01b038216600081815260056020908152604091829020805485019055815186815290810192909252818101839052517fe21ca653fa96fdc041aa638232f1ded2f57575301d3259ca1238a9a3b9ea665f9181900360600190a1505050565b8015610875576001546040805163410085df60e01b81526001600160a01b038781166004830152602482018590529151919092169163410085df91604480830192600092919082900301818387803b15801561085c57600080fd5b505af1158015610870573d6000803e3d6000fd5b505050505b604080518681526001600160a01b0386166020820152808201859052606081018490526080810183905290517fcb8d6121644792129f215d3d91ece4e1f9f46d18554cc6d0095c9eefa3d350b59181900360a00190a16108d58483611498565b5050505050565b6004546001600160a01b0316331461093b576040805162461bcd60e51b815260206004820152601f60248201527f6f6e6c7920666f756e646174696f6e2063616e2061646420726566756e647300604482015290519081900360640190fd5b6001600160a01b038216610988576040805162461bcd60e51b815260206004820152600f60248201526e696e76616c6964206164647265737360881b604482015290519081900360640190fd5b600081116109c75760405162461bcd60e51b81526004018080602001828103825260228152602001806117a56022913960400191505060405180910390fd5b6001600160a01b038216600090815260076020526040902054818101116109ea57fe5b6001600160a01b038216600081815260076020908152604091829020805485019055815186815290810192909252818101839052517fc4bd7848f859b9379b1eb5a60ef25d0846229280cc2ebd16209b07bb727f7de49181900360600190a1505050565b6003546001600160a01b03163314610aa5576040805162461bcd60e51b81526020600482015260156024820152741bdb9b1e481bdddb995c881a5cc8185b1b1bddd959605a1b604482015290519081900360640190fd5b6001600160a01b038116610af2576040805162461bcd60e51b815260206004820152600f60248201526e696e76616c6964206164647265737360881b604482015290519081900360640190fd5b600280546001600160a01b0319166001600160a01b0392909216919091179055565b6002546001600160a01b0316610b6e576040805162461bcd60e51b815260206004820152601a6024820152791d1a19481c9959da5cdd1c9e481cda1bdd5b19081899481cd95d60321b604482015290519081900360640190fd5b6001546001600160a01b0316610bc6576040805162461bcd60e51b81526020600482015260186024820152771d1a194818985b1b1bdd081cda1bdd5b19081899481cd95d60421b604482015290519081900360640190fd5b6000546001600160a01b0316610c1d576040805162461bcd60e51b81526020600482015260176024820152761d1a19481d1bdad95b881cda1bdd5b19081899481cd95d604a1b604482015290519081900360640190fd5b33600090815260066020526040902054610c71576040805162461bcd60e51b815260206004820152601060248201526f6e6f7468696e6720746f20636c61696d60801b604482015290519081900360640190fd5b336000908152600660209081526040808320546007909252909120548015610d0e5733600081815260076020526040808220829055600154815163410085df60e01b815260048101949094526024840185905290516001600160a01b039091169263410085df92604480830193919282900301818387803b158015610cf557600080fd5b505af1158015610d09573d6000803e3d6000fd5b505050505b6002546040805163d1eb68cb60e01b815290517f40e6a337f1a78915df745fd02b2ca082e64e8a780a99b8fbb355f64409b399cc926001600160a01b03169163d1eb68cb916004808301926020929190829003018186803b158015610d7257600080fd5b505afa158015610d86573d6000803e3d6000fd5b505050506040513d6020811015610d9c57600080fd5b50516040805191825233602083015281810185905260608201849052519081900360800190a13360008181526006602090815260408083208390558254815163a9059cbb60e01b815260048101959095526024850187905290516001600160a01b039091169363a9059cbb9360448083019493928390030190829087803b158015610e2657600080fd5b505af1158015610e3a573d6000803e3d6000fd5b505050506040513d602081101561044657600080fd5b6004546001600160a01b03163314610eaf576040805162461bcd60e51b815260206004820152601e60248201527f6f6e6c7920666f756e646174696f6e2063616e20616464207265776172640000604482015290519081900360640190fd5b6001600160a01b038216610efc576040805162461bcd60e51b815260206004820152600f60248201526e696e76616c6964206164647265737360881b604482015290519081900360640190fd5b60008111610f3b5760405162461bcd60e51b81526004018080602001828103825260228152602001806117a56022913960400191505060405180910390fd5b6001600160a01b03821660009081526006602052604090205481810111610f5e57fe5b6001600160a01b038216600081815260066020908152604091829020805485019055815186815290810192909252818101839052517fecb17d85773a7badfe83b5e9972f80ca4f1e2ad21096741a115c36c31ef016019181900360600190a1505050565b6004546001600160a01b03163314611021576040805162461bcd60e51b815260206004820152601f60248201527f6f6e6c7920666f756e646174696f6e2063616e20616464207265776172647300604482015290519081900360640190fd5b6001600160a01b03831661106e576040805162461bcd60e51b815260206004820152600f60248201526e696e76616c6964206164647265737360881b604482015290519081900360640190fd5b600082116110ad5760405162461bcd60e51b81526004018080602001828103825260228152602001806117a56022913960400191505060405180910390fd5b600081116110ec5760405162461bcd60e51b81526004018080602001828103825260228152602001806117a56022913960400191505060405180910390fd5b6001600160a01b0383166000908152600660205260409020548281011161110f57fe5b6001600160a01b038316600090815260066020908152604080832080548601905560079091529020548181011161114257fe5b6001600160a01b038316600081815260076020908152604091829020805485019055815187815290810192909252818101849052517fecb17d85773a7badfe83b5e9972f80ca4f1e2ad21096741a115c36c31ef016019181900360600190a1604080518581526001600160a01b038516602082015280820183905290517fc4bd7848f859b9379b1eb5a60ef25d0846229280cc2ebd16209b07bb727f7de49181900360600190a150505050565b6003546001600160a01b03163314611246576040805162461bcd60e51b81526020600482015260156024820152741bdb9b1e481bdddb995c881a5cc8185b1b1bddd959605a1b604482015290519081900360640190fd5b6001600160a01b038116611293576040805162461bcd60e51b815260206004820152600f60248201526e696e76616c6964206164647265737360881b604482015290519081900360640190fd5b600180546001600160a01b0319166001600160a01b0392909216919091179055565b6003546001600160a01b0316331461130c576040805162461bcd60e51b81526020600482015260156024820152741bdb9b1e481bdddb995c881a5cc8185b1b1bddd959605a1b604482015290519081900360640190fd5b6001600160a01b038116611359576040805162461bcd60e51b815260206004820152600f60248201526e696e76616c6964206164647265737360881b604482015290519081900360640190fd5b600480546001600160a01b0319166001600160a01b0392909216919091179055565b6000546001600160a01b031681565b6003546001600160a01b031633146113e1576040805162461bcd60e51b81526020600482015260156024820152741bdb9b1e481bdddb995c881a5cc8185b1b1bddd959605a1b604482015290519081900360640190fd5b6001600160a01b03811661142e576040805162461bcd60e51b815260206004820152600f60248201526e696e76616c6964206164647265737360881b604482015290519081900360640190fd5b600354604080516001600160a01b039283168152918316602083015280517f8be0079c531659141344cd1fd0a4f28419497f9722a3daafe3b4186f6b6457e09281900390910190a1600380546001600160a01b0319166001600160a01b0392909216919091179055565b6001600160a01b0382166114e5576040805162461bcd60e51b815260206004820152600f60248201526e696e76616c6964206164647265737360881b604482015290519081900360640190fd5b600081116115245760405162461bcd60e51b81526004018080602001828103825260228152602001806117a56022913960400191505060405180910390fd5b6004546001600160a01b03163314611583576040805162461bcd60e51b815260206004820152601f60248201527f6f6e6c7920666f756e646174696f6e2063616e20706179207265776172647300604482015290519081900360640190fd5b6002546001600160a01b03166115dd576040805162461bcd60e51b815260206004820152601a6024820152791d1a19481c9959da5cdd1c9e481cda1bdd5b19081899481cd95d60321b604482015290519081900360640190fd5b6001546001600160a01b0316611635576040805162461bcd60e51b81526020600482015260186024820152771d1a194818985b1b1bdd081cda1bdd5b19081899481cd95d60421b604482015290519081900360640190fd5b6000546001600160a01b031661168c576040805162461bcd60e51b81526020600482015260176024820152761d1a19481d1bdad95b881cda1bdd5b19081899481cd95d604a1b604482015290519081900360640190fd5b600054604080516370a0823160e01b8152306004820152905183926001600160a01b0316916370a08231916024808301926020929190829003018186803b1580156116d657600080fd5b505afa1580156116ea573d6000803e3d6000fd5b505050506040513d602081101561170057600080fd5b50511161174b576040805162461bcd60e51b8152602060048201526014602482015273696e73756666696369656e742062616c616e636560601b604482015290519081900360640190fd5b600080546040805163a9059cbb60e01b81526001600160a01b038681166004830152602482018690529151919092169263a9059cbb92604480820193602093909283900390910190829087803b158015610e2657600080fdfe74686520616d6f756e742073686f756c6420626520626967676572207468616e20306f6e6c7920666f756e646174696f6e2063616e2061646420726f79616c74696573a265627a7a72315820d1ed9fc922ffe8f3c17400072896ec7933623679d60b0c040bb73c802dff275564736f6c634300050c0032",
  "source": "pragma solidity ^0.5.0;\n\nimport \"./IERC20.sol\";\nimport \"./Registry.sol\";\nimport \"./Ballot.sol\";\n\ncontract RewardPool {\n\n    event PayRoyalty(uint256 dateMillis, address target, uint256 startDateMillis, uint256 amount);\n    event PayReward(uint256 dateMillis, address target, uint256 startDateMillis, uint256 amount, uint256 refund);\n    event AddRoyalty(uint256 dateMillis, address target, uint256 amount);\n    event AddReward(uint256 dateMillis, address target, uint256 amount);\n    event AddRefund(uint256 dateMillis, address target, uint256 amount);\n    event ClaimRoyalty(uint256 dateMillis, address target, uint256 amount);\n    event ClaimReward(uint256 dateMillis, address target, uint256 amount, uint256 refund);\n    event OwnershipTransferred(address old, address to);\n\n    IERC20 public _token;\n\n    Ballot private _ballot;\n    Registry private _registry;\n\n    address private _owner;\n    address private _foundation;\n\n    mapping(address => uint256) private _royalties;\n    mapping(address => uint256) private _rewards;\n    mapping(address => uint256) private _refunds;\n\n    constructor() public {\n        _owner = msg.sender;\n    }\n\n    modifier onlyOwner() {\n        require(msg.sender == _owner, \"only owner is allowed\");\n        _;\n    }\n\n    function transferOwnership(address addr) external onlyOwner() {\n        require(addr != address(0), \"invalid address\");\n        emit OwnershipTransferred(_owner, addr);\n        _owner = addr;\n    }\n\n    function setRegistry(address addr) external onlyOwner() {\n        require(addr != address(0), \"invalid address\");\n        _registry = Registry(addr);\n    }\n\n    function setBallot(address addr) external onlyOwner() {\n        require(addr != address(0), \"invalid address\");\n        _ballot = Ballot(addr);\n    }\n\n    function setToken(address addr) external onlyOwner() {\n        require(addr != address(0), \"invalid address\");\n        _token = IERC20(addr);\n    }\n\n    function setFoundation(address foundation) external onlyOwner() {\n        require(foundation != address(0), \"invalid address\");\n        _foundation = foundation;\n    }\n\n    function addRoyalty(uint256 dateMillis, address target, uint256 amount) external {\n        require(msg.sender == _foundation, \"only foundation can add royalties\");\n        require(target != address(0), \"invalid address\");\n        require(amount > 0, \"the amount should be bigger than 0\");\n\n        assert(_royalties[target] + amount > _royalties[target]);\n        _royalties[target] += amount;\n\n        emit AddRoyalty(dateMillis, target, amount);\n    }\n\n    function addReward(uint256 dateMillis, address target, uint256 amount) external {\n        require(msg.sender == _foundation, \"only foundation can add reward\");\n        require(target != address(0), \"invalid address\");\n        require(amount > 0, \"the amount should be bigger than 0\");\n\n        assert(_rewards[target] + amount > _rewards[target]);\n        _rewards[target] += amount;\n\n        emit AddReward(dateMillis, target, amount);\n    }\n\n    function addRewards(uint256 dateMillis, address target, uint256 amount, uint256 refund) external {\n        require(msg.sender == _foundation, \"only foundation can add rewards\");\n        require(target != address(0), \"invalid address\");\n        require(amount > 0, \"the amount should be bigger than 0\");\n        require(refund > 0, \"the amount should be bigger than 0\");\n\n        assert(_rewards[target] + amount > _rewards[target]);\n        _rewards[target] += amount;\n        assert(_refunds[target] + refund > _refunds[target]);\n        _refunds[target] += refund;\n\n        emit AddReward(dateMillis, target, amount);\n        emit AddRefund(dateMillis, target, refund);\n    }\n\n    function addRefund(uint256 dateMillis, address target, uint256 amount) external {\n        require(msg.sender == _foundation, \"only foundation can add refunds\");\n        require(target != address(0), \"invalid address\");\n        require(amount > 0, \"the amount should be bigger than 0\");\n\n        assert(_refunds[target] + amount > _refunds[target]);\n        _refunds[target] += amount;\n\n        emit AddRefund(dateMillis, target, amount);\n    }\n\n    function payRoyalty(uint256 dateMillis, address target, uint256 startDateMillis, uint256 amount) external {\n        emit PayRoyalty(dateMillis, target, startDateMillis, amount);\n        _pay(target, amount);\n    }\n\n    function payReward(uint256 dateMillis, address target, uint256 startDateMillis, uint256 amount, uint256 refund) external {\n        if (refund > 0) {\n            _ballot.refund(target, refund);\n        }\n        emit PayReward(dateMillis, target, startDateMillis, amount, refund);\n        _pay(target, amount);\n    }\n\n    function _pay(address target, uint256 amount) private {\n        require(target != address(0), \"invalid address\");\n        require(amount > 0, \"the amount should be bigger than 0\");\n        require(msg.sender == _foundation, \"only foundation can pay rewards\");\n        require(address(_registry) != address(0), \"the registry should be set\");\n        require(address(_ballot) != address(0), \"the ballot should be set\");\n        require(address(_token) != address(0), \"the token should be set\");\n        require(_token.balanceOf(address(this)) > amount, \"insufficient balance\");\n        _token.transfer(target, amount);\n    }\n\n    function claimRoyalty() external {\n        require(address(_registry) != address(0), \"the registry should be set\");\n        require(address(_token) != address(0), \"the token should be set\");\n        require(_royalties[msg.sender] > 0, \"nothing to claim\");\n        uint256 amount = _royalties[msg.sender];\n\n        emit ClaimRoyalty(_registry.getLastDateMillis(), msg.sender, amount);\n\n        _royalties[msg.sender] = 0;\n        _token.transfer(msg.sender, amount);\n    }\n\n    function claimReward() external {\n        require(address(_registry) != address(0), \"the registry should be set\");\n        require(address(_ballot) != address(0), \"the ballot should be set\");\n        require(address(_token) != address(0), \"the token should be set\");\n        require(_rewards[msg.sender] > 0, \"nothing to claim\");\n        uint256 amount = _rewards[msg.sender];\n        uint256 refund = _refunds[msg.sender];\n        if (refund > 0) {\n            _refunds[msg.sender] = 0;\n            _ballot.refund(msg.sender, refund);\n        }\n\n        emit ClaimReward(_registry.getLastDateMillis(), msg.sender, amount, refund);\n\n        _rewards[msg.sender] = 0;\n        _token.transfer(msg.sender, amount);\n    }\n}",
  "sourcePath": "/Users/jay/Documents/infraware/work/workspace-git/decompanyio/contracts/RewardPool.sol",
  "compiler": {
    "name": "solc",
    "version": "0.5.12+commit.7709ece9.Emscripten.clang"
  },
  "schemaVersion": "3.0.19",
  "updatedAt": "2019-11-18T06:46:46.948Z",
  "networkType": "ethereum",
  "devdoc": {
    "methods": {}
  },
  "userdoc": {
    "methods": {}
  }
}