{
  "contractName": "Utility",
  "abi": [
    {
      "constant": true,
      "inputs": [],
      "name": "getTimeMillis",
      "outputs": [
        {
          "name": "",
          "type": "uint256"
        }
      ],
      "payable": false,
      "stateMutability": "view",
      "type": "function"
    },
    {
      "constant": true,
      "inputs": [],
      "name": "getDateMillis",
      "outputs": [
        {
          "name": "",
          "type": "uint256"
        }
      ],
      "payable": false,
      "stateMutability": "view",
      "type": "function"
    },
    {
      "constant": true,
      "inputs": [
        {
          "name": "_from",
          "type": "uint256"
        }
      ],
      "name": "getOffsetYears",
      "outputs": [
        {
          "name": "",
          "type": "uint256"
        }
      ],
      "payable": false,
      "stateMutability": "view",
      "type": "function"
    },
    {
      "constant": true,
      "inputs": [],
      "name": "getOneDayMillis",
      "outputs": [
        {
          "name": "",
          "type": "uint256"
        }
      ],
      "payable": false,
      "stateMutability": "view",
      "type": "function"
    },
    {
      "constant": true,
      "inputs": [],
      "name": "getVoteDepositMillis",
      "outputs": [
        {
          "name": "",
          "type": "uint256"
        }
      ],
      "payable": false,
      "stateMutability": "view",
      "type": "function"
    },
    {
      "constant": true,
      "inputs": [],
      "name": "getVoteDepositDays",
      "outputs": [
        {
          "name": "",
          "type": "uint256"
        }
      ],
      "payable": false,
      "stateMutability": "view",
      "type": "function"
    },
    {
      "constant": true,
      "inputs": [
        {
          "name": "_percent",
          "type": "uint256"
        },
        {
          "name": "_createTime",
          "type": "uint256"
        }
      ],
      "name": "getDailyRewardPool",
      "outputs": [
        {
          "name": "",
          "type": "uint256"
        }
      ],
      "payable": false,
      "stateMutability": "view",
      "type": "function"
    }
  ],
  "bytecode": "0x60806040526305265c00600055600360015534801561001d57600080fd5b506102118061002d6000396000f3006080604052600436106100825763ffffffff7c01000000000000000000000000000000000000000000000000000000006000350416637ff8b20e811461008757806387721166146100ae578063bc27787e146100c3578063c0381222146100db578063cb41501e146100f0578063dcb8e50614610105578063f733ad9514610120575b600080fd5b34801561009357600080fd5b5061009c610135565b60408051918252519081900360200190f35b3480156100ba57600080fd5b5061009c610162565b3480156100cf57600080fd5b5061009c60043561016c565b3480156100e757600080fd5b5061009c61019b565b3480156100fc57600080fd5b5061009c6101a3565b34801561011157600080fd5b5061009c6004356024356101a9565b34801561012c57600080fd5b5061009c6101df565b60008060006103e860005481151561014957fe5b044281151561015457fe5b600054919004029392505050565b6000546001540290565b6000805442906103e880850491828403918591048281151561018a57fe5b61016d919004049695505050505050565b6103e8420290565b60015490565b60008060006101b78461016c565b915068591ccd47b39149a00090508160020a8582028115156101d557fe5b0495945050505050565b600054905600a165627a7a723058206c7c563aca4c7e967936c867532998527c734834b0b580b1cc690cf44f9a89bb0029",
  "source": "pragma solidity ^0.4.24;\n\ncontract Utility {\n\n  uint private ONE_DAY_MILLIS = 86400000;\n  uint private DEPOSIT_DAYS = 3;\n\n  function bytes32ToStr(bytes32 _bytes32) private pure returns (string) {\n    bytes memory bytesArray = new bytes(32);\n    for (uint256 i; i < 32; i++) {\n      bytesArray[i] = _bytes32[i];\n    }\n    return string(bytesArray);\n  }\n\n  function getTimeMillis() public view returns (uint) {\n    return block.timestamp * 1000;\n  }\n\n  function getDateMillis() public view returns (uint) {\n    uint tDay = uint(block.timestamp / uint(ONE_DAY_MILLIS / 1000));\n    uint tMillis = tDay * ONE_DAY_MILLIS;\n    return tMillis;\n  }\n\n  function getOffsetYears(uint _from) public view returns (uint) {\n    uint curTimeSec = block.timestamp;\n    uint createTimeSec = uint(_from / 1000);\n    uint offsetSec = curTimeSec - createTimeSec;\n    uint offsetDays = uint(offsetSec / uint(ONE_DAY_MILLIS / 1000));\n    return uint(offsetDays / 365);\n  }\n\n  function getOneDayMillis() public view returns (uint) {\n    return ONE_DAY_MILLIS;\n  }\n\n  function getVoteDepositMillis() public view returns (uint) {\n    return DEPOSIT_DAYS * ONE_DAY_MILLIS;\n  }\n\n  function getVoteDepositDays() public view returns (uint) {\n    return DEPOSIT_DAYS;\n  }\n\n  function getDailyRewardPool(uint _percent, uint _createTime) public view returns (uint) {\n    uint offsetYears = getOffsetYears(_createTime);\n    // initial daily reward pool tokens : (60000000 / 365) * decimals(10 ** 18) / percent(100)\n    uint initialTokens = 16438356164 * (10 ** 11);\n    return uint((initialTokens * _percent) / (2 ** offsetYears));\n  }\n}\n",
  "sourcePath": "/Users/centroine/Documents/github/bluebottle/contracts/Utility.sol",
  "compiler": {
    "name": "solc",
    "version": "0.4.24+commit.e67f0147.Emscripten.clang"
  },
  "schemaVersion": "2.0.1",
  "updatedAt": "2018-10-30T10:36:16.945Z"
}